{
	"src/scroll/ScrollRstETH.sol": {
		"ScrollRstETH": {
			"abi": [
				{
					"inputs": [
						{
							"internalType": "address",
							"name": "_stETHAddress",
							"type": "address"
						},
						{
							"internalType": "contract IStETHAdapter",
							"name": "_stETHAdapter",
							"type": "address"
						},
						{
							"internalType": "contract ScrollMessenger",
							"name": "_scrollMessenger",
							"type": "address"
						}
					],
					"stateMutability": "nonpayable",
					"type": "constructor"
				},
				{
					"inputs": [
						{
							"internalType": "address",
							"name": "spender",
							"type": "address"
						},
						{
							"internalType": "uint256",
							"name": "allowance",
							"type": "uint256"
						},
						{
							"internalType": "uint256",
							"name": "needed",
							"type": "uint256"
						}
					],
					"name": "ERC20InsufficientAllowance",
					"type": "error"
				},
				{
					"inputs": [
						{
							"internalType": "address",
							"name": "sender",
							"type": "address"
						},
						{
							"internalType": "uint256",
							"name": "balance",
							"type": "uint256"
						},
						{
							"internalType": "uint256",
							"name": "needed",
							"type": "uint256"
						}
					],
					"name": "ERC20InsufficientBalance",
					"type": "error"
				},
				{
					"inputs": [
						{
							"internalType": "address",
							"name": "approver",
							"type": "address"
						}
					],
					"name": "ERC20InvalidApprover",
					"type": "error"
				},
				{
					"inputs": [
						{
							"internalType": "address",
							"name": "receiver",
							"type": "address"
						}
					],
					"name": "ERC20InvalidReceiver",
					"type": "error"
				},
				{
					"inputs": [
						{
							"internalType": "address",
							"name": "sender",
							"type": "address"
						}
					],
					"name": "ERC20InvalidSender",
					"type": "error"
				},
				{
					"inputs": [
						{
							"internalType": "address",
							"name": "spender",
							"type": "address"
						}
					],
					"name": "ERC20InvalidSpender",
					"type": "error"
				},
				{
					"anonymous": false,
					"inputs": [
						{
							"indexed": true,
							"internalType": "address",
							"name": "owner",
							"type": "address"
						},
						{
							"indexed": true,
							"internalType": "address",
							"name": "spender",
							"type": "address"
						},
						{
							"indexed": false,
							"internalType": "uint256",
							"name": "value",
							"type": "uint256"
						}
					],
					"name": "Approval",
					"type": "event"
				},
				{
					"anonymous": false,
					"inputs": [
						{
							"indexed": true,
							"internalType": "address",
							"name": "from",
							"type": "address"
						},
						{
							"indexed": true,
							"internalType": "address",
							"name": "to",
							"type": "address"
						},
						{
							"indexed": false,
							"internalType": "uint256",
							"name": "value",
							"type": "uint256"
						}
					],
					"name": "Transfer",
					"type": "event"
				},
				{
					"inputs": [
						{
							"internalType": "address",
							"name": "owner",
							"type": "address"
						},
						{
							"internalType": "address",
							"name": "spender",
							"type": "address"
						}
					],
					"name": "allowance",
					"outputs": [
						{
							"internalType": "uint256",
							"name": "",
							"type": "uint256"
						}
					],
					"stateMutability": "view",
					"type": "function"
				},
				{
					"inputs": [
						{
							"internalType": "address",
							"name": "spender",
							"type": "address"
						},
						{
							"internalType": "uint256",
							"name": "value",
							"type": "uint256"
						}
					],
					"name": "approve",
					"outputs": [
						{
							"internalType": "bool",
							"name": "",
							"type": "bool"
						}
					],
					"stateMutability": "nonpayable",
					"type": "function"
				},
				{
					"inputs": [
						{
							"internalType": "address",
							"name": "account",
							"type": "address"
						}
					],
					"name": "balanceOf",
					"outputs": [
						{
							"internalType": "uint256",
							"name": "",
							"type": "uint256"
						}
					],
					"stateMutability": "view",
					"type": "function"
				},
				{
					"inputs": [],
					"name": "decimals",
					"outputs": [
						{
							"internalType": "uint8",
							"name": "",
							"type": "uint8"
						}
					],
					"stateMutability": "view",
					"type": "function"
				},
				{
					"inputs": [
						{
							"internalType": "uint256",
							"name": "_sharesAmount",
							"type": "uint256"
						}
					],
					"name": "getPooledEthByShares",
					"outputs": [
						{
							"internalType": "uint256",
							"name": "",
							"type": "uint256"
						}
					],
					"stateMutability": "view",
					"type": "function"
				},
				{
					"inputs": [
						{
							"internalType": "uint256",
							"name": "_eth",
							"type": "uint256"
						}
					],
					"name": "getSharesByEth",
					"outputs": [
						{
							"internalType": "uint256",
							"name": "",
							"type": "uint256"
						}
					],
					"stateMutability": "view",
					"type": "function"
				},
				{
					"inputs": [],
					"name": "getTotalPooledEther",
					"outputs": [
						{
							"internalType": "uint256",
							"name": "",
							"type": "uint256"
						}
					],
					"stateMutability": "view",
					"type": "function"
				},
				{
					"inputs": [
						{
							"internalType": "bytes32",
							"name": "_position",
							"type": "bytes32"
						}
					],
					"name": "getValForPosition",
					"outputs": [
						{
							"internalType": "uint256",
							"name": "",
							"type": "uint256"
						}
					],
					"stateMutability": "view",
					"type": "function"
				},
				{
					"inputs": [],
					"name": "name",
					"outputs": [
						{
							"internalType": "string",
							"name": "",
							"type": "string"
						}
					],
					"stateMutability": "view",
					"type": "function"
				},
				{
					"inputs": [
						{
							"internalType": "uint256",
							"name": "amount",
							"type": "uint256"
						}
					],
					"name": "payoutRstETH",
					"outputs": [],
					"stateMutability": "payable",
					"type": "function"
				},
				{
					"inputs": [
						{
							"internalType": "bytes",
							"name": "encodedMsg",
							"type": "bytes"
						}
					],
					"name": "receiveRstETH",
					"outputs": [],
					"stateMutability": "nonpayable",
					"type": "function"
				},
				{
					"inputs": [],
					"name": "scrollMessenger",
					"outputs": [
						{
							"internalType": "contract ScrollMessenger",
							"name": "",
							"type": "address"
						}
					],
					"stateMutability": "view",
					"type": "function"
				},
				{
					"inputs": [
						{
							"internalType": "uint256",
							"name": "_gasLimit",
							"type": "uint256"
						}
					],
					"name": "setGasLimit",
					"outputs": [],
					"stateMutability": "nonpayable",
					"type": "function"
				},
				{
					"inputs": [
						{
							"internalType": "contract ScrollMessenger",
							"name": "_scrollMessenger",
							"type": "address"
						}
					],
					"name": "setScrollMessenger",
					"outputs": [],
					"stateMutability": "nonpayable",
					"type": "function"
				},
				{
					"inputs": [
						{
							"internalType": "address",
							"name": "",
							"type": "address"
						}
					],
					"name": "sharesPerUser",
					"outputs": [
						{
							"internalType": "uint256",
							"name": "",
							"type": "uint256"
						}
					],
					"stateMutability": "view",
					"type": "function"
				},
				{
					"inputs": [],
					"name": "stETHAdapter",
					"outputs": [
						{
							"internalType": "contract IStETHAdapter",
							"name": "",
							"type": "address"
						}
					],
					"stateMutability": "view",
					"type": "function"
				},
				{
					"inputs": [],
					"name": "symbol",
					"outputs": [
						{
							"internalType": "string",
							"name": "",
							"type": "string"
						}
					],
					"stateMutability": "view",
					"type": "function"
				},
				{
					"inputs": [],
					"name": "totalSupply",
					"outputs": [
						{
							"internalType": "uint256",
							"name": "",
							"type": "uint256"
						}
					],
					"stateMutability": "view",
					"type": "function"
				},
				{
					"inputs": [
						{
							"internalType": "address",
							"name": "to",
							"type": "address"
						},
						{
							"internalType": "uint256",
							"name": "value",
							"type": "uint256"
						}
					],
					"name": "transfer",
					"outputs": [
						{
							"internalType": "bool",
							"name": "",
							"type": "bool"
						}
					],
					"stateMutability": "nonpayable",
					"type": "function"
				},
				{
					"inputs": [
						{
							"internalType": "address",
							"name": "from",
							"type": "address"
						},
						{
							"internalType": "address",
							"name": "to",
							"type": "address"
						},
						{
							"internalType": "uint256",
							"name": "value",
							"type": "uint256"
						}
					],
					"name": "transferFrom",
					"outputs": [
						{
							"internalType": "bool",
							"name": "",
							"type": "bool"
						}
					],
					"stateMutability": "nonpayable",
					"type": "function"
				},
				{
					"inputs": [],
					"name": "withdraw",
					"outputs": [],
					"stateMutability": "nonpayable",
					"type": "function"
				},
				{
					"stateMutability": "payable",
					"type": "receive"
				}
			],
			"devdoc": {
				"errors": {
					"ERC20InsufficientAllowance(address,uint256,uint256)": [
						{
							"details": "Indicates a failure with the `spender`’s `allowance`. Used in transfers.",
							"params": {
								"allowance": "Amount of tokens a `spender` is allowed to operate with.",
								"needed": "Minimum amount required to perform a transfer.",
								"spender": "Address that may be allowed to operate on tokens without being their owner."
							}
						}
					],
					"ERC20InsufficientBalance(address,uint256,uint256)": [
						{
							"details": "Indicates an error related to the current `balance` of a `sender`. Used in transfers.",
							"params": {
								"balance": "Current balance for the interacting account.",
								"needed": "Minimum amount required to perform a transfer.",
								"sender": "Address whose tokens are being transferred."
							}
						}
					],
					"ERC20InvalidApprover(address)": [
						{
							"details": "Indicates a failure with the `approver` of a token to be approved. Used in approvals.",
							"params": {
								"approver": "Address initiating an approval operation."
							}
						}
					],
					"ERC20InvalidReceiver(address)": [
						{
							"details": "Indicates a failure with the token `receiver`. Used in transfers.",
							"params": {
								"receiver": "Address to which tokens are being transferred."
							}
						}
					],
					"ERC20InvalidSender(address)": [
						{
							"details": "Indicates a failure with the token `sender`. Used in transfers.",
							"params": {
								"sender": "Address whose tokens are being transferred."
							}
						}
					],
					"ERC20InvalidSpender(address)": [
						{
							"details": "Indicates a failure with the `spender` to be approved. Used in approvals.",
							"params": {
								"spender": "Address that may be allowed to operate on tokens without being their owner."
							}
						}
					]
				},
				"events": {
					"Approval(address,address,uint256)": {
						"details": "Emitted when the allowance of a `spender` for an `owner` is set by a call to {approve}. `value` is the new allowance."
					},
					"Transfer(address,address,uint256)": {
						"details": "Emitted when `value` tokens are moved from one account (`from`) to another (`to`). Note that `value` may be zero."
					}
				},
				"kind": "dev",
				"methods": {
					"allowance(address,address)": {
						"details": "See {IERC20-allowance}."
					},
					"approve(address,uint256)": {
						"details": "See {IERC20-approve}. NOTE: If `value` is the maximum `uint256`, the allowance is not updated on `transferFrom`. This is semantically equivalent to an infinite approval. Requirements: - `spender` cannot be the zero address."
					},
					"balanceOf(address)": {
						"details": "See {IERC20-balanceOf}."
					},
					"decimals()": {
						"details": "Returns the number of decimals used to get its user representation. For example, if `decimals` equals `2`, a balance of `505` tokens should be displayed to a user as `5.05` (`505 / 10 ** 2`). Tokens usually opt for a value of 18, imitating the relationship between Ether and Wei. This is the default value returned by this function, unless it's overridden. NOTE: This information is only used for _display_ purposes: it in no way affects any of the arithmetic of the contract, including {IERC20-balanceOf} and {IERC20-transfer}."
					},
					"name()": {
						"details": "Returns the name of the token."
					},
					"symbol()": {
						"details": "Returns the symbol of the token, usually a shorter version of the name."
					},
					"totalSupply()": {
						"details": "See {IERC20-totalSupply}."
					},
					"transfer(address,uint256)": {
						"details": "See {IERC20-transfer}. Requirements: - `to` cannot be the zero address. - the caller must have a balance of at least `value`."
					},
					"transferFrom(address,address,uint256)": {
						"details": "See {IERC20-transferFrom}. Skips emitting an {Approval} event indicating an allowance update. This is not required by the ERC. See {xref-ERC20-_approve-address-address-uint256-bool-}[_approve]. NOTE: Does not update the allowance if the current allowance is the maximum `uint256`. Requirements: - `from` and `to` cannot be the zero address. - `from` must have a balance of at least `value`. - the caller must have allowance for ``from``'s tokens of at least `value`."
					}
				},
				"version": 1
			},
			"evm": {
				"assembly": "    /* \"src/scroll/ScrollRstETH.sol\":337:4874  contract ScrollRstETH is ERC20, IScrollRstETH {... */\n  mstore(0x40, 0xa0)\n    /* \"src/scroll/ScrollRstETH.sol\":1611:1618  1000000 */\n  0x0f4240\n    /* \"src/scroll/ScrollRstETH.sol\":1591:1618  uint256 GAS_LIMIT = 1000000 */\n  0x07\n  sstore\n    /* \"src/scroll/ScrollRstETH.sol\":1922:2191  constructor(address _stETHAddress, IStETHAdapter _stETHAdapter, ScrollMessenger _scrollMessenger ) ERC20(\"Rebaseable Staked Ether\", \"rstETH\") {... */\n  callvalue\n  dup1\n  iszero\n  tag_1\n  jumpi\n  revert(0x00, 0x00)\ntag_1:\n  pop\n  mload(0x40)\n  sub(codesize, bytecodeSize)\n  dup1\n  bytecodeSize\n  dup4\n  codecopy\n  dup2\n  add\n  0x40\n  dup2\n  swap1\n  mstore\n  tag_2\n  swap2\n  tag_3\n  jump\t// in\ntag_2:\n    /* \"lib/openzeppelin-contracts/contracts/token/ERC20/ERC20.sol\":1601:1714  constructor(string memory name_, string memory symbol_) {... */\n  mload(0x40)\n  dup1\n  0x40\n  add\n  0x40\n  mstore\n  dup1\n  0x17\n  dup2\n  mstore\n  0x20\n  add\n  0x52656261736561626c65205374616b6564204574686572000000000000000000\n  dup2\n  mstore\n  pop\n  mload(0x40)\n  dup1\n  0x40\n  add\n  0x40\n  mstore\n  dup1\n  0x06\n  dup2\n  mstore\n  0x20\n  add\n  shl(0xd3, 0x0e4e6e88aa89)\n  dup2\n  mstore\n  pop\n    /* \"lib/openzeppelin-contracts/contracts/token/ERC20/ERC20.sol\":1675:1680  name_ */\n  dup2\n    /* \"lib/openzeppelin-contracts/contracts/token/ERC20/ERC20.sol\":1667:1672  _name */\n  0x03\n    /* \"lib/openzeppelin-contracts/contracts/token/ERC20/ERC20.sol\":1667:1680  _name = name_ */\n  swap1\n  dup2\n  tag_7\n  swap2\n  swap1\n  tag_8\n  jump\t// in\ntag_7:\n  pop\n    /* \"lib/openzeppelin-contracts/contracts/token/ERC20/ERC20.sol\":1690:1697  _symbol */\n  0x04\n    /* \"lib/openzeppelin-contracts/contracts/token/ERC20/ERC20.sol\":1690:1707  _symbol = symbol_ */\n  tag_9\n    /* \"lib/openzeppelin-contracts/contracts/token/ERC20/ERC20.sol\":1700:1707  symbol_ */\n  dup3\n    /* \"lib/openzeppelin-contracts/contracts/token/ERC20/ERC20.sol\":1690:1697  _symbol */\n  dup3\n    /* \"lib/openzeppelin-contracts/contracts/token/ERC20/ERC20.sol\":1690:1707  _symbol = symbol_ */\n  tag_8\n  jump\t// in\ntag_9:\n  pop\n  pop\n  pop\n  sub(shl(0xa0, 0x01), 0x01)\n    /* \"src/scroll/ScrollRstETH.sol\":2074:2102  stETHAddress = _stETHAddress */\n  swap3\n  dup4\n  and\n  0x80\n  mstore\n    /* \"src/scroll/ScrollRstETH.sol\":2112:2124  stETHAdapter */\n  0x06\n    /* \"src/scroll/ScrollRstETH.sol\":2112:2140  stETHAdapter = _stETHAdapter */\n  dup1\n  sload\n  swap3\n  dup5\n  and\n  not(sub(shl(0xa0, 0x01), 0x01))\n  swap4\n  dup5\n  and\n  or\n  swap1\n  sstore\n    /* \"src/scroll/ScrollRstETH.sol\":2150:2165  scrollMessenger */\n  0x05\n    /* \"src/scroll/ScrollRstETH.sol\":2150:2184  scrollMessenger = _scrollMessenger */\n  dup1\n  sload\n  swap2\n  swap1\n  swap4\n  and\n  swap2\n  and\n  or\n  swap1\n  sstore\n    /* \"src/scroll/ScrollRstETH.sol\":337:4874  contract ScrollRstETH is ERC20, IScrollRstETH {... */\n  jump(tag_18)\n    /* \"#utility.yul\":14:145   */\ntag_12:\n  sub(shl(0xa0, 0x01), 0x01)\n    /* \"#utility.yul\":89:120   */\n  dup2\n  and\n    /* \"#utility.yul\":79:121   */\n  dup2\n  eq\n    /* \"#utility.yul\":69:139   */\n  tag_20\n  jumpi\n    /* \"#utility.yul\":135:136   */\n  0x00\n    /* \"#utility.yul\":132:133   */\n  0x00\n    /* \"#utility.yul\":125:137   */\n  revert\n    /* \"#utility.yul\":69:139   */\ntag_20:\n    /* \"#utility.yul\":14:145   */\n  pop\n  jump\t// out\n    /* \"#utility.yul\":150:714   */\ntag_3:\n    /* \"#utility.yul\":283:289   */\n  0x00\n    /* \"#utility.yul\":291:297   */\n  0x00\n    /* \"#utility.yul\":299:305   */\n  0x00\n    /* \"#utility.yul\":352:354   */\n  0x60\n    /* \"#utility.yul\":340:349   */\n  dup5\n    /* \"#utility.yul\":331:338   */\n  dup7\n    /* \"#utility.yul\":327:350   */\n  sub\n    /* \"#utility.yul\":323:355   */\n  slt\n    /* \"#utility.yul\":320:372   */\n  iszero\n  tag_22\n  jumpi\n    /* \"#utility.yul\":368:369   */\n  0x00\n    /* \"#utility.yul\":365:366   */\n  0x00\n    /* \"#utility.yul\":358:370   */\n  revert\n    /* \"#utility.yul\":320:372   */\ntag_22:\n    /* \"#utility.yul\":400:409   */\n  dup4\n    /* \"#utility.yul\":394:410   */\n  mload\n    /* \"#utility.yul\":419:450   */\n  tag_23\n    /* \"#utility.yul\":444:449   */\n  dup2\n    /* \"#utility.yul\":419:450   */\n  tag_12\n  jump\t// in\ntag_23:\n    /* \"#utility.yul\":519:521   */\n  0x20\n    /* \"#utility.yul\":504:522   */\n  dup6\n  add\n    /* \"#utility.yul\":498:523   */\n  mload\n    /* \"#utility.yul\":469:474   */\n  swap1\n  swap4\n  pop\n    /* \"#utility.yul\":532:565   */\n  tag_24\n    /* \"#utility.yul\":498:523   */\n  dup2\n    /* \"#utility.yul\":532:565   */\n  tag_12\n  jump\t// in\ntag_24:\n    /* \"#utility.yul\":636:638   */\n  0x40\n    /* \"#utility.yul\":621:639   */\n  dup6\n  add\n    /* \"#utility.yul\":615:640   */\n  mload\n    /* \"#utility.yul\":584:591   */\n  swap1\n  swap3\n  pop\n    /* \"#utility.yul\":649:682   */\n  tag_25\n    /* \"#utility.yul\":615:640   */\n  dup2\n    /* \"#utility.yul\":649:682   */\n  tag_12\n  jump\t// in\ntag_25:\n    /* \"#utility.yul\":701:708   */\n  dup1\n    /* \"#utility.yul\":691:708   */\n  swap2\n  pop\n  pop\n    /* \"#utility.yul\":150:714   */\n  swap3\n  pop\n  swap3\n  pop\n  swap3\n  jump\t// out\n    /* \"#utility.yul\":719:846   */\ntag_13:\n    /* \"#utility.yul\":780:790   */\n  0x4e487b71\n    /* \"#utility.yul\":775:778   */\n  0xe0\n    /* \"#utility.yul\":771:791   */\n  shl\n    /* \"#utility.yul\":768:769   */\n  0x00\n    /* \"#utility.yul\":761:792   */\n  mstore\n    /* \"#utility.yul\":811:815   */\n  0x41\n    /* \"#utility.yul\":808:809   */\n  0x04\n    /* \"#utility.yul\":801:816   */\n  mstore\n    /* \"#utility.yul\":835:839   */\n  0x24\n    /* \"#utility.yul\":832:833   */\n  0x00\n    /* \"#utility.yul\":825:840   */\n  revert\n    /* \"#utility.yul\":851:1231   */\ntag_14:\n    /* \"#utility.yul\":930:931   */\n  0x01\n    /* \"#utility.yul\":926:938   */\n  dup2\n  dup2\n  shr\n  swap1\n    /* \"#utility.yul\":973:985   */\n  dup3\n  and\n  dup1\n    /* \"#utility.yul\":994:1055   */\n  tag_28\n  jumpi\n    /* \"#utility.yul\":1048:1052   */\n  0x7f\n    /* \"#utility.yul\":1040:1046   */\n  dup3\n    /* \"#utility.yul\":1036:1053   */\n  and\n    /* \"#utility.yul\":1026:1053   */\n  swap2\n  pop\n    /* \"#utility.yul\":994:1055   */\ntag_28:\n    /* \"#utility.yul\":1101:1103   */\n  0x20\n    /* \"#utility.yul\":1093:1099   */\n  dup3\n    /* \"#utility.yul\":1090:1104   */\n  lt\n    /* \"#utility.yul\":1070:1088   */\n  dup2\n    /* \"#utility.yul\":1067:1105   */\n  sub\n    /* \"#utility.yul\":1064:1225   */\n  tag_29\n  jumpi\n    /* \"#utility.yul\":1147:1157   */\n  0x4e487b71\n    /* \"#utility.yul\":1142:1145   */\n  0xe0\n    /* \"#utility.yul\":1138:1158   */\n  shl\n    /* \"#utility.yul\":1135:1136   */\n  0x00\n    /* \"#utility.yul\":1128:1159   */\n  mstore\n    /* \"#utility.yul\":1182:1186   */\n  0x22\n    /* \"#utility.yul\":1179:1180   */\n  0x04\n    /* \"#utility.yul\":1172:1187   */\n  mstore\n    /* \"#utility.yul\":1210:1214   */\n  0x24\n    /* \"#utility.yul\":1207:1208   */\n  0x00\n    /* \"#utility.yul\":1200:1215   */\n  revert\n    /* \"#utility.yul\":1064:1225   */\ntag_29:\n  pop\n    /* \"#utility.yul\":851:1231   */\n  swap2\n  swap1\n  pop\n  jump\t// out\n    /* \"#utility.yul\":1362:1880   */\ntag_16:\n    /* \"#utility.yul\":1464:1466   */\n  0x1f\n    /* \"#utility.yul\":1459:1462   */\n  dup3\n    /* \"#utility.yul\":1456:1467   */\n  gt\n    /* \"#utility.yul\":1453:1874   */\n  iszero\n  tag_32\n  jumpi\n    /* \"#utility.yul\":1500:1505   */\n  dup1\n    /* \"#utility.yul\":1497:1498   */\n  0x00\n    /* \"#utility.yul\":1490:1506   */\n  mstore\n    /* \"#utility.yul\":1544:1548   */\n  0x20\n    /* \"#utility.yul\":1541:1542   */\n  0x00\n    /* \"#utility.yul\":1531:1549   */\n  keccak256\n    /* \"#utility.yul\":1614:1616   */\n  0x1f\n    /* \"#utility.yul\":1602:1612   */\n  dup5\n    /* \"#utility.yul\":1598:1617   */\n  add\n    /* \"#utility.yul\":1595:1596   */\n  0x05\n    /* \"#utility.yul\":1591:1618   */\n  shr\n    /* \"#utility.yul\":1585:1589   */\n  dup2\n    /* \"#utility.yul\":1581:1619   */\n  add\n    /* \"#utility.yul\":1650:1654   */\n  0x20\n    /* \"#utility.yul\":1638:1648   */\n  dup6\n    /* \"#utility.yul\":1635:1655   */\n  lt\n    /* \"#utility.yul\":1632:1679   */\n  iszero\n  tag_33\n  jumpi\n  pop\n    /* \"#utility.yul\":1673:1677   */\n  dup1\n    /* \"#utility.yul\":1632:1679   */\ntag_33:\n    /* \"#utility.yul\":1728:1730   */\n  0x1f\n    /* \"#utility.yul\":1723:1726   */\n  dup5\n    /* \"#utility.yul\":1719:1731   */\n  add\n    /* \"#utility.yul\":1716:1717   */\n  0x05\n    /* \"#utility.yul\":1712:1732   */\n  shr\n    /* \"#utility.yul\":1706:1710   */\n  dup3\n    /* \"#utility.yul\":1702:1733   */\n  add\n    /* \"#utility.yul\":1692:1733   */\n  swap2\n  pop\n    /* \"#utility.yul\":1783:1864   */\ntag_34:\n    /* \"#utility.yul\":1801:1803   */\n  dup2\n    /* \"#utility.yul\":1794:1799   */\n  dup2\n    /* \"#utility.yul\":1791:1804   */\n  lt\n    /* \"#utility.yul\":1783:1864   */\n  iszero\n  tag_36\n  jumpi\n    /* \"#utility.yul\":1860:1861   */\n  0x00\n    /* \"#utility.yul\":1846:1862   */\n  dup2\n  sstore\n    /* \"#utility.yul\":1827:1828   */\n  0x01\n    /* \"#utility.yul\":1816:1829   */\n  add\n    /* \"#utility.yul\":1783:1864   */\n  jump(tag_34)\ntag_36:\n    /* \"#utility.yul\":1787:1790   */\n  pop\n  pop\n    /* \"#utility.yul\":1453:1874   */\ntag_32:\n    /* \"#utility.yul\":1362:1880   */\n  pop\n  pop\n  pop\n  jump\t// out\n    /* \"#utility.yul\":2056:3355   */\ntag_8:\n    /* \"#utility.yul\":2176:2186   */\n  dup2\n  mload\n  sub(shl(0x40, 0x01), 0x01)\n    /* \"#utility.yul\":2198:2228   */\n  dup2\n  gt\n    /* \"#utility.yul\":2195:2251   */\n  iszero\n  tag_40\n  jumpi\n    /* \"#utility.yul\":2231:2249   */\n  tag_40\n  tag_13\n  jump\t// in\ntag_40:\n    /* \"#utility.yul\":2260:2357   */\n  tag_41\n    /* \"#utility.yul\":2350:2356   */\n  dup2\n    /* \"#utility.yul\":2310:2348   */\n  tag_42\n    /* \"#utility.yul\":2342:2346   */\n  dup5\n    /* \"#utility.yul\":2336:2347   */\n  sload\n    /* \"#utility.yul\":2310:2348   */\n  tag_14\n  jump\t// in\ntag_42:\n    /* \"#utility.yul\":2304:2308   */\n  dup5\n    /* \"#utility.yul\":2260:2357   */\n  tag_16\n  jump\t// in\ntag_41:\n    /* \"#utility.yul\":2406:2410   */\n  0x20\n    /* \"#utility.yul\":2437:2439   */\n  0x1f\n    /* \"#utility.yul\":2426:2440   */\n  dup3\n  gt\n    /* \"#utility.yul\":2454:2455   */\n  0x01\n    /* \"#utility.yul\":2449:3098   */\n  dup2\n  eq\n  tag_44\n  jumpi\n    /* \"#utility.yul\":3142:3143   */\n  0x00\n    /* \"#utility.yul\":3159:3165   */\n  dup4\n    /* \"#utility.yul\":3156:3245   */\n  iszero\n  tag_45\n  jumpi\n  pop\n    /* \"#utility.yul\":3211:3230   */\n  dup5\n  dup3\n  add\n    /* \"#utility.yul\":3205:3231   */\n  mload\n    /* \"#utility.yul\":3156:3245   */\ntag_45:\n  not(0x00)\n    /* \"#utility.yul\":2013:2014   */\n  0x03\n    /* \"#utility.yul\":2009:2020   */\n  dup6\n  swap1\n  shl\n    /* \"#utility.yul\":2005:2029   */\n  shr\n    /* \"#utility.yul\":2001:2030   */\n  not\n    /* \"#utility.yul\":1991:2031   */\n  and\n    /* \"#utility.yul\":2037:2038   */\n  0x01\n    /* \"#utility.yul\":2033:2044   */\n  dup5\n  swap1\n  shl\n    /* \"#utility.yul\":1988:2045   */\n  or\n    /* \"#utility.yul\":3258:3339   */\n  dup5\n  sstore\n    /* \"#utility.yul\":2419:3349   */\n  jump(tag_36)\n    /* \"#utility.yul\":2449:3098   */\ntag_44:\n    /* \"#utility.yul\":1309:1310   */\n  0x00\n    /* \"#utility.yul\":1302:1316   */\n  dup5\n  dup2\n  mstore\n    /* \"#utility.yul\":1346:1350   */\n  0x20\n    /* \"#utility.yul\":1333:1351   */\n  dup2\n  keccak256\n  not(0x1f)\n    /* \"#utility.yul\":2485:2505   */\n  dup6\n  and\n  swap2\n    /* \"#utility.yul\":2603:2825   */\ntag_48:\n    /* \"#utility.yul\":2617:2624   */\n  dup3\n    /* \"#utility.yul\":2614:2615   */\n  dup2\n    /* \"#utility.yul\":2611:2625   */\n  lt\n    /* \"#utility.yul\":2603:2825   */\n  iszero\n  tag_50\n  jumpi\n    /* \"#utility.yul\":2699:2718   */\n  dup8\n  dup6\n  add\n    /* \"#utility.yul\":2693:2719   */\n  mload\n    /* \"#utility.yul\":2678:2720   */\n  dup3\n  sstore\n    /* \"#utility.yul\":2806:2810   */\n  0x20\n    /* \"#utility.yul\":2791:2811   */\n  swap5\n  dup6\n  add\n  swap5\n    /* \"#utility.yul\":2759:2760   */\n  0x01\n    /* \"#utility.yul\":2747:2761   */\n  swap1\n  swap3\n  add\n  swap2\n    /* \"#utility.yul\":2633:2645   */\n  add\n    /* \"#utility.yul\":2603:2825   */\n  jump(tag_48)\ntag_50:\n    /* \"#utility.yul\":2607:2610   */\n  pop\n    /* \"#utility.yul\":2853:2859   */\n  dup5\n    /* \"#utility.yul\":2844:2851   */\n  dup3\n    /* \"#utility.yul\":2841:2860   */\n  lt\n    /* \"#utility.yul\":2838:3039   */\n  iszero\n  tag_51\n  jumpi\n    /* \"#utility.yul\":2914:2933   */\n  dup7\n  dup5\n  add\n    /* \"#utility.yul\":2908:2934   */\n  mload\n  not(0x00)\n    /* \"#utility.yul\":2997:2998   */\n  0x03\n    /* \"#utility.yul\":2993:3007   */\n  dup8\n  swap1\n  shl\n    /* \"#utility.yul\":3009:3012   */\n  0xf8\n    /* \"#utility.yul\":2989:3013   */\n  and\n    /* \"#utility.yul\":2985:3022   */\n  shr\n    /* \"#utility.yul\":2981:3023   */\n  not\n    /* \"#utility.yul\":2966:3024   */\n  and\n    /* \"#utility.yul\":2951:3025   */\n  dup2\n  sstore\n    /* \"#utility.yul\":2838:3039   */\ntag_51:\n  pop\n  pop\n  pop\n  pop\n    /* \"#utility.yul\":3085:3086   */\n  0x01\n    /* \"#utility.yul\":3069:3083   */\n  swap1\n  dup2\n  shl\n    /* \"#utility.yul\":3065:3087   */\n  add\n    /* \"#utility.yul\":3052:3088   */\n  swap1\n  sstore\n  pop\n    /* \"#utility.yul\":2056:3355   */\n  jump\t// out\ntag_18:\n    /* \"src/scroll/ScrollRstETH.sol\":337:4874  contract ScrollRstETH is ERC20, IScrollRstETH {... */\n  mload(0x80)\n  codecopy(0x00, dataOffset(sub_0), dataSize(sub_0))\n  0x00\n  assignImmutable(\"0x5002dac29dd1f5eca27c266c7f22886fef1ca01133bd005217e0a31b1b246599\")\n  return(0x00, dataSize(sub_0))\nstop\n\nsub_0: assembly {\n        /* \"src/scroll/ScrollRstETH.sol\":337:4874  contract ScrollRstETH is ERC20, IScrollRstETH {... */\n      mstore(0x40, 0x80)\n      jumpi(tag_1, lt(calldatasize, 0x04))\n      shr(0xe0, calldataload(0x00))\n      dup1\n      0x7a28fb88\n      gt\n      tag_24\n      jumpi\n      dup1\n      0xa6488c94\n      gt\n      tag_25\n      jumpi\n      dup1\n      0xa6488c94\n      eq\n      tag_18\n      jumpi\n      dup1\n      0xa7083dfb\n      eq\n      tag_19\n      jumpi\n      dup1\n      0xa9059cbb\n      eq\n      tag_20\n      jumpi\n      dup1\n      0xd2087ad9\n      eq\n      tag_21\n      jumpi\n      dup1\n      0xdd62ed3e\n      eq\n      tag_22\n      jumpi\n      dup1\n      0xee7d72b4\n      eq\n      tag_23\n      jumpi\n      revert(0x00, 0x00)\n    tag_25:\n      dup1\n      0x7a28fb88\n      eq\n      tag_13\n      jumpi\n      dup1\n      0x7e46ade6\n      eq\n      tag_14\n      jumpi\n      dup1\n      0x841b1b74\n      eq\n      tag_15\n      jumpi\n      dup1\n      0x95d89b41\n      eq\n      tag_16\n      jumpi\n      dup1\n      0x9dc6943a\n      eq\n      tag_17\n      jumpi\n      revert(0x00, 0x00)\n    tag_24:\n      dup1\n      0x37cfdaca\n      gt\n      tag_26\n      jumpi\n      dup1\n      0x37cfdaca\n      eq\n      tag_8\n      jumpi\n      dup1\n      0x3ccfd60b\n      eq\n      tag_9\n      jumpi\n      dup1\n      0x48727dc4\n      eq\n      tag_10\n      jumpi\n      dup1\n      0x5e0f7d39\n      eq\n      tag_11\n      jumpi\n      dup1\n      0x70a08231\n      eq\n      tag_12\n      jumpi\n      revert(0x00, 0x00)\n    tag_26:\n      dup1\n      0x06fdde03\n      eq\n      tag_3\n      jumpi\n      dup1\n      0x095ea7b3\n      eq\n      tag_4\n      jumpi\n      dup1\n      0x18160ddd\n      eq\n      tag_5\n      jumpi\n      dup1\n      0x23b872dd\n      eq\n      tag_6\n      jumpi\n      dup1\n      0x313ce567\n      eq\n      tag_7\n      jumpi\n      revert(0x00, 0x00)\n    tag_1:\n      jumpi(tag_2, calldatasize)\n      stop\n    tag_2:\n      revert(0x00, 0x00)\n        /* \"lib/openzeppelin-contracts/contracts/token/ERC20/ERC20.sol\":1779:1868  function name() public view virtual returns (string memory) {... */\n    tag_3:\n      callvalue\n      dup1\n      iszero\n      tag_29\n      jumpi\n      revert(0x00, 0x00)\n    tag_29:\n      pop\n      tag_30\n      tag_31\n      jump\t// in\n    tag_30:\n      mload(0x40)\n      tag_32\n      swap2\n      swap1\n      tag_33\n      jump\t// in\n    tag_32:\n      mload(0x40)\n      dup1\n      swap2\n      sub\n      swap1\n      return\n        /* \"lib/openzeppelin-contracts/contracts/token/ERC20/ERC20.sol\":3998:4184  function approve(address spender, uint256 value) public virtual returns (bool) {... */\n    tag_4:\n      callvalue\n      dup1\n      iszero\n      tag_34\n      jumpi\n      revert(0x00, 0x00)\n    tag_34:\n      pop\n      tag_35\n      tag_36\n      calldatasize\n      0x04\n      tag_37\n      jump\t// in\n    tag_36:\n      tag_38\n      jump\t// in\n    tag_35:\n      mload(0x40)\n        /* \"#utility.yul\":1206:1220   */\n      swap1\n      iszero\n        /* \"#utility.yul\":1199:1221   */\n      iszero\n        /* \"#utility.yul\":1181:1222   */\n      dup2\n      mstore\n        /* \"#utility.yul\":1169:1171   */\n      0x20\n        /* \"#utility.yul\":1154:1172   */\n      add\n        /* \"lib/openzeppelin-contracts/contracts/token/ERC20/ERC20.sol\":3998:4184  function approve(address spender, uint256 value) public virtual returns (bool) {... */\n      tag_32\n        /* \"#utility.yul\":1041:1228   */\n      jump\n        /* \"lib/openzeppelin-contracts/contracts/token/ERC20/ERC20.sol\":2849:2946  function totalSupply() public view virtual returns (uint256) {... */\n    tag_5:\n      callvalue\n      dup1\n      iszero\n      tag_41\n      jumpi\n      revert(0x00, 0x00)\n    tag_41:\n      pop\n        /* \"lib/openzeppelin-contracts/contracts/token/ERC20/ERC20.sol\":2927:2939  _totalSupply */\n      sload(0x02)\n        /* \"lib/openzeppelin-contracts/contracts/token/ERC20/ERC20.sol\":2849:2946  function totalSupply() public view virtual returns (uint256) {... */\n    tag_42:\n      mload(0x40)\n        /* \"#utility.yul\":1379:1404   */\n      swap1\n      dup2\n      mstore\n        /* \"#utility.yul\":1367:1369   */\n      0x20\n        /* \"#utility.yul\":1352:1370   */\n      add\n        /* \"lib/openzeppelin-contracts/contracts/token/ERC20/ERC20.sol\":2849:2946  function totalSupply() public view virtual returns (uint256) {... */\n      tag_32\n        /* \"#utility.yul\":1233:1410   */\n      jump\n        /* \"lib/openzeppelin-contracts/contracts/token/ERC20/ERC20.sol\":4776:5020  function transferFrom(address from, address to, uint256 value) public virtual returns (bool) {... */\n    tag_6:\n      callvalue\n      dup1\n      iszero\n      tag_46\n      jumpi\n      revert(0x00, 0x00)\n    tag_46:\n      pop\n      tag_35\n      tag_48\n      calldatasize\n      0x04\n      tag_49\n      jump\t// in\n    tag_48:\n      tag_50\n      jump\t// in\n        /* \"lib/openzeppelin-contracts/contracts/token/ERC20/ERC20.sol\":2707:2789  function decimals() public view virtual returns (uint8) {... */\n    tag_7:\n      callvalue\n      dup1\n      iszero\n      tag_52\n      jumpi\n      revert(0x00, 0x00)\n    tag_52:\n      pop\n      mload(0x40)\n        /* \"lib/openzeppelin-contracts/contracts/token/ERC20/ERC20.sol\":2780:2782  18 */\n      0x12\n        /* \"#utility.yul\":2070:2106   */\n      dup2\n      mstore\n        /* \"#utility.yul\":2058:2060   */\n      0x20\n        /* \"#utility.yul\":2043:2061   */\n      add\n        /* \"lib/openzeppelin-contracts/contracts/token/ERC20/ERC20.sol\":2707:2789  function decimals() public view virtual returns (uint8) {... */\n      tag_32\n        /* \"#utility.yul\":1928:2112   */\n      jump\n        /* \"src/scroll/ScrollRstETH.sol\":3836:4041  function getTotalPooledEther() public view returns (uint256) {... */\n    tag_8:\n      callvalue\n      dup1\n      iszero\n      tag_57\n      jumpi\n      revert(0x00, 0x00)\n    tag_57:\n      pop\n      tag_42\n      tag_59\n      jump\t// in\n        /* \"src/scroll/ScrollRstETH.sol\":4696:4836  function withdraw() external {... */\n    tag_9:\n      callvalue\n      dup1\n      iszero\n      tag_61\n      jumpi\n      revert(0x00, 0x00)\n    tag_61:\n      pop\n      tag_62\n      tag_63\n      jump\t// in\n    tag_62:\n      stop\n        /* \"src/scroll/ScrollRstETH.sol\":2197:2320  function setScrollMessenger(ScrollMessenger _scrollMessenger) external  {... */\n    tag_10:\n      callvalue\n      dup1\n      iszero\n      tag_64\n      jumpi\n      revert(0x00, 0x00)\n    tag_64:\n      pop\n      tag_62\n      tag_66\n      calldatasize\n      0x04\n      tag_67\n      jump\t// in\n    tag_66:\n        /* \"src/scroll/ScrollRstETH.sol\":2279:2294  scrollMessenger */\n      0x05\n        /* \"src/scroll/ScrollRstETH.sol\":2279:2313  scrollMessenger = _scrollMessenger */\n      dup1\n      sload\n      not(sub(shl(0xa0, 0x01), 0x01))\n      and\n      sub(shl(0xa0, 0x01), 0x01)\n      swap3\n      swap1\n      swap3\n      and\n      swap2\n      swap1\n      swap2\n      or\n      swap1\n      sstore\n        /* \"src/scroll/ScrollRstETH.sol\":2197:2320  function setScrollMessenger(ScrollMessenger _scrollMessenger) external  {... */\n      jump\n        /* \"src/scroll/ScrollRstETH.sol\":1551:1584  IStETHAdapter public stETHAdapter */\n    tag_11:\n      callvalue\n      dup1\n      iszero\n      tag_69\n      jumpi\n      revert(0x00, 0x00)\n    tag_69:\n      pop\n      sload(0x06)\n      tag_70\n      swap1\n      sub(shl(0xa0, 0x01), 0x01)\n      and\n      dup2\n      jump\n    tag_70:\n      mload(0x40)\n      sub(shl(0xa0, 0x01), 0x01)\n        /* \"#utility.yul\":2578:2610   */\n      swap1\n      swap2\n      and\n        /* \"#utility.yul\":2560:2611   */\n      dup2\n      mstore\n        /* \"#utility.yul\":2548:2550   */\n      0x20\n        /* \"#utility.yul\":2533:2551   */\n      add\n        /* \"src/scroll/ScrollRstETH.sol\":1551:1584  IStETHAdapter public stETHAdapter */\n      tag_32\n        /* \"#utility.yul\":2393:2617   */\n      jump\n        /* \"lib/openzeppelin-contracts/contracts/token/ERC20/ERC20.sol\":3004:3120  function balanceOf(address account) public view virtual returns (uint256) {... */\n    tag_12:\n      callvalue\n      dup1\n      iszero\n      tag_74\n      jumpi\n      revert(0x00, 0x00)\n    tag_74:\n      pop\n      tag_42\n      tag_76\n      calldatasize\n      0x04\n      tag_67\n      jump\t// in\n    tag_76:\n      sub(shl(0xa0, 0x01), 0x01)\n        /* \"lib/openzeppelin-contracts/contracts/token/ERC20/ERC20.sol\":3095:3113  _balances[account] */\n      and\n        /* \"lib/openzeppelin-contracts/contracts/token/ERC20/ERC20.sol\":3069:3076  uint256 */\n      0x00\n        /* \"lib/openzeppelin-contracts/contracts/token/ERC20/ERC20.sol\":3095:3113  _balances[account] */\n      swap1\n      dup2\n      mstore\n      0x20\n      dup2\n      swap1\n      mstore\n      0x40\n      swap1\n      keccak256\n      sload\n      swap1\n        /* \"lib/openzeppelin-contracts/contracts/token/ERC20/ERC20.sol\":3004:3120  function balanceOf(address account) public view virtual returns (uint256) {... */\n      jump\n        /* \"src/scroll/ScrollRstETH.sol\":3225:3483  function getPooledEthByShares(uint256 _sharesAmount) public view returns (uint256) {... */\n    tag_13:\n      callvalue\n      dup1\n      iszero\n      tag_80\n      jumpi\n      revert(0x00, 0x00)\n    tag_80:\n      pop\n      tag_42\n      tag_82\n      calldatasize\n      0x04\n      tag_83\n      jump\t// in\n    tag_82:\n      tag_84\n      jump\t// in\n        /* \"src/scroll/ScrollRstETH.sol\":1625:1673  mapping(address => uint256) public sharesPerUser */\n    tag_14:\n      callvalue\n      dup1\n      iszero\n      tag_86\n      jumpi\n      revert(0x00, 0x00)\n    tag_86:\n      pop\n      tag_42\n      tag_88\n      calldatasize\n      0x04\n      tag_67\n      jump\t// in\n    tag_88:\n      mstore(0x20, 0x08)\n      0x00\n      swap1\n      dup2\n      mstore\n      0x40\n      swap1\n      keccak256\n      sload\n      dup2\n      jump\n        /* \"src/scroll/ScrollRstETH.sol\":2420:2706  function receiveRstETH(bytes memory encodedMsg) external {... */\n    tag_15:\n      callvalue\n      dup1\n      iszero\n      tag_91\n      jumpi\n      revert(0x00, 0x00)\n    tag_91:\n      pop\n      tag_62\n      tag_93\n      calldatasize\n      0x04\n      tag_94\n      jump\t// in\n    tag_93:\n      tag_95\n      jump\t// in\n        /* \"lib/openzeppelin-contracts/contracts/token/ERC20/ERC20.sol\":1981:2074  function symbol() public view virtual returns (string memory) {... */\n    tag_16:\n      callvalue\n      dup1\n      iszero\n      tag_96\n      jumpi\n      revert(0x00, 0x00)\n    tag_96:\n      pop\n      tag_30\n      tag_98\n      jump\t// in\n        /* \"src/scroll/ScrollRstETH.sol\":2712:3219  function payoutRstETH(uint256 amount) external payable {... */\n    tag_17:\n      tag_62\n      tag_101\n      calldatasize\n      0x04\n      tag_83\n      jump\t// in\n    tag_101:\n      tag_102\n      jump\t// in\n        /* \"src/scroll/ScrollRstETH.sol\":3489:3830  function getValForPosition(bytes32 _position) public view returns (uint256) {... */\n    tag_18:\n      callvalue\n      dup1\n      iszero\n      tag_103\n      jumpi\n      revert(0x00, 0x00)\n    tag_103:\n      pop\n      tag_42\n      tag_105\n      calldatasize\n      0x04\n      tag_83\n      jump\t// in\n    tag_105:\n      tag_107\n      jump\t// in\n        /* \"src/scroll/ScrollRstETH.sol\":4472:4690  function getSharesByEth(uint256 _eth) public view returns (uint256) {... */\n    tag_19:\n      callvalue\n      dup1\n      iszero\n      tag_109\n      jumpi\n      revert(0x00, 0x00)\n    tag_109:\n      pop\n      tag_42\n      tag_111\n      calldatasize\n      0x04\n      tag_83\n      jump\t// in\n    tag_111:\n      tag_112\n      jump\t// in\n        /* \"lib/openzeppelin-contracts/contracts/token/ERC20/ERC20.sol\":3315:3493  function transfer(address to, uint256 value) public virtual returns (bool) {... */\n    tag_20:\n      callvalue\n      dup1\n      iszero\n      tag_114\n      jumpi\n      revert(0x00, 0x00)\n    tag_114:\n      pop\n      tag_35\n      tag_116\n      calldatasize\n      0x04\n      tag_37\n      jump\t// in\n    tag_116:\n      tag_117\n      jump\t// in\n        /* \"src/scroll/ScrollRstETH.sol\":1506:1544  ScrollMessenger public scrollMessenger */\n    tag_21:\n      callvalue\n      dup1\n      iszero\n      tag_119\n      jumpi\n      revert(0x00, 0x00)\n    tag_119:\n      pop\n      sload(0x05)\n      tag_70\n      swap1\n      sub(shl(0xa0, 0x01), 0x01)\n      and\n      dup2\n      jump\n        /* \"lib/openzeppelin-contracts/contracts/token/ERC20/ERC20.sol\":3551:3691  function allowance(address owner, address spender) public view virtual returns (uint256) {... */\n    tag_22:\n      callvalue\n      dup1\n      iszero\n      tag_124\n      jumpi\n      revert(0x00, 0x00)\n    tag_124:\n      pop\n      tag_42\n      tag_126\n      calldatasize\n      0x04\n      tag_127\n      jump\t// in\n    tag_126:\n      sub(shl(0xa0, 0x01), 0x01)\n        /* \"lib/openzeppelin-contracts/contracts/token/ERC20/ERC20.sol\":3657:3675  _allowances[owner] */\n      swap2\n      dup3\n      and\n        /* \"lib/openzeppelin-contracts/contracts/token/ERC20/ERC20.sol\":3631:3638  uint256 */\n      0x00\n        /* \"lib/openzeppelin-contracts/contracts/token/ERC20/ERC20.sol\":3657:3675  _allowances[owner] */\n      swap1\n      dup2\n      mstore\n        /* \"lib/openzeppelin-contracts/contracts/token/ERC20/ERC20.sol\":3657:3668  _allowances */\n      0x01\n        /* \"lib/openzeppelin-contracts/contracts/token/ERC20/ERC20.sol\":3657:3675  _allowances[owner] */\n      0x20\n      swap1\n      dup2\n      mstore\n      0x40\n      dup1\n      dup4\n      keccak256\n        /* \"lib/openzeppelin-contracts/contracts/token/ERC20/ERC20.sol\":3657:3684  _allowances[owner][spender] */\n      swap4\n      swap1\n      swap5\n      and\n      dup3\n      mstore\n      swap2\n      swap1\n      swap2\n      mstore\n      keccak256\n      sload\n      swap1\n        /* \"lib/openzeppelin-contracts/contracts/token/ERC20/ERC20.sol\":3551:3691  function allowance(address owner, address spender) public view virtual returns (uint256) {... */\n      jump\n        /* \"src/scroll/ScrollRstETH.sol\":2326:2414  function setGasLimit(uint256 _gasLimit) external  {... */\n    tag_23:\n      callvalue\n      dup1\n      iszero\n      tag_130\n      jumpi\n      revert(0x00, 0x00)\n    tag_130:\n      pop\n      tag_62\n      tag_132\n      calldatasize\n      0x04\n      tag_83\n      jump\t// in\n    tag_132:\n        /* \"src/scroll/ScrollRstETH.sol\":2386:2395  GAS_LIMIT */\n      0x07\n        /* \"src/scroll/ScrollRstETH.sol\":2386:2407  GAS_LIMIT = _gasLimit */\n      sstore\n        /* \"src/scroll/ScrollRstETH.sol\":2326:2414  function setGasLimit(uint256 _gasLimit) external  {... */\n      jump\n        /* \"lib/openzeppelin-contracts/contracts/token/ERC20/ERC20.sol\":1779:1868  function name() public view virtual returns (string memory) {... */\n    tag_31:\n        /* \"lib/openzeppelin-contracts/contracts/token/ERC20/ERC20.sol\":1824:1837  string memory */\n      0x60\n        /* \"lib/openzeppelin-contracts/contracts/token/ERC20/ERC20.sol\":1856:1861  _name */\n      0x03\n        /* \"lib/openzeppelin-contracts/contracts/token/ERC20/ERC20.sol\":1849:1861  return _name */\n      dup1\n      sload\n      tag_135\n      swap1\n      tag_136\n      jump\t// in\n    tag_135:\n      dup1\n      0x1f\n      add\n      0x20\n      dup1\n      swap2\n      div\n      mul\n      0x20\n      add\n      mload(0x40)\n      swap1\n      dup2\n      add\n      0x40\n      mstore\n      dup1\n      swap3\n      swap2\n      swap1\n      dup2\n      dup2\n      mstore\n      0x20\n      add\n      dup3\n      dup1\n      sload\n      tag_137\n      swap1\n      tag_136\n      jump\t// in\n    tag_137:\n      dup1\n      iszero\n      tag_138\n      jumpi\n      dup1\n      0x1f\n      lt\n      tag_139\n      jumpi\n      0x0100\n      dup1\n      dup4\n      sload\n      div\n      mul\n      dup4\n      mstore\n      swap2\n      0x20\n      add\n      swap2\n      jump(tag_138)\n    tag_139:\n      dup3\n      add\n      swap2\n      swap1\n      0x00\n      mstore\n      keccak256(0x00, 0x20)\n      swap1\n    tag_140:\n      dup2\n      sload\n      dup2\n      mstore\n      swap1\n      0x01\n      add\n      swap1\n      0x20\n      add\n      dup1\n      dup4\n      gt\n      tag_140\n      jumpi\n      dup3\n      swap1\n      sub\n      0x1f\n      and\n      dup3\n      add\n      swap2\n    tag_138:\n      pop\n      pop\n      pop\n      pop\n      pop\n      swap1\n      pop\n        /* \"lib/openzeppelin-contracts/contracts/token/ERC20/ERC20.sol\":1779:1868  function name() public view virtual returns (string memory) {... */\n      swap1\n      jump\t// out\n        /* \"lib/openzeppelin-contracts/contracts/token/ERC20/ERC20.sol\":3998:4184  function approve(address spender, uint256 value) public virtual returns (bool) {... */\n    tag_38:\n        /* \"lib/openzeppelin-contracts/contracts/token/ERC20/ERC20.sol\":4071:4075  bool */\n      0x00\n        /* \"lib/openzeppelin-contracts/contracts/utils/Context.sol\":735:745  msg.sender */\n      caller\n        /* \"lib/openzeppelin-contracts/contracts/token/ERC20/ERC20.sol\":4125:4156  _approve(owner, spender, value) */\n      tag_144\n        /* \"lib/openzeppelin-contracts/contracts/utils/Context.sol\":735:745  msg.sender */\n      dup2\n        /* \"lib/openzeppelin-contracts/contracts/token/ERC20/ERC20.sol\":4141:4148  spender */\n      dup6\n        /* \"lib/openzeppelin-contracts/contracts/token/ERC20/ERC20.sol\":4150:4155  value */\n      dup6\n        /* \"lib/openzeppelin-contracts/contracts/token/ERC20/ERC20.sol\":4125:4133  _approve */\n      tag_145\n        /* \"lib/openzeppelin-contracts/contracts/token/ERC20/ERC20.sol\":4125:4156  _approve(owner, spender, value) */\n      jump\t// in\n    tag_144:\n        /* \"lib/openzeppelin-contracts/contracts/token/ERC20/ERC20.sol\":4173:4177  true */\n      0x01\n        /* \"lib/openzeppelin-contracts/contracts/token/ERC20/ERC20.sol\":4166:4177  return true */\n      swap2\n      pop\n      pop\n        /* \"lib/openzeppelin-contracts/contracts/token/ERC20/ERC20.sol\":3998:4184  function approve(address spender, uint256 value) public virtual returns (bool) {... */\n    tag_141:\n      swap3\n      swap2\n      pop\n      pop\n      jump\t// out\n        /* \"lib/openzeppelin-contracts/contracts/token/ERC20/ERC20.sol\":4776:5020  function transferFrom(address from, address to, uint256 value) public virtual returns (bool) {... */\n    tag_50:\n        /* \"lib/openzeppelin-contracts/contracts/token/ERC20/ERC20.sol\":4863:4867  bool */\n      0x00\n        /* \"lib/openzeppelin-contracts/contracts/utils/Context.sol\":735:745  msg.sender */\n      caller\n        /* \"lib/openzeppelin-contracts/contracts/token/ERC20/ERC20.sol\":4919:4956  _spendAllowance(from, spender, value) */\n      tag_149\n        /* \"lib/openzeppelin-contracts/contracts/token/ERC20/ERC20.sol\":4935:4939  from */\n      dup6\n        /* \"lib/openzeppelin-contracts/contracts/utils/Context.sol\":735:745  msg.sender */\n      dup3\n        /* \"lib/openzeppelin-contracts/contracts/token/ERC20/ERC20.sol\":4950:4955  value */\n      dup6\n        /* \"lib/openzeppelin-contracts/contracts/token/ERC20/ERC20.sol\":4919:4934  _spendAllowance */\n      tag_150\n        /* \"lib/openzeppelin-contracts/contracts/token/ERC20/ERC20.sol\":4919:4956  _spendAllowance(from, spender, value) */\n      jump\t// in\n    tag_149:\n        /* \"lib/openzeppelin-contracts/contracts/token/ERC20/ERC20.sol\":4966:4992  _transfer(from, to, value) */\n      tag_151\n        /* \"lib/openzeppelin-contracts/contracts/token/ERC20/ERC20.sol\":4976:4980  from */\n      dup6\n        /* \"lib/openzeppelin-contracts/contracts/token/ERC20/ERC20.sol\":4982:4984  to */\n      dup6\n        /* \"lib/openzeppelin-contracts/contracts/token/ERC20/ERC20.sol\":4986:4991  value */\n      dup6\n        /* \"lib/openzeppelin-contracts/contracts/token/ERC20/ERC20.sol\":4966:4975  _transfer */\n      tag_152\n        /* \"lib/openzeppelin-contracts/contracts/token/ERC20/ERC20.sol\":4966:4992  _transfer(from, to, value) */\n      jump\t// in\n    tag_151:\n      pop\n        /* \"lib/openzeppelin-contracts/contracts/token/ERC20/ERC20.sol\":5009:5013  true */\n      0x01\n      swap5\n        /* \"lib/openzeppelin-contracts/contracts/token/ERC20/ERC20.sol\":4776:5020  function transferFrom(address from, address to, uint256 value) public virtual returns (bool) {... */\n      swap4\n      pop\n      pop\n      pop\n      pop\n      jump\t// out\n        /* \"src/scroll/ScrollRstETH.sol\":3836:4041  function getTotalPooledEther() public view returns (uint256) {... */\n    tag_59:\n        /* \"src/scroll/ScrollRstETH.sol\":3888:3895  uint256 */\n      0x00\n        /* \"src/scroll/ScrollRstETH.sol\":4012:4034  _getTransientBalance() */\n      tag_155\n        /* \"src/scroll/ScrollRstETH.sol\":4012:4032  _getTransientBalance */\n      tag_156\n        /* \"src/scroll/ScrollRstETH.sol\":4012:4034  _getTransientBalance() */\n      jump\t// in\n    tag_155:\n        /* \"src/scroll/ScrollRstETH.sol\":3971:4009  getValForPosition(CL_BALANCE_POSITION) */\n      tag_157\n        /* \"src/scroll/ScrollRstETH.sol\":771:837  0xa66d35f054e68143c18f32c990ed5cb972bb68a68f500cd2dd3a16bbf3686483 */\n      0xa66d35f054e68143c18f32c990ed5cb972bb68a68f500cd2dd3a16bbf3686483\n        /* \"src/scroll/ScrollRstETH.sol\":3971:3988  getValForPosition */\n      tag_107\n        /* \"src/scroll/ScrollRstETH.sol\":3971:4009  getValForPosition(CL_BALANCE_POSITION) */\n      jump\t// in\n    tag_157:\n        /* \"src/scroll/ScrollRstETH.sol\":3926:3968  getValForPosition(BUFFERED_ETHER_POSITION) */\n      tag_158\n        /* \"src/scroll/ScrollRstETH.sol\":610:676  0xed310af23f61f96daefbcd140b306c0bdbf8c178398299741687b90e794772b0 */\n      0xed310af23f61f96daefbcd140b306c0bdbf8c178398299741687b90e794772b0\n        /* \"src/scroll/ScrollRstETH.sol\":3926:3943  getValForPosition */\n      tag_107\n        /* \"src/scroll/ScrollRstETH.sol\":3926:3968  getValForPosition(BUFFERED_ETHER_POSITION) */\n      jump\t// in\n    tag_158:\n        /* \"src/scroll/ScrollRstETH.sol\":3926:4009  getValForPosition(BUFFERED_ETHER_POSITION) + getValForPosition(CL_BALANCE_POSITION) */\n      tag_159\n      swap2\n      swap1\n      tag_160\n      jump\t// in\n    tag_159:\n        /* \"src/scroll/ScrollRstETH.sol\":3926:4034  getValForPosition(BUFFERED_ETHER_POSITION) + getValForPosition(CL_BALANCE_POSITION) + _getTransientBalance() */\n      tag_161\n      swap2\n      swap1\n      tag_160\n      jump\t// in\n    tag_161:\n        /* \"src/scroll/ScrollRstETH.sol\":3907:4034  return... */\n      swap1\n      pop\n        /* \"src/scroll/ScrollRstETH.sol\":3836:4041  function getTotalPooledEther() public view returns (uint256) {... */\n      swap1\n      jump\t// out\n        /* \"src/scroll/ScrollRstETH.sol\":4696:4836  function withdraw() external {... */\n    tag_63:\n        /* \"src/scroll/ScrollRstETH.sol\":4754:4803  msg.sender.call{value: address(this).balance}(\"\") */\n      mload(0x40)\n        /* \"src/scroll/ScrollRstETH.sol\":4736:4748  bool success */\n      0x00\n      swap1\n        /* \"src/scroll/ScrollRstETH.sol\":4754:4764  msg.sender */\n      caller\n      swap1\n        /* \"src/scroll/ScrollRstETH.sol\":4777:4798  address(this).balance */\n      selfbalance\n      swap1\n        /* \"src/scroll/ScrollRstETH.sol\":4736:4748  bool success */\n      dup4\n        /* \"src/scroll/ScrollRstETH.sol\":4754:4803  msg.sender.call{value: address(this).balance}(\"\") */\n      dup2\n        /* \"src/scroll/ScrollRstETH.sol\":4736:4748  bool success */\n      dup2\n        /* \"src/scroll/ScrollRstETH.sol\":4754:4803  msg.sender.call{value: address(this).balance}(\"\") */\n      dup2\n        /* \"src/scroll/ScrollRstETH.sol\":4777:4798  address(this).balance */\n      dup6\n        /* \"src/scroll/ScrollRstETH.sol\":4754:4764  msg.sender */\n      dup8\n        /* \"src/scroll/ScrollRstETH.sol\":4754:4803  msg.sender.call{value: address(this).balance}(\"\") */\n      gas\n      call\n      swap3\n      pop\n      pop\n      pop\n      returndatasize\n      dup1\n      0x00\n      dup2\n      eq\n      tag_167\n      jumpi\n      mload(0x40)\n      swap2\n      pop\n      and(add(returndatasize, 0x3f), not(0x1f))\n      dup3\n      add\n      0x40\n      mstore\n      returndatasize\n      dup3\n      mstore\n      returndatasize\n      0x00\n      0x20\n      dup5\n      add\n      returndatacopy\n      jump(tag_166)\n    tag_167:\n      0x60\n      swap2\n      pop\n    tag_166:\n      pop\n        /* \"src/scroll/ScrollRstETH.sol\":4735:4803  (bool success, ) = msg.sender.call{value: address(this).balance}(\"\") */\n      pop\n      swap1\n      pop\n        /* \"src/scroll/ScrollRstETH.sol\":4821:4828  success */\n      dup1\n        /* \"src/scroll/ScrollRstETH.sol\":4813:4829  require(success) */\n      tag_168\n      jumpi\n      revert(0x00, 0x00)\n    tag_168:\n        /* \"src/scroll/ScrollRstETH.sol\":4725:4836  {... */\n      pop\n        /* \"src/scroll/ScrollRstETH.sol\":4696:4836  function withdraw() external {... */\n      jump\t// out\n        /* \"src/scroll/ScrollRstETH.sol\":3225:3483  function getPooledEthByShares(uint256 _sharesAmount) public view returns (uint256) {... */\n    tag_84:\n        /* \"src/scroll/ScrollRstETH.sol\":3299:3306  uint256 */\n      0x00\n        /* \"src/scroll/ScrollRstETH.sol\":3322:3362  getValForPosition(TOTAL_SHARES_POSITION) */\n      tag_172\n        /* \"src/scroll/ScrollRstETH.sol\":439:505  0xe3b4b636e601189b5f4c6742edf2538ac12bb61ed03e6da26949d69838fa447e */\n      0xe3b4b636e601189b5f4c6742edf2538ac12bb61ed03e6da26949d69838fa447e\n        /* \"src/scroll/ScrollRstETH.sol\":3322:3339  getValForPosition */\n      tag_107\n        /* \"src/scroll/ScrollRstETH.sol\":3322:3362  getValForPosition(TOTAL_SHARES_POSITION) */\n      jump\t// in\n    tag_172:\n        /* \"src/scroll/ScrollRstETH.sol\":3366:3367  0 */\n      0x00\n        /* \"src/scroll/ScrollRstETH.sol\":3322:3367  getValForPosition(TOTAL_SHARES_POSITION) == 0 */\n      sub\n        /* \"src/scroll/ScrollRstETH.sol\":3318:3377  if (getValForPosition(TOTAL_SHARES_POSITION) == 0) return 0 */\n      tag_173\n      jumpi\n      pop\n        /* \"src/scroll/ScrollRstETH.sol\":3376:3377  0 */\n      0x00\n      swap2\n        /* \"src/scroll/ScrollRstETH.sol\":3225:3483  function getPooledEthByShares(uint256 _sharesAmount) public view returns (uint256) {... */\n      swap1\n      pop\n      jump\t// out\n        /* \"src/scroll/ScrollRstETH.sol\":3318:3377  if (getValForPosition(TOTAL_SHARES_POSITION) == 0) return 0 */\n    tag_173:\n        /* \"src/scroll/ScrollRstETH.sol\":3436:3476  getValForPosition(TOTAL_SHARES_POSITION) */\n      tag_174\n        /* \"src/scroll/ScrollRstETH.sol\":439:505  0xe3b4b636e601189b5f4c6742edf2538ac12bb61ed03e6da26949d69838fa447e */\n      0xe3b4b636e601189b5f4c6742edf2538ac12bb61ed03e6da26949d69838fa447e\n        /* \"src/scroll/ScrollRstETH.sol\":3436:3453  getValForPosition */\n      tag_107\n        /* \"src/scroll/ScrollRstETH.sol\":3436:3476  getValForPosition(TOTAL_SHARES_POSITION) */\n      jump\t// in\n    tag_174:\n        /* \"src/scroll/ScrollRstETH.sol\":3411:3432  getTotalPooledEther() */\n      tag_175\n        /* \"src/scroll/ScrollRstETH.sol\":3411:3430  getTotalPooledEther */\n      tag_59\n        /* \"src/scroll/ScrollRstETH.sol\":3411:3432  getTotalPooledEther() */\n      jump\t// in\n    tag_175:\n        /* \"src/scroll/ScrollRstETH.sol\":3395:3432  _sharesAmount * getTotalPooledEther() */\n      tag_176\n      swap1\n        /* \"src/scroll/ScrollRstETH.sol\":3395:3408  _sharesAmount */\n      dup5\n        /* \"src/scroll/ScrollRstETH.sol\":3395:3432  _sharesAmount * getTotalPooledEther() */\n      tag_177\n      jump\t// in\n    tag_176:\n        /* \"src/scroll/ScrollRstETH.sol\":3394:3476  (_sharesAmount * getTotalPooledEther()) / getValForPosition(TOTAL_SHARES_POSITION) */\n      tag_141\n      swap2\n      swap1\n      tag_179\n      jump\t// in\n        /* \"src/scroll/ScrollRstETH.sol\":2420:2706  function receiveRstETH(bytes memory encodedMsg) external {... */\n    tag_95:\n        /* \"src/scroll/ScrollRstETH.sol\":2487:2523  BridgeStETHMessage memory decodedMsg */\n      0x00\n        /* \"src/scroll/ScrollRstETH.sol\":2537:2547  encodedMsg */\n      dup2\n        /* \"src/scroll/ScrollRstETH.sol\":2526:2570  abi.decode(encodedMsg, (BridgeStETHMessage)) */\n      dup1\n      0x20\n      add\n      swap1\n      mload\n      dup2\n      add\n      swap1\n      tag_181\n      swap2\n      swap1\n      tag_182\n      jump\t// in\n    tag_181:\n        /* \"src/scroll/ScrollRstETH.sol\":2487:2570  BridgeStETHMessage memory decodedMsg = abi.decode(encodedMsg, (BridgeStETHMessage)) */\n      swap1\n      pop\n        /* \"src/scroll/ScrollRstETH.sol\":2580:2621  _mint(decodedMsg.user, decodedMsg.amount) */\n      tag_183\n        /* \"src/scroll/ScrollRstETH.sol\":2586:2596  decodedMsg */\n      dup2\n        /* \"src/scroll/ScrollRstETH.sol\":2586:2601  decodedMsg.user */\n      0x00\n      add\n      mload\n        /* \"src/scroll/ScrollRstETH.sol\":2603:2613  decodedMsg */\n      dup3\n        /* \"src/scroll/ScrollRstETH.sol\":2603:2620  decodedMsg.amount */\n      0x20\n      add\n      mload\n        /* \"src/scroll/ScrollRstETH.sol\":2580:2585  _mint */\n      tag_184\n        /* \"src/scroll/ScrollRstETH.sol\":2580:2621  _mint(decodedMsg.user, decodedMsg.amount) */\n      jump\t// in\n    tag_183:\n        /* \"src/scroll/ScrollRstETH.sol\":2666:2699  getSharesByEth(decodedMsg.amount) */\n      tag_185\n        /* \"src/scroll/ScrollRstETH.sol\":2681:2691  decodedMsg */\n      dup2\n        /* \"src/scroll/ScrollRstETH.sol\":2681:2698  decodedMsg.amount */\n      0x20\n      add\n      mload\n        /* \"src/scroll/ScrollRstETH.sol\":2666:2680  getSharesByEth */\n      tag_112\n        /* \"src/scroll/ScrollRstETH.sol\":2666:2699  getSharesByEth(decodedMsg.amount) */\n      jump\t// in\n    tag_185:\n        /* \"src/scroll/ScrollRstETH.sol\":2646:2661  decodedMsg.user */\n      dup2\n      mload\n      sub(shl(0xa0, 0x01), 0x01)\n        /* \"src/scroll/ScrollRstETH.sol\":2632:2662  sharesPerUser[decodedMsg.user] */\n      and\n      0x00\n      swap1\n      dup2\n      mstore\n        /* \"src/scroll/ScrollRstETH.sol\":2632:2645  sharesPerUser */\n      0x08\n        /* \"src/scroll/ScrollRstETH.sol\":2632:2662  sharesPerUser[decodedMsg.user] */\n      0x20\n      mstore\n      0x40\n      dup2\n      keccak256\n        /* \"src/scroll/ScrollRstETH.sol\":2632:2699  sharesPerUser[decodedMsg.user] += getSharesByEth(decodedMsg.amount) */\n      dup1\n      sload\n        /* \"src/scroll/ScrollRstETH.sol\":2632:2662  sharesPerUser[decodedMsg.user] */\n      swap1\n      swap2\n      swap1\n        /* \"src/scroll/ScrollRstETH.sol\":2632:2699  sharesPerUser[decodedMsg.user] += getSharesByEth(decodedMsg.amount) */\n      tag_186\n      swap1\n      dup5\n      swap1\n      tag_160\n      jump\t// in\n    tag_186:\n      swap1\n      swap2\n      sstore\n      pop\n      pop\n      pop\n      pop\n        /* \"src/scroll/ScrollRstETH.sol\":2420:2706  function receiveRstETH(bytes memory encodedMsg) external {... */\n      jump\t// out\n        /* \"lib/openzeppelin-contracts/contracts/token/ERC20/ERC20.sol\":1981:2074  function symbol() public view virtual returns (string memory) {... */\n    tag_98:\n        /* \"lib/openzeppelin-contracts/contracts/token/ERC20/ERC20.sol\":2028:2041  string memory */\n      0x60\n        /* \"lib/openzeppelin-contracts/contracts/token/ERC20/ERC20.sol\":2060:2067  _symbol */\n      0x04\n        /* \"lib/openzeppelin-contracts/contracts/token/ERC20/ERC20.sol\":2053:2067  return _symbol */\n      dup1\n      sload\n      tag_135\n      swap1\n      tag_136\n      jump\t// in\n        /* \"src/scroll/ScrollRstETH.sol\":2712:3219  function payoutRstETH(uint256 amount) external payable {... */\n    tag_102:\n        /* \"src/scroll/ScrollRstETH.sol\":2777:2802  _burn(msg.sender, amount) */\n      tag_194\n        /* \"src/scroll/ScrollRstETH.sol\":2783:2793  msg.sender */\n      caller\n        /* \"src/scroll/ScrollRstETH.sol\":2795:2801  amount */\n      dup3\n        /* \"src/scroll/ScrollRstETH.sol\":2777:2782  _burn */\n      tag_195\n        /* \"src/scroll/ScrollRstETH.sol\":2777:2802  _burn(msg.sender, amount) */\n      jump\t// in\n    tag_194:\n        /* \"src/scroll/ScrollRstETH.sol\":2841:2863  getSharesByEth(amount) */\n      tag_196\n        /* \"src/scroll/ScrollRstETH.sol\":2856:2862  amount */\n      dup2\n        /* \"src/scroll/ScrollRstETH.sol\":2841:2855  getSharesByEth */\n      tag_112\n        /* \"src/scroll/ScrollRstETH.sol\":2841:2863  getSharesByEth(amount) */\n      jump\t// in\n    tag_196:\n        /* \"src/scroll/ScrollRstETH.sol\":2826:2836  msg.sender */\n      caller\n        /* \"src/scroll/ScrollRstETH.sol\":2812:2837  sharesPerUser[msg.sender] */\n      0x00\n      swap1\n      dup2\n      mstore\n        /* \"src/scroll/ScrollRstETH.sol\":2812:2825  sharesPerUser */\n      0x08\n        /* \"src/scroll/ScrollRstETH.sol\":2812:2837  sharesPerUser[msg.sender] */\n      0x20\n      mstore\n      0x40\n      dup2\n      keccak256\n        /* \"src/scroll/ScrollRstETH.sol\":2812:2863  sharesPerUser[msg.sender] -= getSharesByEth(amount) */\n      dup1\n      sload\n        /* \"src/scroll/ScrollRstETH.sol\":2812:2837  sharesPerUser[msg.sender] */\n      swap1\n      swap2\n      swap1\n        /* \"src/scroll/ScrollRstETH.sol\":2812:2863  sharesPerUser[msg.sender] -= getSharesByEth(amount) */\n      tag_197\n      swap1\n      dup5\n      swap1\n      tag_198\n      jump\t// in\n    tag_197:\n      swap1\n      swap2\n      sstore\n      pop\n      pop\n        /* \"src/scroll/ScrollRstETH.sol\":2912:2966  BridgeStETHMessage({user: msg.sender, amount: amount}) */\n      0x40\n      dup1\n      mload\n      dup1\n      dup3\n      add\n      dup3\n      mstore\n        /* \"src/scroll/ScrollRstETH.sol\":2938:2948  msg.sender */\n      caller\n        /* \"src/scroll/ScrollRstETH.sol\":2912:2966  BridgeStETHMessage({user: msg.sender, amount: amount}) */\n      dup1\n      dup3\n      mstore\n      0x20\n      dup1\n      dup4\n      add\n      dup6\n      dup2\n      mstore\n        /* \"src/scroll/ScrollRstETH.sol\":3003:3024  abi.encode(bridgeMsg) */\n      dup5\n      mload\n      swap2\n      dup3\n      add\n        /* \"#utility.yul\":7390:7448   */\n      swap3\n      swap1\n      swap3\n      mstore\n        /* \"#utility.yul\":7486:7510   */\n      swap1\n      mload\n        /* \"#utility.yul\":7464:7484   */\n      dup2\n      dup5\n      add\n        /* \"#utility.yul\":7457:7511   */\n      mstore\n        /* \"src/scroll/ScrollRstETH.sol\":3003:3024  abi.encode(bridgeMsg) */\n      dup3\n      mload\n      dup1\n      dup3\n      sub\n      dup5\n      add\n      dup2\n      mstore\n        /* \"#utility.yul\":7363:7381   */\n      0x60\n      dup3\n      add\n        /* \"src/scroll/ScrollRstETH.sol\":3003:3024  abi.encode(bridgeMsg) */\n      swap1\n      swap4\n      mstore\n        /* \"src/scroll/ScrollRstETH.sol\":3035:3050  scrollMessenger */\n      sload(0x05)\n        /* \"src/scroll/ScrollRstETH.sol\":3102:3114  stETHAdapter */\n      sload(0x06)\n        /* \"src/scroll/ScrollRstETH.sol\":2912:2966  BridgeStETHMessage({user: msg.sender, amount: amount}) */\n      swap3\n      swap4\n        /* \"src/scroll/ScrollRstETH.sol\":3003:3024  abi.encode(bridgeMsg) */\n      swap3\n      sub(shl(0xa0, 0x01), 0x01)\n        /* \"src/scroll/ScrollRstETH.sol\":3035:3050  scrollMessenger */\n      swap2\n      dup3\n      and\n      swap3\n        /* \"src/scroll/ScrollRstETH.sol\":3035:3062  scrollMessenger.sendMessage */\n      0xb2267a7b\n      swap3\n        /* \"src/scroll/ScrollRstETH.sol\":3070:3079  msg.value */\n      callvalue\n      swap3\n        /* \"src/scroll/ScrollRstETH.sol\":3102:3114  stETHAdapter */\n      and\n      swap1\n      0x00\n      swap1\n      not(sub(shl(0xe0, 0xbf5da5), 0x01))\n        /* \"src/scroll/ScrollRstETH.sol\":3143:3178  IStETHAdapter.payOutRstETH.selector */\n      swap1\n        /* \"src/scroll/ScrollRstETH.sol\":3120:3191  abi.encodeWithSelector(IStETHAdapter.payOutRstETH.selector, encodedMsg) */\n      tag_201\n      swap1\n        /* \"src/scroll/ScrollRstETH.sol\":3003:3024  abi.encode(bridgeMsg) */\n      dup9\n      swap1\n        /* \"src/scroll/ScrollRstETH.sol\":3120:3191  abi.encodeWithSelector(IStETHAdapter.payOutRstETH.selector, encodedMsg) */\n      0x84\n      add\n      tag_33\n      jump\t// in\n    tag_201:\n      0x40\n      dup1\n      mload\n      not(0x1f)\n      dup2\n      dup5\n      sub\n      add\n      dup2\n      mstore\n      swap2\n      dup2\n      mstore\n      0x20\n      dup3\n      add\n      dup1\n      mload\n      sub(shl(0xe0, 0x01), 0x01)\n      and\n      not(sub(shl(0xe0, 0x01), 0x01))\n      swap5\n      dup6\n      and\n      or\n      swap1\n      mstore\n        /* \"src/scroll/ScrollRstETH.sol\":3193:3202  GAS_LIMIT */\n      sload(0x07)\n        /* \"src/scroll/ScrollRstETH.sol\":3035:3212  scrollMessenger.sendMessage{value: msg.value}(... */\n      swap1\n      mload\n      0xe0\n      dup9\n      swap1\n      shl\n      swap1\n      swap4\n      and\n      dup4\n      mstore\n      tag_203\n      swap5\n      swap4\n      swap3\n      0x04\n      add\n      tag_204\n      jump\t// in\n    tag_203:\n      0x00\n      mload(0x40)\n      dup1\n      dup4\n      sub\n      dup2\n      dup6\n      dup9\n      dup1\n      extcodesize\n      iszero\n      dup1\n      iszero\n      tag_205\n      jumpi\n      revert(0x00, 0x00)\n    tag_205:\n      pop\n      gas\n      call\n      iszero\n      dup1\n      iszero\n      tag_207\n      jumpi\n      returndatacopy(0x00, 0x00, returndatasize)\n      revert(0x00, returndatasize)\n    tag_207:\n      pop\n      pop\n      pop\n      pop\n      pop\n        /* \"src/scroll/ScrollRstETH.sol\":2767:3219  {... */\n      pop\n      pop\n        /* \"src/scroll/ScrollRstETH.sol\":2712:3219  function payoutRstETH(uint256 amount) external payable {... */\n      pop\n      jump\t// out\n        /* \"src/scroll/ScrollRstETH.sol\":3489:3830  function getValForPosition(bytes32 _position) public view returns (uint256) {... */\n    tag_107:\n        /* \"src/scroll/ScrollRstETH.sol\":3658:3699  abi.encodePacked(stETHAddress, _position) */\n      mload(0x40)\n      not(0xffffffffffffffffffffffff)\n        /* \"src/scroll/ScrollRstETH.sol\":3675:3687  stETHAddress */\n      immutable(\"0x5002dac29dd1f5eca27c266c7f22886fef1ca01133bd005217e0a31b1b246599\")\n        /* \"#utility.yul\":8394:8396   */\n      0x60\n        /* \"#utility.yul\":8390:8405   */\n      shl\n        /* \"#utility.yul\":8386:8439   */\n      and\n        /* \"src/scroll/ScrollRstETH.sol\":3658:3699  abi.encodePacked(stETHAddress, _position) */\n      0x20\n      dup3\n      add\n        /* \"#utility.yul\":8374:8440   */\n      mstore\n        /* \"#utility.yul\":8456:8468   */\n      0x34\n      dup2\n      add\n        /* \"#utility.yul\":8449:8477   */\n      dup3\n      swap1\n      mstore\n        /* \"src/scroll/ScrollRstETH.sol\":3556:3563  uint256 */\n      0x00\n      swap1\n      dup2\n      swap1\n      dup2\n      swap1\n        /* \"src/scroll/ScrollRstETH.sol\":1421:1463  0x0000000000000000000000000000000000000101 */\n      0x0101\n      swap1\n        /* \"#utility.yul\":8493:8505   */\n      0x54\n      add\n        /* \"src/scroll/ScrollRstETH.sol\":3658:3699  abi.encodePacked(stETHAddress, _position) */\n      0x40\n      dup1\n      mload\n      not(0x1f)\n      dup2\n      dup5\n      sub\n      add\n      dup2\n      mstore\n      swap1\n      dup3\n      swap1\n      mstore\n        /* \"src/scroll/ScrollRstETH.sol\":3630:3700  L1_SLOAD_ADDRESS.staticcall(abi.encodePacked(stETHAddress, _position)) */\n      tag_211\n      swap2\n      tag_212\n      jump\t// in\n    tag_211:\n      0x00\n      mload(0x40)\n      dup1\n      dup4\n      sub\n      dup2\n      dup6\n      gas\n      staticcall\n      swap2\n      pop\n      pop\n      returndatasize\n      dup1\n      0x00\n      dup2\n      eq\n      tag_215\n      jumpi\n      mload(0x40)\n      swap2\n      pop\n      and(add(returndatasize, 0x3f), not(0x1f))\n      dup3\n      add\n      0x40\n      mstore\n      returndatasize\n      dup3\n      mstore\n      returndatasize\n      0x00\n      0x20\n      dup5\n      add\n      returndatacopy\n      jump(tag_214)\n    tag_215:\n      0x60\n      swap2\n      pop\n    tag_214:\n      pop\n        /* \"src/scroll/ScrollRstETH.sol\":3575:3700  (bool success, bytes memory returnValue) =... */\n      swap2\n      pop\n      swap2\n      pop\n        /* \"src/scroll/ScrollRstETH.sol\":3715:3722  success */\n      dup2\n        /* \"src/scroll/ScrollRstETH.sol\":3710:3773  if (!success) {... */\n      tag_216\n      jumpi\n        /* \"src/scroll/ScrollRstETH.sol\":3738:3762  revert(\"L1SLOAD failed\") */\n      mload(0x40)\n      shl(0xe5, 0x461bcd)\n      dup2\n      mstore\n        /* \"#utility.yul\":9024:9026   */\n      0x20\n        /* \"src/scroll/ScrollRstETH.sol\":3738:3762  revert(\"L1SLOAD failed\") */\n      0x04\n      dup3\n      add\n        /* \"#utility.yul\":9006:9027   */\n      mstore\n        /* \"#utility.yul\":9063:9065   */\n      0x0e\n        /* \"#utility.yul\":9043:9061   */\n      0x24\n      dup3\n      add\n        /* \"#utility.yul\":9036:9066   */\n      mstore\n      shl(0x92, 0x130c54d313d0510819985a5b1959)\n        /* \"#utility.yul\":9082:9100   */\n      0x44\n      dup3\n      add\n        /* \"#utility.yul\":9075:9119   */\n      mstore\n        /* \"#utility.yul\":9136:9154   */\n      0x64\n      add\n        /* \"src/scroll/ScrollRstETH.sol\":3738:3762  revert(\"L1SLOAD failed\") */\n    tag_217:\n      mload(0x40)\n      dup1\n      swap2\n      sub\n      swap1\n      revert\n        /* \"src/scroll/ScrollRstETH.sol\":3710:3773  if (!success) {... */\n    tag_216:\n        /* \"src/scroll/ScrollRstETH.sol\":3800:3811  returnValue */\n      dup1\n        /* \"src/scroll/ScrollRstETH.sol\":3789:3823  abi.decode(returnValue, (uint256)) */\n      dup1\n      0x20\n      add\n      swap1\n      mload\n      dup2\n      add\n      swap1\n      tag_219\n      swap2\n      swap1\n      tag_220\n      jump\t// in\n    tag_219:\n        /* \"src/scroll/ScrollRstETH.sol\":3782:3823  return abi.decode(returnValue, (uint256)) */\n      swap5\n        /* \"src/scroll/ScrollRstETH.sol\":3489:3830  function getValForPosition(bytes32 _position) public view returns (uint256) {... */\n      swap4\n      pop\n      pop\n      pop\n      pop\n      jump\t// out\n        /* \"src/scroll/ScrollRstETH.sol\":4472:4690  function getSharesByEth(uint256 _eth) public view returns (uint256) {... */\n    tag_112:\n        /* \"src/scroll/ScrollRstETH.sol\":4531:4538  uint256 */\n      0x00\n        /* \"src/scroll/ScrollRstETH.sol\":4554:4575  getTotalPooledEther() */\n      tag_222\n        /* \"src/scroll/ScrollRstETH.sol\":4554:4573  getTotalPooledEther */\n      tag_59\n        /* \"src/scroll/ScrollRstETH.sol\":4554:4575  getTotalPooledEther() */\n      jump\t// in\n    tag_222:\n        /* \"src/scroll/ScrollRstETH.sol\":4579:4580  0 */\n      0x00\n        /* \"src/scroll/ScrollRstETH.sol\":4554:4580  getTotalPooledEther() == 0 */\n      sub\n        /* \"src/scroll/ScrollRstETH.sol\":4550:4593  if (getTotalPooledEther() == 0) return _eth */\n      tag_223\n      jumpi\n      pop\n        /* \"src/scroll/ScrollRstETH.sol\":4589:4593  _eth */\n      swap1\n        /* \"src/scroll/ScrollRstETH.sol\":4472:4690  function getSharesByEth(uint256 _eth) public view returns (uint256) {... */\n      jump\t// out\n        /* \"src/scroll/ScrollRstETH.sol\":4550:4593  if (getTotalPooledEther() == 0) return _eth */\n    tag_223:\n        /* \"src/scroll/ScrollRstETH.sol\":4662:4683  getTotalPooledEther() */\n      tag_224\n        /* \"src/scroll/ScrollRstETH.sol\":4662:4681  getTotalPooledEther */\n      tag_59\n        /* \"src/scroll/ScrollRstETH.sol\":4662:4683  getTotalPooledEther() */\n      jump\t// in\n    tag_224:\n        /* \"src/scroll/ScrollRstETH.sol\":4618:4658  getValForPosition(TOTAL_SHARES_POSITION) */\n      tag_175\n        /* \"src/scroll/ScrollRstETH.sol\":439:505  0xe3b4b636e601189b5f4c6742edf2538ac12bb61ed03e6da26949d69838fa447e */\n      0xe3b4b636e601189b5f4c6742edf2538ac12bb61ed03e6da26949d69838fa447e\n        /* \"src/scroll/ScrollRstETH.sol\":4618:4635  getValForPosition */\n      tag_107\n        /* \"src/scroll/ScrollRstETH.sol\":4618:4658  getValForPosition(TOTAL_SHARES_POSITION) */\n      jump\t// in\n        /* \"lib/openzeppelin-contracts/contracts/token/ERC20/ERC20.sol\":3315:3493  function transfer(address to, uint256 value) public virtual returns (bool) {... */\n    tag_117:\n        /* \"lib/openzeppelin-contracts/contracts/token/ERC20/ERC20.sol\":3384:3388  bool */\n      0x00\n        /* \"lib/openzeppelin-contracts/contracts/utils/Context.sol\":735:745  msg.sender */\n      caller\n        /* \"lib/openzeppelin-contracts/contracts/token/ERC20/ERC20.sol\":3438:3465  _transfer(owner, to, value) */\n      tag_144\n        /* \"lib/openzeppelin-contracts/contracts/utils/Context.sol\":735:745  msg.sender */\n      dup2\n        /* \"lib/openzeppelin-contracts/contracts/token/ERC20/ERC20.sol\":3455:3457  to */\n      dup6\n        /* \"lib/openzeppelin-contracts/contracts/token/ERC20/ERC20.sol\":3459:3464  value */\n      dup6\n        /* \"lib/openzeppelin-contracts/contracts/token/ERC20/ERC20.sol\":3438:3447  _transfer */\n      tag_152\n        /* \"lib/openzeppelin-contracts/contracts/token/ERC20/ERC20.sol\":3438:3465  _transfer(owner, to, value) */\n      jump\t// in\n        /* \"lib/openzeppelin-contracts/contracts/token/ERC20/ERC20.sol\":8726:8854  function _approve(address owner, address spender, uint256 value) internal {... */\n    tag_145:\n        /* \"lib/openzeppelin-contracts/contracts/token/ERC20/ERC20.sol\":8810:8847  _approve(owner, spender, value, true) */\n      tag_235\n        /* \"lib/openzeppelin-contracts/contracts/token/ERC20/ERC20.sol\":8819:8824  owner */\n      dup4\n        /* \"lib/openzeppelin-contracts/contracts/token/ERC20/ERC20.sol\":8826:8833  spender */\n      dup4\n        /* \"lib/openzeppelin-contracts/contracts/token/ERC20/ERC20.sol\":8835:8840  value */\n      dup4\n        /* \"lib/openzeppelin-contracts/contracts/token/ERC20/ERC20.sol\":8842:8846  true */\n      0x01\n        /* \"lib/openzeppelin-contracts/contracts/token/ERC20/ERC20.sol\":8810:8818  _approve */\n      tag_236\n        /* \"lib/openzeppelin-contracts/contracts/token/ERC20/ERC20.sol\":8810:8847  _approve(owner, spender, value, true) */\n      jump\t// in\n    tag_235:\n        /* \"lib/openzeppelin-contracts/contracts/token/ERC20/ERC20.sol\":8726:8854  function _approve(address owner, address spender, uint256 value) internal {... */\n      pop\n      pop\n      pop\n      jump\t// out\n        /* \"lib/openzeppelin-contracts/contracts/token/ERC20/ERC20.sol\":10415:10892  function _spendAllowance(address owner, address spender, uint256 value) internal virtual {... */\n    tag_150:\n      sub(shl(0xa0, 0x01), 0x01)\n        /* \"lib/openzeppelin-contracts/contracts/token/ERC20/ERC20.sol\":3657:3675  _allowances[owner] */\n      dup4\n      dup2\n      and\n        /* \"lib/openzeppelin-contracts/contracts/token/ERC20/ERC20.sol\":10514:10538  uint256 currentAllowance */\n      0x00\n        /* \"lib/openzeppelin-contracts/contracts/token/ERC20/ERC20.sol\":3657:3675  _allowances[owner] */\n      swap1\n      dup2\n      mstore\n        /* \"lib/openzeppelin-contracts/contracts/token/ERC20/ERC20.sol\":3657:3668  _allowances */\n      0x01\n        /* \"lib/openzeppelin-contracts/contracts/token/ERC20/ERC20.sol\":3657:3675  _allowances[owner] */\n      0x20\n      swap1\n      dup2\n      mstore\n      0x40\n      dup1\n      dup4\n      keccak256\n        /* \"lib/openzeppelin-contracts/contracts/token/ERC20/ERC20.sol\":3657:3684  _allowances[owner][spender] */\n      swap4\n      dup7\n      and\n      dup4\n      mstore\n      swap3\n      swap1\n      mstore\n      keccak256\n      sload\n      not(0x00)\n        /* \"lib/openzeppelin-contracts/contracts/token/ERC20/ERC20.sol\":10580:10617  currentAllowance != type(uint256).max */\n      dup2\n      eq\n        /* \"lib/openzeppelin-contracts/contracts/token/ERC20/ERC20.sol\":10576:10886  if (currentAllowance != type(uint256).max) {... */\n      tag_243\n      jumpi\n        /* \"lib/openzeppelin-contracts/contracts/token/ERC20/ERC20.sol\":10656:10661  value */\n      dup2\n        /* \"lib/openzeppelin-contracts/contracts/token/ERC20/ERC20.sol\":10637:10653  currentAllowance */\n      dup2\n        /* \"lib/openzeppelin-contracts/contracts/token/ERC20/ERC20.sol\":10637:10661  currentAllowance < value */\n      lt\n        /* \"lib/openzeppelin-contracts/contracts/token/ERC20/ERC20.sol\":10633:10763  if (currentAllowance < value) {... */\n      iszero\n      tag_240\n      jumpi\n        /* \"lib/openzeppelin-contracts/contracts/token/ERC20/ERC20.sol\":10688:10748  ERC20InsufficientAllowance(spender, currentAllowance, value) */\n      mload(0x40)\n      shl(0xe1, 0x7dc7a0d9)\n      dup2\n      mstore\n      sub(shl(0xa0, 0x01), 0x01)\n        /* \"#utility.yul\":9620:9652   */\n      dup5\n      and\n        /* \"lib/openzeppelin-contracts/contracts/token/ERC20/ERC20.sol\":10688:10748  ERC20InsufficientAllowance(spender, currentAllowance, value) */\n      0x04\n      dup3\n      add\n        /* \"#utility.yul\":9602:9653   */\n      mstore\n        /* \"#utility.yul\":9669:9687   */\n      0x24\n      dup2\n      add\n        /* \"#utility.yul\":9662:9696   */\n      dup3\n      swap1\n      mstore\n        /* \"#utility.yul\":9712:9730   */\n      0x44\n      dup2\n      add\n        /* \"#utility.yul\":9705:9739   */\n      dup4\n      swap1\n      mstore\n        /* \"#utility.yul\":9575:9593   */\n      0x64\n      add\n        /* \"lib/openzeppelin-contracts/contracts/token/ERC20/ERC20.sol\":10688:10748  ERC20InsufficientAllowance(spender, currentAllowance, value) */\n      tag_217\n        /* \"#utility.yul\":9400:9745   */\n      jump\n        /* \"lib/openzeppelin-contracts/contracts/token/ERC20/ERC20.sol\":10633:10763  if (currentAllowance < value) {... */\n    tag_240:\n        /* \"lib/openzeppelin-contracts/contracts/token/ERC20/ERC20.sol\":10804:10861  _approve(owner, spender, currentAllowance - value, false) */\n      tag_243\n        /* \"lib/openzeppelin-contracts/contracts/token/ERC20/ERC20.sol\":10813:10818  owner */\n      dup5\n        /* \"lib/openzeppelin-contracts/contracts/token/ERC20/ERC20.sol\":10820:10827  spender */\n      dup5\n        /* \"lib/openzeppelin-contracts/contracts/token/ERC20/ERC20.sol\":10848:10853  value */\n      dup5\n        /* \"lib/openzeppelin-contracts/contracts/token/ERC20/ERC20.sol\":10829:10845  currentAllowance */\n      dup5\n        /* \"lib/openzeppelin-contracts/contracts/token/ERC20/ERC20.sol\":10829:10853  currentAllowance - value */\n      sub\n        /* \"lib/openzeppelin-contracts/contracts/token/ERC20/ERC20.sol\":10855:10860  false */\n      0x00\n        /* \"lib/openzeppelin-contracts/contracts/token/ERC20/ERC20.sol\":10804:10812  _approve */\n      tag_236\n        /* \"lib/openzeppelin-contracts/contracts/token/ERC20/ERC20.sol\":10804:10861  _approve(owner, spender, currentAllowance - value, false) */\n      jump\t// in\n    tag_243:\n        /* \"lib/openzeppelin-contracts/contracts/token/ERC20/ERC20.sol\":10504:10892  {... */\n      pop\n        /* \"lib/openzeppelin-contracts/contracts/token/ERC20/ERC20.sol\":10415:10892  function _spendAllowance(address owner, address spender, uint256 value) internal virtual {... */\n      pop\n      pop\n      pop\n      jump\t// out\n        /* \"lib/openzeppelin-contracts/contracts/token/ERC20/ERC20.sol\":5393:5693  function _transfer(address from, address to, uint256 value) internal {... */\n    tag_152:\n      sub(shl(0xa0, 0x01), 0x01)\n        /* \"lib/openzeppelin-contracts/contracts/token/ERC20/ERC20.sol\":5476:5494  from == address(0) */\n      dup4\n      and\n        /* \"lib/openzeppelin-contracts/contracts/token/ERC20/ERC20.sol\":5472:5558  if (from == address(0)) {... */\n      tag_245\n      jumpi\n        /* \"lib/openzeppelin-contracts/contracts/token/ERC20/ERC20.sol\":5517:5547  ERC20InvalidSender(address(0)) */\n      mload(0x40)\n      shl(0xe1, 0x4b637e8f)\n      dup2\n      mstore\n        /* \"lib/openzeppelin-contracts/contracts/token/ERC20/ERC20.sol\":5544:5545  0 */\n      0x00\n        /* \"lib/openzeppelin-contracts/contracts/token/ERC20/ERC20.sol\":5517:5547  ERC20InvalidSender(address(0)) */\n      0x04\n      dup3\n      add\n        /* \"#utility.yul\":2560:2611   */\n      mstore\n        /* \"#utility.yul\":2533:2551   */\n      0x24\n      add\n        /* \"lib/openzeppelin-contracts/contracts/token/ERC20/ERC20.sol\":5517:5547  ERC20InvalidSender(address(0)) */\n      tag_217\n        /* \"#utility.yul\":2393:2617   */\n      jump\n        /* \"lib/openzeppelin-contracts/contracts/token/ERC20/ERC20.sol\":5472:5558  if (from == address(0)) {... */\n    tag_245:\n      sub(shl(0xa0, 0x01), 0x01)\n        /* \"lib/openzeppelin-contracts/contracts/token/ERC20/ERC20.sol\":5571:5587  to == address(0) */\n      dup3\n      and\n        /* \"lib/openzeppelin-contracts/contracts/token/ERC20/ERC20.sol\":5567:5653  if (to == address(0)) {... */\n      tag_248\n      jumpi\n        /* \"lib/openzeppelin-contracts/contracts/token/ERC20/ERC20.sol\":5610:5642  ERC20InvalidReceiver(address(0)) */\n      mload(0x40)\n      shl(0xe0, 0xec442f05)\n      dup2\n      mstore\n        /* \"lib/openzeppelin-contracts/contracts/token/ERC20/ERC20.sol\":5639:5640  0 */\n      0x00\n        /* \"lib/openzeppelin-contracts/contracts/token/ERC20/ERC20.sol\":5610:5642  ERC20InvalidReceiver(address(0)) */\n      0x04\n      dup3\n      add\n        /* \"#utility.yul\":2560:2611   */\n      mstore\n        /* \"#utility.yul\":2533:2551   */\n      0x24\n      add\n        /* \"lib/openzeppelin-contracts/contracts/token/ERC20/ERC20.sol\":5610:5642  ERC20InvalidReceiver(address(0)) */\n      tag_217\n        /* \"#utility.yul\":2393:2617   */\n      jump\n        /* \"lib/openzeppelin-contracts/contracts/token/ERC20/ERC20.sol\":5567:5653  if (to == address(0)) {... */\n    tag_248:\n        /* \"lib/openzeppelin-contracts/contracts/token/ERC20/ERC20.sol\":5662:5686  _update(from, to, value) */\n      tag_235\n        /* \"lib/openzeppelin-contracts/contracts/token/ERC20/ERC20.sol\":5670:5674  from */\n      dup4\n        /* \"lib/openzeppelin-contracts/contracts/token/ERC20/ERC20.sol\":5676:5678  to */\n      dup4\n        /* \"lib/openzeppelin-contracts/contracts/token/ERC20/ERC20.sol\":5680:5685  value */\n      dup4\n        /* \"lib/openzeppelin-contracts/contracts/token/ERC20/ERC20.sol\":5662:5669  _update */\n      tag_251\n        /* \"lib/openzeppelin-contracts/contracts/token/ERC20/ERC20.sol\":5662:5686  _update(from, to, value) */\n      jump\t// in\n        /* \"src/scroll/ScrollRstETH.sol\":4047:4466  function _getTransientBalance() internal view returns (uint256) {... */\n    tag_156:\n        /* \"src/scroll/ScrollRstETH.sol\":4102:4109  uint256 */\n      0x00\n      dup1\n        /* \"src/scroll/ScrollRstETH.sol\":4151:4199  getValForPosition(DEPOSITED_VALIDATORS_POSITION) */\n      tag_253\n        /* \"src/scroll/ScrollRstETH.sol\":950:1016  0xe6e35175eb53fc006520a2a9c3e9711a7c00de6ff2c32dd31df8c5a24cac1b5c */\n      0xe6e35175eb53fc006520a2a9c3e9711a7c00de6ff2c32dd31df8c5a24cac1b5c\n        /* \"src/scroll/ScrollRstETH.sol\":4151:4168  getValForPosition */\n      tag_107\n        /* \"src/scroll/ScrollRstETH.sol\":4151:4199  getValForPosition(DEPOSITED_VALIDATORS_POSITION) */\n      jump\t// in\n    tag_253:\n        /* \"src/scroll/ScrollRstETH.sol\":4121:4199  uint256 depositedValidators = getValForPosition(DEPOSITED_VALIDATORS_POSITION) */\n      swap1\n      pop\n        /* \"src/scroll/ScrollRstETH.sol\":4209:4229  uint256 clValidators */\n      0x00\n        /* \"src/scroll/ScrollRstETH.sol\":4232:4273  getValForPosition(CL_VALIDATORS_POSITION) */\n      tag_254\n        /* \"src/scroll/ScrollRstETH.sol\":1128:1194  0x9f70001d82b6ef54e9d3725b46581c3eb9ee3aa02b941b6aa54d678a9ca35b10 */\n      0x9f70001d82b6ef54e9d3725b46581c3eb9ee3aa02b941b6aa54d678a9ca35b10\n        /* \"src/scroll/ScrollRstETH.sol\":4232:4249  getValForPosition */\n      tag_107\n        /* \"src/scroll/ScrollRstETH.sol\":4232:4273  getValForPosition(CL_VALIDATORS_POSITION) */\n      jump\t// in\n    tag_254:\n        /* \"src/scroll/ScrollRstETH.sol\":4209:4273  uint256 clValidators = getValForPosition(CL_VALIDATORS_POSITION) */\n      swap1\n      pop\n        /* \"src/scroll/ScrollRstETH.sol\":4377:4389  clValidators */\n      dup1\n        /* \"src/scroll/ScrollRstETH.sol\":4354:4373  depositedValidators */\n      dup3\n        /* \"src/scroll/ScrollRstETH.sol\":4354:4389  depositedValidators >= clValidators */\n      lt\n      iszero\n        /* \"src/scroll/ScrollRstETH.sol\":4347:4390  assert(depositedValidators >= clValidators) */\n      tag_256\n      jumpi\n      tag_256\n      tag_257\n      jump\t// in\n    tag_256:\n        /* \"src/scroll/ScrollRstETH.sol\":1285:1293  32 ether */\n      0x01bc16d674ec800000\n        /* \"src/scroll/ScrollRstETH.sol\":4409:4443  depositedValidators - clValidators */\n      tag_258\n        /* \"src/scroll/ScrollRstETH.sol\":4431:4443  clValidators */\n      dup3\n        /* \"src/scroll/ScrollRstETH.sol\":4409:4428  depositedValidators */\n      dup5\n        /* \"src/scroll/ScrollRstETH.sol\":4409:4443  depositedValidators - clValidators */\n      tag_198\n      jump\t// in\n    tag_258:\n        /* \"src/scroll/ScrollRstETH.sol\":4408:4459  (depositedValidators - clValidators) * DEPOSIT_SIZE */\n      tag_259\n      swap2\n      swap1\n      tag_177\n      jump\t// in\n    tag_259:\n        /* \"src/scroll/ScrollRstETH.sol\":4401:4459  return (depositedValidators - clValidators) * DEPOSIT_SIZE */\n      swap3\n      pop\n      pop\n      pop\n        /* \"src/scroll/ScrollRstETH.sol\":4047:4466  function _getTransientBalance() internal view returns (uint256) {... */\n      swap1\n      jump\t// out\n        /* \"lib/openzeppelin-contracts/contracts/token/ERC20/ERC20.sol\":7458:7666  function _mint(address account, uint256 value) internal {... */\n    tag_184:\n      sub(shl(0xa0, 0x01), 0x01)\n        /* \"lib/openzeppelin-contracts/contracts/token/ERC20/ERC20.sol\":7528:7549  account == address(0) */\n      dup3\n      and\n        /* \"lib/openzeppelin-contracts/contracts/token/ERC20/ERC20.sol\":7524:7615  if (account == address(0)) {... */\n      tag_261\n      jumpi\n        /* \"lib/openzeppelin-contracts/contracts/token/ERC20/ERC20.sol\":7572:7604  ERC20InvalidReceiver(address(0)) */\n      mload(0x40)\n      shl(0xe0, 0xec442f05)\n      dup2\n      mstore\n        /* \"lib/openzeppelin-contracts/contracts/token/ERC20/ERC20.sol\":7601:7602  0 */\n      0x00\n        /* \"lib/openzeppelin-contracts/contracts/token/ERC20/ERC20.sol\":7572:7604  ERC20InvalidReceiver(address(0)) */\n      0x04\n      dup3\n      add\n        /* \"#utility.yul\":2560:2611   */\n      mstore\n        /* \"#utility.yul\":2533:2551   */\n      0x24\n      add\n        /* \"lib/openzeppelin-contracts/contracts/token/ERC20/ERC20.sol\":7572:7604  ERC20InvalidReceiver(address(0)) */\n      tag_217\n        /* \"#utility.yul\":2393:2617   */\n      jump\n        /* \"lib/openzeppelin-contracts/contracts/token/ERC20/ERC20.sol\":7524:7615  if (account == address(0)) {... */\n    tag_261:\n        /* \"lib/openzeppelin-contracts/contracts/token/ERC20/ERC20.sol\":7624:7659  _update(address(0), account, value) */\n      tag_263\n        /* \"lib/openzeppelin-contracts/contracts/token/ERC20/ERC20.sol\":7640:7641  0 */\n      0x00\n        /* \"lib/openzeppelin-contracts/contracts/token/ERC20/ERC20.sol\":7644:7651  account */\n      dup4\n        /* \"lib/openzeppelin-contracts/contracts/token/ERC20/ERC20.sol\":7653:7658  value */\n      dup4\n        /* \"lib/openzeppelin-contracts/contracts/token/ERC20/ERC20.sol\":7624:7631  _update */\n      tag_251\n        /* \"lib/openzeppelin-contracts/contracts/token/ERC20/ERC20.sol\":7624:7659  _update(address(0), account, value) */\n      jump\t// in\n    tag_263:\n        /* \"lib/openzeppelin-contracts/contracts/token/ERC20/ERC20.sol\":7458:7666  function _mint(address account, uint256 value) internal {... */\n      pop\n      pop\n      jump\t// out\n        /* \"lib/openzeppelin-contracts/contracts/token/ERC20/ERC20.sol\":7984:8190  function _burn(address account, uint256 value) internal {... */\n    tag_195:\n      sub(shl(0xa0, 0x01), 0x01)\n        /* \"lib/openzeppelin-contracts/contracts/token/ERC20/ERC20.sol\":8054:8075  account == address(0) */\n      dup3\n      and\n        /* \"lib/openzeppelin-contracts/contracts/token/ERC20/ERC20.sol\":8050:8139  if (account == address(0)) {... */\n      tag_265\n      jumpi\n        /* \"lib/openzeppelin-contracts/contracts/token/ERC20/ERC20.sol\":8098:8128  ERC20InvalidSender(address(0)) */\n      mload(0x40)\n      shl(0xe1, 0x4b637e8f)\n      dup2\n      mstore\n        /* \"lib/openzeppelin-contracts/contracts/token/ERC20/ERC20.sol\":8125:8126  0 */\n      0x00\n        /* \"lib/openzeppelin-contracts/contracts/token/ERC20/ERC20.sol\":8098:8128  ERC20InvalidSender(address(0)) */\n      0x04\n      dup3\n      add\n        /* \"#utility.yul\":2560:2611   */\n      mstore\n        /* \"#utility.yul\":2533:2551   */\n      0x24\n      add\n        /* \"lib/openzeppelin-contracts/contracts/token/ERC20/ERC20.sol\":8098:8128  ERC20InvalidSender(address(0)) */\n      tag_217\n        /* \"#utility.yul\":2393:2617   */\n      jump\n        /* \"lib/openzeppelin-contracts/contracts/token/ERC20/ERC20.sol\":8050:8139  if (account == address(0)) {... */\n    tag_265:\n        /* \"lib/openzeppelin-contracts/contracts/token/ERC20/ERC20.sol\":8148:8183  _update(account, address(0), value) */\n      tag_263\n        /* \"lib/openzeppelin-contracts/contracts/token/ERC20/ERC20.sol\":8156:8163  account */\n      dup3\n        /* \"lib/openzeppelin-contracts/contracts/token/ERC20/ERC20.sol\":8173:8174  0 */\n      0x00\n        /* \"lib/openzeppelin-contracts/contracts/token/ERC20/ERC20.sol\":8177:8182  value */\n      dup4\n        /* \"lib/openzeppelin-contracts/contracts/token/ERC20/ERC20.sol\":8148:8155  _update */\n      tag_251\n        /* \"lib/openzeppelin-contracts/contracts/token/ERC20/ERC20.sol\":8148:8183  _update(account, address(0), value) */\n      jump\t// in\n        /* \"lib/openzeppelin-contracts/contracts/token/ERC20/ERC20.sol\":9701:10133  function _approve(address owner, address spender, uint256 value, bool emitEvent) internal virtual {... */\n    tag_236:\n      sub(shl(0xa0, 0x01), 0x01)\n        /* \"lib/openzeppelin-contracts/contracts/token/ERC20/ERC20.sol\":9813:9832  owner == address(0) */\n      dup5\n      and\n        /* \"lib/openzeppelin-contracts/contracts/token/ERC20/ERC20.sol\":9809:9898  if (owner == address(0)) {... */\n      tag_269\n      jumpi\n        /* \"lib/openzeppelin-contracts/contracts/token/ERC20/ERC20.sol\":9855:9887  ERC20InvalidApprover(address(0)) */\n      mload(0x40)\n      shl(0xe0, 0xe602df05)\n      dup2\n      mstore\n        /* \"lib/openzeppelin-contracts/contracts/token/ERC20/ERC20.sol\":9884:9885  0 */\n      0x00\n        /* \"lib/openzeppelin-contracts/contracts/token/ERC20/ERC20.sol\":9855:9887  ERC20InvalidApprover(address(0)) */\n      0x04\n      dup3\n      add\n        /* \"#utility.yul\":2560:2611   */\n      mstore\n        /* \"#utility.yul\":2533:2551   */\n      0x24\n      add\n        /* \"lib/openzeppelin-contracts/contracts/token/ERC20/ERC20.sol\":9855:9887  ERC20InvalidApprover(address(0)) */\n      tag_217\n        /* \"#utility.yul\":2393:2617   */\n      jump\n        /* \"lib/openzeppelin-contracts/contracts/token/ERC20/ERC20.sol\":9809:9898  if (owner == address(0)) {... */\n    tag_269:\n      sub(shl(0xa0, 0x01), 0x01)\n        /* \"lib/openzeppelin-contracts/contracts/token/ERC20/ERC20.sol\":9911:9932  spender == address(0) */\n      dup4\n      and\n        /* \"lib/openzeppelin-contracts/contracts/token/ERC20/ERC20.sol\":9907:9997  if (spender == address(0)) {... */\n      tag_271\n      jumpi\n        /* \"lib/openzeppelin-contracts/contracts/token/ERC20/ERC20.sol\":9955:9986  ERC20InvalidSpender(address(0)) */\n      mload(0x40)\n      shl(0xe1, 0x4a1406b1)\n      dup2\n      mstore\n        /* \"lib/openzeppelin-contracts/contracts/token/ERC20/ERC20.sol\":9983:9984  0 */\n      0x00\n        /* \"lib/openzeppelin-contracts/contracts/token/ERC20/ERC20.sol\":9955:9986  ERC20InvalidSpender(address(0)) */\n      0x04\n      dup3\n      add\n        /* \"#utility.yul\":2560:2611   */\n      mstore\n        /* \"#utility.yul\":2533:2551   */\n      0x24\n      add\n        /* \"lib/openzeppelin-contracts/contracts/token/ERC20/ERC20.sol\":9955:9986  ERC20InvalidSpender(address(0)) */\n      tag_217\n        /* \"#utility.yul\":2393:2617   */\n      jump\n        /* \"lib/openzeppelin-contracts/contracts/token/ERC20/ERC20.sol\":9907:9997  if (spender == address(0)) {... */\n    tag_271:\n      sub(shl(0xa0, 0x01), 0x01)\n        /* \"lib/openzeppelin-contracts/contracts/token/ERC20/ERC20.sol\":10006:10024  _allowances[owner] */\n      dup1\n      dup6\n      and\n      0x00\n      swap1\n      dup2\n      mstore\n        /* \"lib/openzeppelin-contracts/contracts/token/ERC20/ERC20.sol\":10006:10017  _allowances */\n      0x01\n        /* \"lib/openzeppelin-contracts/contracts/token/ERC20/ERC20.sol\":10006:10024  _allowances[owner] */\n      0x20\n      swap1\n      dup2\n      mstore\n      0x40\n      dup1\n      dup4\n      keccak256\n        /* \"lib/openzeppelin-contracts/contracts/token/ERC20/ERC20.sol\":10006:10033  _allowances[owner][spender] */\n      swap4\n      dup8\n      and\n      dup4\n      mstore\n      swap3\n      swap1\n      mstore\n      keccak256\n        /* \"lib/openzeppelin-contracts/contracts/token/ERC20/ERC20.sol\":10006:10041  _allowances[owner][spender] = value */\n      dup3\n      swap1\n      sstore\n        /* \"lib/openzeppelin-contracts/contracts/token/ERC20/ERC20.sol\":10051:10127  if (emitEvent) {... */\n      dup1\n      iszero\n      tag_243\n      jumpi\n        /* \"lib/openzeppelin-contracts/contracts/token/ERC20/ERC20.sol\":10101:10108  spender */\n      dup3\n      sub(shl(0xa0, 0x01), 0x01)\n        /* \"lib/openzeppelin-contracts/contracts/token/ERC20/ERC20.sol\":10085:10116  Approval(owner, spender, value) */\n      and\n        /* \"lib/openzeppelin-contracts/contracts/token/ERC20/ERC20.sol\":10094:10099  owner */\n      dup5\n      sub(shl(0xa0, 0x01), 0x01)\n        /* \"lib/openzeppelin-contracts/contracts/token/ERC20/ERC20.sol\":10085:10116  Approval(owner, spender, value) */\n      and\n      0x8c5be1e5ebec7d5bd14f71427d1e84f3dd0314c0f7b2291e5b200ac8c7c3b925\n        /* \"lib/openzeppelin-contracts/contracts/token/ERC20/ERC20.sol\":10110:10115  value */\n      dup5\n        /* \"lib/openzeppelin-contracts/contracts/token/ERC20/ERC20.sol\":10085:10116  Approval(owner, spender, value) */\n      mload(0x40)\n      tag_274\n      swap2\n        /* \"#utility.yul\":1379:1404   */\n      dup2\n      mstore\n        /* \"#utility.yul\":1367:1369   */\n      0x20\n        /* \"#utility.yul\":1352:1370   */\n      add\n      swap1\n        /* \"#utility.yul\":1233:1410   */\n      jump\n        /* \"lib/openzeppelin-contracts/contracts/token/ERC20/ERC20.sol\":10085:10116  Approval(owner, spender, value) */\n    tag_274:\n      mload(0x40)\n      dup1\n      swap2\n      sub\n      swap1\n      log3\n        /* \"lib/openzeppelin-contracts/contracts/token/ERC20/ERC20.sol\":9701:10133  function _approve(address owner, address spender, uint256 value, bool emitEvent) internal virtual {... */\n      pop\n      pop\n      pop\n      pop\n      jump\t// out\n        /* \"lib/openzeppelin-contracts/contracts/token/ERC20/ERC20.sol\":6008:7115  function _update(address from, address to, uint256 value) internal virtual {... */\n    tag_251:\n      sub(shl(0xa0, 0x01), 0x01)\n        /* \"lib/openzeppelin-contracts/contracts/token/ERC20/ERC20.sol\":6097:6115  from == address(0) */\n      dup4\n      and\n        /* \"lib/openzeppelin-contracts/contracts/token/ERC20/ERC20.sol\":6093:6633  if (from == address(0)) {... */\n      tag_276\n      jumpi\n        /* \"lib/openzeppelin-contracts/contracts/token/ERC20/ERC20.sol\":6249:6254  value */\n      dup1\n        /* \"lib/openzeppelin-contracts/contracts/token/ERC20/ERC20.sol\":6233:6245  _totalSupply */\n      0x02\n      0x00\n        /* \"lib/openzeppelin-contracts/contracts/token/ERC20/ERC20.sol\":6233:6254  _totalSupply += value */\n      dup3\n      dup3\n      sload\n      tag_277\n      swap2\n      swap1\n      tag_160\n      jump\t// in\n    tag_277:\n      swap1\n      swap2\n      sstore\n      pop\n        /* \"lib/openzeppelin-contracts/contracts/token/ERC20/ERC20.sol\":6093:6633  if (from == address(0)) {... */\n      tag_278\n      swap1\n      pop\n      jump\n    tag_276:\n      sub(shl(0xa0, 0x01), 0x01)\n        /* \"lib/openzeppelin-contracts/contracts/token/ERC20/ERC20.sol\":6307:6322  _balances[from] */\n      dup4\n      and\n        /* \"lib/openzeppelin-contracts/contracts/token/ERC20/ERC20.sol\":6285:6304  uint256 fromBalance */\n      0x00\n        /* \"lib/openzeppelin-contracts/contracts/token/ERC20/ERC20.sol\":6307:6322  _balances[from] */\n      swap1\n      dup2\n      mstore\n      0x20\n      dup2\n      swap1\n      mstore\n      0x40\n      swap1\n      keccak256\n      sload\n        /* \"lib/openzeppelin-contracts/contracts/token/ERC20/ERC20.sol\":6340:6359  fromBalance < value */\n      dup2\n      dup2\n      lt\n        /* \"lib/openzeppelin-contracts/contracts/token/ERC20/ERC20.sol\":6336:6451  if (fromBalance < value) {... */\n      iszero\n      tag_279\n      jumpi\n        /* \"lib/openzeppelin-contracts/contracts/token/ERC20/ERC20.sol\":6386:6436  ERC20InsufficientBalance(from, fromBalance, value) */\n      mload(0x40)\n      shl(0xe2, 0x391434e3)\n      dup2\n      mstore\n      sub(shl(0xa0, 0x01), 0x01)\n        /* \"#utility.yul\":9620:9652   */\n      dup6\n      and\n        /* \"lib/openzeppelin-contracts/contracts/token/ERC20/ERC20.sol\":6386:6436  ERC20InsufficientBalance(from, fromBalance, value) */\n      0x04\n      dup3\n      add\n        /* \"#utility.yul\":9602:9653   */\n      mstore\n        /* \"#utility.yul\":9669:9687   */\n      0x24\n      dup2\n      add\n        /* \"#utility.yul\":9662:9696   */\n      dup3\n      swap1\n      mstore\n        /* \"#utility.yul\":9712:9730   */\n      0x44\n      dup2\n      add\n        /* \"#utility.yul\":9705:9739   */\n      dup4\n      swap1\n      mstore\n        /* \"#utility.yul\":9575:9593   */\n      0x64\n      add\n        /* \"lib/openzeppelin-contracts/contracts/token/ERC20/ERC20.sol\":6386:6436  ERC20InsufficientBalance(from, fromBalance, value) */\n      tag_217\n        /* \"#utility.yul\":9400:9745   */\n      jump\n        /* \"lib/openzeppelin-contracts/contracts/token/ERC20/ERC20.sol\":6336:6451  if (fromBalance < value) {... */\n    tag_279:\n      sub(shl(0xa0, 0x01), 0x01)\n        /* \"lib/openzeppelin-contracts/contracts/token/ERC20/ERC20.sol\":6571:6586  _balances[from] */\n      dup5\n      and\n        /* \"lib/openzeppelin-contracts/contracts/token/ERC20/ERC20.sol\":6571:6580  _balances */\n      0x00\n        /* \"lib/openzeppelin-contracts/contracts/token/ERC20/ERC20.sol\":6571:6586  _balances[from] */\n      swap1\n      dup2\n      mstore\n      0x20\n      dup2\n      swap1\n      mstore\n      0x40\n      swap1\n      keccak256\n        /* \"lib/openzeppelin-contracts/contracts/token/ERC20/ERC20.sol\":6589:6608  fromBalance - value */\n      swap1\n      dup3\n      swap1\n      sub\n        /* \"lib/openzeppelin-contracts/contracts/token/ERC20/ERC20.sol\":6571:6608  _balances[from] = fromBalance - value */\n      swap1\n      sstore\n        /* \"lib/openzeppelin-contracts/contracts/token/ERC20/ERC20.sol\":6093:6633  if (from == address(0)) {... */\n    tag_278:\n      sub(shl(0xa0, 0x01), 0x01)\n        /* \"lib/openzeppelin-contracts/contracts/token/ERC20/ERC20.sol\":6647:6663  to == address(0) */\n      dup3\n      and\n        /* \"lib/openzeppelin-contracts/contracts/token/ERC20/ERC20.sol\":6643:7068  if (to == address(0)) {... */\n      tag_281\n      jumpi\n        /* \"lib/openzeppelin-contracts/contracts/token/ERC20/ERC20.sol\":6810:6822  _totalSupply */\n      0x02\n        /* \"lib/openzeppelin-contracts/contracts/token/ERC20/ERC20.sol\":6810:6831  _totalSupply -= value */\n      dup1\n      sload\n      dup3\n      swap1\n      sub\n      swap1\n      sstore\n        /* \"lib/openzeppelin-contracts/contracts/token/ERC20/ERC20.sol\":6643:7068  if (to == address(0)) {... */\n      jump(tag_282)\n    tag_281:\n      sub(shl(0xa0, 0x01), 0x01)\n        /* \"lib/openzeppelin-contracts/contracts/token/ERC20/ERC20.sol\":7021:7034  _balances[to] */\n      dup3\n      and\n        /* \"lib/openzeppelin-contracts/contracts/token/ERC20/ERC20.sol\":7021:7030  _balances */\n      0x00\n        /* \"lib/openzeppelin-contracts/contracts/token/ERC20/ERC20.sol\":7021:7034  _balances[to] */\n      swap1\n      dup2\n      mstore\n      0x20\n      dup2\n      swap1\n      mstore\n      0x40\n      swap1\n      keccak256\n        /* \"lib/openzeppelin-contracts/contracts/token/ERC20/ERC20.sol\":7021:7043  _balances[to] += value */\n      dup1\n      sload\n      dup3\n      add\n      swap1\n      sstore\n        /* \"lib/openzeppelin-contracts/contracts/token/ERC20/ERC20.sol\":6643:7068  if (to == address(0)) {... */\n    tag_282:\n        /* \"lib/openzeppelin-contracts/contracts/token/ERC20/ERC20.sol\":7098:7100  to */\n      dup2\n      sub(shl(0xa0, 0x01), 0x01)\n        /* \"lib/openzeppelin-contracts/contracts/token/ERC20/ERC20.sol\":7083:7108  Transfer(from, to, value) */\n      and\n        /* \"lib/openzeppelin-contracts/contracts/token/ERC20/ERC20.sol\":7092:7096  from */\n      dup4\n      sub(shl(0xa0, 0x01), 0x01)\n        /* \"lib/openzeppelin-contracts/contracts/token/ERC20/ERC20.sol\":7083:7108  Transfer(from, to, value) */\n      and\n      0xddf252ad1be2c89b69c2b068fc378daa952ba7f163c4a11628f55a4df523b3ef\n        /* \"lib/openzeppelin-contracts/contracts/token/ERC20/ERC20.sol\":7102:7107  value */\n      dup4\n        /* \"lib/openzeppelin-contracts/contracts/token/ERC20/ERC20.sol\":7083:7108  Transfer(from, to, value) */\n      mload(0x40)\n      tag_283\n      swap2\n        /* \"#utility.yul\":1379:1404   */\n      dup2\n      mstore\n        /* \"#utility.yul\":1367:1369   */\n      0x20\n        /* \"#utility.yul\":1352:1370   */\n      add\n      swap1\n        /* \"#utility.yul\":1233:1410   */\n      jump\n        /* \"lib/openzeppelin-contracts/contracts/token/ERC20/ERC20.sol\":7083:7108  Transfer(from, to, value) */\n    tag_283:\n      mload(0x40)\n      dup1\n      swap2\n      sub\n      swap1\n      log3\n        /* \"lib/openzeppelin-contracts/contracts/token/ERC20/ERC20.sol\":6008:7115  function _update(address from, address to, uint256 value) internal virtual {... */\n      pop\n      pop\n      pop\n      jump\t// out\n        /* \"#utility.yul\":14:303   */\n    tag_284:\n        /* \"#utility.yul\":56:59   */\n      0x00\n        /* \"#utility.yul\":94:99   */\n      dup2\n        /* \"#utility.yul\":88:100   */\n      mload\n        /* \"#utility.yul\":121:127   */\n      dup1\n        /* \"#utility.yul\":116:119   */\n      dup5\n        /* \"#utility.yul\":109:128   */\n      mstore\n        /* \"#utility.yul\":177:183   */\n      dup1\n        /* \"#utility.yul\":170:174   */\n      0x20\n        /* \"#utility.yul\":163:168   */\n      dup5\n        /* \"#utility.yul\":159:175   */\n      add\n        /* \"#utility.yul\":152:156   */\n      0x20\n        /* \"#utility.yul\":147:150   */\n      dup7\n        /* \"#utility.yul\":143:157   */\n      add\n        /* \"#utility.yul\":137:184   */\n      mcopy\n        /* \"#utility.yul\":229:230   */\n      0x00\n        /* \"#utility.yul\":222:226   */\n      0x20\n        /* \"#utility.yul\":213:219   */\n      dup3\n        /* \"#utility.yul\":208:211   */\n      dup7\n        /* \"#utility.yul\":204:220   */\n      add\n        /* \"#utility.yul\":200:227   */\n      add\n        /* \"#utility.yul\":193:231   */\n      mstore\n        /* \"#utility.yul\":292:296   */\n      0x20\n        /* \"#utility.yul\":285:287   */\n      0x1f\n        /* \"#utility.yul\":281:288   */\n      not\n        /* \"#utility.yul\":276:278   */\n      0x1f\n        /* \"#utility.yul\":268:274   */\n      dup4\n        /* \"#utility.yul\":264:279   */\n      add\n        /* \"#utility.yul\":260:289   */\n      and\n        /* \"#utility.yul\":255:258   */\n      dup6\n        /* \"#utility.yul\":251:290   */\n      add\n        /* \"#utility.yul\":247:297   */\n      add\n        /* \"#utility.yul\":240:297   */\n      swap2\n      pop\n      pop\n        /* \"#utility.yul\":14:303   */\n      swap3\n      swap2\n      pop\n      pop\n      jump\t// out\n        /* \"#utility.yul\":308:528   */\n    tag_33:\n        /* \"#utility.yul\":457:459   */\n      0x20\n        /* \"#utility.yul\":446:455   */\n      dup2\n        /* \"#utility.yul\":439:460   */\n      mstore\n        /* \"#utility.yul\":420:424   */\n      0x00\n        /* \"#utility.yul\":477:522   */\n      tag_292\n        /* \"#utility.yul\":518:520   */\n      0x20\n        /* \"#utility.yul\":507:516   */\n      dup4\n        /* \"#utility.yul\":503:521   */\n      add\n        /* \"#utility.yul\":495:501   */\n      dup5\n        /* \"#utility.yul\":477:522   */\n      tag_284\n      jump\t// in\n    tag_292:\n        /* \"#utility.yul\":469:522   */\n      swap4\n        /* \"#utility.yul\":308:528   */\n      swap3\n      pop\n      pop\n      pop\n      jump\t// out\n        /* \"#utility.yul\":533:664   */\n    tag_285:\n      sub(shl(0xa0, 0x01), 0x01)\n        /* \"#utility.yul\":608:639   */\n      dup2\n      and\n        /* \"#utility.yul\":598:640   */\n      dup2\n      eq\n        /* \"#utility.yul\":588:658   */\n      tag_168\n      jumpi\n        /* \"#utility.yul\":654:655   */\n      0x00\n        /* \"#utility.yul\":651:652   */\n      0x00\n        /* \"#utility.yul\":644:656   */\n      revert\n        /* \"#utility.yul\":669:1036   */\n    tag_37:\n        /* \"#utility.yul\":737:743   */\n      0x00\n        /* \"#utility.yul\":745:751   */\n      0x00\n        /* \"#utility.yul\":798:800   */\n      0x40\n        /* \"#utility.yul\":786:795   */\n      dup4\n        /* \"#utility.yul\":777:784   */\n      dup6\n        /* \"#utility.yul\":773:796   */\n      sub\n        /* \"#utility.yul\":769:801   */\n      slt\n        /* \"#utility.yul\":766:818   */\n      iszero\n      tag_296\n      jumpi\n        /* \"#utility.yul\":814:815   */\n      0x00\n        /* \"#utility.yul\":811:812   */\n      0x00\n        /* \"#utility.yul\":804:816   */\n      revert\n        /* \"#utility.yul\":766:818   */\n    tag_296:\n        /* \"#utility.yul\":853:862   */\n      dup3\n        /* \"#utility.yul\":840:863   */\n      calldataload\n        /* \"#utility.yul\":872:903   */\n      tag_297\n        /* \"#utility.yul\":897:902   */\n      dup2\n        /* \"#utility.yul\":872:903   */\n      tag_285\n      jump\t// in\n    tag_297:\n        /* \"#utility.yul\":922:927   */\n      swap5\n        /* \"#utility.yul\":1000:1002   */\n      0x20\n        /* \"#utility.yul\":985:1003   */\n      swap4\n      swap1\n      swap4\n      add\n        /* \"#utility.yul\":972:1004   */\n      calldataload\n      swap4\n      pop\n      pop\n      pop\n        /* \"#utility.yul\":669:1036   */\n      jump\t// out\n        /* \"#utility.yul\":1415:1923   */\n    tag_49:\n        /* \"#utility.yul\":1492:1498   */\n      0x00\n        /* \"#utility.yul\":1500:1506   */\n      0x00\n        /* \"#utility.yul\":1508:1514   */\n      0x00\n        /* \"#utility.yul\":1561:1563   */\n      0x60\n        /* \"#utility.yul\":1549:1558   */\n      dup5\n        /* \"#utility.yul\":1540:1547   */\n      dup7\n        /* \"#utility.yul\":1536:1559   */\n      sub\n        /* \"#utility.yul\":1532:1564   */\n      slt\n        /* \"#utility.yul\":1529:1581   */\n      iszero\n      tag_301\n      jumpi\n        /* \"#utility.yul\":1577:1578   */\n      0x00\n        /* \"#utility.yul\":1574:1575   */\n      0x00\n        /* \"#utility.yul\":1567:1579   */\n      revert\n        /* \"#utility.yul\":1529:1581   */\n    tag_301:\n        /* \"#utility.yul\":1616:1625   */\n      dup4\n        /* \"#utility.yul\":1603:1626   */\n      calldataload\n        /* \"#utility.yul\":1635:1666   */\n      tag_302\n        /* \"#utility.yul\":1660:1665   */\n      dup2\n        /* \"#utility.yul\":1635:1666   */\n      tag_285\n      jump\t// in\n    tag_302:\n        /* \"#utility.yul\":1685:1690   */\n      swap3\n      pop\n        /* \"#utility.yul\":1742:1744   */\n      0x20\n        /* \"#utility.yul\":1727:1745   */\n      dup5\n      add\n        /* \"#utility.yul\":1714:1746   */\n      calldataload\n        /* \"#utility.yul\":1755:1788   */\n      tag_303\n        /* \"#utility.yul\":1714:1746   */\n      dup2\n        /* \"#utility.yul\":1755:1788   */\n      tag_285\n      jump\t// in\n    tag_303:\n        /* \"#utility.yul\":1415:1923   */\n      swap3\n      swap6\n        /* \"#utility.yul\":1807:1814   */\n      swap3\n      swap5\n      pop\n      pop\n      pop\n        /* \"#utility.yul\":1887:1889   */\n      0x40\n        /* \"#utility.yul\":1872:1890   */\n      swap2\n      swap1\n      swap2\n      add\n        /* \"#utility.yul\":1859:1891   */\n      calldataload\n      swap1\n        /* \"#utility.yul\":1415:1923   */\n      jump\t// out\n        /* \"#utility.yul\":2117:2388   */\n    tag_67:\n        /* \"#utility.yul\":2200:2206   */\n      0x00\n        /* \"#utility.yul\":2253:2255   */\n      0x20\n        /* \"#utility.yul\":2241:2250   */\n      dup3\n        /* \"#utility.yul\":2232:2239   */\n      dup5\n        /* \"#utility.yul\":2228:2251   */\n      sub\n        /* \"#utility.yul\":2224:2256   */\n      slt\n        /* \"#utility.yul\":2221:2273   */\n      iszero\n      tag_306\n      jumpi\n        /* \"#utility.yul\":2269:2270   */\n      0x00\n        /* \"#utility.yul\":2266:2267   */\n      0x00\n        /* \"#utility.yul\":2259:2271   */\n      revert\n        /* \"#utility.yul\":2221:2273   */\n    tag_306:\n        /* \"#utility.yul\":2308:2317   */\n      dup2\n        /* \"#utility.yul\":2295:2318   */\n      calldataload\n        /* \"#utility.yul\":2327:2358   */\n      tag_292\n        /* \"#utility.yul\":2352:2357   */\n      dup2\n        /* \"#utility.yul\":2327:2358   */\n      tag_285\n      jump\t// in\n        /* \"#utility.yul\":2874:3100   */\n    tag_83:\n        /* \"#utility.yul\":2933:2939   */\n      0x00\n        /* \"#utility.yul\":2986:2988   */\n      0x20\n        /* \"#utility.yul\":2974:2983   */\n      dup3\n        /* \"#utility.yul\":2965:2972   */\n      dup5\n        /* \"#utility.yul\":2961:2984   */\n      sub\n        /* \"#utility.yul\":2957:2989   */\n      slt\n        /* \"#utility.yul\":2954:3006   */\n      iszero\n      tag_313\n      jumpi\n        /* \"#utility.yul\":3002:3003   */\n      0x00\n        /* \"#utility.yul\":2999:3000   */\n      0x00\n        /* \"#utility.yul\":2992:3004   */\n      revert\n        /* \"#utility.yul\":2954:3006   */\n    tag_313:\n      pop\n        /* \"#utility.yul\":3047:3070   */\n      calldataload\n      swap2\n        /* \"#utility.yul\":2874:3100   */\n      swap1\n      pop\n      jump\t// out\n        /* \"#utility.yul\":3105:3232   */\n    tag_286:\n        /* \"#utility.yul\":3166:3176   */\n      0x4e487b71\n        /* \"#utility.yul\":3161:3164   */\n      0xe0\n        /* \"#utility.yul\":3157:3177   */\n      shl\n        /* \"#utility.yul\":3154:3155   */\n      0x00\n        /* \"#utility.yul\":3147:3178   */\n      mstore\n        /* \"#utility.yul\":3197:3201   */\n      0x41\n        /* \"#utility.yul\":3194:3195   */\n      0x04\n        /* \"#utility.yul\":3187:3202   */\n      mstore\n        /* \"#utility.yul\":3221:3225   */\n      0x24\n        /* \"#utility.yul\":3218:3219   */\n      0x00\n        /* \"#utility.yul\":3211:3226   */\n      revert\n        /* \"#utility.yul\":3237:3512   */\n    tag_287:\n        /* \"#utility.yul\":3308:3310   */\n      0x40\n        /* \"#utility.yul\":3302:3311   */\n      mload\n        /* \"#utility.yul\":3373:3375   */\n      0x1f\n        /* \"#utility.yul\":3354:3367   */\n      dup3\n      add\n      not(0x1f)\n        /* \"#utility.yul\":3350:3377   */\n      and\n        /* \"#utility.yul\":3338:3378   */\n      dup2\n      add\n        /* \"#utility.yul\":3408:3426   */\n      0xffffffffffffffff\n        /* \"#utility.yul\":3393:3427   */\n      dup2\n      gt\n        /* \"#utility.yul\":3429:3451   */\n      dup3\n      dup3\n      lt\n        /* \"#utility.yul\":3390:3452   */\n      or\n        /* \"#utility.yul\":3387:3475   */\n      iszero\n      tag_317\n      jumpi\n        /* \"#utility.yul\":3455:3473   */\n      tag_317\n      tag_286\n      jump\t// in\n    tag_317:\n        /* \"#utility.yul\":3491:3493   */\n      0x40\n        /* \"#utility.yul\":3484:3506   */\n      mstore\n        /* \"#utility.yul\":3237:3512   */\n      swap2\n      swap1\n      pop\n      jump\t// out\n        /* \"#utility.yul\":3517:4282   */\n    tag_94:\n        /* \"#utility.yul\":3585:3591   */\n      0x00\n        /* \"#utility.yul\":3638:3640   */\n      0x20\n        /* \"#utility.yul\":3626:3635   */\n      dup3\n        /* \"#utility.yul\":3617:3624   */\n      dup5\n        /* \"#utility.yul\":3613:3636   */\n      sub\n        /* \"#utility.yul\":3609:3641   */\n      slt\n        /* \"#utility.yul\":3606:3658   */\n      iszero\n      tag_319\n      jumpi\n        /* \"#utility.yul\":3654:3655   */\n      0x00\n        /* \"#utility.yul\":3651:3652   */\n      0x00\n        /* \"#utility.yul\":3644:3656   */\n      revert\n        /* \"#utility.yul\":3606:3658   */\n    tag_319:\n        /* \"#utility.yul\":3694:3703   */\n      dup2\n        /* \"#utility.yul\":3681:3704   */\n      calldataload\n        /* \"#utility.yul\":3727:3745   */\n      0xffffffffffffffff\n        /* \"#utility.yul\":3719:3725   */\n      dup2\n        /* \"#utility.yul\":3716:3746   */\n      gt\n        /* \"#utility.yul\":3713:3763   */\n      iszero\n      tag_320\n      jumpi\n        /* \"#utility.yul\":3759:3760   */\n      0x00\n        /* \"#utility.yul\":3756:3757   */\n      0x00\n        /* \"#utility.yul\":3749:3761   */\n      revert\n        /* \"#utility.yul\":3713:3763   */\n    tag_320:\n        /* \"#utility.yul\":3782:3804   */\n      dup3\n      add\n        /* \"#utility.yul\":3835:3839   */\n      0x1f\n        /* \"#utility.yul\":3827:3840   */\n      dup2\n      add\n        /* \"#utility.yul\":3823:3850   */\n      dup5\n      sgt\n        /* \"#utility.yul\":3813:3868   */\n      tag_321\n      jumpi\n        /* \"#utility.yul\":3864:3865   */\n      0x00\n        /* \"#utility.yul\":3861:3862   */\n      0x00\n        /* \"#utility.yul\":3854:3866   */\n      revert\n        /* \"#utility.yul\":3813:3868   */\n    tag_321:\n        /* \"#utility.yul\":3904:3906   */\n      dup1\n        /* \"#utility.yul\":3891:3907   */\n      calldataload\n        /* \"#utility.yul\":3930:3948   */\n      0xffffffffffffffff\n        /* \"#utility.yul\":3922:3928   */\n      dup2\n        /* \"#utility.yul\":3919:3949   */\n      gt\n        /* \"#utility.yul\":3916:3972   */\n      iszero\n      tag_323\n      jumpi\n        /* \"#utility.yul\":3952:3970   */\n      tag_323\n      tag_286\n      jump\t// in\n    tag_323:\n        /* \"#utility.yul\":3994:4051   */\n      tag_324\n        /* \"#utility.yul\":4041:4043   */\n      0x1f\n        /* \"#utility.yul\":4018:4035   */\n      dup3\n      add\n      not(0x1f)\n        /* \"#utility.yul\":4014:4045   */\n      and\n        /* \"#utility.yul\":4047:4049   */\n      0x20\n        /* \"#utility.yul\":4010:4050   */\n      add\n        /* \"#utility.yul\":3994:4051   */\n      tag_287\n      jump\t// in\n    tag_324:\n        /* \"#utility.yul\":4074:4080   */\n      dup2\n        /* \"#utility.yul\":4067:4072   */\n      dup2\n        /* \"#utility.yul\":4060:4081   */\n      mstore\n        /* \"#utility.yul\":4122:4129   */\n      dup6\n        /* \"#utility.yul\":4117:4119   */\n      0x20\n        /* \"#utility.yul\":4108:4114   */\n      dup4\n        /* \"#utility.yul\":4104:4106   */\n      dup6\n        /* \"#utility.yul\":4100:4115   */\n      add\n        /* \"#utility.yul\":4096:4120   */\n      add\n        /* \"#utility.yul\":4093:4130   */\n      gt\n        /* \"#utility.yul\":4090:4147   */\n      iszero\n      tag_325\n      jumpi\n        /* \"#utility.yul\":4143:4144   */\n      0x00\n        /* \"#utility.yul\":4140:4141   */\n      0x00\n        /* \"#utility.yul\":4133:4145   */\n      revert\n        /* \"#utility.yul\":4090:4147   */\n    tag_325:\n        /* \"#utility.yul\":4198:4204   */\n      dup2\n        /* \"#utility.yul\":4193:4195   */\n      0x20\n        /* \"#utility.yul\":4189:4191   */\n      dup5\n        /* \"#utility.yul\":4185:4196   */\n      add\n        /* \"#utility.yul\":4180:4182   */\n      0x20\n        /* \"#utility.yul\":4173:4178   */\n      dup4\n        /* \"#utility.yul\":4169:4183   */\n      add\n        /* \"#utility.yul\":4156:4205   */\n      calldatacopy\n        /* \"#utility.yul\":4250:4251   */\n      0x00\n        /* \"#utility.yul\":4225:4243   */\n      swap2\n      dup2\n      add\n        /* \"#utility.yul\":4245:4247   */\n      0x20\n        /* \"#utility.yul\":4221:4248   */\n      add\n        /* \"#utility.yul\":4214:4252   */\n      swap2\n      swap1\n      swap2\n      mstore\n        /* \"#utility.yul\":4229:4234   */\n      swap5\n        /* \"#utility.yul\":3517:4282   */\n      swap4\n      pop\n      pop\n      pop\n      pop\n      jump\t// out\n        /* \"#utility.yul\":4704:5092   */\n    tag_127:\n        /* \"#utility.yul\":4772:4778   */\n      0x00\n        /* \"#utility.yul\":4780:4786   */\n      0x00\n        /* \"#utility.yul\":4833:4835   */\n      0x40\n        /* \"#utility.yul\":4821:4830   */\n      dup4\n        /* \"#utility.yul\":4812:4819   */\n      dup6\n        /* \"#utility.yul\":4808:4831   */\n      sub\n        /* \"#utility.yul\":4804:4836   */\n      slt\n        /* \"#utility.yul\":4801:4853   */\n      iszero\n      tag_330\n      jumpi\n        /* \"#utility.yul\":4849:4850   */\n      0x00\n        /* \"#utility.yul\":4846:4847   */\n      0x00\n        /* \"#utility.yul\":4839:4851   */\n      revert\n        /* \"#utility.yul\":4801:4853   */\n    tag_330:\n        /* \"#utility.yul\":4888:4897   */\n      dup3\n        /* \"#utility.yul\":4875:4898   */\n      calldataload\n        /* \"#utility.yul\":4907:4938   */\n      tag_331\n        /* \"#utility.yul\":4932:4937   */\n      dup2\n        /* \"#utility.yul\":4907:4938   */\n      tag_285\n      jump\t// in\n    tag_331:\n        /* \"#utility.yul\":4957:4962   */\n      swap2\n      pop\n        /* \"#utility.yul\":5014:5016   */\n      0x20\n        /* \"#utility.yul\":4999:5017   */\n      dup4\n      add\n        /* \"#utility.yul\":4986:5018   */\n      calldataload\n        /* \"#utility.yul\":5027:5060   */\n      tag_332\n        /* \"#utility.yul\":4986:5018   */\n      dup2\n        /* \"#utility.yul\":5027:5060   */\n      tag_285\n      jump\t// in\n    tag_332:\n        /* \"#utility.yul\":5079:5086   */\n      dup1\n        /* \"#utility.yul\":5069:5086   */\n      swap2\n      pop\n      pop\n        /* \"#utility.yul\":4704:5092   */\n      swap3\n      pop\n      swap3\n      swap1\n      pop\n      jump\t// out\n        /* \"#utility.yul\":5097:5477   */\n    tag_136:\n        /* \"#utility.yul\":5176:5177   */\n      0x01\n        /* \"#utility.yul\":5172:5184   */\n      dup2\n      dup2\n      shr\n      swap1\n        /* \"#utility.yul\":5219:5231   */\n      dup3\n      and\n      dup1\n        /* \"#utility.yul\":5240:5301   */\n      tag_334\n      jumpi\n        /* \"#utility.yul\":5294:5298   */\n      0x7f\n        /* \"#utility.yul\":5286:5292   */\n      dup3\n        /* \"#utility.yul\":5282:5299   */\n      and\n        /* \"#utility.yul\":5272:5299   */\n      swap2\n      pop\n        /* \"#utility.yul\":5240:5301   */\n    tag_334:\n        /* \"#utility.yul\":5347:5349   */\n      0x20\n        /* \"#utility.yul\":5339:5345   */\n      dup3\n        /* \"#utility.yul\":5336:5350   */\n      lt\n        /* \"#utility.yul\":5316:5334   */\n      dup2\n        /* \"#utility.yul\":5313:5351   */\n      sub\n        /* \"#utility.yul\":5310:5471   */\n      tag_335\n      jumpi\n        /* \"#utility.yul\":5393:5403   */\n      0x4e487b71\n        /* \"#utility.yul\":5388:5391   */\n      0xe0\n        /* \"#utility.yul\":5384:5404   */\n      shl\n        /* \"#utility.yul\":5381:5382   */\n      0x00\n        /* \"#utility.yul\":5374:5405   */\n      mstore\n        /* \"#utility.yul\":5428:5432   */\n      0x22\n        /* \"#utility.yul\":5425:5426   */\n      0x04\n        /* \"#utility.yul\":5418:5433   */\n      mstore\n        /* \"#utility.yul\":5456:5460   */\n      0x24\n        /* \"#utility.yul\":5453:5454   */\n      0x00\n        /* \"#utility.yul\":5446:5461   */\n      revert\n        /* \"#utility.yul\":5310:5471   */\n    tag_335:\n      pop\n        /* \"#utility.yul\":5097:5477   */\n      swap2\n      swap1\n      pop\n      jump\t// out\n        /* \"#utility.yul\":5482:5609   */\n    tag_288:\n        /* \"#utility.yul\":5543:5553   */\n      0x4e487b71\n        /* \"#utility.yul\":5538:5541   */\n      0xe0\n        /* \"#utility.yul\":5534:5554   */\n      shl\n        /* \"#utility.yul\":5531:5532   */\n      0x00\n        /* \"#utility.yul\":5524:5555   */\n      mstore\n        /* \"#utility.yul\":5574:5578   */\n      0x11\n        /* \"#utility.yul\":5571:5572   */\n      0x04\n        /* \"#utility.yul\":5564:5579   */\n      mstore\n        /* \"#utility.yul\":5598:5602   */\n      0x24\n        /* \"#utility.yul\":5595:5596   */\n      0x00\n        /* \"#utility.yul\":5588:5603   */\n      revert\n        /* \"#utility.yul\":5614:5739   */\n    tag_160:\n        /* \"#utility.yul\":5679:5688   */\n      dup1\n      dup3\n      add\n        /* \"#utility.yul\":5700:5710   */\n      dup1\n      dup3\n      gt\n        /* \"#utility.yul\":5697:5733   */\n      iszero\n      tag_141\n      jumpi\n        /* \"#utility.yul\":5713:5731   */\n      tag_141\n      tag_288\n      jump\t// in\n        /* \"#utility.yul\":5954:6122   */\n    tag_177:\n        /* \"#utility.yul\":6027:6036   */\n      dup1\n      dup3\n      mul\n        /* \"#utility.yul\":6058:6067   */\n      dup2\n      iszero\n        /* \"#utility.yul\":6075:6090   */\n      dup3\n      dup3\n      div\n        /* \"#utility.yul\":6069:6091   */\n      dup5\n      eq\n        /* \"#utility.yul\":6055:6092   */\n      or\n        /* \"#utility.yul\":6045:6116   */\n      tag_141\n      jumpi\n        /* \"#utility.yul\":6096:6114   */\n      tag_141\n      tag_288\n      jump\t// in\n        /* \"#utility.yul\":6127:6344   */\n    tag_179:\n        /* \"#utility.yul\":6167:6168   */\n      0x00\n        /* \"#utility.yul\":6193:6194   */\n      dup3\n        /* \"#utility.yul\":6183:6315   */\n      tag_345\n      jumpi\n        /* \"#utility.yul\":6237:6247   */\n      0x4e487b71\n        /* \"#utility.yul\":6232:6235   */\n      0xe0\n        /* \"#utility.yul\":6228:6248   */\n      shl\n        /* \"#utility.yul\":6225:6226   */\n      0x00\n        /* \"#utility.yul\":6218:6249   */\n      mstore\n        /* \"#utility.yul\":6272:6276   */\n      0x12\n        /* \"#utility.yul\":6269:6270   */\n      0x04\n        /* \"#utility.yul\":6262:6277   */\n      mstore\n        /* \"#utility.yul\":6300:6304   */\n      0x24\n        /* \"#utility.yul\":6297:6298   */\n      0x00\n        /* \"#utility.yul\":6290:6305   */\n      revert\n        /* \"#utility.yul\":6183:6315   */\n    tag_345:\n      pop\n        /* \"#utility.yul\":6329:6338   */\n      div\n      swap1\n        /* \"#utility.yul\":6127:6344   */\n      jump\t// out\n        /* \"#utility.yul\":6349:7036   */\n    tag_182:\n        /* \"#utility.yul\":6454:6460   */\n      0x00\n        /* \"#utility.yul\":6514:6516   */\n      0x40\n        /* \"#utility.yul\":6502:6511   */\n      dup3\n        /* \"#utility.yul\":6493:6500   */\n      dup5\n        /* \"#utility.yul\":6489:6512   */\n      sub\n        /* \"#utility.yul\":6485:6517   */\n      slt\n        /* \"#utility.yul\":6529:6531   */\n      dup1\n        /* \"#utility.yul\":6526:6548   */\n      iszero\n      tag_347\n      jumpi\n        /* \"#utility.yul\":6544:6545   */\n      0x00\n        /* \"#utility.yul\":6541:6542   */\n      0x00\n        /* \"#utility.yul\":6534:6546   */\n      revert\n        /* \"#utility.yul\":6526:6548   */\n    tag_347:\n      pop\n        /* \"#utility.yul\":6613:6615   */\n      0x40\n        /* \"#utility.yul\":6607:6616   */\n      dup1\n      mload\n      swap1\n        /* \"#utility.yul\":6643:6658   */\n      dup2\n      add\n        /* \"#utility.yul\":6688:6706   */\n      0xffffffffffffffff\n        /* \"#utility.yul\":6673:6707   */\n      dup2\n      gt\n        /* \"#utility.yul\":6709:6731   */\n      dup3\n      dup3\n      lt\n        /* \"#utility.yul\":6670:6732   */\n      or\n        /* \"#utility.yul\":6667:6755   */\n      iszero\n      tag_349\n      jumpi\n        /* \"#utility.yul\":6735:6753   */\n      tag_349\n      tag_286\n      jump\t// in\n    tag_349:\n        /* \"#utility.yul\":6771:6773   */\n      0x40\n        /* \"#utility.yul\":6764:6786   */\n      mstore\n        /* \"#utility.yul\":6808:6824   */\n      dup3\n      mload\n        /* \"#utility.yul\":6833:6864   */\n      tag_350\n        /* \"#utility.yul\":6808:6824   */\n      dup2\n        /* \"#utility.yul\":6833:6864   */\n      tag_285\n      jump\t// in\n    tag_350:\n        /* \"#utility.yul\":6873:6894   */\n      dup2\n      mstore\n        /* \"#utility.yul\":6960:6962   */\n      0x20\n        /* \"#utility.yul\":6945:6963   */\n      swap3\n      dup4\n      add\n        /* \"#utility.yul\":6939:6964   */\n      mload\n        /* \"#utility.yul\":6980:6995   */\n      swap3\n      dup2\n      add\n        /* \"#utility.yul\":6973:7005   */\n      swap3\n      swap1\n      swap3\n      mstore\n      pop\n        /* \"#utility.yul\":6880:6886   */\n      swap2\n        /* \"#utility.yul\":6349:7036   */\n      swap1\n      pop\n      jump\t// out\n        /* \"#utility.yul\":7041:7169   */\n    tag_198:\n        /* \"#utility.yul\":7108:7117   */\n      dup2\n      dup2\n      sub\n        /* \"#utility.yul\":7129:7140   */\n      dup2\n      dup2\n      gt\n        /* \"#utility.yul\":7126:7163   */\n      iszero\n      tag_141\n      jumpi\n        /* \"#utility.yul\":7143:7161   */\n      tag_141\n      tag_288\n      jump\t// in\n        /* \"#utility.yul\":7745:8212   */\n    tag_204:\n        /* \"#utility.yul\":8013:8014   */\n      0x01\n        /* \"#utility.yul\":8009:8010   */\n      dup1\n        /* \"#utility.yul\":8004:8007   */\n      0xa0\n        /* \"#utility.yul\":8000:8011   */\n      shl\n        /* \"#utility.yul\":7996:8015   */\n      sub\n        /* \"#utility.yul\":7988:7994   */\n      dup6\n        /* \"#utility.yul\":7984:8016   */\n      and\n        /* \"#utility.yul\":7973:7982   */\n      dup2\n        /* \"#utility.yul\":7966:8017   */\n      mstore\n        /* \"#utility.yul\":8053:8059   */\n      dup4\n        /* \"#utility.yul\":8048:8050   */\n      0x20\n        /* \"#utility.yul\":8037:8046   */\n      dup3\n        /* \"#utility.yul\":8033:8051   */\n      add\n        /* \"#utility.yul\":8026:8060   */\n      mstore\n        /* \"#utility.yul\":8096:8099   */\n      0x80\n        /* \"#utility.yul\":8091:8093   */\n      0x40\n        /* \"#utility.yul\":8080:8089   */\n      dup3\n        /* \"#utility.yul\":8076:8094   */\n      add\n        /* \"#utility.yul\":8069:8100   */\n      mstore\n        /* \"#utility.yul\":7947:7951   */\n      0x00\n        /* \"#utility.yul\":8117:8163   */\n      tag_358\n        /* \"#utility.yul\":8158:8161   */\n      0x80\n        /* \"#utility.yul\":8147:8156   */\n      dup4\n        /* \"#utility.yul\":8143:8162   */\n      add\n        /* \"#utility.yul\":8135:8141   */\n      dup6\n        /* \"#utility.yul\":8117:8163   */\n      tag_284\n      jump\t// in\n    tag_358:\n        /* \"#utility.yul\":8109:8163   */\n      swap1\n      pop\n        /* \"#utility.yul\":8199:8205   */\n      dup3\n        /* \"#utility.yul\":8194:8196   */\n      0x60\n        /* \"#utility.yul\":8183:8192   */\n      dup4\n        /* \"#utility.yul\":8179:8197   */\n      add\n        /* \"#utility.yul\":8172:8206   */\n      mstore\n        /* \"#utility.yul\":7745:8212   */\n      swap6\n      swap5\n      pop\n      pop\n      pop\n      pop\n      pop\n      jump\t// out\n        /* \"#utility.yul\":8516:8817   */\n    tag_212:\n        /* \"#utility.yul\":8645:8648   */\n      0x00\n        /* \"#utility.yul\":8683:8689   */\n      dup3\n        /* \"#utility.yul\":8677:8690   */\n      mload\n        /* \"#utility.yul\":8729:8735   */\n      dup1\n        /* \"#utility.yul\":8722:8726   */\n      0x20\n        /* \"#utility.yul\":8714:8720   */\n      dup6\n        /* \"#utility.yul\":8710:8727   */\n      add\n        /* \"#utility.yul\":8705:8708   */\n      dup5\n        /* \"#utility.yul\":8699:8736   */\n      mcopy\n        /* \"#utility.yul\":8791:8792   */\n      0x00\n        /* \"#utility.yul\":8755:8771   */\n      swap3\n      add\n        /* \"#utility.yul\":8780:8793   */\n      swap2\n      dup3\n      mstore\n      pop\n        /* \"#utility.yul\":8755:8771   */\n      swap2\n        /* \"#utility.yul\":8516:8817   */\n      swap1\n      pop\n      jump\t// out\n        /* \"#utility.yul\":9165:9395   */\n    tag_220:\n        /* \"#utility.yul\":9235:9241   */\n      0x00\n        /* \"#utility.yul\":9288:9290   */\n      0x20\n        /* \"#utility.yul\":9276:9285   */\n      dup3\n        /* \"#utility.yul\":9267:9274   */\n      dup5\n        /* \"#utility.yul\":9263:9286   */\n      sub\n        /* \"#utility.yul\":9259:9291   */\n      slt\n        /* \"#utility.yul\":9256:9308   */\n      iszero\n      tag_363\n      jumpi\n        /* \"#utility.yul\":9304:9305   */\n      0x00\n        /* \"#utility.yul\":9301:9302   */\n      0x00\n        /* \"#utility.yul\":9294:9306   */\n      revert\n        /* \"#utility.yul\":9256:9308   */\n    tag_363:\n      pop\n        /* \"#utility.yul\":9349:9365   */\n      mload\n      swap2\n        /* \"#utility.yul\":9165:9395   */\n      swap1\n      pop\n      jump\t// out\n        /* \"#utility.yul\":9958:10085   */\n    tag_257:\n        /* \"#utility.yul\":10019:10029   */\n      0x4e487b71\n        /* \"#utility.yul\":10014:10017   */\n      0xe0\n        /* \"#utility.yul\":10010:10030   */\n      shl\n        /* \"#utility.yul\":10007:10008   */\n      0x00\n        /* \"#utility.yul\":10000:10031   */\n      mstore\n        /* \"#utility.yul\":10050:10054   */\n      0x01\n        /* \"#utility.yul\":10047:10048   */\n      0x04\n        /* \"#utility.yul\":10040:10055   */\n      mstore\n        /* \"#utility.yul\":10074:10078   */\n      0x24\n        /* \"#utility.yul\":10071:10072   */\n      0x00\n        /* \"#utility.yul\":10064:10079   */\n      revert\n\n    auxdata: 0xa2646970667358221220dfb442d85879d53a66278b1e6d17e274214532241ee75ac96924e077327fa18b64736f6c634300081c0033\n}\n",
				"bytecode": {
					"linkReferences": {},
					"object": "60a0604052620f4240600755348015610016575f5ffd5b50604051611361380380611361833981016040819052610035916100f6565b6040518060400160405280601781526020017f52656261736561626c65205374616b6564204574686572000000000000000000815250604051806040016040528060068152602001650e4e6e88aa8960d31b815250816003908161009991906101d8565b5060046100a682826101d8565b5050506001600160a01b03928316608052600680549284166001600160a01b031993841617905560058054919093169116179055610292565b6001600160a01b03811681146100f3575f5ffd5b50565b5f5f5f60608486031215610108575f5ffd5b8351610113816100df565b6020850151909350610124816100df565b6040850151909250610135816100df565b809150509250925092565b634e487b7160e01b5f52604160045260245ffd5b600181811c9082168061016857607f821691505b60208210810361018657634e487b7160e01b5f52602260045260245ffd5b50919050565b601f8211156101d357805f5260205f20601f840160051c810160208510156101b15750805b601f840160051c820191505b818110156101d0575f81556001016101bd565b50505b505050565b81516001600160401b038111156101f1576101f1610140565b610205816101ff8454610154565b8461018c565b6020601f821160018114610237575f83156102205750848201515b5f19600385901b1c1916600184901b1784556101d0565b5f84815260208120601f198516915b828110156102665787850151825560209485019460019092019101610246565b508482101561028357868401515f19600387901b60f8161c191681555b50505050600190811b01905550565b6080516110b76102aa5f395f6107e001526110b75ff3fe608060405260043610610129575f3560e01c80637a28fb88116100a8578063a6488c941161006d578063a6488c9414610346578063a7083dfb14610365578063a9059cbb14610384578063d2087ad9146103a3578063dd62ed3e146103c2578063ee7d72b414610406575f5ffd5b80637a28fb88146102b65780637e46ade6146102d5578063841b1b741461030057806395d89b411461031f5780639dc6943a14610333575f5ffd5b806337cfdaca116100ee57806337cfdaca146101e55780633ccfd60b146101f957806348727dc41461020f5780635e0f7d391461024b57806370a0823114610282575f5ffd5b806306fdde0314610134578063095ea7b31461015e57806318160ddd1461018d57806323b872dd146101ab578063313ce567146101ca575f5ffd5b3661013057005b5f5ffd5b34801561013f575f5ffd5b50610148610425565b6040516101559190610d32565b60405180910390f35b348015610169575f5ffd5b5061017d610178366004610d5f565b6104b5565b6040519015158152602001610155565b348015610198575f5ffd5b506002545b604051908152602001610155565b3480156101b6575f5ffd5b5061017d6101c5366004610d89565b6104ce565b3480156101d5575f5ffd5b5060405160128152602001610155565b3480156101f0575f5ffd5b5061019d6104f1565b348015610204575f5ffd5b5061020d610565565b005b34801561021a575f5ffd5b5061020d610229366004610dc7565b600580546001600160a01b0319166001600160a01b0392909216919091179055565b348015610256575f5ffd5b5060065461026a906001600160a01b031681565b6040516001600160a01b039091168152602001610155565b34801561028d575f5ffd5b5061019d61029c366004610dc7565b6001600160a01b03165f9081526020819052604090205490565b3480156102c1575f5ffd5b5061019d6102d0366004610de2565b6105b9565b3480156102e0575f5ffd5b5061019d6102ef366004610dc7565b60086020525f908152604090205481565b34801561030b575f5ffd5b5061020d61031a366004610e3e565b610635565b34801561032a575f5ffd5b5061014861069b565b61020d610341366004610de2565b6106aa565b348015610351575f5ffd5b5061019d610360366004610de2565b6107cd565b348015610370575f5ffd5b5061019d61037f366004610de2565b6108d7565b34801561038f575f5ffd5b5061017d61039e366004610d5f565b61091b565b3480156103ae575f5ffd5b5060055461026a906001600160a01b031681565b3480156103cd575f5ffd5b5061019d6103dc366004610ed2565b6001600160a01b039182165f90815260016020908152604080832093909416825291909152205490565b348015610411575f5ffd5b5061020d610420366004610de2565b600755565b60606003805461043490610f09565b80601f016020809104026020016040519081016040528092919081815260200182805461046090610f09565b80156104ab5780601f10610482576101008083540402835291602001916104ab565b820191905f5260205f20905b81548152906001019060200180831161048e57829003601f168201915b5050505050905090565b5f336104c2818585610928565b60019150505b92915050565b5f336104db85828561093a565b6104e68585856109b5565b506001949350505050565b5f6104fa610a12565b6105237fa66d35f054e68143c18f32c990ed5cb972bb68a68f500cd2dd3a16bbf36864836107cd565b61054c7fed310af23f61f96daefbcd140b306c0bdbf8c178398299741687b90e794772b06107cd565b6105569190610f55565b6105609190610f55565b905090565b6040515f90339047908381818185875af1925050503d805f81146105a4576040519150601f19603f3d011682016040523d82523d5f602084013e6105a9565b606091505b50509050806105b6575f5ffd5b50565b5f6105e37fe3b4b636e601189b5f4c6742edf2538ac12bb61ed03e6da26949d69838fa447e6107cd565b5f036105f057505f919050565b6106197fe3b4b636e601189b5f4c6742edf2538ac12bb61ed03e6da26949d69838fa447e6107cd565b6106216104f1565b61062b9084610f68565b6104c89190610f7f565b5f8180602001905181019061064a9190610f9e565b905061065d815f01518260200151610aa0565b61066a81602001516108d7565b81516001600160a01b03165f9081526008602052604081208054909190610692908490610f55565b90915550505050565b60606004805461043490610f09565b6106b43382610ad8565b6106bd816108d7565b335f90815260086020526040812080549091906106db908490610ff6565b9091555050604080518082018252338082526020808301858152845191820192909252905181840152825180820384018152606082019093526005546006549293926001600160a01b039182169263b2267a7b92349216905f90600162bf5da560e01b03199061074f908890608401610d32565b60408051601f198184030181529181526020820180516001600160e01b03166001600160e01b0319948516179052600754905160e088901b909316835261079a949392600401611009565b5f604051808303818588803b1580156107b1575f5ffd5b505af11580156107c3573d5f5f3e3d5ffd5b5050505050505050565b6040516bffffffffffffffffffffffff197f000000000000000000000000000000000000000000000000000000000000000060601b166020820152603481018290525f90819081906101019060540160408051601f198184030181529082905261083691611040565b5f60405180830381855afa9150503d805f811461086e576040519150601f19603f3d011682016040523d82523d5f602084013e610873565b606091505b5091509150816108bb5760405162461bcd60e51b815260206004820152600e60248201526d130c54d313d0510819985a5b195960921b60448201526064015b60405180910390fd5b808060200190518101906108cf9190611056565b949350505050565b5f6108e06104f1565b5f036108ea575090565b6108f26104f1565b6106217fe3b4b636e601189b5f4c6742edf2538ac12bb61ed03e6da26949d69838fa447e6107cd565b5f336104c28185856109b5565b6109358383836001610b0c565b505050565b6001600160a01b038381165f908152600160209081526040808320938616835292905220545f1981146109af57818110156109a157604051637dc7a0d960e11b81526001600160a01b038416600482015260248101829052604481018390526064016108b2565b6109af84848484035f610b0c565b50505050565b6001600160a01b0383166109de57604051634b637e8f60e11b81525f60048201526024016108b2565b6001600160a01b038216610a075760405163ec442f0560e01b81525f60048201526024016108b2565b610935838383610bde565b5f80610a3d7fe6e35175eb53fc006520a2a9c3e9711a7c00de6ff2c32dd31df8c5a24cac1b5c6107cd565b90505f610a697f9f70001d82b6ef54e9d3725b46581c3eb9ee3aa02b941b6aa54d678a9ca35b106107cd565b905080821015610a7b57610a7b61106d565b6801bc16d674ec800000610a8f8284610ff6565b610a999190610f68565b9250505090565b6001600160a01b038216610ac95760405163ec442f0560e01b81525f60048201526024016108b2565b610ad45f8383610bde565b5050565b6001600160a01b038216610b0157604051634b637e8f60e11b81525f60048201526024016108b2565b610ad4825f83610bde565b6001600160a01b038416610b355760405163e602df0560e01b81525f60048201526024016108b2565b6001600160a01b038316610b5e57604051634a1406b160e11b81525f60048201526024016108b2565b6001600160a01b038085165f90815260016020908152604080832093871683529290522082905580156109af57826001600160a01b0316846001600160a01b03167f8c5be1e5ebec7d5bd14f71427d1e84f3dd0314c0f7b2291e5b200ac8c7c3b92584604051610bd091815260200190565b60405180910390a350505050565b6001600160a01b038316610c08578060025f828254610bfd9190610f55565b90915550610c789050565b6001600160a01b0383165f9081526020819052604090205481811015610c5a5760405163391434e360e21b81526001600160a01b038516600482015260248101829052604481018390526064016108b2565b6001600160a01b0384165f9081526020819052604090209082900390555b6001600160a01b038216610c9457600280548290039055610cb2565b6001600160a01b0382165f9081526020819052604090208054820190555b816001600160a01b0316836001600160a01b03167fddf252ad1be2c89b69c2b068fc378daa952ba7f163c4a11628f55a4df523b3ef83604051610cf791815260200190565b60405180910390a3505050565b5f81518084528060208401602086015e5f602082860101526020601f19601f83011685010191505092915050565b602081525f610d446020830184610d04565b9392505050565b6001600160a01b03811681146105b6575f5ffd5b5f5f60408385031215610d70575f5ffd5b8235610d7b81610d4b565b946020939093013593505050565b5f5f5f60608486031215610d9b575f5ffd5b8335610da681610d4b565b92506020840135610db681610d4b565b929592945050506040919091013590565b5f60208284031215610dd7575f5ffd5b8135610d4481610d4b565b5f60208284031215610df2575f5ffd5b5035919050565b634e487b7160e01b5f52604160045260245ffd5b604051601f8201601f1916810167ffffffffffffffff81118282101715610e3657610e36610df9565b604052919050565b5f60208284031215610e4e575f5ffd5b813567ffffffffffffffff811115610e64575f5ffd5b8201601f81018413610e74575f5ffd5b803567ffffffffffffffff811115610e8e57610e8e610df9565b610ea1601f8201601f1916602001610e0d565b818152856020838501011115610eb5575f5ffd5b816020840160208301375f91810160200191909152949350505050565b5f5f60408385031215610ee3575f5ffd5b8235610eee81610d4b565b91506020830135610efe81610d4b565b809150509250929050565b600181811c90821680610f1d57607f821691505b602082108103610f3b57634e487b7160e01b5f52602260045260245ffd5b50919050565b634e487b7160e01b5f52601160045260245ffd5b808201808211156104c8576104c8610f41565b80820281158282048414176104c8576104c8610f41565b5f82610f9957634e487b7160e01b5f52601260045260245ffd5b500490565b5f6040828403128015610faf575f5ffd5b506040805190810167ffffffffffffffff81118282101715610fd357610fd3610df9565b6040528251610fe181610d4b565b81526020928301519281019290925250919050565b818103818111156104c8576104c8610f41565b60018060a01b0385168152836020820152608060408201525f61102f6080830185610d04565b905082606083015295945050505050565b5f82518060208501845e5f920191825250919050565b5f60208284031215611066575f5ffd5b5051919050565b634e487b7160e01b5f52600160045260245ffdfea2646970667358221220dfb442d85879d53a66278b1e6d17e274214532241ee75ac96924e077327fa18b64736f6c634300081c0033",
					"opcodes": "PUSH1 0xA0 PUSH1 0x40 MSTORE PUSH3 0xF4240 PUSH1 0x7 SSTORE CALLVALUE DUP1 ISZERO PUSH2 0x16 JUMPI PUSH0 PUSH0 REVERT JUMPDEST POP PUSH1 0x40 MLOAD PUSH2 0x1361 CODESIZE SUB DUP1 PUSH2 0x1361 DUP4 CODECOPY DUP2 ADD PUSH1 0x40 DUP2 SWAP1 MSTORE PUSH2 0x35 SWAP2 PUSH2 0xF6 JUMP JUMPDEST PUSH1 0x40 MLOAD DUP1 PUSH1 0x40 ADD PUSH1 0x40 MSTORE DUP1 PUSH1 0x17 DUP2 MSTORE PUSH1 0x20 ADD PUSH32 0x52656261736561626C65205374616B6564204574686572000000000000000000 DUP2 MSTORE POP PUSH1 0x40 MLOAD DUP1 PUSH1 0x40 ADD PUSH1 0x40 MSTORE DUP1 PUSH1 0x6 DUP2 MSTORE PUSH1 0x20 ADD PUSH6 0xE4E6E88AA89 PUSH1 0xD3 SHL DUP2 MSTORE POP DUP2 PUSH1 0x3 SWAP1 DUP2 PUSH2 0x99 SWAP2 SWAP1 PUSH2 0x1D8 JUMP JUMPDEST POP PUSH1 0x4 PUSH2 0xA6 DUP3 DUP3 PUSH2 0x1D8 JUMP JUMPDEST POP POP POP PUSH1 0x1 PUSH1 0x1 PUSH1 0xA0 SHL SUB SWAP3 DUP4 AND PUSH1 0x80 MSTORE PUSH1 0x6 DUP1 SLOAD SWAP3 DUP5 AND PUSH1 0x1 PUSH1 0x1 PUSH1 0xA0 SHL SUB NOT SWAP4 DUP5 AND OR SWAP1 SSTORE PUSH1 0x5 DUP1 SLOAD SWAP2 SWAP1 SWAP4 AND SWAP2 AND OR SWAP1 SSTORE PUSH2 0x292 JUMP JUMPDEST PUSH1 0x1 PUSH1 0x1 PUSH1 0xA0 SHL SUB DUP2 AND DUP2 EQ PUSH2 0xF3 JUMPI PUSH0 PUSH0 REVERT JUMPDEST POP JUMP JUMPDEST PUSH0 PUSH0 PUSH0 PUSH1 0x60 DUP5 DUP7 SUB SLT ISZERO PUSH2 0x108 JUMPI PUSH0 PUSH0 REVERT JUMPDEST DUP4 MLOAD PUSH2 0x113 DUP2 PUSH2 0xDF JUMP JUMPDEST PUSH1 0x20 DUP6 ADD MLOAD SWAP1 SWAP4 POP PUSH2 0x124 DUP2 PUSH2 0xDF JUMP JUMPDEST PUSH1 0x40 DUP6 ADD MLOAD SWAP1 SWAP3 POP PUSH2 0x135 DUP2 PUSH2 0xDF JUMP JUMPDEST DUP1 SWAP2 POP POP SWAP3 POP SWAP3 POP SWAP3 JUMP JUMPDEST PUSH4 0x4E487B71 PUSH1 0xE0 SHL PUSH0 MSTORE PUSH1 0x41 PUSH1 0x4 MSTORE PUSH1 0x24 PUSH0 REVERT JUMPDEST PUSH1 0x1 DUP2 DUP2 SHR SWAP1 DUP3 AND DUP1 PUSH2 0x168 JUMPI PUSH1 0x7F DUP3 AND SWAP2 POP JUMPDEST PUSH1 0x20 DUP3 LT DUP2 SUB PUSH2 0x186 JUMPI PUSH4 0x4E487B71 PUSH1 0xE0 SHL PUSH0 MSTORE PUSH1 0x22 PUSH1 0x4 MSTORE PUSH1 0x24 PUSH0 REVERT JUMPDEST POP SWAP2 SWAP1 POP JUMP JUMPDEST PUSH1 0x1F DUP3 GT ISZERO PUSH2 0x1D3 JUMPI DUP1 PUSH0 MSTORE PUSH1 0x20 PUSH0 KECCAK256 PUSH1 0x1F DUP5 ADD PUSH1 0x5 SHR DUP2 ADD PUSH1 0x20 DUP6 LT ISZERO PUSH2 0x1B1 JUMPI POP DUP1 JUMPDEST PUSH1 0x1F DUP5 ADD PUSH1 0x5 SHR DUP3 ADD SWAP2 POP JUMPDEST DUP2 DUP2 LT ISZERO PUSH2 0x1D0 JUMPI PUSH0 DUP2 SSTORE PUSH1 0x1 ADD PUSH2 0x1BD JUMP JUMPDEST POP POP JUMPDEST POP POP POP JUMP JUMPDEST DUP2 MLOAD PUSH1 0x1 PUSH1 0x1 PUSH1 0x40 SHL SUB DUP2 GT ISZERO PUSH2 0x1F1 JUMPI PUSH2 0x1F1 PUSH2 0x140 JUMP JUMPDEST PUSH2 0x205 DUP2 PUSH2 0x1FF DUP5 SLOAD PUSH2 0x154 JUMP JUMPDEST DUP5 PUSH2 0x18C JUMP JUMPDEST PUSH1 0x20 PUSH1 0x1F DUP3 GT PUSH1 0x1 DUP2 EQ PUSH2 0x237 JUMPI PUSH0 DUP4 ISZERO PUSH2 0x220 JUMPI POP DUP5 DUP3 ADD MLOAD JUMPDEST PUSH0 NOT PUSH1 0x3 DUP6 SWAP1 SHL SHR NOT AND PUSH1 0x1 DUP5 SWAP1 SHL OR DUP5 SSTORE PUSH2 0x1D0 JUMP JUMPDEST PUSH0 DUP5 DUP2 MSTORE PUSH1 0x20 DUP2 KECCAK256 PUSH1 0x1F NOT DUP6 AND SWAP2 JUMPDEST DUP3 DUP2 LT ISZERO PUSH2 0x266 JUMPI DUP8 DUP6 ADD MLOAD DUP3 SSTORE PUSH1 0x20 SWAP5 DUP6 ADD SWAP5 PUSH1 0x1 SWAP1 SWAP3 ADD SWAP2 ADD PUSH2 0x246 JUMP JUMPDEST POP DUP5 DUP3 LT ISZERO PUSH2 0x283 JUMPI DUP7 DUP5 ADD MLOAD PUSH0 NOT PUSH1 0x3 DUP8 SWAP1 SHL PUSH1 0xF8 AND SHR NOT AND DUP2 SSTORE JUMPDEST POP POP POP POP PUSH1 0x1 SWAP1 DUP2 SHL ADD SWAP1 SSTORE POP JUMP JUMPDEST PUSH1 0x80 MLOAD PUSH2 0x10B7 PUSH2 0x2AA PUSH0 CODECOPY PUSH0 PUSH2 0x7E0 ADD MSTORE PUSH2 0x10B7 PUSH0 RETURN INVALID PUSH1 0x80 PUSH1 0x40 MSTORE PUSH1 0x4 CALLDATASIZE LT PUSH2 0x129 JUMPI PUSH0 CALLDATALOAD PUSH1 0xE0 SHR DUP1 PUSH4 0x7A28FB88 GT PUSH2 0xA8 JUMPI DUP1 PUSH4 0xA6488C94 GT PUSH2 0x6D JUMPI DUP1 PUSH4 0xA6488C94 EQ PUSH2 0x346 JUMPI DUP1 PUSH4 0xA7083DFB EQ PUSH2 0x365 JUMPI DUP1 PUSH4 0xA9059CBB EQ PUSH2 0x384 JUMPI DUP1 PUSH4 0xD2087AD9 EQ PUSH2 0x3A3 JUMPI DUP1 PUSH4 0xDD62ED3E EQ PUSH2 0x3C2 JUMPI DUP1 PUSH4 0xEE7D72B4 EQ PUSH2 0x406 JUMPI PUSH0 PUSH0 REVERT JUMPDEST DUP1 PUSH4 0x7A28FB88 EQ PUSH2 0x2B6 JUMPI DUP1 PUSH4 0x7E46ADE6 EQ PUSH2 0x2D5 JUMPI DUP1 PUSH4 0x841B1B74 EQ PUSH2 0x300 JUMPI DUP1 PUSH4 0x95D89B41 EQ PUSH2 0x31F JUMPI DUP1 PUSH4 0x9DC6943A EQ PUSH2 0x333 JUMPI PUSH0 PUSH0 REVERT JUMPDEST DUP1 PUSH4 0x37CFDACA GT PUSH2 0xEE JUMPI DUP1 PUSH4 0x37CFDACA EQ PUSH2 0x1E5 JUMPI DUP1 PUSH4 0x3CCFD60B EQ PUSH2 0x1F9 JUMPI DUP1 PUSH4 0x48727DC4 EQ PUSH2 0x20F JUMPI DUP1 PUSH4 0x5E0F7D39 EQ PUSH2 0x24B JUMPI DUP1 PUSH4 0x70A08231 EQ PUSH2 0x282 JUMPI PUSH0 PUSH0 REVERT JUMPDEST DUP1 PUSH4 0x6FDDE03 EQ PUSH2 0x134 JUMPI DUP1 PUSH4 0x95EA7B3 EQ PUSH2 0x15E JUMPI DUP1 PUSH4 0x18160DDD EQ PUSH2 0x18D JUMPI DUP1 PUSH4 0x23B872DD EQ PUSH2 0x1AB JUMPI DUP1 PUSH4 0x313CE567 EQ PUSH2 0x1CA JUMPI PUSH0 PUSH0 REVERT JUMPDEST CALLDATASIZE PUSH2 0x130 JUMPI STOP JUMPDEST PUSH0 PUSH0 REVERT JUMPDEST CALLVALUE DUP1 ISZERO PUSH2 0x13F JUMPI PUSH0 PUSH0 REVERT JUMPDEST POP PUSH2 0x148 PUSH2 0x425 JUMP JUMPDEST PUSH1 0x40 MLOAD PUSH2 0x155 SWAP2 SWAP1 PUSH2 0xD32 JUMP JUMPDEST PUSH1 0x40 MLOAD DUP1 SWAP2 SUB SWAP1 RETURN JUMPDEST CALLVALUE DUP1 ISZERO PUSH2 0x169 JUMPI PUSH0 PUSH0 REVERT JUMPDEST POP PUSH2 0x17D PUSH2 0x178 CALLDATASIZE PUSH1 0x4 PUSH2 0xD5F JUMP JUMPDEST PUSH2 0x4B5 JUMP JUMPDEST PUSH1 0x40 MLOAD SWAP1 ISZERO ISZERO DUP2 MSTORE PUSH1 0x20 ADD PUSH2 0x155 JUMP JUMPDEST CALLVALUE DUP1 ISZERO PUSH2 0x198 JUMPI PUSH0 PUSH0 REVERT JUMPDEST POP PUSH1 0x2 SLOAD JUMPDEST PUSH1 0x40 MLOAD SWAP1 DUP2 MSTORE PUSH1 0x20 ADD PUSH2 0x155 JUMP JUMPDEST CALLVALUE DUP1 ISZERO PUSH2 0x1B6 JUMPI PUSH0 PUSH0 REVERT JUMPDEST POP PUSH2 0x17D PUSH2 0x1C5 CALLDATASIZE PUSH1 0x4 PUSH2 0xD89 JUMP JUMPDEST PUSH2 0x4CE JUMP JUMPDEST CALLVALUE DUP1 ISZERO PUSH2 0x1D5 JUMPI PUSH0 PUSH0 REVERT JUMPDEST POP PUSH1 0x40 MLOAD PUSH1 0x12 DUP2 MSTORE PUSH1 0x20 ADD PUSH2 0x155 JUMP JUMPDEST CALLVALUE DUP1 ISZERO PUSH2 0x1F0 JUMPI PUSH0 PUSH0 REVERT JUMPDEST POP PUSH2 0x19D PUSH2 0x4F1 JUMP JUMPDEST CALLVALUE DUP1 ISZERO PUSH2 0x204 JUMPI PUSH0 PUSH0 REVERT JUMPDEST POP PUSH2 0x20D PUSH2 0x565 JUMP JUMPDEST STOP JUMPDEST CALLVALUE DUP1 ISZERO PUSH2 0x21A JUMPI PUSH0 PUSH0 REVERT JUMPDEST POP PUSH2 0x20D PUSH2 0x229 CALLDATASIZE PUSH1 0x4 PUSH2 0xDC7 JUMP JUMPDEST PUSH1 0x5 DUP1 SLOAD PUSH1 0x1 PUSH1 0x1 PUSH1 0xA0 SHL SUB NOT AND PUSH1 0x1 PUSH1 0x1 PUSH1 0xA0 SHL SUB SWAP3 SWAP1 SWAP3 AND SWAP2 SWAP1 SWAP2 OR SWAP1 SSTORE JUMP JUMPDEST CALLVALUE DUP1 ISZERO PUSH2 0x256 JUMPI PUSH0 PUSH0 REVERT JUMPDEST POP PUSH1 0x6 SLOAD PUSH2 0x26A SWAP1 PUSH1 0x1 PUSH1 0x1 PUSH1 0xA0 SHL SUB AND DUP2 JUMP JUMPDEST PUSH1 0x40 MLOAD PUSH1 0x1 PUSH1 0x1 PUSH1 0xA0 SHL SUB SWAP1 SWAP2 AND DUP2 MSTORE PUSH1 0x20 ADD PUSH2 0x155 JUMP JUMPDEST CALLVALUE DUP1 ISZERO PUSH2 0x28D JUMPI PUSH0 PUSH0 REVERT JUMPDEST POP PUSH2 0x19D PUSH2 0x29C CALLDATASIZE PUSH1 0x4 PUSH2 0xDC7 JUMP JUMPDEST PUSH1 0x1 PUSH1 0x1 PUSH1 0xA0 SHL SUB AND PUSH0 SWAP1 DUP2 MSTORE PUSH1 0x20 DUP2 SWAP1 MSTORE PUSH1 0x40 SWAP1 KECCAK256 SLOAD SWAP1 JUMP JUMPDEST CALLVALUE DUP1 ISZERO PUSH2 0x2C1 JUMPI PUSH0 PUSH0 REVERT JUMPDEST POP PUSH2 0x19D PUSH2 0x2D0 CALLDATASIZE PUSH1 0x4 PUSH2 0xDE2 JUMP JUMPDEST PUSH2 0x5B9 JUMP JUMPDEST CALLVALUE DUP1 ISZERO PUSH2 0x2E0 JUMPI PUSH0 PUSH0 REVERT JUMPDEST POP PUSH2 0x19D PUSH2 0x2EF CALLDATASIZE PUSH1 0x4 PUSH2 0xDC7 JUMP JUMPDEST PUSH1 0x8 PUSH1 0x20 MSTORE PUSH0 SWAP1 DUP2 MSTORE PUSH1 0x40 SWAP1 KECCAK256 SLOAD DUP2 JUMP JUMPDEST CALLVALUE DUP1 ISZERO PUSH2 0x30B JUMPI PUSH0 PUSH0 REVERT JUMPDEST POP PUSH2 0x20D PUSH2 0x31A CALLDATASIZE PUSH1 0x4 PUSH2 0xE3E JUMP JUMPDEST PUSH2 0x635 JUMP JUMPDEST CALLVALUE DUP1 ISZERO PUSH2 0x32A JUMPI PUSH0 PUSH0 REVERT JUMPDEST POP PUSH2 0x148 PUSH2 0x69B JUMP JUMPDEST PUSH2 0x20D PUSH2 0x341 CALLDATASIZE PUSH1 0x4 PUSH2 0xDE2 JUMP JUMPDEST PUSH2 0x6AA JUMP JUMPDEST CALLVALUE DUP1 ISZERO PUSH2 0x351 JUMPI PUSH0 PUSH0 REVERT JUMPDEST POP PUSH2 0x19D PUSH2 0x360 CALLDATASIZE PUSH1 0x4 PUSH2 0xDE2 JUMP JUMPDEST PUSH2 0x7CD JUMP JUMPDEST CALLVALUE DUP1 ISZERO PUSH2 0x370 JUMPI PUSH0 PUSH0 REVERT JUMPDEST POP PUSH2 0x19D PUSH2 0x37F CALLDATASIZE PUSH1 0x4 PUSH2 0xDE2 JUMP JUMPDEST PUSH2 0x8D7 JUMP JUMPDEST CALLVALUE DUP1 ISZERO PUSH2 0x38F JUMPI PUSH0 PUSH0 REVERT JUMPDEST POP PUSH2 0x17D PUSH2 0x39E CALLDATASIZE PUSH1 0x4 PUSH2 0xD5F JUMP JUMPDEST PUSH2 0x91B JUMP JUMPDEST CALLVALUE DUP1 ISZERO PUSH2 0x3AE JUMPI PUSH0 PUSH0 REVERT JUMPDEST POP PUSH1 0x5 SLOAD PUSH2 0x26A SWAP1 PUSH1 0x1 PUSH1 0x1 PUSH1 0xA0 SHL SUB AND DUP2 JUMP JUMPDEST CALLVALUE DUP1 ISZERO PUSH2 0x3CD JUMPI PUSH0 PUSH0 REVERT JUMPDEST POP PUSH2 0x19D PUSH2 0x3DC CALLDATASIZE PUSH1 0x4 PUSH2 0xED2 JUMP JUMPDEST PUSH1 0x1 PUSH1 0x1 PUSH1 0xA0 SHL SUB SWAP2 DUP3 AND PUSH0 SWAP1 DUP2 MSTORE PUSH1 0x1 PUSH1 0x20 SWAP1 DUP2 MSTORE PUSH1 0x40 DUP1 DUP4 KECCAK256 SWAP4 SWAP1 SWAP5 AND DUP3 MSTORE SWAP2 SWAP1 SWAP2 MSTORE KECCAK256 SLOAD SWAP1 JUMP JUMPDEST CALLVALUE DUP1 ISZERO PUSH2 0x411 JUMPI PUSH0 PUSH0 REVERT JUMPDEST POP PUSH2 0x20D PUSH2 0x420 CALLDATASIZE PUSH1 0x4 PUSH2 0xDE2 JUMP JUMPDEST PUSH1 0x7 SSTORE JUMP JUMPDEST PUSH1 0x60 PUSH1 0x3 DUP1 SLOAD PUSH2 0x434 SWAP1 PUSH2 0xF09 JUMP JUMPDEST DUP1 PUSH1 0x1F ADD PUSH1 0x20 DUP1 SWAP2 DIV MUL PUSH1 0x20 ADD PUSH1 0x40 MLOAD SWAP1 DUP2 ADD PUSH1 0x40 MSTORE DUP1 SWAP3 SWAP2 SWAP1 DUP2 DUP2 MSTORE PUSH1 0x20 ADD DUP3 DUP1 SLOAD PUSH2 0x460 SWAP1 PUSH2 0xF09 JUMP JUMPDEST DUP1 ISZERO PUSH2 0x4AB JUMPI DUP1 PUSH1 0x1F LT PUSH2 0x482 JUMPI PUSH2 0x100 DUP1 DUP4 SLOAD DIV MUL DUP4 MSTORE SWAP2 PUSH1 0x20 ADD SWAP2 PUSH2 0x4AB JUMP JUMPDEST DUP3 ADD SWAP2 SWAP1 PUSH0 MSTORE PUSH1 0x20 PUSH0 KECCAK256 SWAP1 JUMPDEST DUP2 SLOAD DUP2 MSTORE SWAP1 PUSH1 0x1 ADD SWAP1 PUSH1 0x20 ADD DUP1 DUP4 GT PUSH2 0x48E JUMPI DUP3 SWAP1 SUB PUSH1 0x1F AND DUP3 ADD SWAP2 JUMPDEST POP POP POP POP POP SWAP1 POP SWAP1 JUMP JUMPDEST PUSH0 CALLER PUSH2 0x4C2 DUP2 DUP6 DUP6 PUSH2 0x928 JUMP JUMPDEST PUSH1 0x1 SWAP2 POP POP JUMPDEST SWAP3 SWAP2 POP POP JUMP JUMPDEST PUSH0 CALLER PUSH2 0x4DB DUP6 DUP3 DUP6 PUSH2 0x93A JUMP JUMPDEST PUSH2 0x4E6 DUP6 DUP6 DUP6 PUSH2 0x9B5 JUMP JUMPDEST POP PUSH1 0x1 SWAP5 SWAP4 POP POP POP POP JUMP JUMPDEST PUSH0 PUSH2 0x4FA PUSH2 0xA12 JUMP JUMPDEST PUSH2 0x523 PUSH32 0xA66D35F054E68143C18F32C990ED5CB972BB68A68F500CD2DD3A16BBF3686483 PUSH2 0x7CD JUMP JUMPDEST PUSH2 0x54C PUSH32 0xED310AF23F61F96DAEFBCD140B306C0BDBF8C178398299741687B90E794772B0 PUSH2 0x7CD JUMP JUMPDEST PUSH2 0x556 SWAP2 SWAP1 PUSH2 0xF55 JUMP JUMPDEST PUSH2 0x560 SWAP2 SWAP1 PUSH2 0xF55 JUMP JUMPDEST SWAP1 POP SWAP1 JUMP JUMPDEST PUSH1 0x40 MLOAD PUSH0 SWAP1 CALLER SWAP1 SELFBALANCE SWAP1 DUP4 DUP2 DUP2 DUP2 DUP6 DUP8 GAS CALL SWAP3 POP POP POP RETURNDATASIZE DUP1 PUSH0 DUP2 EQ PUSH2 0x5A4 JUMPI PUSH1 0x40 MLOAD SWAP2 POP PUSH1 0x1F NOT PUSH1 0x3F RETURNDATASIZE ADD AND DUP3 ADD PUSH1 0x40 MSTORE RETURNDATASIZE DUP3 MSTORE RETURNDATASIZE PUSH0 PUSH1 0x20 DUP5 ADD RETURNDATACOPY PUSH2 0x5A9 JUMP JUMPDEST PUSH1 0x60 SWAP2 POP JUMPDEST POP POP SWAP1 POP DUP1 PUSH2 0x5B6 JUMPI PUSH0 PUSH0 REVERT JUMPDEST POP JUMP JUMPDEST PUSH0 PUSH2 0x5E3 PUSH32 0xE3B4B636E601189B5F4C6742EDF2538AC12BB61ED03E6DA26949D69838FA447E PUSH2 0x7CD JUMP JUMPDEST PUSH0 SUB PUSH2 0x5F0 JUMPI POP PUSH0 SWAP2 SWAP1 POP JUMP JUMPDEST PUSH2 0x619 PUSH32 0xE3B4B636E601189B5F4C6742EDF2538AC12BB61ED03E6DA26949D69838FA447E PUSH2 0x7CD JUMP JUMPDEST PUSH2 0x621 PUSH2 0x4F1 JUMP JUMPDEST PUSH2 0x62B SWAP1 DUP5 PUSH2 0xF68 JUMP JUMPDEST PUSH2 0x4C8 SWAP2 SWAP1 PUSH2 0xF7F JUMP JUMPDEST PUSH0 DUP2 DUP1 PUSH1 0x20 ADD SWAP1 MLOAD DUP2 ADD SWAP1 PUSH2 0x64A SWAP2 SWAP1 PUSH2 0xF9E JUMP JUMPDEST SWAP1 POP PUSH2 0x65D DUP2 PUSH0 ADD MLOAD DUP3 PUSH1 0x20 ADD MLOAD PUSH2 0xAA0 JUMP JUMPDEST PUSH2 0x66A DUP2 PUSH1 0x20 ADD MLOAD PUSH2 0x8D7 JUMP JUMPDEST DUP2 MLOAD PUSH1 0x1 PUSH1 0x1 PUSH1 0xA0 SHL SUB AND PUSH0 SWAP1 DUP2 MSTORE PUSH1 0x8 PUSH1 0x20 MSTORE PUSH1 0x40 DUP2 KECCAK256 DUP1 SLOAD SWAP1 SWAP2 SWAP1 PUSH2 0x692 SWAP1 DUP5 SWAP1 PUSH2 0xF55 JUMP JUMPDEST SWAP1 SWAP2 SSTORE POP POP POP POP JUMP JUMPDEST PUSH1 0x60 PUSH1 0x4 DUP1 SLOAD PUSH2 0x434 SWAP1 PUSH2 0xF09 JUMP JUMPDEST PUSH2 0x6B4 CALLER DUP3 PUSH2 0xAD8 JUMP JUMPDEST PUSH2 0x6BD DUP2 PUSH2 0x8D7 JUMP JUMPDEST CALLER PUSH0 SWAP1 DUP2 MSTORE PUSH1 0x8 PUSH1 0x20 MSTORE PUSH1 0x40 DUP2 KECCAK256 DUP1 SLOAD SWAP1 SWAP2 SWAP1 PUSH2 0x6DB SWAP1 DUP5 SWAP1 PUSH2 0xFF6 JUMP JUMPDEST SWAP1 SWAP2 SSTORE POP POP PUSH1 0x40 DUP1 MLOAD DUP1 DUP3 ADD DUP3 MSTORE CALLER DUP1 DUP3 MSTORE PUSH1 0x20 DUP1 DUP4 ADD DUP6 DUP2 MSTORE DUP5 MLOAD SWAP2 DUP3 ADD SWAP3 SWAP1 SWAP3 MSTORE SWAP1 MLOAD DUP2 DUP5 ADD MSTORE DUP3 MLOAD DUP1 DUP3 SUB DUP5 ADD DUP2 MSTORE PUSH1 0x60 DUP3 ADD SWAP1 SWAP4 MSTORE PUSH1 0x5 SLOAD PUSH1 0x6 SLOAD SWAP3 SWAP4 SWAP3 PUSH1 0x1 PUSH1 0x1 PUSH1 0xA0 SHL SUB SWAP2 DUP3 AND SWAP3 PUSH4 0xB2267A7B SWAP3 CALLVALUE SWAP3 AND SWAP1 PUSH0 SWAP1 PUSH1 0x1 PUSH3 0xBF5DA5 PUSH1 0xE0 SHL SUB NOT SWAP1 PUSH2 0x74F SWAP1 DUP9 SWAP1 PUSH1 0x84 ADD PUSH2 0xD32 JUMP JUMPDEST PUSH1 0x40 DUP1 MLOAD PUSH1 0x1F NOT DUP2 DUP5 SUB ADD DUP2 MSTORE SWAP2 DUP2 MSTORE PUSH1 0x20 DUP3 ADD DUP1 MLOAD PUSH1 0x1 PUSH1 0x1 PUSH1 0xE0 SHL SUB AND PUSH1 0x1 PUSH1 0x1 PUSH1 0xE0 SHL SUB NOT SWAP5 DUP6 AND OR SWAP1 MSTORE PUSH1 0x7 SLOAD SWAP1 MLOAD PUSH1 0xE0 DUP9 SWAP1 SHL SWAP1 SWAP4 AND DUP4 MSTORE PUSH2 0x79A SWAP5 SWAP4 SWAP3 PUSH1 0x4 ADD PUSH2 0x1009 JUMP JUMPDEST PUSH0 PUSH1 0x40 MLOAD DUP1 DUP4 SUB DUP2 DUP6 DUP9 DUP1 EXTCODESIZE ISZERO DUP1 ISZERO PUSH2 0x7B1 JUMPI PUSH0 PUSH0 REVERT JUMPDEST POP GAS CALL ISZERO DUP1 ISZERO PUSH2 0x7C3 JUMPI RETURNDATASIZE PUSH0 PUSH0 RETURNDATACOPY RETURNDATASIZE PUSH0 REVERT JUMPDEST POP POP POP POP POP POP POP POP JUMP JUMPDEST PUSH1 0x40 MLOAD PUSH12 0xFFFFFFFFFFFFFFFFFFFFFFFF NOT PUSH32 0x0 PUSH1 0x60 SHL AND PUSH1 0x20 DUP3 ADD MSTORE PUSH1 0x34 DUP2 ADD DUP3 SWAP1 MSTORE PUSH0 SWAP1 DUP2 SWAP1 DUP2 SWAP1 PUSH2 0x101 SWAP1 PUSH1 0x54 ADD PUSH1 0x40 DUP1 MLOAD PUSH1 0x1F NOT DUP2 DUP5 SUB ADD DUP2 MSTORE SWAP1 DUP3 SWAP1 MSTORE PUSH2 0x836 SWAP2 PUSH2 0x1040 JUMP JUMPDEST PUSH0 PUSH1 0x40 MLOAD DUP1 DUP4 SUB DUP2 DUP6 GAS STATICCALL SWAP2 POP POP RETURNDATASIZE DUP1 PUSH0 DUP2 EQ PUSH2 0x86E JUMPI PUSH1 0x40 MLOAD SWAP2 POP PUSH1 0x1F NOT PUSH1 0x3F RETURNDATASIZE ADD AND DUP3 ADD PUSH1 0x40 MSTORE RETURNDATASIZE DUP3 MSTORE RETURNDATASIZE PUSH0 PUSH1 0x20 DUP5 ADD RETURNDATACOPY PUSH2 0x873 JUMP JUMPDEST PUSH1 0x60 SWAP2 POP JUMPDEST POP SWAP2 POP SWAP2 POP DUP2 PUSH2 0x8BB JUMPI PUSH1 0x40 MLOAD PUSH3 0x461BCD PUSH1 0xE5 SHL DUP2 MSTORE PUSH1 0x20 PUSH1 0x4 DUP3 ADD MSTORE PUSH1 0xE PUSH1 0x24 DUP3 ADD MSTORE PUSH14 0x130C54D313D0510819985A5B1959 PUSH1 0x92 SHL PUSH1 0x44 DUP3 ADD MSTORE PUSH1 0x64 ADD JUMPDEST PUSH1 0x40 MLOAD DUP1 SWAP2 SUB SWAP1 REVERT JUMPDEST DUP1 DUP1 PUSH1 0x20 ADD SWAP1 MLOAD DUP2 ADD SWAP1 PUSH2 0x8CF SWAP2 SWAP1 PUSH2 0x1056 JUMP JUMPDEST SWAP5 SWAP4 POP POP POP POP JUMP JUMPDEST PUSH0 PUSH2 0x8E0 PUSH2 0x4F1 JUMP JUMPDEST PUSH0 SUB PUSH2 0x8EA JUMPI POP SWAP1 JUMP JUMPDEST PUSH2 0x8F2 PUSH2 0x4F1 JUMP JUMPDEST PUSH2 0x621 PUSH32 0xE3B4B636E601189B5F4C6742EDF2538AC12BB61ED03E6DA26949D69838FA447E PUSH2 0x7CD JUMP JUMPDEST PUSH0 CALLER PUSH2 0x4C2 DUP2 DUP6 DUP6 PUSH2 0x9B5 JUMP JUMPDEST PUSH2 0x935 DUP4 DUP4 DUP4 PUSH1 0x1 PUSH2 0xB0C JUMP JUMPDEST POP POP POP JUMP JUMPDEST PUSH1 0x1 PUSH1 0x1 PUSH1 0xA0 SHL SUB DUP4 DUP2 AND PUSH0 SWAP1 DUP2 MSTORE PUSH1 0x1 PUSH1 0x20 SWAP1 DUP2 MSTORE PUSH1 0x40 DUP1 DUP4 KECCAK256 SWAP4 DUP7 AND DUP4 MSTORE SWAP3 SWAP1 MSTORE KECCAK256 SLOAD PUSH0 NOT DUP2 EQ PUSH2 0x9AF JUMPI DUP2 DUP2 LT ISZERO PUSH2 0x9A1 JUMPI PUSH1 0x40 MLOAD PUSH4 0x7DC7A0D9 PUSH1 0xE1 SHL DUP2 MSTORE PUSH1 0x1 PUSH1 0x1 PUSH1 0xA0 SHL SUB DUP5 AND PUSH1 0x4 DUP3 ADD MSTORE PUSH1 0x24 DUP2 ADD DUP3 SWAP1 MSTORE PUSH1 0x44 DUP2 ADD DUP4 SWAP1 MSTORE PUSH1 0x64 ADD PUSH2 0x8B2 JUMP JUMPDEST PUSH2 0x9AF DUP5 DUP5 DUP5 DUP5 SUB PUSH0 PUSH2 0xB0C JUMP JUMPDEST POP POP POP POP JUMP JUMPDEST PUSH1 0x1 PUSH1 0x1 PUSH1 0xA0 SHL SUB DUP4 AND PUSH2 0x9DE JUMPI PUSH1 0x40 MLOAD PUSH4 0x4B637E8F PUSH1 0xE1 SHL DUP2 MSTORE PUSH0 PUSH1 0x4 DUP3 ADD MSTORE PUSH1 0x24 ADD PUSH2 0x8B2 JUMP JUMPDEST PUSH1 0x1 PUSH1 0x1 PUSH1 0xA0 SHL SUB DUP3 AND PUSH2 0xA07 JUMPI PUSH1 0x40 MLOAD PUSH4 0xEC442F05 PUSH1 0xE0 SHL DUP2 MSTORE PUSH0 PUSH1 0x4 DUP3 ADD MSTORE PUSH1 0x24 ADD PUSH2 0x8B2 JUMP JUMPDEST PUSH2 0x935 DUP4 DUP4 DUP4 PUSH2 0xBDE JUMP JUMPDEST PUSH0 DUP1 PUSH2 0xA3D PUSH32 0xE6E35175EB53FC006520A2A9C3E9711A7C00DE6FF2C32DD31DF8C5A24CAC1B5C PUSH2 0x7CD JUMP JUMPDEST SWAP1 POP PUSH0 PUSH2 0xA69 PUSH32 0x9F70001D82B6EF54E9D3725B46581C3EB9EE3AA02B941B6AA54D678A9CA35B10 PUSH2 0x7CD JUMP JUMPDEST SWAP1 POP DUP1 DUP3 LT ISZERO PUSH2 0xA7B JUMPI PUSH2 0xA7B PUSH2 0x106D JUMP JUMPDEST PUSH9 0x1BC16D674EC800000 PUSH2 0xA8F DUP3 DUP5 PUSH2 0xFF6 JUMP JUMPDEST PUSH2 0xA99 SWAP2 SWAP1 PUSH2 0xF68 JUMP JUMPDEST SWAP3 POP POP POP SWAP1 JUMP JUMPDEST PUSH1 0x1 PUSH1 0x1 PUSH1 0xA0 SHL SUB DUP3 AND PUSH2 0xAC9 JUMPI PUSH1 0x40 MLOAD PUSH4 0xEC442F05 PUSH1 0xE0 SHL DUP2 MSTORE PUSH0 PUSH1 0x4 DUP3 ADD MSTORE PUSH1 0x24 ADD PUSH2 0x8B2 JUMP JUMPDEST PUSH2 0xAD4 PUSH0 DUP4 DUP4 PUSH2 0xBDE JUMP JUMPDEST POP POP JUMP JUMPDEST PUSH1 0x1 PUSH1 0x1 PUSH1 0xA0 SHL SUB DUP3 AND PUSH2 0xB01 JUMPI PUSH1 0x40 MLOAD PUSH4 0x4B637E8F PUSH1 0xE1 SHL DUP2 MSTORE PUSH0 PUSH1 0x4 DUP3 ADD MSTORE PUSH1 0x24 ADD PUSH2 0x8B2 JUMP JUMPDEST PUSH2 0xAD4 DUP3 PUSH0 DUP4 PUSH2 0xBDE JUMP JUMPDEST PUSH1 0x1 PUSH1 0x1 PUSH1 0xA0 SHL SUB DUP5 AND PUSH2 0xB35 JUMPI PUSH1 0x40 MLOAD PUSH4 0xE602DF05 PUSH1 0xE0 SHL DUP2 MSTORE PUSH0 PUSH1 0x4 DUP3 ADD MSTORE PUSH1 0x24 ADD PUSH2 0x8B2 JUMP JUMPDEST PUSH1 0x1 PUSH1 0x1 PUSH1 0xA0 SHL SUB DUP4 AND PUSH2 0xB5E JUMPI PUSH1 0x40 MLOAD PUSH4 0x4A1406B1 PUSH1 0xE1 SHL DUP2 MSTORE PUSH0 PUSH1 0x4 DUP3 ADD MSTORE PUSH1 0x24 ADD PUSH2 0x8B2 JUMP JUMPDEST PUSH1 0x1 PUSH1 0x1 PUSH1 0xA0 SHL SUB DUP1 DUP6 AND PUSH0 SWAP1 DUP2 MSTORE PUSH1 0x1 PUSH1 0x20 SWAP1 DUP2 MSTORE PUSH1 0x40 DUP1 DUP4 KECCAK256 SWAP4 DUP8 AND DUP4 MSTORE SWAP3 SWAP1 MSTORE KECCAK256 DUP3 SWAP1 SSTORE DUP1 ISZERO PUSH2 0x9AF JUMPI DUP3 PUSH1 0x1 PUSH1 0x1 PUSH1 0xA0 SHL SUB AND DUP5 PUSH1 0x1 PUSH1 0x1 PUSH1 0xA0 SHL SUB AND PUSH32 0x8C5BE1E5EBEC7D5BD14F71427D1E84F3DD0314C0F7B2291E5B200AC8C7C3B925 DUP5 PUSH1 0x40 MLOAD PUSH2 0xBD0 SWAP2 DUP2 MSTORE PUSH1 0x20 ADD SWAP1 JUMP JUMPDEST PUSH1 0x40 MLOAD DUP1 SWAP2 SUB SWAP1 LOG3 POP POP POP POP JUMP JUMPDEST PUSH1 0x1 PUSH1 0x1 PUSH1 0xA0 SHL SUB DUP4 AND PUSH2 0xC08 JUMPI DUP1 PUSH1 0x2 PUSH0 DUP3 DUP3 SLOAD PUSH2 0xBFD SWAP2 SWAP1 PUSH2 0xF55 JUMP JUMPDEST SWAP1 SWAP2 SSTORE POP PUSH2 0xC78 SWAP1 POP JUMP JUMPDEST PUSH1 0x1 PUSH1 0x1 PUSH1 0xA0 SHL SUB DUP4 AND PUSH0 SWAP1 DUP2 MSTORE PUSH1 0x20 DUP2 SWAP1 MSTORE PUSH1 0x40 SWAP1 KECCAK256 SLOAD DUP2 DUP2 LT ISZERO PUSH2 0xC5A JUMPI PUSH1 0x40 MLOAD PUSH4 0x391434E3 PUSH1 0xE2 SHL DUP2 MSTORE PUSH1 0x1 PUSH1 0x1 PUSH1 0xA0 SHL SUB DUP6 AND PUSH1 0x4 DUP3 ADD MSTORE PUSH1 0x24 DUP2 ADD DUP3 SWAP1 MSTORE PUSH1 0x44 DUP2 ADD DUP4 SWAP1 MSTORE PUSH1 0x64 ADD PUSH2 0x8B2 JUMP JUMPDEST PUSH1 0x1 PUSH1 0x1 PUSH1 0xA0 SHL SUB DUP5 AND PUSH0 SWAP1 DUP2 MSTORE PUSH1 0x20 DUP2 SWAP1 MSTORE PUSH1 0x40 SWAP1 KECCAK256 SWAP1 DUP3 SWAP1 SUB SWAP1 SSTORE JUMPDEST PUSH1 0x1 PUSH1 0x1 PUSH1 0xA0 SHL SUB DUP3 AND PUSH2 0xC94 JUMPI PUSH1 0x2 DUP1 SLOAD DUP3 SWAP1 SUB SWAP1 SSTORE PUSH2 0xCB2 JUMP JUMPDEST PUSH1 0x1 PUSH1 0x1 PUSH1 0xA0 SHL SUB DUP3 AND PUSH0 SWAP1 DUP2 MSTORE PUSH1 0x20 DUP2 SWAP1 MSTORE PUSH1 0x40 SWAP1 KECCAK256 DUP1 SLOAD DUP3 ADD SWAP1 SSTORE JUMPDEST DUP2 PUSH1 0x1 PUSH1 0x1 PUSH1 0xA0 SHL SUB AND DUP4 PUSH1 0x1 PUSH1 0x1 PUSH1 0xA0 SHL SUB AND PUSH32 0xDDF252AD1BE2C89B69C2B068FC378DAA952BA7F163C4A11628F55A4DF523B3EF DUP4 PUSH1 0x40 MLOAD PUSH2 0xCF7 SWAP2 DUP2 MSTORE PUSH1 0x20 ADD SWAP1 JUMP JUMPDEST PUSH1 0x40 MLOAD DUP1 SWAP2 SUB SWAP1 LOG3 POP POP POP JUMP JUMPDEST PUSH0 DUP2 MLOAD DUP1 DUP5 MSTORE DUP1 PUSH1 0x20 DUP5 ADD PUSH1 0x20 DUP7 ADD MCOPY PUSH0 PUSH1 0x20 DUP3 DUP7 ADD ADD MSTORE PUSH1 0x20 PUSH1 0x1F NOT PUSH1 0x1F DUP4 ADD AND DUP6 ADD ADD SWAP2 POP POP SWAP3 SWAP2 POP POP JUMP JUMPDEST PUSH1 0x20 DUP2 MSTORE PUSH0 PUSH2 0xD44 PUSH1 0x20 DUP4 ADD DUP5 PUSH2 0xD04 JUMP JUMPDEST SWAP4 SWAP3 POP POP POP JUMP JUMPDEST PUSH1 0x1 PUSH1 0x1 PUSH1 0xA0 SHL SUB DUP2 AND DUP2 EQ PUSH2 0x5B6 JUMPI PUSH0 PUSH0 REVERT JUMPDEST PUSH0 PUSH0 PUSH1 0x40 DUP4 DUP6 SUB SLT ISZERO PUSH2 0xD70 JUMPI PUSH0 PUSH0 REVERT JUMPDEST DUP3 CALLDATALOAD PUSH2 0xD7B DUP2 PUSH2 0xD4B JUMP JUMPDEST SWAP5 PUSH1 0x20 SWAP4 SWAP1 SWAP4 ADD CALLDATALOAD SWAP4 POP POP POP JUMP JUMPDEST PUSH0 PUSH0 PUSH0 PUSH1 0x60 DUP5 DUP7 SUB SLT ISZERO PUSH2 0xD9B JUMPI PUSH0 PUSH0 REVERT JUMPDEST DUP4 CALLDATALOAD PUSH2 0xDA6 DUP2 PUSH2 0xD4B JUMP JUMPDEST SWAP3 POP PUSH1 0x20 DUP5 ADD CALLDATALOAD PUSH2 0xDB6 DUP2 PUSH2 0xD4B JUMP JUMPDEST SWAP3 SWAP6 SWAP3 SWAP5 POP POP POP PUSH1 0x40 SWAP2 SWAP1 SWAP2 ADD CALLDATALOAD SWAP1 JUMP JUMPDEST PUSH0 PUSH1 0x20 DUP3 DUP5 SUB SLT ISZERO PUSH2 0xDD7 JUMPI PUSH0 PUSH0 REVERT JUMPDEST DUP2 CALLDATALOAD PUSH2 0xD44 DUP2 PUSH2 0xD4B JUMP JUMPDEST PUSH0 PUSH1 0x20 DUP3 DUP5 SUB SLT ISZERO PUSH2 0xDF2 JUMPI PUSH0 PUSH0 REVERT JUMPDEST POP CALLDATALOAD SWAP2 SWAP1 POP JUMP JUMPDEST PUSH4 0x4E487B71 PUSH1 0xE0 SHL PUSH0 MSTORE PUSH1 0x41 PUSH1 0x4 MSTORE PUSH1 0x24 PUSH0 REVERT JUMPDEST PUSH1 0x40 MLOAD PUSH1 0x1F DUP3 ADD PUSH1 0x1F NOT AND DUP2 ADD PUSH8 0xFFFFFFFFFFFFFFFF DUP2 GT DUP3 DUP3 LT OR ISZERO PUSH2 0xE36 JUMPI PUSH2 0xE36 PUSH2 0xDF9 JUMP JUMPDEST PUSH1 0x40 MSTORE SWAP2 SWAP1 POP JUMP JUMPDEST PUSH0 PUSH1 0x20 DUP3 DUP5 SUB SLT ISZERO PUSH2 0xE4E JUMPI PUSH0 PUSH0 REVERT JUMPDEST DUP2 CALLDATALOAD PUSH8 0xFFFFFFFFFFFFFFFF DUP2 GT ISZERO PUSH2 0xE64 JUMPI PUSH0 PUSH0 REVERT JUMPDEST DUP3 ADD PUSH1 0x1F DUP2 ADD DUP5 SGT PUSH2 0xE74 JUMPI PUSH0 PUSH0 REVERT JUMPDEST DUP1 CALLDATALOAD PUSH8 0xFFFFFFFFFFFFFFFF DUP2 GT ISZERO PUSH2 0xE8E JUMPI PUSH2 0xE8E PUSH2 0xDF9 JUMP JUMPDEST PUSH2 0xEA1 PUSH1 0x1F DUP3 ADD PUSH1 0x1F NOT AND PUSH1 0x20 ADD PUSH2 0xE0D JUMP JUMPDEST DUP2 DUP2 MSTORE DUP6 PUSH1 0x20 DUP4 DUP6 ADD ADD GT ISZERO PUSH2 0xEB5 JUMPI PUSH0 PUSH0 REVERT JUMPDEST DUP2 PUSH1 0x20 DUP5 ADD PUSH1 0x20 DUP4 ADD CALLDATACOPY PUSH0 SWAP2 DUP2 ADD PUSH1 0x20 ADD SWAP2 SWAP1 SWAP2 MSTORE SWAP5 SWAP4 POP POP POP POP JUMP JUMPDEST PUSH0 PUSH0 PUSH1 0x40 DUP4 DUP6 SUB SLT ISZERO PUSH2 0xEE3 JUMPI PUSH0 PUSH0 REVERT JUMPDEST DUP3 CALLDATALOAD PUSH2 0xEEE DUP2 PUSH2 0xD4B JUMP JUMPDEST SWAP2 POP PUSH1 0x20 DUP4 ADD CALLDATALOAD PUSH2 0xEFE DUP2 PUSH2 0xD4B JUMP JUMPDEST DUP1 SWAP2 POP POP SWAP3 POP SWAP3 SWAP1 POP JUMP JUMPDEST PUSH1 0x1 DUP2 DUP2 SHR SWAP1 DUP3 AND DUP1 PUSH2 0xF1D JUMPI PUSH1 0x7F DUP3 AND SWAP2 POP JUMPDEST PUSH1 0x20 DUP3 LT DUP2 SUB PUSH2 0xF3B JUMPI PUSH4 0x4E487B71 PUSH1 0xE0 SHL PUSH0 MSTORE PUSH1 0x22 PUSH1 0x4 MSTORE PUSH1 0x24 PUSH0 REVERT JUMPDEST POP SWAP2 SWAP1 POP JUMP JUMPDEST PUSH4 0x4E487B71 PUSH1 0xE0 SHL PUSH0 MSTORE PUSH1 0x11 PUSH1 0x4 MSTORE PUSH1 0x24 PUSH0 REVERT JUMPDEST DUP1 DUP3 ADD DUP1 DUP3 GT ISZERO PUSH2 0x4C8 JUMPI PUSH2 0x4C8 PUSH2 0xF41 JUMP JUMPDEST DUP1 DUP3 MUL DUP2 ISZERO DUP3 DUP3 DIV DUP5 EQ OR PUSH2 0x4C8 JUMPI PUSH2 0x4C8 PUSH2 0xF41 JUMP JUMPDEST PUSH0 DUP3 PUSH2 0xF99 JUMPI PUSH4 0x4E487B71 PUSH1 0xE0 SHL PUSH0 MSTORE PUSH1 0x12 PUSH1 0x4 MSTORE PUSH1 0x24 PUSH0 REVERT JUMPDEST POP DIV SWAP1 JUMP JUMPDEST PUSH0 PUSH1 0x40 DUP3 DUP5 SUB SLT DUP1 ISZERO PUSH2 0xFAF JUMPI PUSH0 PUSH0 REVERT JUMPDEST POP PUSH1 0x40 DUP1 MLOAD SWAP1 DUP2 ADD PUSH8 0xFFFFFFFFFFFFFFFF DUP2 GT DUP3 DUP3 LT OR ISZERO PUSH2 0xFD3 JUMPI PUSH2 0xFD3 PUSH2 0xDF9 JUMP JUMPDEST PUSH1 0x40 MSTORE DUP3 MLOAD PUSH2 0xFE1 DUP2 PUSH2 0xD4B JUMP JUMPDEST DUP2 MSTORE PUSH1 0x20 SWAP3 DUP4 ADD MLOAD SWAP3 DUP2 ADD SWAP3 SWAP1 SWAP3 MSTORE POP SWAP2 SWAP1 POP JUMP JUMPDEST DUP2 DUP2 SUB DUP2 DUP2 GT ISZERO PUSH2 0x4C8 JUMPI PUSH2 0x4C8 PUSH2 0xF41 JUMP JUMPDEST PUSH1 0x1 DUP1 PUSH1 0xA0 SHL SUB DUP6 AND DUP2 MSTORE DUP4 PUSH1 0x20 DUP3 ADD MSTORE PUSH1 0x80 PUSH1 0x40 DUP3 ADD MSTORE PUSH0 PUSH2 0x102F PUSH1 0x80 DUP4 ADD DUP6 PUSH2 0xD04 JUMP JUMPDEST SWAP1 POP DUP3 PUSH1 0x60 DUP4 ADD MSTORE SWAP6 SWAP5 POP POP POP POP POP JUMP JUMPDEST PUSH0 DUP3 MLOAD DUP1 PUSH1 0x20 DUP6 ADD DUP5 MCOPY PUSH0 SWAP3 ADD SWAP2 DUP3 MSTORE POP SWAP2 SWAP1 POP JUMP JUMPDEST PUSH0 PUSH1 0x20 DUP3 DUP5 SUB SLT ISZERO PUSH2 0x1066 JUMPI PUSH0 PUSH0 REVERT JUMPDEST POP MLOAD SWAP2 SWAP1 POP JUMP JUMPDEST PUSH4 0x4E487B71 PUSH1 0xE0 SHL PUSH0 MSTORE PUSH1 0x1 PUSH1 0x4 MSTORE PUSH1 0x24 PUSH0 REVERT INVALID LOG2 PUSH5 0x6970667358 0x22 SLT KECCAK256 0xDF 0xB4 TIMESTAMP 0xD8 PC PUSH26 0xD53A66278B1E6D17E274214532241EE75AC96924E077327FA18B PUSH5 0x736F6C6343 STOP ADDMOD SHR STOP CALLER "
				},
				"gasEstimates": {
					"creation": {
						"codeDepositCost": "855800",
						"executionCost": "infinite",
						"totalCost": "infinite"
					},
					"external": {
						"allowance(address,address)": "infinite",
						"approve(address,uint256)": "24751",
						"balanceOf(address)": "2642",
						"decimals()": "288",
						"getPooledEthByShares(uint256)": "infinite",
						"getSharesByEth(uint256)": "infinite",
						"getTotalPooledEther()": "infinite",
						"getValForPosition(bytes32)": "infinite",
						"name()": "infinite",
						"payoutRstETH(uint256)": "infinite",
						"receiveRstETH(bytes)": "infinite",
						"scrollMessenger()": "2424",
						"setGasLimit(uint256)": "22442",
						"setScrollMessenger(address)": "24618",
						"sharesPerUser(address)": "2555",
						"stETHAdapter()": "2425",
						"symbol()": "infinite",
						"totalSupply()": "2348",
						"transfer(address,uint256)": "51275",
						"transferFrom(address,address,uint256)": "infinite",
						"withdraw()": "infinite"
					},
					"internal": {
						"_getTransientBalance()": "infinite"
					}
				},
				"methodIdentifiers": {
					"allowance(address,address)": "dd62ed3e",
					"approve(address,uint256)": "095ea7b3",
					"balanceOf(address)": "70a08231",
					"decimals()": "313ce567",
					"getPooledEthByShares(uint256)": "7a28fb88",
					"getSharesByEth(uint256)": "a7083dfb",
					"getTotalPooledEther()": "37cfdaca",
					"getValForPosition(bytes32)": "a6488c94",
					"name()": "06fdde03",
					"payoutRstETH(uint256)": "9dc6943a",
					"receiveRstETH(bytes)": "841b1b74",
					"scrollMessenger()": "d2087ad9",
					"setGasLimit(uint256)": "ee7d72b4",
					"setScrollMessenger(address)": "48727dc4",
					"sharesPerUser(address)": "7e46ade6",
					"stETHAdapter()": "5e0f7d39",
					"symbol()": "95d89b41",
					"totalSupply()": "18160ddd",
					"transfer(address,uint256)": "a9059cbb",
					"transferFrom(address,address,uint256)": "23b872dd",
					"withdraw()": "3ccfd60b"
				}
			},
			"storageLayout": {
				"storage": [
					{
						"astId": 159,
						"contract": "src/scroll/ScrollRstETH.sol:ScrollRstETH",
						"label": "_balances",
						"offset": 0,
						"slot": "0",
						"type": "t_mapping(t_address,t_uint256)"
					},
					{
						"astId": 165,
						"contract": "src/scroll/ScrollRstETH.sol:ScrollRstETH",
						"label": "_allowances",
						"offset": 0,
						"slot": "1",
						"type": "t_mapping(t_address,t_mapping(t_address,t_uint256))"
					},
					{
						"astId": 167,
						"contract": "src/scroll/ScrollRstETH.sol:ScrollRstETH",
						"label": "_totalSupply",
						"offset": 0,
						"slot": "2",
						"type": "t_uint256"
					},
					{
						"astId": 169,
						"contract": "src/scroll/ScrollRstETH.sol:ScrollRstETH",
						"label": "_name",
						"offset": 0,
						"slot": "3",
						"type": "t_string_storage"
					},
					{
						"astId": 171,
						"contract": "src/scroll/ScrollRstETH.sol:ScrollRstETH",
						"label": "_symbol",
						"offset": 0,
						"slot": "4",
						"type": "t_string_storage"
					},
					{
						"astId": 852,
						"contract": "src/scroll/ScrollRstETH.sol:ScrollRstETH",
						"label": "scrollMessenger",
						"offset": 0,
						"slot": "5",
						"type": "t_contract(ScrollMessenger)1205"
					},
					{
						"astId": 855,
						"contract": "src/scroll/ScrollRstETH.sol:ScrollRstETH",
						"label": "stETHAdapter",
						"offset": 0,
						"slot": "6",
						"type": "t_contract(IStETHAdapter)819"
					},
					{
						"astId": 858,
						"contract": "src/scroll/ScrollRstETH.sol:ScrollRstETH",
						"label": "GAS_LIMIT",
						"offset": 0,
						"slot": "7",
						"type": "t_uint256"
					},
					{
						"astId": 862,
						"contract": "src/scroll/ScrollRstETH.sol:ScrollRstETH",
						"label": "sharesPerUser",
						"offset": 0,
						"slot": "8",
						"type": "t_mapping(t_address,t_uint256)"
					}
				],
				"types": {
					"t_address": {
						"encoding": "inplace",
						"label": "address",
						"numberOfBytes": "20"
					},
					"t_contract(IStETHAdapter)819": {
						"encoding": "inplace",
						"label": "contract IStETHAdapter",
						"numberOfBytes": "20"
					},
					"t_contract(ScrollMessenger)1205": {
						"encoding": "inplace",
						"label": "contract ScrollMessenger",
						"numberOfBytes": "20"
					},
					"t_mapping(t_address,t_mapping(t_address,t_uint256))": {
						"encoding": "mapping",
						"key": "t_address",
						"label": "mapping(address => mapping(address => uint256))",
						"numberOfBytes": "32",
						"value": "t_mapping(t_address,t_uint256)"
					},
					"t_mapping(t_address,t_uint256)": {
						"encoding": "mapping",
						"key": "t_address",
						"label": "mapping(address => uint256)",
						"numberOfBytes": "32",
						"value": "t_uint256"
					},
					"t_string_storage": {
						"encoding": "bytes",
						"label": "string",
						"numberOfBytes": "32"
					},
					"t_uint256": {
						"encoding": "inplace",
						"label": "uint256",
						"numberOfBytes": "32"
					}
				}
			},
			"userdoc": {
				"kind": "user",
				"methods": {},
				"version": 1
			}
		}
	}
}