{
	"src/scroll/ScrollStETHBridge.sol": {
		"ScrollStETHBridge": {
			"abi": [
				{
					"inputs": [
						{
							"internalType": "contract ScrollMessenger",
							"name": "_scrollMessenger",
							"type": "address"
						},
						{
							"internalType": "contract IERC20",
							"name": "_stETH",
							"type": "address"
						}
					],
					"stateMutability": "nonpayable",
					"type": "constructor"
				},
				{
					"inputs": [
						{
							"internalType": "uint256",
							"name": "amount",
							"type": "uint256"
						}
					],
					"name": "bridgeRStETH",
					"outputs": [],
					"stateMutability": "payable",
					"type": "function"
				},
				{
					"inputs": [
						{
							"internalType": "bytes",
							"name": "encodedMsg",
							"type": "bytes"
						}
					],
					"name": "payOutRstETH",
					"outputs": [],
					"stateMutability": "nonpayable",
					"type": "function"
				},
				{
					"inputs": [],
					"name": "scrollMessenger",
					"outputs": [
						{
							"internalType": "contract ScrollMessenger",
							"name": "",
							"type": "address"
						}
					],
					"stateMutability": "view",
					"type": "function"
				},
				{
					"inputs": [],
					"name": "scrollRstETH",
					"outputs": [
						{
							"internalType": "address",
							"name": "",
							"type": "address"
						}
					],
					"stateMutability": "view",
					"type": "function"
				},
				{
					"inputs": [
						{
							"internalType": "uint256",
							"name": "_gasLimit",
							"type": "uint256"
						}
					],
					"name": "setGasLimit",
					"outputs": [],
					"stateMutability": "nonpayable",
					"type": "function"
				},
				{
					"inputs": [
						{
							"internalType": "contract ScrollMessenger",
							"name": "_scrollMessenger",
							"type": "address"
						}
					],
					"name": "setScrollMessenger",
					"outputs": [],
					"stateMutability": "nonpayable",
					"type": "function"
				},
				{
					"inputs": [
						{
							"internalType": "address",
							"name": "_scrollStETH",
							"type": "address"
						}
					],
					"name": "setScrollRstETH",
					"outputs": [],
					"stateMutability": "nonpayable",
					"type": "function"
				},
				{
					"inputs": [],
					"name": "stETH",
					"outputs": [
						{
							"internalType": "contract IERC20",
							"name": "",
							"type": "address"
						}
					],
					"stateMutability": "view",
					"type": "function"
				},
				{
					"inputs": [],
					"name": "withdraw",
					"outputs": [],
					"stateMutability": "nonpayable",
					"type": "function"
				},
				{
					"stateMutability": "payable",
					"type": "receive"
				}
			],
			"devdoc": {
				"kind": "dev",
				"methods": {},
				"version": 1
			},
			"evm": {
				"assembly": "    /* \"src/scroll/ScrollStETHBridge.sol\":408:2384  contract ScrollStETHBridge {... */\n  mstore(0x40, 0xa0)\n    /* \"src/scroll/ScrollStETHBridge.sol\":575:582  1000000 */\n  0x0f4240\n    /* \"src/scroll/ScrollStETHBridge.sol\":555:582  uint256 GAS_LIMIT = 1000000 */\n  0x02\n  sstore\n    /* \"src/scroll/ScrollStETHBridge.sol\":831:967  constructor(ScrollMessenger _scrollMessenger, IERC20 _stETH) {... */\n  callvalue\n  dup1\n  iszero\n  tag_1\n  jumpi\n  revert(0x00, 0x00)\ntag_1:\n  pop\n  mload(0x40)\n  sub(codesize, bytecodeSize)\n  dup1\n  bytecodeSize\n  dup4\n  codecopy\n  dup2\n  add\n  0x40\n  dup2\n  swap1\n  mstore\n  tag_2\n  swap2\n  tag_3\n  jump\t// in\ntag_2:\n    /* \"src/scroll/ScrollStETHBridge.sol\":902:917  scrollMessenger */\n  0x00\n    /* \"src/scroll/ScrollStETHBridge.sol\":902:936  scrollMessenger = _scrollMessenger */\n  dup1\n  sload\n  not(sub(shl(0xa0, 0x01), 0x01))\n  and\n  sub(shl(0xa0, 0x01), 0x01)\n  swap4\n  dup5\n  and\n  or\n  swap1\n  sstore\n    /* \"src/scroll/ScrollStETHBridge.sol\":946:960  stETH = _stETH */\n  and\n  0x80\n  mstore\n    /* \"src/scroll/ScrollStETHBridge.sol\":408:2384  contract ScrollStETHBridge {... */\n  jump(tag_8)\n    /* \"#utility.yul\":14:162   */\ntag_7:\n  sub(shl(0xa0, 0x01), 0x01)\n    /* \"#utility.yul\":106:137   */\n  dup2\n  and\n    /* \"#utility.yul\":96:138   */\n  dup2\n  eq\n    /* \"#utility.yul\":86:156   */\n  tag_10\n  jumpi\n    /* \"#utility.yul\":152:153   */\n  0x00\n    /* \"#utility.yul\":149:150   */\n  0x00\n    /* \"#utility.yul\":142:154   */\n  revert\n    /* \"#utility.yul\":86:156   */\ntag_10:\n    /* \"#utility.yul\":14:162   */\n  pop\n  jump\t// out\n    /* \"#utility.yul\":167:624   */\ntag_3:\n    /* \"#utility.yul\":284:290   */\n  0x00\n    /* \"#utility.yul\":292:298   */\n  0x00\n    /* \"#utility.yul\":345:347   */\n  0x40\n    /* \"#utility.yul\":333:342   */\n  dup4\n    /* \"#utility.yul\":324:331   */\n  dup6\n    /* \"#utility.yul\":320:343   */\n  sub\n    /* \"#utility.yul\":316:348   */\n  slt\n    /* \"#utility.yul\":313:365   */\n  iszero\n  tag_12\n  jumpi\n    /* \"#utility.yul\":361:362   */\n  0x00\n    /* \"#utility.yul\":358:359   */\n  0x00\n    /* \"#utility.yul\":351:363   */\n  revert\n    /* \"#utility.yul\":313:365   */\ntag_12:\n    /* \"#utility.yul\":393:402   */\n  dup3\n    /* \"#utility.yul\":387:403   */\n  mload\n    /* \"#utility.yul\":412:460   */\n  tag_13\n    /* \"#utility.yul\":454:459   */\n  dup2\n    /* \"#utility.yul\":412:460   */\n  tag_7\n  jump\t// in\ntag_13:\n    /* \"#utility.yul\":529:531   */\n  0x20\n    /* \"#utility.yul\":514:532   */\n  dup5\n  add\n    /* \"#utility.yul\":508:533   */\n  mload\n    /* \"#utility.yul\":479:484   */\n  swap1\n  swap3\n  pop\n    /* \"#utility.yul\":542:592   */\n  tag_14\n    /* \"#utility.yul\":508:533   */\n  dup2\n    /* \"#utility.yul\":542:592   */\n  tag_7\n  jump\t// in\ntag_14:\n    /* \"#utility.yul\":611:618   */\n  dup1\n    /* \"#utility.yul\":601:618   */\n  swap2\n  pop\n  pop\n    /* \"#utility.yul\":167:624   */\n  swap3\n  pop\n  swap3\n  swap1\n  pop\n  jump\t// out\ntag_8:\n    /* \"src/scroll/ScrollStETHBridge.sol\":408:2384  contract ScrollStETHBridge {... */\n  mload(0x80)\n  codecopy(0x00, dataOffset(sub_0), dataSize(sub_0))\n  0x00\n  assignImmutable(\"0xd8dd77ef205b843eebffa51565657f8add679a25fbf239f803ae74f42ece1b28\")\n  return(0x00, dataSize(sub_0))\nstop\n\nsub_0: assembly {\n        /* \"src/scroll/ScrollStETHBridge.sol\":408:2384  contract ScrollStETHBridge {... */\n      mstore(0x40, 0x80)\n      jumpi(tag_1, lt(calldatasize, 0x04))\n      shr(0xe0, calldataload(0x00))\n      dup1\n      0xbf7b7f72\n      gt\n      tag_12\n      jumpi\n      dup1\n      0xbf7b7f72\n      eq\n      tag_7\n      jumpi\n      dup1\n      0xc1fe3e48\n      eq\n      tag_8\n      jumpi\n      dup1\n      0xd2087ad9\n      eq\n      tag_9\n      jumpi\n      dup1\n      0xee7d72b4\n      eq\n      tag_10\n      jumpi\n      dup1\n      0xff40a25b\n      eq\n      tag_11\n      jumpi\n      revert(0x00, 0x00)\n    tag_12:\n      dup1\n      0x3ccfd60b\n      eq\n      tag_3\n      jumpi\n      dup1\n      0x48727dc4\n      eq\n      tag_4\n      jumpi\n      dup1\n      0x7405c64c\n      eq\n      tag_5\n      jumpi\n      dup1\n      0x88b8ba49\n      eq\n      tag_6\n      jumpi\n      revert(0x00, 0x00)\n    tag_1:\n      jumpi(tag_2, calldatasize)\n      stop\n    tag_2:\n      revert(0x00, 0x00)\n        /* \"src/scroll/ScrollStETHBridge.sol\":2200:2340  function withdraw() external {... */\n    tag_3:\n      callvalue\n      dup1\n      iszero\n      tag_15\n      jumpi\n      revert(0x00, 0x00)\n    tag_15:\n      pop\n      tag_16\n      tag_17\n      jump\t// in\n    tag_16:\n      stop\n        /* \"src/scroll/ScrollStETHBridge.sol\":1172:1295  function setScrollMessenger(ScrollMessenger _scrollMessenger) external  {... */\n    tag_4:\n      callvalue\n      dup1\n      iszero\n      tag_18\n      jumpi\n      revert(0x00, 0x00)\n    tag_18:\n      pop\n      tag_16\n      tag_20\n      calldatasize\n      0x04\n      tag_21\n      jump\t// in\n    tag_20:\n        /* \"src/scroll/ScrollStETHBridge.sol\":1254:1269  scrollMessenger */\n      0x00\n        /* \"src/scroll/ScrollStETHBridge.sol\":1254:1288  scrollMessenger = _scrollMessenger */\n      dup1\n      sload\n      not(sub(shl(0xa0, 0x01), 0x01))\n      and\n      sub(shl(0xa0, 0x01), 0x01)\n      swap3\n      swap1\n      swap3\n      and\n      swap2\n      swap1\n      swap2\n      or\n      swap1\n      sstore\n        /* \"src/scroll/ScrollStETHBridge.sol\":1172:1295  function setScrollMessenger(ScrollMessenger _scrollMessenger) external  {... */\n      jump\n        /* \"src/scroll/ScrollStETHBridge.sol\":973:1166  function setScrollRstETH(address _scrollStETH) external {... */\n    tag_5:\n      callvalue\n      dup1\n      iszero\n      tag_23\n      jumpi\n      revert(0x00, 0x00)\n    tag_23:\n      pop\n      tag_16\n      tag_25\n      calldatasize\n      0x04\n      tag_21\n      jump\t// in\n    tag_25:\n        /* \"src/scroll/ScrollStETHBridge.sol\":1132:1144  scrollRstETH */\n      0x01\n        /* \"src/scroll/ScrollStETHBridge.sol\":1132:1159  scrollRstETH = _scrollStETH */\n      dup1\n      sload\n      not(sub(shl(0xa0, 0x01), 0x01))\n      and\n      sub(shl(0xa0, 0x01), 0x01)\n      swap3\n      swap1\n      swap3\n      and\n      swap2\n      swap1\n      swap2\n      or\n      swap1\n      sstore\n        /* \"src/scroll/ScrollStETHBridge.sol\":973:1166  function setScrollRstETH(address _scrollStETH) external {... */\n      jump\n        /* \"src/scroll/ScrollStETHBridge.sol\":1396:1862  function bridgeRStETH(uint256 amount) external payable {... */\n    tag_6:\n      tag_16\n      tag_29\n      calldatasize\n      0x04\n      tag_30\n      jump\t// in\n    tag_29:\n      tag_31\n      jump\t// in\n        /* \"src/scroll/ScrollStETHBridge.sol\":521:548  address public scrollRstETH */\n    tag_7:\n      callvalue\n      dup1\n      iszero\n      tag_32\n      jumpi\n      revert(0x00, 0x00)\n    tag_32:\n      pop\n      sload(0x01)\n      tag_33\n      swap1\n      sub(shl(0xa0, 0x01), 0x01)\n      and\n      dup2\n      jump\n    tag_33:\n      mload(0x40)\n      sub(shl(0xa0, 0x01), 0x01)\n        /* \"#utility.yul\":1078:1110   */\n      swap1\n      swap2\n      and\n        /* \"#utility.yul\":1060:1111   */\n      dup2\n      mstore\n        /* \"#utility.yul\":1048:1050   */\n      0x20\n        /* \"#utility.yul\":1033:1051   */\n      add\n        /* \"src/scroll/ScrollStETHBridge.sol\":521:548  address public scrollRstETH */\n      mload(0x40)\n      dup1\n      swap2\n      sub\n      swap1\n      return\n        /* \"src/scroll/ScrollStETHBridge.sol\":485:514  IERC20 public immutable stETH */\n    tag_8:\n      callvalue\n      dup1\n      iszero\n      tag_37\n      jumpi\n      revert(0x00, 0x00)\n    tag_37:\n      pop\n      tag_33\n      immutable(\"0xd8dd77ef205b843eebffa51565657f8add679a25fbf239f803ae74f42ece1b28\")\n      dup2\n      jump\n        /* \"src/scroll/ScrollStETHBridge.sol\":441:479  ScrollMessenger public scrollMessenger */\n    tag_9:\n      callvalue\n      dup1\n      iszero\n      tag_42\n      jumpi\n      revert(0x00, 0x00)\n    tag_42:\n      pop\n      sload(0x00)\n      tag_33\n      swap1\n      sub(shl(0xa0, 0x01), 0x01)\n      and\n      dup2\n      jump\n        /* \"src/scroll/ScrollStETHBridge.sol\":1301:1389  function setGasLimit(uint256 _gasLimit) external  {... */\n    tag_10:\n      callvalue\n      dup1\n      iszero\n      tag_47\n      jumpi\n      revert(0x00, 0x00)\n    tag_47:\n      pop\n      tag_16\n      tag_49\n      calldatasize\n      0x04\n      tag_30\n      jump\t// in\n    tag_49:\n        /* \"src/scroll/ScrollStETHBridge.sol\":1361:1370  GAS_LIMIT */\n      0x02\n        /* \"src/scroll/ScrollStETHBridge.sol\":1361:1382  GAS_LIMIT = _gasLimit */\n      sstore\n        /* \"src/scroll/ScrollStETHBridge.sol\":1301:1389  function setGasLimit(uint256 _gasLimit) external  {... */\n      jump\n        /* \"src/scroll/ScrollStETHBridge.sol\":1868:2194  function payOutRstETH(bytes memory encodedMsg) external onlyScrollMessenger {... */\n    tag_11:\n      callvalue\n      dup1\n      iszero\n      tag_51\n      jumpi\n      revert(0x00, 0x00)\n    tag_51:\n      pop\n      tag_16\n      tag_53\n      calldatasize\n      0x04\n      tag_54\n      jump\t// in\n    tag_53:\n      tag_55\n      jump\t// in\n        /* \"src/scroll/ScrollStETHBridge.sol\":2200:2340  function withdraw() external {... */\n    tag_17:\n        /* \"src/scroll/ScrollStETHBridge.sol\":2258:2307  msg.sender.call{value: address(this).balance}(\"\") */\n      mload(0x40)\n        /* \"src/scroll/ScrollStETHBridge.sol\":2240:2252  bool success */\n      0x00\n      swap1\n        /* \"src/scroll/ScrollStETHBridge.sol\":2258:2268  msg.sender */\n      caller\n      swap1\n        /* \"src/scroll/ScrollStETHBridge.sol\":2281:2302  address(this).balance */\n      selfbalance\n      swap1\n        /* \"src/scroll/ScrollStETHBridge.sol\":2240:2252  bool success */\n      dup4\n        /* \"src/scroll/ScrollStETHBridge.sol\":2258:2307  msg.sender.call{value: address(this).balance}(\"\") */\n      dup2\n        /* \"src/scroll/ScrollStETHBridge.sol\":2240:2252  bool success */\n      dup2\n        /* \"src/scroll/ScrollStETHBridge.sol\":2258:2307  msg.sender.call{value: address(this).balance}(\"\") */\n      dup2\n        /* \"src/scroll/ScrollStETHBridge.sol\":2281:2302  address(this).balance */\n      dup6\n        /* \"src/scroll/ScrollStETHBridge.sol\":2258:2268  msg.sender */\n      dup8\n        /* \"src/scroll/ScrollStETHBridge.sol\":2258:2307  msg.sender.call{value: address(this).balance}(\"\") */\n      gas\n      call\n      swap3\n      pop\n      pop\n      pop\n      returndatasize\n      dup1\n      0x00\n      dup2\n      eq\n      tag_61\n      jumpi\n      mload(0x40)\n      swap2\n      pop\n      and(add(returndatasize, 0x3f), not(0x1f))\n      dup3\n      add\n      0x40\n      mstore\n      returndatasize\n      dup3\n      mstore\n      returndatasize\n      0x00\n      0x20\n      dup5\n      add\n      returndatacopy\n      jump(tag_60)\n    tag_61:\n      0x60\n      swap2\n      pop\n    tag_60:\n      pop\n        /* \"src/scroll/ScrollStETHBridge.sol\":2239:2307  (bool success, ) = msg.sender.call{value: address(this).balance}(\"\") */\n      pop\n      swap1\n      pop\n        /* \"src/scroll/ScrollStETHBridge.sol\":2325:2332  success */\n      dup1\n        /* \"src/scroll/ScrollStETHBridge.sol\":2317:2333  require(success) */\n      tag_62\n      jumpi\n      revert(0x00, 0x00)\n    tag_62:\n        /* \"src/scroll/ScrollStETHBridge.sol\":2229:2340  {... */\n      pop\n        /* \"src/scroll/ScrollStETHBridge.sol\":2200:2340  function withdraw() external {... */\n      jump\t// out\n        /* \"src/scroll/ScrollStETHBridge.sol\":1396:1862  function bridgeRStETH(uint256 amount) external payable {... */\n    tag_31:\n        /* \"src/scroll/ScrollStETHBridge.sol\":1461:1514  stETH.transferFrom(msg.sender, address(this), amount) */\n      mload(0x40)\n      shl(0xe0, 0x23b872dd)\n      dup2\n      mstore\n        /* \"src/scroll/ScrollStETHBridge.sol\":1480:1490  msg.sender */\n      caller\n        /* \"src/scroll/ScrollStETHBridge.sol\":1461:1514  stETH.transferFrom(msg.sender, address(this), amount) */\n      0x04\n      dup3\n      add\n        /* \"#utility.yul\":3170:3221   */\n      mstore\n        /* \"src/scroll/ScrollStETHBridge.sol\":1500:1504  this */\n      address\n        /* \"#utility.yul\":3237:3255   */\n      0x24\n      dup3\n      add\n        /* \"#utility.yul\":3230:3290   */\n      mstore\n        /* \"#utility.yul\":3306:3324   */\n      0x44\n      dup2\n      add\n        /* \"#utility.yul\":3299:3333   */\n      dup3\n      swap1\n      mstore\n        /* \"src/scroll/ScrollStETHBridge.sol\":1461:1466  stETH */\n      immutable(\"0xd8dd77ef205b843eebffa51565657f8add679a25fbf239f803ae74f42ece1b28\")\n      sub(shl(0xa0, 0x01), 0x01)\n        /* \"src/scroll/ScrollStETHBridge.sol\":1461:1479  stETH.transferFrom */\n      and\n      swap1\n      0x23b872dd\n      swap1\n        /* \"#utility.yul\":3143:3161   */\n      0x64\n      add\n        /* \"src/scroll/ScrollStETHBridge.sol\":1461:1514  stETH.transferFrom(msg.sender, address(this), amount) */\n      0x20\n      mload(0x40)\n      dup1\n      dup4\n      sub\n      dup2\n      0x00\n      dup8\n      gas\n      call\n      iszero\n      dup1\n      iszero\n      tag_69\n      jumpi\n      returndatacopy(0x00, 0x00, returndatasize)\n      revert(0x00, returndatasize)\n    tag_69:\n      pop\n      pop\n      pop\n      pop\n      mload(0x40)\n      returndatasize\n      not(0x1f)\n      0x1f\n      dup3\n      add\n      and\n      dup3\n      add\n      dup1\n      0x40\n      mstore\n      pop\n      dup2\n      add\n      swap1\n      tag_70\n      swap2\n      swap1\n      tag_71\n      jump\t// in\n    tag_70:\n      pop\n        /* \"src/scroll/ScrollStETHBridge.sol\":1563:1617  BridgeStETHMessage({user: msg.sender, amount: amount}) */\n      0x40\n      dup1\n      mload\n      dup1\n      dup3\n      add\n      dup3\n      mstore\n        /* \"src/scroll/ScrollStETHBridge.sol\":1589:1599  msg.sender */\n      caller\n        /* \"src/scroll/ScrollStETHBridge.sol\":1563:1617  BridgeStETHMessage({user: msg.sender, amount: amount}) */\n      dup1\n      dup3\n      mstore\n      0x20\n      dup1\n      dup4\n      add\n      dup6\n      dup2\n      mstore\n        /* \"src/scroll/ScrollStETHBridge.sol\":1654:1675  abi.encode(bridgeMsg) */\n      dup5\n      mload\n      swap2\n      dup3\n      add\n        /* \"#utility.yul\":3844:3902   */\n      swap3\n      swap1\n      swap3\n      mstore\n        /* \"#utility.yul\":3940:3964   */\n      swap1\n      mload\n        /* \"#utility.yul\":3918:3938   */\n      dup2\n      dup5\n      add\n        /* \"#utility.yul\":3911:3965   */\n      mstore\n        /* \"src/scroll/ScrollStETHBridge.sol\":1654:1675  abi.encode(bridgeMsg) */\n      dup3\n      mload\n      dup1\n      dup3\n      sub\n      dup5\n      add\n      dup2\n      mstore\n        /* \"#utility.yul\":3817:3835   */\n      0x60\n      dup3\n      add\n        /* \"src/scroll/ScrollStETHBridge.sol\":1654:1675  abi.encode(bridgeMsg) */\n      swap1\n      swap4\n      mstore\n      0x00\n        /* \"src/scroll/ScrollStETHBridge.sol\":1686:1701  scrollMessenger */\n      dup1\n      sload\n      0x01\n        /* \"src/scroll/ScrollStETHBridge.sol\":1745:1757  scrollRstETH */\n      sload\n        /* \"src/scroll/ScrollStETHBridge.sol\":1563:1617  BridgeStETHMessage({user: msg.sender, amount: amount}) */\n      swap4\n      swap5\n        /* \"src/scroll/ScrollStETHBridge.sol\":1654:1675  abi.encode(bridgeMsg) */\n      swap4\n      sub(shl(0xa0, 0x01), 0x01)\n        /* \"src/scroll/ScrollStETHBridge.sol\":1686:1701  scrollMessenger */\n      swap2\n      dup3\n      and\n      swap4\n        /* \"src/scroll/ScrollStETHBridge.sol\":1686:1713  scrollMessenger.sendMessage */\n      0xb2267a7b\n      swap4\n        /* \"src/scroll/ScrollStETHBridge.sol\":1721:1730  msg.value */\n      callvalue\n      swap4\n        /* \"src/scroll/ScrollStETHBridge.sol\":1745:1757  scrollRstETH */\n      swap1\n      swap3\n      and\n      swap2\n      swap1\n      shl(0xe2, 0x2106c6dd)\n        /* \"src/scroll/ScrollStETHBridge.sol\":1785:1821  IScrollRstETH.receiveRstETH.selector */\n      swap1\n        /* \"src/scroll/ScrollStETHBridge.sol\":1762:1834  abi.encodeWithSelector(IScrollRstETH.receiveRstETH.selector, encodedMsg) */\n      tag_74\n      swap1\n        /* \"src/scroll/ScrollStETHBridge.sol\":1654:1675  abi.encode(bridgeMsg) */\n      dup9\n      swap1\n        /* \"src/scroll/ScrollStETHBridge.sol\":1762:1834  abi.encodeWithSelector(IScrollRstETH.receiveRstETH.selector, encodedMsg) */\n      0x84\n      add\n      tag_75\n      jump\t// in\n    tag_74:\n      0x40\n      dup1\n      mload\n      not(0x1f)\n      dup2\n      dup5\n      sub\n      add\n      dup2\n      mstore\n      swap2\n      dup2\n      mstore\n      0x20\n      dup3\n      add\n      dup1\n      mload\n      sub(shl(0xe0, 0x01), 0x01)\n      and\n      not(sub(shl(0xe0, 0x01), 0x01))\n      swap5\n      dup6\n      and\n      or\n      swap1\n      mstore\n        /* \"src/scroll/ScrollStETHBridge.sol\":1836:1845  GAS_LIMIT */\n      sload(0x02)\n        /* \"src/scroll/ScrollStETHBridge.sol\":1686:1855  scrollMessenger.sendMessage{value: msg.value}(... */\n      swap1\n      mload\n      0xe0\n      dup9\n      swap1\n      shl\n      swap1\n      swap4\n      and\n      dup4\n      mstore\n      tag_76\n      swap5\n      swap4\n      swap3\n      0x04\n      add\n      tag_77\n      jump\t// in\n    tag_76:\n      0x00\n      mload(0x40)\n      dup1\n      dup4\n      sub\n      dup2\n      dup6\n      dup9\n      dup1\n      extcodesize\n      iszero\n      dup1\n      iszero\n      tag_78\n      jumpi\n      revert(0x00, 0x00)\n    tag_78:\n      pop\n      gas\n      call\n      iszero\n      dup1\n      iszero\n      tag_80\n      jumpi\n      returndatacopy(0x00, 0x00, returndatasize)\n      revert(0x00, returndatasize)\n    tag_80:\n      pop\n      pop\n      pop\n      pop\n      pop\n        /* \"src/scroll/ScrollStETHBridge.sol\":1451:1862  {... */\n      pop\n      pop\n        /* \"src/scroll/ScrollStETHBridge.sol\":1396:1862  function bridgeRStETH(uint256 amount) external payable {... */\n      pop\n      jump\t// out\n        /* \"src/scroll/ScrollStETHBridge.sol\":1868:2194  function payOutRstETH(bytes memory encodedMsg) external onlyScrollMessenger {... */\n    tag_55:\n        /* \"src/scroll/ScrollStETHBridge.sol\":741:756  scrollMessenger */\n      and(sub(shl(0xa0, 0x01), 0x01), sload(0x00))\n        /* \"src/scroll/ScrollStETHBridge.sol\":719:729  msg.sender */\n      caller\n        /* \"src/scroll/ScrollStETHBridge.sol\":719:757  msg.sender != address(scrollMessenger) */\n      eq\n        /* \"src/scroll/ScrollStETHBridge.sol\":715:808  if (msg.sender != address(scrollMessenger)) {... */\n      tag_83\n      jumpi\n        /* \"src/scroll/ScrollStETHBridge.sol\":773:797  revert(\"Invalid sender\") */\n      mload(0x40)\n      shl(0xe5, 0x461bcd)\n      dup2\n      mstore\n        /* \"#utility.yul\":5164:5166   */\n      0x20\n        /* \"src/scroll/ScrollStETHBridge.sol\":773:797  revert(\"Invalid sender\") */\n      0x04\n      dup3\n      add\n        /* \"#utility.yul\":5146:5167   */\n      mstore\n        /* \"#utility.yul\":5203:5205   */\n      0x0e\n        /* \"#utility.yul\":5183:5201   */\n      0x24\n      dup3\n      add\n        /* \"#utility.yul\":5176:5206   */\n      mstore\n      shl(0x91, 0x24b73b30b634b21039b2b73232b9)\n        /* \"#utility.yul\":5222:5240   */\n      0x44\n      dup3\n      add\n        /* \"#utility.yul\":5215:5259   */\n      mstore\n        /* \"#utility.yul\":5276:5294   */\n      0x64\n      add\n        /* \"src/scroll/ScrollStETHBridge.sol\":773:797  revert(\"Invalid sender\") */\n    tag_84:\n      mload(0x40)\n      dup1\n      swap2\n      sub\n      swap1\n      revert\n        /* \"src/scroll/ScrollStETHBridge.sol\":715:808  if (msg.sender != address(scrollMessenger)) {... */\n    tag_83:\n        /* \"src/scroll/ScrollStETHBridge.sol\":1954:1990  BridgeStETHMessage memory decodedMsg */\n      0x00\n        /* \"src/scroll/ScrollStETHBridge.sol\":2004:2014  encodedMsg */\n      dup2\n        /* \"src/scroll/ScrollStETHBridge.sol\":1993:2037  abi.decode(encodedMsg, (BridgeStETHMessage)) */\n      dup1\n      0x20\n      add\n      swap1\n      mload\n      dup2\n      add\n      swap1\n      tag_87\n      swap2\n      swap1\n      tag_88\n      jump\t// in\n    tag_87:\n        /* \"src/scroll/ScrollStETHBridge.sol\":2079:2094  decodedMsg.user */\n      dup1\n      mload\n        /* \"src/scroll/ScrollStETHBridge.sol\":2096:2113  decodedMsg.amount */\n      0x20\n      dup3\n      add\n      mload\n        /* \"src/scroll/ScrollStETHBridge.sol\":2064:2114  stETH.transfer(decodedMsg.user, decodedMsg.amount) */\n      mload(0x40)\n      shl(0xe0, 0xa9059cbb)\n      dup2\n      mstore\n        /* \"src/scroll/ScrollStETHBridge.sol\":1954:2037  BridgeStETHMessage memory decodedMsg = abi.decode(encodedMsg, (BridgeStETHMessage)) */\n      swap3\n      swap4\n      pop\n        /* \"src/scroll/ScrollStETHBridge.sol\":2048:2060  bool success */\n      0x00\n      swap3\n      sub(shl(0xa0, 0x01), 0x01)\n        /* \"src/scroll/ScrollStETHBridge.sol\":2064:2069  stETH */\n      immutable(\"0xd8dd77ef205b843eebffa51565657f8add679a25fbf239f803ae74f42ece1b28\")\n        /* \"src/scroll/ScrollStETHBridge.sol\":2064:2078  stETH.transfer */\n      and\n      swap3\n      0xa9059cbb\n      swap3\n        /* \"src/scroll/ScrollStETHBridge.sol\":2064:2114  stETH.transfer(decodedMsg.user, decodedMsg.amount) */\n      tag_89\n      swap3\n      0x04\n      add\n      sub(shl(0xa0, 0x01), 0x01)\n        /* \"#utility.yul\":6155:6187   */\n      swap3\n      swap1\n      swap3\n      and\n        /* \"#utility.yul\":6137:6188   */\n      dup3\n      mstore\n        /* \"#utility.yul\":6219:6221   */\n      0x20\n        /* \"#utility.yul\":6204:6222   */\n      dup3\n      add\n        /* \"#utility.yul\":6197:6231   */\n      mstore\n        /* \"#utility.yul\":6125:6127   */\n      0x40\n        /* \"#utility.yul\":6110:6128   */\n      add\n      swap1\n        /* \"#utility.yul\":5963:6237   */\n      jump\n        /* \"src/scroll/ScrollStETHBridge.sol\":2064:2114  stETH.transfer(decodedMsg.user, decodedMsg.amount) */\n    tag_89:\n      0x20\n      mload(0x40)\n      dup1\n      dup4\n      sub\n      dup2\n      0x00\n      dup8\n      gas\n      call\n      iszero\n      dup1\n      iszero\n      tag_92\n      jumpi\n      returndatacopy(0x00, 0x00, returndatasize)\n      revert(0x00, returndatasize)\n    tag_92:\n      pop\n      pop\n      pop\n      pop\n      mload(0x40)\n      returndatasize\n      not(0x1f)\n      0x1f\n      dup3\n      add\n      and\n      dup3\n      add\n      dup1\n      0x40\n      mstore\n      pop\n      dup2\n      add\n      swap1\n      tag_93\n      swap2\n      swap1\n      tag_71\n      jump\t// in\n    tag_93:\n        /* \"src/scroll/ScrollStETHBridge.sol\":2047:2114  (bool success) = stETH.transfer(decodedMsg.user, decodedMsg.amount) */\n      swap1\n      pop\n        /* \"src/scroll/ScrollStETHBridge.sol\":2129:2136  success */\n      dup1\n        /* \"src/scroll/ScrollStETHBridge.sol\":2124:2188  if (!success) {... */\n      tag_94\n      jumpi\n        /* \"src/scroll/ScrollStETHBridge.sol\":2152:2177  revert(\"Transfer failed\") */\n      mload(0x40)\n      shl(0xe5, 0x461bcd)\n      dup2\n      mstore\n        /* \"#utility.yul\":6444:6446   */\n      0x20\n        /* \"src/scroll/ScrollStETHBridge.sol\":2152:2177  revert(\"Transfer failed\") */\n      0x04\n      dup3\n      add\n        /* \"#utility.yul\":6426:6447   */\n      mstore\n        /* \"#utility.yul\":6483:6485   */\n      0x0f\n        /* \"#utility.yul\":6463:6481   */\n      0x24\n      dup3\n      add\n        /* \"#utility.yul\":6456:6486   */\n      mstore\n      shl(0x8a, 0x151c985b9cd9995c8819985a5b1959)\n        /* \"#utility.yul\":6502:6520   */\n      0x44\n      dup3\n      add\n        /* \"#utility.yul\":6495:6540   */\n      mstore\n        /* \"#utility.yul\":6557:6575   */\n      0x64\n      add\n        /* \"src/scroll/ScrollStETHBridge.sol\":2152:2177  revert(\"Transfer failed\") */\n      tag_84\n        /* \"#utility.yul\":6242:6581   */\n      jump\n        /* \"src/scroll/ScrollStETHBridge.sol\":2124:2188  if (!success) {... */\n    tag_94:\n        /* \"src/scroll/ScrollStETHBridge.sol\":1944:2194  {... */\n      pop\n      pop\n        /* \"src/scroll/ScrollStETHBridge.sol\":1868:2194  function payOutRstETH(bytes memory encodedMsg) external onlyScrollMessenger {... */\n      pop\n      jump\t// out\n        /* \"#utility.yul\":14:162   */\n    tag_97:\n      sub(shl(0xa0, 0x01), 0x01)\n        /* \"#utility.yul\":106:137   */\n      dup2\n      and\n        /* \"#utility.yul\":96:138   */\n      dup2\n      eq\n        /* \"#utility.yul\":86:156   */\n      tag_62\n      jumpi\n        /* \"#utility.yul\":152:153   */\n      0x00\n        /* \"#utility.yul\":149:150   */\n      0x00\n        /* \"#utility.yul\":142:154   */\n      revert\n        /* \"#utility.yul\":167:455   */\n    tag_21:\n        /* \"#utility.yul\":250:256   */\n      0x00\n        /* \"#utility.yul\":303:305   */\n      0x20\n        /* \"#utility.yul\":291:300   */\n      dup3\n        /* \"#utility.yul\":282:289   */\n      dup5\n        /* \"#utility.yul\":278:301   */\n      sub\n        /* \"#utility.yul\":274:306   */\n      slt\n        /* \"#utility.yul\":271:323   */\n      iszero\n      tag_105\n      jumpi\n        /* \"#utility.yul\":319:320   */\n      0x00\n        /* \"#utility.yul\":316:317   */\n      0x00\n        /* \"#utility.yul\":309:321   */\n      revert\n        /* \"#utility.yul\":271:323   */\n    tag_105:\n        /* \"#utility.yul\":358:367   */\n      dup2\n        /* \"#utility.yul\":345:368   */\n      calldataload\n        /* \"#utility.yul\":377:425   */\n      tag_106\n        /* \"#utility.yul\":419:424   */\n      dup2\n        /* \"#utility.yul\":377:425   */\n      tag_97\n      jump\t// in\n    tag_106:\n        /* \"#utility.yul\":444:449   */\n      swap4\n        /* \"#utility.yul\":167:455   */\n      swap3\n      pop\n      pop\n      pop\n      jump\t// out\n        /* \"#utility.yul\":729:909   */\n    tag_30:\n        /* \"#utility.yul\":788:794   */\n      0x00\n        /* \"#utility.yul\":841:843   */\n      0x20\n        /* \"#utility.yul\":829:838   */\n      dup3\n        /* \"#utility.yul\":820:827   */\n      dup5\n        /* \"#utility.yul\":816:839   */\n      sub\n        /* \"#utility.yul\":812:844   */\n      slt\n        /* \"#utility.yul\":809:861   */\n      iszero\n      tag_111\n      jumpi\n        /* \"#utility.yul\":857:858   */\n      0x00\n        /* \"#utility.yul\":854:855   */\n      0x00\n        /* \"#utility.yul\":847:859   */\n      revert\n        /* \"#utility.yul\":809:861   */\n    tag_111:\n      pop\n        /* \"#utility.yul\":880:903   */\n      calldataload\n      swap2\n        /* \"#utility.yul\":729:909   */\n      swap1\n      pop\n      jump\t// out\n        /* \"#utility.yul\":1576:1703   */\n    tag_98:\n        /* \"#utility.yul\":1637:1647   */\n      0x4e487b71\n        /* \"#utility.yul\":1632:1635   */\n      0xe0\n        /* \"#utility.yul\":1628:1648   */\n      shl\n        /* \"#utility.yul\":1625:1626   */\n      0x00\n        /* \"#utility.yul\":1618:1649   */\n      mstore\n        /* \"#utility.yul\":1668:1672   */\n      0x41\n        /* \"#utility.yul\":1665:1666   */\n      0x04\n        /* \"#utility.yul\":1658:1673   */\n      mstore\n        /* \"#utility.yul\":1692:1696   */\n      0x24\n        /* \"#utility.yul\":1689:1690   */\n      0x00\n        /* \"#utility.yul\":1682:1697   */\n      revert\n        /* \"#utility.yul\":1708:1983   */\n    tag_99:\n        /* \"#utility.yul\":1779:1781   */\n      0x40\n        /* \"#utility.yul\":1773:1782   */\n      mload\n        /* \"#utility.yul\":1844:1846   */\n      0x1f\n        /* \"#utility.yul\":1825:1838   */\n      dup3\n      add\n      not(0x1f)\n        /* \"#utility.yul\":1821:1848   */\n      and\n        /* \"#utility.yul\":1809:1849   */\n      dup2\n      add\n        /* \"#utility.yul\":1879:1897   */\n      0xffffffffffffffff\n        /* \"#utility.yul\":1864:1898   */\n      dup2\n      gt\n        /* \"#utility.yul\":1900:1922   */\n      dup3\n      dup3\n      lt\n        /* \"#utility.yul\":1861:1923   */\n      or\n        /* \"#utility.yul\":1858:1946   */\n      iszero\n      tag_118\n      jumpi\n        /* \"#utility.yul\":1926:1944   */\n      tag_118\n      tag_98\n      jump\t// in\n    tag_118:\n        /* \"#utility.yul\":1962:1964   */\n      0x40\n        /* \"#utility.yul\":1955:1977   */\n      mstore\n        /* \"#utility.yul\":1708:1983   */\n      swap2\n      swap1\n      pop\n      jump\t// out\n        /* \"#utility.yul\":1988:2753   */\n    tag_54:\n        /* \"#utility.yul\":2056:2062   */\n      0x00\n        /* \"#utility.yul\":2109:2111   */\n      0x20\n        /* \"#utility.yul\":2097:2106   */\n      dup3\n        /* \"#utility.yul\":2088:2095   */\n      dup5\n        /* \"#utility.yul\":2084:2107   */\n      sub\n        /* \"#utility.yul\":2080:2112   */\n      slt\n        /* \"#utility.yul\":2077:2129   */\n      iszero\n      tag_120\n      jumpi\n        /* \"#utility.yul\":2125:2126   */\n      0x00\n        /* \"#utility.yul\":2122:2123   */\n      0x00\n        /* \"#utility.yul\":2115:2127   */\n      revert\n        /* \"#utility.yul\":2077:2129   */\n    tag_120:\n        /* \"#utility.yul\":2165:2174   */\n      dup2\n        /* \"#utility.yul\":2152:2175   */\n      calldataload\n        /* \"#utility.yul\":2198:2216   */\n      0xffffffffffffffff\n        /* \"#utility.yul\":2190:2196   */\n      dup2\n        /* \"#utility.yul\":2187:2217   */\n      gt\n        /* \"#utility.yul\":2184:2234   */\n      iszero\n      tag_121\n      jumpi\n        /* \"#utility.yul\":2230:2231   */\n      0x00\n        /* \"#utility.yul\":2227:2228   */\n      0x00\n        /* \"#utility.yul\":2220:2232   */\n      revert\n        /* \"#utility.yul\":2184:2234   */\n    tag_121:\n        /* \"#utility.yul\":2253:2275   */\n      dup3\n      add\n        /* \"#utility.yul\":2306:2310   */\n      0x1f\n        /* \"#utility.yul\":2298:2311   */\n      dup2\n      add\n        /* \"#utility.yul\":2294:2321   */\n      dup5\n      sgt\n        /* \"#utility.yul\":2284:2339   */\n      tag_122\n      jumpi\n        /* \"#utility.yul\":2335:2336   */\n      0x00\n        /* \"#utility.yul\":2332:2333   */\n      0x00\n        /* \"#utility.yul\":2325:2337   */\n      revert\n        /* \"#utility.yul\":2284:2339   */\n    tag_122:\n        /* \"#utility.yul\":2375:2377   */\n      dup1\n        /* \"#utility.yul\":2362:2378   */\n      calldataload\n        /* \"#utility.yul\":2401:2419   */\n      0xffffffffffffffff\n        /* \"#utility.yul\":2393:2399   */\n      dup2\n        /* \"#utility.yul\":2390:2420   */\n      gt\n        /* \"#utility.yul\":2387:2443   */\n      iszero\n      tag_124\n      jumpi\n        /* \"#utility.yul\":2423:2441   */\n      tag_124\n      tag_98\n      jump\t// in\n    tag_124:\n        /* \"#utility.yul\":2465:2522   */\n      tag_125\n        /* \"#utility.yul\":2512:2514   */\n      0x1f\n        /* \"#utility.yul\":2489:2506   */\n      dup3\n      add\n      not(0x1f)\n        /* \"#utility.yul\":2485:2516   */\n      and\n        /* \"#utility.yul\":2518:2520   */\n      0x20\n        /* \"#utility.yul\":2481:2521   */\n      add\n        /* \"#utility.yul\":2465:2522   */\n      tag_99\n      jump\t// in\n    tag_125:\n        /* \"#utility.yul\":2545:2551   */\n      dup2\n        /* \"#utility.yul\":2538:2543   */\n      dup2\n        /* \"#utility.yul\":2531:2552   */\n      mstore\n        /* \"#utility.yul\":2593:2600   */\n      dup6\n        /* \"#utility.yul\":2588:2590   */\n      0x20\n        /* \"#utility.yul\":2579:2585   */\n      dup4\n        /* \"#utility.yul\":2575:2577   */\n      dup6\n        /* \"#utility.yul\":2571:2586   */\n      add\n        /* \"#utility.yul\":2567:2591   */\n      add\n        /* \"#utility.yul\":2564:2601   */\n      gt\n        /* \"#utility.yul\":2561:2618   */\n      iszero\n      tag_126\n      jumpi\n        /* \"#utility.yul\":2614:2615   */\n      0x00\n        /* \"#utility.yul\":2611:2612   */\n      0x00\n        /* \"#utility.yul\":2604:2616   */\n      revert\n        /* \"#utility.yul\":2561:2618   */\n    tag_126:\n        /* \"#utility.yul\":2669:2675   */\n      dup2\n        /* \"#utility.yul\":2664:2666   */\n      0x20\n        /* \"#utility.yul\":2660:2662   */\n      dup5\n        /* \"#utility.yul\":2656:2667   */\n      add\n        /* \"#utility.yul\":2651:2653   */\n      0x20\n        /* \"#utility.yul\":2644:2649   */\n      dup4\n        /* \"#utility.yul\":2640:2654   */\n      add\n        /* \"#utility.yul\":2627:2676   */\n      calldatacopy\n        /* \"#utility.yul\":2721:2722   */\n      0x00\n        /* \"#utility.yul\":2696:2714   */\n      swap2\n      dup2\n      add\n        /* \"#utility.yul\":2716:2718   */\n      0x20\n        /* \"#utility.yul\":2692:2719   */\n      add\n        /* \"#utility.yul\":2685:2723   */\n      swap2\n      swap1\n      swap2\n      mstore\n        /* \"#utility.yul\":2700:2705   */\n      swap5\n        /* \"#utility.yul\":1988:2753   */\n      swap4\n      pop\n      pop\n      pop\n      pop\n      jump\t// out\n        /* \"#utility.yul\":3344:3621   */\n    tag_71:\n        /* \"#utility.yul\":3411:3417   */\n      0x00\n        /* \"#utility.yul\":3464:3466   */\n      0x20\n        /* \"#utility.yul\":3452:3461   */\n      dup3\n        /* \"#utility.yul\":3443:3450   */\n      dup5\n        /* \"#utility.yul\":3439:3462   */\n      sub\n        /* \"#utility.yul\":3435:3467   */\n      slt\n        /* \"#utility.yul\":3432:3484   */\n      iszero\n      tag_130\n      jumpi\n        /* \"#utility.yul\":3480:3481   */\n      0x00\n        /* \"#utility.yul\":3477:3478   */\n      0x00\n        /* \"#utility.yul\":3470:3482   */\n      revert\n        /* \"#utility.yul\":3432:3484   */\n    tag_130:\n        /* \"#utility.yul\":3512:3521   */\n      dup2\n        /* \"#utility.yul\":3506:3522   */\n      mload\n        /* \"#utility.yul\":3565:3570   */\n      dup1\n        /* \"#utility.yul\":3558:3571   */\n      iszero\n        /* \"#utility.yul\":3551:3572   */\n      iszero\n        /* \"#utility.yul\":3544:3549   */\n      dup2\n        /* \"#utility.yul\":3541:3573   */\n      eq\n        /* \"#utility.yul\":3531:3591   */\n      tag_106\n      jumpi\n        /* \"#utility.yul\":3587:3588   */\n      0x00\n        /* \"#utility.yul\":3584:3585   */\n      0x00\n        /* \"#utility.yul\":3577:3589   */\n      revert\n        /* \"#utility.yul\":3976:4264   */\n    tag_100:\n        /* \"#utility.yul\":4017:4020   */\n      0x00\n        /* \"#utility.yul\":4055:4060   */\n      dup2\n        /* \"#utility.yul\":4049:4061   */\n      mload\n        /* \"#utility.yul\":4082:4088   */\n      dup1\n        /* \"#utility.yul\":4077:4080   */\n      dup5\n        /* \"#utility.yul\":4070:4089   */\n      mstore\n        /* \"#utility.yul\":4138:4144   */\n      dup1\n        /* \"#utility.yul\":4131:4135   */\n      0x20\n        /* \"#utility.yul\":4124:4129   */\n      dup5\n        /* \"#utility.yul\":4120:4136   */\n      add\n        /* \"#utility.yul\":4113:4117   */\n      0x20\n        /* \"#utility.yul\":4108:4111   */\n      dup7\n        /* \"#utility.yul\":4104:4118   */\n      add\n        /* \"#utility.yul\":4098:4145   */\n      mcopy\n        /* \"#utility.yul\":4190:4191   */\n      0x00\n        /* \"#utility.yul\":4183:4187   */\n      0x20\n        /* \"#utility.yul\":4174:4180   */\n      dup3\n        /* \"#utility.yul\":4169:4172   */\n      dup7\n        /* \"#utility.yul\":4165:4181   */\n      add\n        /* \"#utility.yul\":4161:4188   */\n      add\n        /* \"#utility.yul\":4154:4192   */\n      mstore\n        /* \"#utility.yul\":4253:4257   */\n      0x20\n        /* \"#utility.yul\":4246:4248   */\n      0x1f\n        /* \"#utility.yul\":4242:4249   */\n      not\n        /* \"#utility.yul\":4237:4239   */\n      0x1f\n        /* \"#utility.yul\":4229:4235   */\n      dup4\n        /* \"#utility.yul\":4225:4240   */\n      add\n        /* \"#utility.yul\":4221:4250   */\n      and\n        /* \"#utility.yul\":4216:4219   */\n      dup6\n        /* \"#utility.yul\":4212:4251   */\n      add\n        /* \"#utility.yul\":4208:4258   */\n      add\n        /* \"#utility.yul\":4201:4258   */\n      swap2\n      pop\n      pop\n        /* \"#utility.yul\":3976:4264   */\n      swap3\n      swap2\n      pop\n      pop\n      jump\t// out\n        /* \"#utility.yul\":4269:4486   */\n    tag_75:\n        /* \"#utility.yul\":4416:4418   */\n      0x20\n        /* \"#utility.yul\":4405:4414   */\n      dup2\n        /* \"#utility.yul\":4398:4419   */\n      mstore\n        /* \"#utility.yul\":4379:4383   */\n      0x00\n        /* \"#utility.yul\":4436:4480   */\n      tag_106\n        /* \"#utility.yul\":4476:4478   */\n      0x20\n        /* \"#utility.yul\":4465:4474   */\n      dup4\n        /* \"#utility.yul\":4461:4479   */\n      add\n        /* \"#utility.yul\":4453:4459   */\n      dup5\n        /* \"#utility.yul\":4436:4480   */\n      tag_100\n      jump\t// in\n        /* \"#utility.yul\":4491:4957   */\n    tag_77:\n        /* \"#utility.yul\":4759:4760   */\n      0x01\n        /* \"#utility.yul\":4755:4756   */\n      dup1\n        /* \"#utility.yul\":4750:4753   */\n      0xa0\n        /* \"#utility.yul\":4746:4757   */\n      shl\n        /* \"#utility.yul\":4742:4761   */\n      sub\n        /* \"#utility.yul\":4734:4740   */\n      dup6\n        /* \"#utility.yul\":4730:4762   */\n      and\n        /* \"#utility.yul\":4719:4728   */\n      dup2\n        /* \"#utility.yul\":4712:4763   */\n      mstore\n        /* \"#utility.yul\":4799:4805   */\n      dup4\n        /* \"#utility.yul\":4794:4796   */\n      0x20\n        /* \"#utility.yul\":4783:4792   */\n      dup3\n        /* \"#utility.yul\":4779:4797   */\n      add\n        /* \"#utility.yul\":4772:4806   */\n      mstore\n        /* \"#utility.yul\":4842:4845   */\n      0x80\n        /* \"#utility.yul\":4837:4839   */\n      0x40\n        /* \"#utility.yul\":4826:4835   */\n      dup3\n        /* \"#utility.yul\":4822:4840   */\n      add\n        /* \"#utility.yul\":4815:4846   */\n      mstore\n        /* \"#utility.yul\":4693:4697   */\n      0x00\n        /* \"#utility.yul\":4863:4908   */\n      tag_137\n        /* \"#utility.yul\":4903:4906   */\n      0x80\n        /* \"#utility.yul\":4892:4901   */\n      dup4\n        /* \"#utility.yul\":4888:4907   */\n      add\n        /* \"#utility.yul\":4880:4886   */\n      dup6\n        /* \"#utility.yul\":4863:4908   */\n      tag_100\n      jump\t// in\n    tag_137:\n        /* \"#utility.yul\":4855:4908   */\n      swap1\n      pop\n        /* \"#utility.yul\":4944:4950   */\n      dup3\n        /* \"#utility.yul\":4939:4941   */\n      0x60\n        /* \"#utility.yul\":4928:4937   */\n      dup4\n        /* \"#utility.yul\":4924:4942   */\n      add\n        /* \"#utility.yul\":4917:4951   */\n      mstore\n        /* \"#utility.yul\":4491:4957   */\n      swap6\n      swap5\n      pop\n      pop\n      pop\n      pop\n      pop\n      jump\t// out\n        /* \"#utility.yul\":5305:5958   */\n    tag_88:\n        /* \"#utility.yul\":5411:5417   */\n      0x00\n        /* \"#utility.yul\":5471:5473   */\n      0x40\n        /* \"#utility.yul\":5459:5468   */\n      dup3\n        /* \"#utility.yul\":5450:5457   */\n      dup5\n        /* \"#utility.yul\":5446:5469   */\n      sub\n        /* \"#utility.yul\":5442:5474   */\n      slt\n        /* \"#utility.yul\":5486:5488   */\n      dup1\n        /* \"#utility.yul\":5483:5505   */\n      iszero\n      tag_140\n      jumpi\n        /* \"#utility.yul\":5501:5502   */\n      0x00\n        /* \"#utility.yul\":5498:5499   */\n      0x00\n        /* \"#utility.yul\":5491:5503   */\n      revert\n        /* \"#utility.yul\":5483:5505   */\n    tag_140:\n      pop\n        /* \"#utility.yul\":5570:5572   */\n      0x40\n        /* \"#utility.yul\":5564:5573   */\n      dup1\n      mload\n      swap1\n        /* \"#utility.yul\":5600:5615   */\n      dup2\n      add\n        /* \"#utility.yul\":5645:5663   */\n      0xffffffffffffffff\n        /* \"#utility.yul\":5630:5664   */\n      dup2\n      gt\n        /* \"#utility.yul\":5666:5688   */\n      dup3\n      dup3\n      lt\n        /* \"#utility.yul\":5627:5689   */\n      or\n        /* \"#utility.yul\":5624:5712   */\n      iszero\n      tag_142\n      jumpi\n        /* \"#utility.yul\":5692:5710   */\n      tag_142\n      tag_98\n      jump\t// in\n    tag_142:\n        /* \"#utility.yul\":5728:5730   */\n      0x40\n        /* \"#utility.yul\":5721:5743   */\n      mstore\n        /* \"#utility.yul\":5765:5781   */\n      dup3\n      mload\n        /* \"#utility.yul\":5790:5838   */\n      tag_143\n        /* \"#utility.yul\":5765:5781   */\n      dup2\n        /* \"#utility.yul\":5790:5838   */\n      tag_97\n      jump\t// in\n    tag_143:\n        /* \"#utility.yul\":5847:5868   */\n      dup2\n      mstore\n        /* \"#utility.yul\":5922:5924   */\n      0x20\n        /* \"#utility.yul\":5907:5925   */\n      swap3\n      dup4\n      add\n        /* \"#utility.yul\":5901:5926   */\n      mload\n        /* \"#utility.yul\":5884:5899   */\n      swap3\n      dup2\n      add\n        /* \"#utility.yul\":5877:5927   */\n      swap3\n      swap1\n      swap3\n      mstore\n      pop\n        /* \"#utility.yul\":5854:5860   */\n      swap2\n        /* \"#utility.yul\":5305:5958   */\n      swap1\n      pop\n      jump\t// out\n\n    auxdata: 0xa2646970667358221220bd7edb93d33b845689b2cda3ddb179835642ff220fcf49baa05b01337fb6c73b64736f6c634300081c0033\n}\n",
				"bytecode": {
					"linkReferences": {},
					"object": "60a0604052620f4240600255348015610016575f5ffd5b5060405161083c38038061083c83398101604081905261003591610070565b5f80546001600160a01b0319166001600160a01b03938416179055166080526100a8565b6001600160a01b038116811461006d575f5ffd5b50565b5f5f60408385031215610081575f5ffd5b825161008c81610059565b602084015190925061009d81610059565b809150509250929050565b60805161076e6100ce5f395f818161017e015281816102720152610457015261076e5ff3fe608060405260043610610087575f3560e01c8063bf7b7f7211610057578063bf7b7f7214610132578063c1fe3e481461016d578063d2087ad9146101a0578063ee7d72b4146101be578063ff40a25b146101dd575f5ffd5b80633ccfd60b1461009257806348727dc4146100a85780637405c64c146100e357806388b8ba491461011f575f5ffd5b3661008e57005b5f5ffd5b34801561009d575f5ffd5b506100a66101fc565b005b3480156100b3575f5ffd5b506100a66100c2366004610538565b5f80546001600160a01b0319166001600160a01b0392909216919091179055565b3480156100ee575f5ffd5b506100a66100fd366004610538565b600180546001600160a01b0319166001600160a01b0392909216919091179055565b6100a661012d36600461055a565b610250565b34801561013d575f5ffd5b50600154610151906001600160a01b031681565b6040516001600160a01b03909116815260200160405180910390f35b348015610178575f5ffd5b506101517f000000000000000000000000000000000000000000000000000000000000000081565b3480156101ab575f5ffd5b505f54610151906001600160a01b031681565b3480156101c9575f5ffd5b506100a66101d836600461055a565b600255565b3480156101e8575f5ffd5b506100a66101f73660046105b6565b6103d0565b6040515f90339047908381818185875af1925050503d805f811461023b576040519150601f19603f3d011682016040523d82523d5f602084013e610240565b606091505b505090508061024d575f5ffd5b50565b6040516323b872dd60e01b8152336004820152306024820152604481018290527f00000000000000000000000000000000000000000000000000000000000000006001600160a01b0316906323b872dd906064016020604051808303815f875af11580156102c0573d5f5f3e3d5ffd5b505050506040513d601f19601f820116820180604052508101906102e4919061064a565b50604080518082018252338082526020808301858152845191820192909252905181840152825180820384018152606082019093525f80546001549394936001600160a01b039182169363b2267a7b9334939092169190632106c6dd60e21b90610352908890608401610697565b60408051601f198184030181529181526020820180516001600160e01b03166001600160e01b0319948516179052600254905160e088901b909316835261039d9493926004016106a9565b5f604051808303818588803b1580156103b4575f5ffd5b505af11580156103c6573d5f5f3e3d5ffd5b5050505050505050565b5f546001600160a01b0316331461041f5760405162461bcd60e51b815260206004820152600e60248201526d24b73b30b634b21039b2b73232b960911b60448201526064015b60405180910390fd5b5f8180602001905181019061043491906106e0565b8051602082015160405163a9059cbb60e01b81529293505f926001600160a01b037f0000000000000000000000000000000000000000000000000000000000000000169263a9059cbb9261049e926004016001600160a01b03929092168252602082015260400190565b6020604051808303815f875af11580156104ba573d5f5f3e3d5ffd5b505050506040513d601f19601f820116820180604052508101906104de919061064a565b90508061051f5760405162461bcd60e51b815260206004820152600f60248201526e151c985b9cd9995c8819985a5b1959608a1b6044820152606401610416565b505050565b6001600160a01b038116811461024d575f5ffd5b5f60208284031215610548575f5ffd5b813561055381610524565b9392505050565b5f6020828403121561056a575f5ffd5b5035919050565b634e487b7160e01b5f52604160045260245ffd5b604051601f8201601f1916810167ffffffffffffffff811182821017156105ae576105ae610571565b604052919050565b5f602082840312156105c6575f5ffd5b813567ffffffffffffffff8111156105dc575f5ffd5b8201601f810184136105ec575f5ffd5b803567ffffffffffffffff81111561060657610606610571565b610619601f8201601f1916602001610585565b81815285602083850101111561062d575f5ffd5b816020840160208301375f91810160200191909152949350505050565b5f6020828403121561065a575f5ffd5b81518015158114610553575f5ffd5b5f81518084528060208401602086015e5f602082860101526020601f19601f83011685010191505092915050565b602081525f6105536020830184610669565b60018060a01b0385168152836020820152608060408201525f6106cf6080830185610669565b905082606083015295945050505050565b5f60408284031280156106f1575f5ffd5b506040805190810167ffffffffffffffff8111828210171561071557610715610571565b604052825161072381610524565b8152602092830151928101929092525091905056fea2646970667358221220bd7edb93d33b845689b2cda3ddb179835642ff220fcf49baa05b01337fb6c73b64736f6c634300081c0033",
					"opcodes": "PUSH1 0xA0 PUSH1 0x40 MSTORE PUSH3 0xF4240 PUSH1 0x2 SSTORE CALLVALUE DUP1 ISZERO PUSH2 0x16 JUMPI PUSH0 PUSH0 REVERT JUMPDEST POP PUSH1 0x40 MLOAD PUSH2 0x83C CODESIZE SUB DUP1 PUSH2 0x83C DUP4 CODECOPY DUP2 ADD PUSH1 0x40 DUP2 SWAP1 MSTORE PUSH2 0x35 SWAP2 PUSH2 0x70 JUMP JUMPDEST PUSH0 DUP1 SLOAD PUSH1 0x1 PUSH1 0x1 PUSH1 0xA0 SHL SUB NOT AND PUSH1 0x1 PUSH1 0x1 PUSH1 0xA0 SHL SUB SWAP4 DUP5 AND OR SWAP1 SSTORE AND PUSH1 0x80 MSTORE PUSH2 0xA8 JUMP JUMPDEST PUSH1 0x1 PUSH1 0x1 PUSH1 0xA0 SHL SUB DUP2 AND DUP2 EQ PUSH2 0x6D JUMPI PUSH0 PUSH0 REVERT JUMPDEST POP JUMP JUMPDEST PUSH0 PUSH0 PUSH1 0x40 DUP4 DUP6 SUB SLT ISZERO PUSH2 0x81 JUMPI PUSH0 PUSH0 REVERT JUMPDEST DUP3 MLOAD PUSH2 0x8C DUP2 PUSH2 0x59 JUMP JUMPDEST PUSH1 0x20 DUP5 ADD MLOAD SWAP1 SWAP3 POP PUSH2 0x9D DUP2 PUSH2 0x59 JUMP JUMPDEST DUP1 SWAP2 POP POP SWAP3 POP SWAP3 SWAP1 POP JUMP JUMPDEST PUSH1 0x80 MLOAD PUSH2 0x76E PUSH2 0xCE PUSH0 CODECOPY PUSH0 DUP2 DUP2 PUSH2 0x17E ADD MSTORE DUP2 DUP2 PUSH2 0x272 ADD MSTORE PUSH2 0x457 ADD MSTORE PUSH2 0x76E PUSH0 RETURN INVALID PUSH1 0x80 PUSH1 0x40 MSTORE PUSH1 0x4 CALLDATASIZE LT PUSH2 0x87 JUMPI PUSH0 CALLDATALOAD PUSH1 0xE0 SHR DUP1 PUSH4 0xBF7B7F72 GT PUSH2 0x57 JUMPI DUP1 PUSH4 0xBF7B7F72 EQ PUSH2 0x132 JUMPI DUP1 PUSH4 0xC1FE3E48 EQ PUSH2 0x16D JUMPI DUP1 PUSH4 0xD2087AD9 EQ PUSH2 0x1A0 JUMPI DUP1 PUSH4 0xEE7D72B4 EQ PUSH2 0x1BE JUMPI DUP1 PUSH4 0xFF40A25B EQ PUSH2 0x1DD JUMPI PUSH0 PUSH0 REVERT JUMPDEST DUP1 PUSH4 0x3CCFD60B EQ PUSH2 0x92 JUMPI DUP1 PUSH4 0x48727DC4 EQ PUSH2 0xA8 JUMPI DUP1 PUSH4 0x7405C64C EQ PUSH2 0xE3 JUMPI DUP1 PUSH4 0x88B8BA49 EQ PUSH2 0x11F JUMPI PUSH0 PUSH0 REVERT JUMPDEST CALLDATASIZE PUSH2 0x8E JUMPI STOP JUMPDEST PUSH0 PUSH0 REVERT JUMPDEST CALLVALUE DUP1 ISZERO PUSH2 0x9D JUMPI PUSH0 PUSH0 REVERT JUMPDEST POP PUSH2 0xA6 PUSH2 0x1FC JUMP JUMPDEST STOP JUMPDEST CALLVALUE DUP1 ISZERO PUSH2 0xB3 JUMPI PUSH0 PUSH0 REVERT JUMPDEST POP PUSH2 0xA6 PUSH2 0xC2 CALLDATASIZE PUSH1 0x4 PUSH2 0x538 JUMP JUMPDEST PUSH0 DUP1 SLOAD PUSH1 0x1 PUSH1 0x1 PUSH1 0xA0 SHL SUB NOT AND PUSH1 0x1 PUSH1 0x1 PUSH1 0xA0 SHL SUB SWAP3 SWAP1 SWAP3 AND SWAP2 SWAP1 SWAP2 OR SWAP1 SSTORE JUMP JUMPDEST CALLVALUE DUP1 ISZERO PUSH2 0xEE JUMPI PUSH0 PUSH0 REVERT JUMPDEST POP PUSH2 0xA6 PUSH2 0xFD CALLDATASIZE PUSH1 0x4 PUSH2 0x538 JUMP JUMPDEST PUSH1 0x1 DUP1 SLOAD PUSH1 0x1 PUSH1 0x1 PUSH1 0xA0 SHL SUB NOT AND PUSH1 0x1 PUSH1 0x1 PUSH1 0xA0 SHL SUB SWAP3 SWAP1 SWAP3 AND SWAP2 SWAP1 SWAP2 OR SWAP1 SSTORE JUMP JUMPDEST PUSH2 0xA6 PUSH2 0x12D CALLDATASIZE PUSH1 0x4 PUSH2 0x55A JUMP JUMPDEST PUSH2 0x250 JUMP JUMPDEST CALLVALUE DUP1 ISZERO PUSH2 0x13D JUMPI PUSH0 PUSH0 REVERT JUMPDEST POP PUSH1 0x1 SLOAD PUSH2 0x151 SWAP1 PUSH1 0x1 PUSH1 0x1 PUSH1 0xA0 SHL SUB AND DUP2 JUMP JUMPDEST PUSH1 0x40 MLOAD PUSH1 0x1 PUSH1 0x1 PUSH1 0xA0 SHL SUB SWAP1 SWAP2 AND DUP2 MSTORE PUSH1 0x20 ADD PUSH1 0x40 MLOAD DUP1 SWAP2 SUB SWAP1 RETURN JUMPDEST CALLVALUE DUP1 ISZERO PUSH2 0x178 JUMPI PUSH0 PUSH0 REVERT JUMPDEST POP PUSH2 0x151 PUSH32 0x0 DUP2 JUMP JUMPDEST CALLVALUE DUP1 ISZERO PUSH2 0x1AB JUMPI PUSH0 PUSH0 REVERT JUMPDEST POP PUSH0 SLOAD PUSH2 0x151 SWAP1 PUSH1 0x1 PUSH1 0x1 PUSH1 0xA0 SHL SUB AND DUP2 JUMP JUMPDEST CALLVALUE DUP1 ISZERO PUSH2 0x1C9 JUMPI PUSH0 PUSH0 REVERT JUMPDEST POP PUSH2 0xA6 PUSH2 0x1D8 CALLDATASIZE PUSH1 0x4 PUSH2 0x55A JUMP JUMPDEST PUSH1 0x2 SSTORE JUMP JUMPDEST CALLVALUE DUP1 ISZERO PUSH2 0x1E8 JUMPI PUSH0 PUSH0 REVERT JUMPDEST POP PUSH2 0xA6 PUSH2 0x1F7 CALLDATASIZE PUSH1 0x4 PUSH2 0x5B6 JUMP JUMPDEST PUSH2 0x3D0 JUMP JUMPDEST PUSH1 0x40 MLOAD PUSH0 SWAP1 CALLER SWAP1 SELFBALANCE SWAP1 DUP4 DUP2 DUP2 DUP2 DUP6 DUP8 GAS CALL SWAP3 POP POP POP RETURNDATASIZE DUP1 PUSH0 DUP2 EQ PUSH2 0x23B JUMPI PUSH1 0x40 MLOAD SWAP2 POP PUSH1 0x1F NOT PUSH1 0x3F RETURNDATASIZE ADD AND DUP3 ADD PUSH1 0x40 MSTORE RETURNDATASIZE DUP3 MSTORE RETURNDATASIZE PUSH0 PUSH1 0x20 DUP5 ADD RETURNDATACOPY PUSH2 0x240 JUMP JUMPDEST PUSH1 0x60 SWAP2 POP JUMPDEST POP POP SWAP1 POP DUP1 PUSH2 0x24D JUMPI PUSH0 PUSH0 REVERT JUMPDEST POP JUMP JUMPDEST PUSH1 0x40 MLOAD PUSH4 0x23B872DD PUSH1 0xE0 SHL DUP2 MSTORE CALLER PUSH1 0x4 DUP3 ADD MSTORE ADDRESS PUSH1 0x24 DUP3 ADD MSTORE PUSH1 0x44 DUP2 ADD DUP3 SWAP1 MSTORE PUSH32 0x0 PUSH1 0x1 PUSH1 0x1 PUSH1 0xA0 SHL SUB AND SWAP1 PUSH4 0x23B872DD SWAP1 PUSH1 0x64 ADD PUSH1 0x20 PUSH1 0x40 MLOAD DUP1 DUP4 SUB DUP2 PUSH0 DUP8 GAS CALL ISZERO DUP1 ISZERO PUSH2 0x2C0 JUMPI RETURNDATASIZE PUSH0 PUSH0 RETURNDATACOPY RETURNDATASIZE PUSH0 REVERT JUMPDEST POP POP POP POP PUSH1 0x40 MLOAD RETURNDATASIZE PUSH1 0x1F NOT PUSH1 0x1F DUP3 ADD AND DUP3 ADD DUP1 PUSH1 0x40 MSTORE POP DUP2 ADD SWAP1 PUSH2 0x2E4 SWAP2 SWAP1 PUSH2 0x64A JUMP JUMPDEST POP PUSH1 0x40 DUP1 MLOAD DUP1 DUP3 ADD DUP3 MSTORE CALLER DUP1 DUP3 MSTORE PUSH1 0x20 DUP1 DUP4 ADD DUP6 DUP2 MSTORE DUP5 MLOAD SWAP2 DUP3 ADD SWAP3 SWAP1 SWAP3 MSTORE SWAP1 MLOAD DUP2 DUP5 ADD MSTORE DUP3 MLOAD DUP1 DUP3 SUB DUP5 ADD DUP2 MSTORE PUSH1 0x60 DUP3 ADD SWAP1 SWAP4 MSTORE PUSH0 DUP1 SLOAD PUSH1 0x1 SLOAD SWAP4 SWAP5 SWAP4 PUSH1 0x1 PUSH1 0x1 PUSH1 0xA0 SHL SUB SWAP2 DUP3 AND SWAP4 PUSH4 0xB2267A7B SWAP4 CALLVALUE SWAP4 SWAP1 SWAP3 AND SWAP2 SWAP1 PUSH4 0x2106C6DD PUSH1 0xE2 SHL SWAP1 PUSH2 0x352 SWAP1 DUP9 SWAP1 PUSH1 0x84 ADD PUSH2 0x697 JUMP JUMPDEST PUSH1 0x40 DUP1 MLOAD PUSH1 0x1F NOT DUP2 DUP5 SUB ADD DUP2 MSTORE SWAP2 DUP2 MSTORE PUSH1 0x20 DUP3 ADD DUP1 MLOAD PUSH1 0x1 PUSH1 0x1 PUSH1 0xE0 SHL SUB AND PUSH1 0x1 PUSH1 0x1 PUSH1 0xE0 SHL SUB NOT SWAP5 DUP6 AND OR SWAP1 MSTORE PUSH1 0x2 SLOAD SWAP1 MLOAD PUSH1 0xE0 DUP9 SWAP1 SHL SWAP1 SWAP4 AND DUP4 MSTORE PUSH2 0x39D SWAP5 SWAP4 SWAP3 PUSH1 0x4 ADD PUSH2 0x6A9 JUMP JUMPDEST PUSH0 PUSH1 0x40 MLOAD DUP1 DUP4 SUB DUP2 DUP6 DUP9 DUP1 EXTCODESIZE ISZERO DUP1 ISZERO PUSH2 0x3B4 JUMPI PUSH0 PUSH0 REVERT JUMPDEST POP GAS CALL ISZERO DUP1 ISZERO PUSH2 0x3C6 JUMPI RETURNDATASIZE PUSH0 PUSH0 RETURNDATACOPY RETURNDATASIZE PUSH0 REVERT JUMPDEST POP POP POP POP POP POP POP POP JUMP JUMPDEST PUSH0 SLOAD PUSH1 0x1 PUSH1 0x1 PUSH1 0xA0 SHL SUB AND CALLER EQ PUSH2 0x41F JUMPI PUSH1 0x40 MLOAD PUSH3 0x461BCD PUSH1 0xE5 SHL DUP2 MSTORE PUSH1 0x20 PUSH1 0x4 DUP3 ADD MSTORE PUSH1 0xE PUSH1 0x24 DUP3 ADD MSTORE PUSH14 0x24B73B30B634B21039B2B73232B9 PUSH1 0x91 SHL PUSH1 0x44 DUP3 ADD MSTORE PUSH1 0x64 ADD JUMPDEST PUSH1 0x40 MLOAD DUP1 SWAP2 SUB SWAP1 REVERT JUMPDEST PUSH0 DUP2 DUP1 PUSH1 0x20 ADD SWAP1 MLOAD DUP2 ADD SWAP1 PUSH2 0x434 SWAP2 SWAP1 PUSH2 0x6E0 JUMP JUMPDEST DUP1 MLOAD PUSH1 0x20 DUP3 ADD MLOAD PUSH1 0x40 MLOAD PUSH4 0xA9059CBB PUSH1 0xE0 SHL DUP2 MSTORE SWAP3 SWAP4 POP PUSH0 SWAP3 PUSH1 0x1 PUSH1 0x1 PUSH1 0xA0 SHL SUB PUSH32 0x0 AND SWAP3 PUSH4 0xA9059CBB SWAP3 PUSH2 0x49E SWAP3 PUSH1 0x4 ADD PUSH1 0x1 PUSH1 0x1 PUSH1 0xA0 SHL SUB SWAP3 SWAP1 SWAP3 AND DUP3 MSTORE PUSH1 0x20 DUP3 ADD MSTORE PUSH1 0x40 ADD SWAP1 JUMP JUMPDEST PUSH1 0x20 PUSH1 0x40 MLOAD DUP1 DUP4 SUB DUP2 PUSH0 DUP8 GAS CALL ISZERO DUP1 ISZERO PUSH2 0x4BA JUMPI RETURNDATASIZE PUSH0 PUSH0 RETURNDATACOPY RETURNDATASIZE PUSH0 REVERT JUMPDEST POP POP POP POP PUSH1 0x40 MLOAD RETURNDATASIZE PUSH1 0x1F NOT PUSH1 0x1F DUP3 ADD AND DUP3 ADD DUP1 PUSH1 0x40 MSTORE POP DUP2 ADD SWAP1 PUSH2 0x4DE SWAP2 SWAP1 PUSH2 0x64A JUMP JUMPDEST SWAP1 POP DUP1 PUSH2 0x51F JUMPI PUSH1 0x40 MLOAD PUSH3 0x461BCD PUSH1 0xE5 SHL DUP2 MSTORE PUSH1 0x20 PUSH1 0x4 DUP3 ADD MSTORE PUSH1 0xF PUSH1 0x24 DUP3 ADD MSTORE PUSH15 0x151C985B9CD9995C8819985A5B1959 PUSH1 0x8A SHL PUSH1 0x44 DUP3 ADD MSTORE PUSH1 0x64 ADD PUSH2 0x416 JUMP JUMPDEST POP POP POP JUMP JUMPDEST PUSH1 0x1 PUSH1 0x1 PUSH1 0xA0 SHL SUB DUP2 AND DUP2 EQ PUSH2 0x24D JUMPI PUSH0 PUSH0 REVERT JUMPDEST PUSH0 PUSH1 0x20 DUP3 DUP5 SUB SLT ISZERO PUSH2 0x548 JUMPI PUSH0 PUSH0 REVERT JUMPDEST DUP2 CALLDATALOAD PUSH2 0x553 DUP2 PUSH2 0x524 JUMP JUMPDEST SWAP4 SWAP3 POP POP POP JUMP JUMPDEST PUSH0 PUSH1 0x20 DUP3 DUP5 SUB SLT ISZERO PUSH2 0x56A JUMPI PUSH0 PUSH0 REVERT JUMPDEST POP CALLDATALOAD SWAP2 SWAP1 POP JUMP JUMPDEST PUSH4 0x4E487B71 PUSH1 0xE0 SHL PUSH0 MSTORE PUSH1 0x41 PUSH1 0x4 MSTORE PUSH1 0x24 PUSH0 REVERT JUMPDEST PUSH1 0x40 MLOAD PUSH1 0x1F DUP3 ADD PUSH1 0x1F NOT AND DUP2 ADD PUSH8 0xFFFFFFFFFFFFFFFF DUP2 GT DUP3 DUP3 LT OR ISZERO PUSH2 0x5AE JUMPI PUSH2 0x5AE PUSH2 0x571 JUMP JUMPDEST PUSH1 0x40 MSTORE SWAP2 SWAP1 POP JUMP JUMPDEST PUSH0 PUSH1 0x20 DUP3 DUP5 SUB SLT ISZERO PUSH2 0x5C6 JUMPI PUSH0 PUSH0 REVERT JUMPDEST DUP2 CALLDATALOAD PUSH8 0xFFFFFFFFFFFFFFFF DUP2 GT ISZERO PUSH2 0x5DC JUMPI PUSH0 PUSH0 REVERT JUMPDEST DUP3 ADD PUSH1 0x1F DUP2 ADD DUP5 SGT PUSH2 0x5EC JUMPI PUSH0 PUSH0 REVERT JUMPDEST DUP1 CALLDATALOAD PUSH8 0xFFFFFFFFFFFFFFFF DUP2 GT ISZERO PUSH2 0x606 JUMPI PUSH2 0x606 PUSH2 0x571 JUMP JUMPDEST PUSH2 0x619 PUSH1 0x1F DUP3 ADD PUSH1 0x1F NOT AND PUSH1 0x20 ADD PUSH2 0x585 JUMP JUMPDEST DUP2 DUP2 MSTORE DUP6 PUSH1 0x20 DUP4 DUP6 ADD ADD GT ISZERO PUSH2 0x62D JUMPI PUSH0 PUSH0 REVERT JUMPDEST DUP2 PUSH1 0x20 DUP5 ADD PUSH1 0x20 DUP4 ADD CALLDATACOPY PUSH0 SWAP2 DUP2 ADD PUSH1 0x20 ADD SWAP2 SWAP1 SWAP2 MSTORE SWAP5 SWAP4 POP POP POP POP JUMP JUMPDEST PUSH0 PUSH1 0x20 DUP3 DUP5 SUB SLT ISZERO PUSH2 0x65A JUMPI PUSH0 PUSH0 REVERT JUMPDEST DUP2 MLOAD DUP1 ISZERO ISZERO DUP2 EQ PUSH2 0x553 JUMPI PUSH0 PUSH0 REVERT JUMPDEST PUSH0 DUP2 MLOAD DUP1 DUP5 MSTORE DUP1 PUSH1 0x20 DUP5 ADD PUSH1 0x20 DUP7 ADD MCOPY PUSH0 PUSH1 0x20 DUP3 DUP7 ADD ADD MSTORE PUSH1 0x20 PUSH1 0x1F NOT PUSH1 0x1F DUP4 ADD AND DUP6 ADD ADD SWAP2 POP POP SWAP3 SWAP2 POP POP JUMP JUMPDEST PUSH1 0x20 DUP2 MSTORE PUSH0 PUSH2 0x553 PUSH1 0x20 DUP4 ADD DUP5 PUSH2 0x669 JUMP JUMPDEST PUSH1 0x1 DUP1 PUSH1 0xA0 SHL SUB DUP6 AND DUP2 MSTORE DUP4 PUSH1 0x20 DUP3 ADD MSTORE PUSH1 0x80 PUSH1 0x40 DUP3 ADD MSTORE PUSH0 PUSH2 0x6CF PUSH1 0x80 DUP4 ADD DUP6 PUSH2 0x669 JUMP JUMPDEST SWAP1 POP DUP3 PUSH1 0x60 DUP4 ADD MSTORE SWAP6 SWAP5 POP POP POP POP POP JUMP JUMPDEST PUSH0 PUSH1 0x40 DUP3 DUP5 SUB SLT DUP1 ISZERO PUSH2 0x6F1 JUMPI PUSH0 PUSH0 REVERT JUMPDEST POP PUSH1 0x40 DUP1 MLOAD SWAP1 DUP2 ADD PUSH8 0xFFFFFFFFFFFFFFFF DUP2 GT DUP3 DUP3 LT OR ISZERO PUSH2 0x715 JUMPI PUSH2 0x715 PUSH2 0x571 JUMP JUMPDEST PUSH1 0x40 MSTORE DUP3 MLOAD PUSH2 0x723 DUP2 PUSH2 0x524 JUMP JUMPDEST DUP2 MSTORE PUSH1 0x20 SWAP3 DUP4 ADD MLOAD SWAP3 DUP2 ADD SWAP3 SWAP1 SWAP3 MSTORE POP SWAP2 SWAP1 POP JUMP INVALID LOG2 PUSH5 0x6970667358 0x22 SLT KECCAK256 0xBD PUSH31 0xDB93D33B845689B2CDA3DDB179835642FF220FCF49BAA05B01337FB6C73B64 PUSH20 0x6F6C634300081C00330000000000000000000000 "
				},
				"gasEstimates": {
					"creation": {
						"codeDepositCost": "380400",
						"executionCost": "infinite",
						"totalCost": "infinite"
					},
					"external": {
						"bridgeRStETH(uint256)": "infinite",
						"payOutRstETH(bytes)": "infinite",
						"scrollMessenger()": "2367",
						"scrollRstETH()": "2324",
						"setGasLimit(uint256)": "22376",
						"setScrollMessenger(address)": "24573",
						"setScrollRstETH(address)": "24596",
						"stETH()": "infinite",
						"withdraw()": "infinite"
					}
				},
				"methodIdentifiers": {
					"bridgeRStETH(uint256)": "88b8ba49",
					"payOutRstETH(bytes)": "ff40a25b",
					"scrollMessenger()": "d2087ad9",
					"scrollRstETH()": "bf7b7f72",
					"setGasLimit(uint256)": "ee7d72b4",
					"setScrollMessenger(address)": "48727dc4",
					"setScrollRstETH(address)": "7405c64c",
					"stETH()": "c1fe3e48",
					"withdraw()": "3ccfd60b"
				}
			},
			"storageLayout": {
				"storage": [
					{
						"astId": 1214,
						"contract": "src/scroll/ScrollStETHBridge.sol:ScrollStETHBridge",
						"label": "scrollMessenger",
						"offset": 0,
						"slot": "0",
						"type": "t_contract(ScrollMessenger)1205"
					},
					{
						"astId": 1219,
						"contract": "src/scroll/ScrollStETHBridge.sol:ScrollStETHBridge",
						"label": "scrollRstETH",
						"offset": 0,
						"slot": "1",
						"type": "t_address"
					},
					{
						"astId": 1222,
						"contract": "src/scroll/ScrollStETHBridge.sol:ScrollStETHBridge",
						"label": "GAS_LIMIT",
						"offset": 0,
						"slot": "2",
						"type": "t_uint256"
					}
				],
				"types": {
					"t_address": {
						"encoding": "inplace",
						"label": "address",
						"numberOfBytes": "20"
					},
					"t_contract(ScrollMessenger)1205": {
						"encoding": "inplace",
						"label": "contract ScrollMessenger",
						"numberOfBytes": "20"
					},
					"t_uint256": {
						"encoding": "inplace",
						"label": "uint256",
						"numberOfBytes": "32"
					}
				}
			},
			"userdoc": {
				"kind": "user",
				"methods": {},
				"version": 1
			}
		}
	}
}