{
	"src/scroll/RstETHScroll.sol": {
		"L1Reader": {
			"abi": [
				{
					"inputs": [
						{
							"internalType": "address",
							"name": "_l1TokenAddress",
							"type": "address"
						}
					],
					"stateMutability": "nonpayable",
					"type": "constructor"
				},
				{
					"inputs": [],
					"name": "retrieveShares",
					"outputs": [
						{
							"internalType": "uint256",
							"name": "",
							"type": "uint256"
						}
					],
					"stateMutability": "view",
					"type": "function"
				}
			],
			"devdoc": {
				"kind": "dev",
				"methods": {},
				"version": 1
			},
			"evm": {
				"assembly": "    /* \"src/scroll/RstETHScroll.sol\":1632:2408  contract L1Reader {... */\n  mstore(0x40, 0xa0)\n    /* \"src/scroll/RstETHScroll.sol\":1987:2073  constructor(address _l1TokenAddress) {... */\n  callvalue\n  dup1\n  iszero\n  tag_1\n  jumpi\n  revert(0x00, 0x00)\ntag_1:\n  pop\n  mload(0x40)\n  sub(codesize, bytecodeSize)\n  dup1\n  bytecodeSize\n  dup4\n  codecopy\n  dup2\n  add\n  0x40\n  dup2\n  swap1\n  mstore\n  tag_2\n  swap2\n  tag_3\n  jump\t// in\ntag_2:\n  sub(shl(0xa0, 0x01), 0x01)\n    /* \"src/scroll/RstETHScroll.sol\":2034:2066  l1TokenAddress = _l1TokenAddress */\n  and\n  0x80\n  mstore\n    /* \"src/scroll/RstETHScroll.sol\":1632:2408  contract L1Reader {... */\n  jump(tag_7)\n    /* \"#utility.yul\":14:304   */\ntag_3:\n    /* \"#utility.yul\":84:90   */\n  0x00\n    /* \"#utility.yul\":137:139   */\n  0x20\n    /* \"#utility.yul\":125:134   */\n  dup3\n    /* \"#utility.yul\":116:123   */\n  dup5\n    /* \"#utility.yul\":112:135   */\n  sub\n    /* \"#utility.yul\":108:140   */\n  slt\n    /* \"#utility.yul\":105:157   */\n  iszero\n  tag_9\n  jumpi\n    /* \"#utility.yul\":153:154   */\n  0x00\n    /* \"#utility.yul\":150:151   */\n  0x00\n    /* \"#utility.yul\":143:155   */\n  revert\n    /* \"#utility.yul\":105:157   */\ntag_9:\n    /* \"#utility.yul\":179:195   */\n  dup2\n  mload\n  sub(shl(0xa0, 0x01), 0x01)\n    /* \"#utility.yul\":224:255   */\n  dup2\n  and\n    /* \"#utility.yul\":214:256   */\n  dup2\n  eq\n    /* \"#utility.yul\":204:274   */\n  tag_10\n  jumpi\n    /* \"#utility.yul\":270:271   */\n  0x00\n    /* \"#utility.yul\":267:268   */\n  0x00\n    /* \"#utility.yul\":260:272   */\n  revert\n    /* \"#utility.yul\":204:274   */\ntag_10:\n    /* \"#utility.yul\":293:298   */\n  swap4\n    /* \"#utility.yul\":14:304   */\n  swap3\n  pop\n  pop\n  pop\n  jump\t// out\ntag_7:\n    /* \"src/scroll/RstETHScroll.sol\":1632:2408  contract L1Reader {... */\n  mload(0x80)\n  codecopy(0x00, dataOffset(sub_0), dataSize(sub_0))\n  0x00\n  assignImmutable(\"0x6c16bd8c1487da703f7ab92e9636de903fad798d8f79b33ee17a640122eb3349\")\n  return(0x00, dataSize(sub_0))\nstop\n\nsub_0: assembly {\n        /* \"src/scroll/RstETHScroll.sol\":1632:2408  contract L1Reader {... */\n      mstore(0x40, 0x80)\n      callvalue\n      dup1\n      iszero\n      tag_1\n      jumpi\n      revert(0x00, 0x00)\n    tag_1:\n      pop\n      jumpi(tag_2, lt(calldatasize, 0x04))\n      shr(0xe0, calldataload(0x00))\n      dup1\n      0x620b470d\n      eq\n      tag_3\n      jumpi\n    tag_2:\n      revert(0x00, 0x00)\n        /* \"src/scroll/RstETHScroll.sol\":2079:2406  function retrieveShares() public view returns (uint256) {... */\n    tag_3:\n      tag_4\n      tag_5\n      jump\t// in\n    tag_4:\n      mload(0x40)\n        /* \"#utility.yul\":160:185   */\n      swap1\n      dup2\n      mstore\n        /* \"#utility.yul\":148:150   */\n      0x20\n        /* \"#utility.yul\":133:151   */\n      add\n        /* \"src/scroll/RstETHScroll.sol\":2079:2406  function retrieveShares() public view returns (uint256) {... */\n      mload(0x40)\n      dup1\n      swap2\n      sub\n      swap1\n      return\n    tag_5:\n        /* \"src/scroll/RstETHScroll.sol\":2216:2271  abi.encodePacked(l1TokenAddress, TOTAL_SHARES_POSITION) */\n      mload(0x40)\n      not(0xffffffffffffffffffffffff)\n        /* \"src/scroll/RstETHScroll.sol\":2233:2247  l1TokenAddress */\n      immutable(\"0x6c16bd8c1487da703f7ab92e9636de903fad798d8f79b33ee17a640122eb3349\")\n        /* \"#utility.yul\":373:375   */\n      0x60\n        /* \"#utility.yul\":369:384   */\n      shl\n        /* \"#utility.yul\":365:418   */\n      and\n        /* \"src/scroll/RstETHScroll.sol\":2216:2271  abi.encodePacked(l1TokenAddress, TOTAL_SHARES_POSITION) */\n      0x20\n      dup3\n      add\n        /* \"#utility.yul\":353:419   */\n      mstore\n        /* \"src/scroll/RstETHScroll.sol\":1710:1776  0xe3b4b636e601189b5f4c6742edf2538ac12bb61ed03e6da26949d69838fa447e */\n      0xe3b4b636e601189b5f4c6742edf2538ac12bb61ed03e6da26949d69838fa447e\n        /* \"#utility.yul\":435:447   */\n      0x34\n      dup3\n      add\n        /* \"#utility.yul\":428:456   */\n      mstore\n        /* \"src/scroll/RstETHScroll.sol\":2126:2133  uint256 */\n      0x00\n      swap1\n      dup2\n      swap1\n      dup2\n      swap1\n        /* \"src/scroll/RstETHScroll.sol\":1904:1946  0x0000000000000000000000000000000000000101 */\n      0x0101\n      swap1\n        /* \"#utility.yul\":472:484   */\n      0x54\n      add\n        /* \"src/scroll/RstETHScroll.sol\":2216:2271  abi.encodePacked(l1TokenAddress, TOTAL_SHARES_POSITION) */\n      0x40\n      dup1\n      mload\n      not(0x1f)\n      dup2\n      dup5\n      sub\n      add\n      dup2\n      mstore\n      swap1\n      dup3\n      swap1\n      mstore\n        /* \"src/scroll/RstETHScroll.sol\":2188:2272  L1_SLOAD_ADDRESS.staticcall(abi.encodePacked(l1TokenAddress, TOTAL_SHARES_POSITION)) */\n      tag_11\n      swap2\n      tag_12\n      jump\t// in\n    tag_11:\n      0x00\n      mload(0x40)\n      dup1\n      dup4\n      sub\n      dup2\n      dup6\n      gas\n      staticcall\n      swap2\n      pop\n      pop\n      returndatasize\n      dup1\n      0x00\n      dup2\n      eq\n      tag_15\n      jumpi\n      mload(0x40)\n      swap2\n      pop\n      and(add(returndatasize, 0x3f), not(0x1f))\n      dup3\n      add\n      0x40\n      mstore\n      returndatasize\n      dup3\n      mstore\n      returndatasize\n      0x00\n      0x20\n      dup5\n      add\n      returndatacopy\n      jump(tag_14)\n    tag_15:\n      0x60\n      swap2\n      pop\n    tag_14:\n      pop\n        /* \"src/scroll/RstETHScroll.sol\":2145:2272  (bool success, bytes memory returnValue) = L1_SLOAD_ADDRESS.staticcall(abi.encodePacked(l1TokenAddress, TOTAL_SHARES_POSITION)) */\n      swap2\n      pop\n      swap2\n      pop\n        /* \"src/scroll/RstETHScroll.sol\":2286:2293  success */\n      dup2\n        /* \"src/scroll/RstETHScroll.sol\":2282:2352  if(!success)... */\n      tag_16\n      jumpi\n        /* \"src/scroll/RstETHScroll.sol\":2317:2341  revert(\"L1SLOAD failed\") */\n      mload(0x40)\n      shl(0xe5, 0x461bcd)\n      dup2\n      mstore\n        /* \"#utility.yul\":1003:1005   */\n      0x20\n        /* \"src/scroll/RstETHScroll.sol\":2317:2341  revert(\"L1SLOAD failed\") */\n      0x04\n      dup3\n      add\n        /* \"#utility.yul\":985:1006   */\n      mstore\n        /* \"#utility.yul\":1042:1044   */\n      0x0e\n        /* \"#utility.yul\":1022:1040   */\n      0x24\n      dup3\n      add\n        /* \"#utility.yul\":1015:1045   */\n      mstore\n      shl(0x92, 0x130c54d313d0510819985a5b1959)\n        /* \"#utility.yul\":1061:1079   */\n      0x44\n      dup3\n      add\n        /* \"#utility.yul\":1054:1098   */\n      mstore\n        /* \"#utility.yul\":1115:1133   */\n      0x64\n      add\n        /* \"src/scroll/RstETHScroll.sol\":2317:2341  revert(\"L1SLOAD failed\") */\n      mload(0x40)\n      dup1\n      swap2\n      sub\n      swap1\n      revert\n        /* \"src/scroll/RstETHScroll.sol\":2282:2352  if(!success)... */\n    tag_16:\n        /* \"src/scroll/RstETHScroll.sol\":2379:2390  returnValue */\n      dup1\n        /* \"src/scroll/RstETHScroll.sol\":2368:2399  abi.decode(returnValue, (uint)) */\n      dup1\n      0x20\n      add\n      swap1\n      mload\n      dup2\n      add\n      swap1\n      tag_19\n      swap2\n      swap1\n      tag_20\n      jump\t// in\n    tag_19:\n        /* \"src/scroll/RstETHScroll.sol\":2361:2399  return abi.decode(returnValue, (uint)) */\n      swap3\n      pop\n      pop\n      pop\n        /* \"src/scroll/RstETHScroll.sol\":2079:2406  function retrieveShares() public view returns (uint256) {... */\n      swap1\n      jump\t// out\n        /* \"#utility.yul\":495:796   */\n    tag_12:\n        /* \"#utility.yul\":624:627   */\n      0x00\n        /* \"#utility.yul\":662:668   */\n      dup3\n        /* \"#utility.yul\":656:669   */\n      mload\n        /* \"#utility.yul\":708:714   */\n      dup1\n        /* \"#utility.yul\":701:705   */\n      0x20\n        /* \"#utility.yul\":693:699   */\n      dup6\n        /* \"#utility.yul\":689:706   */\n      add\n        /* \"#utility.yul\":684:687   */\n      dup5\n        /* \"#utility.yul\":678:715   */\n      mcopy\n        /* \"#utility.yul\":770:771   */\n      0x00\n        /* \"#utility.yul\":734:750   */\n      swap3\n      add\n        /* \"#utility.yul\":759:772   */\n      swap2\n      dup3\n      mstore\n      pop\n        /* \"#utility.yul\":734:750   */\n      swap2\n        /* \"#utility.yul\":495:796   */\n      swap1\n      pop\n      jump\t// out\n        /* \"#utility.yul\":1144:1328   */\n    tag_20:\n        /* \"#utility.yul\":1214:1220   */\n      0x00\n        /* \"#utility.yul\":1267:1269   */\n      0x20\n        /* \"#utility.yul\":1255:1264   */\n      dup3\n        /* \"#utility.yul\":1246:1253   */\n      dup5\n        /* \"#utility.yul\":1242:1265   */\n      sub\n        /* \"#utility.yul\":1238:1270   */\n      slt\n        /* \"#utility.yul\":1235:1287   */\n      iszero\n      tag_27\n      jumpi\n        /* \"#utility.yul\":1283:1284   */\n      0x00\n        /* \"#utility.yul\":1280:1281   */\n      0x00\n        /* \"#utility.yul\":1273:1285   */\n      revert\n        /* \"#utility.yul\":1235:1287   */\n    tag_27:\n      pop\n        /* \"#utility.yul\":1306:1322   */\n      mload\n      swap2\n        /* \"#utility.yul\":1144:1328   */\n      swap1\n      pop\n      jump\t// out\n\n    auxdata: 0xa2646970667358221220cecf5af673ce765ae93467ec4e2441ccab01d9686b1a9e72268cd240aaa5fce364736f6c634300081c0033\n}\n",
				"bytecode": {
					"linkReferences": {},
					"object": "60a0604052348015600e575f5ffd5b5060405161024e38038061024e833981016040819052602b91603b565b6001600160a01b03166080526066565b5f60208284031215604a575f5ffd5b81516001600160a01b0381168114605f575f5ffd5b9392505050565b6080516101d161007d5f395f605a01526101d15ff3fe608060405234801561000f575f5ffd5b5060043610610029575f3560e01c8063620b470d1461002d575b5f5ffd5b610035610047565b60405190815260200160405180910390f35b6040516bffffffffffffffffffffffff197f000000000000000000000000000000000000000000000000000000000000000060601b1660208201527fe3b4b636e601189b5f4c6742edf2538ac12bb61ed03e6da26949d69838fa447e60348201525f90819081906101019060540160408051601f19818403018152908290526100cf9161016e565b5f60405180830381855afa9150503d805f8114610107576040519150601f19603f3d011682016040523d82523d5f602084013e61010c565b606091505b5091509150816101535760405162461bcd60e51b815260206004820152600e60248201526d130c54d313d0510819985a5b195960921b604482015260640160405180910390fd5b808060200190518101906101679190610184565b9250505090565b5f82518060208501845e5f920191825250919050565b5f60208284031215610194575f5ffd5b505191905056fea2646970667358221220cecf5af673ce765ae93467ec4e2441ccab01d9686b1a9e72268cd240aaa5fce364736f6c634300081c0033",
					"opcodes": "PUSH1 0xA0 PUSH1 0x40 MSTORE CALLVALUE DUP1 ISZERO PUSH1 0xE JUMPI PUSH0 PUSH0 REVERT JUMPDEST POP PUSH1 0x40 MLOAD PUSH2 0x24E CODESIZE SUB DUP1 PUSH2 0x24E DUP4 CODECOPY DUP2 ADD PUSH1 0x40 DUP2 SWAP1 MSTORE PUSH1 0x2B SWAP2 PUSH1 0x3B JUMP JUMPDEST PUSH1 0x1 PUSH1 0x1 PUSH1 0xA0 SHL SUB AND PUSH1 0x80 MSTORE PUSH1 0x66 JUMP JUMPDEST PUSH0 PUSH1 0x20 DUP3 DUP5 SUB SLT ISZERO PUSH1 0x4A JUMPI PUSH0 PUSH0 REVERT JUMPDEST DUP2 MLOAD PUSH1 0x1 PUSH1 0x1 PUSH1 0xA0 SHL SUB DUP2 AND DUP2 EQ PUSH1 0x5F JUMPI PUSH0 PUSH0 REVERT JUMPDEST SWAP4 SWAP3 POP POP POP JUMP JUMPDEST PUSH1 0x80 MLOAD PUSH2 0x1D1 PUSH2 0x7D PUSH0 CODECOPY PUSH0 PUSH1 0x5A ADD MSTORE PUSH2 0x1D1 PUSH0 RETURN INVALID PUSH1 0x80 PUSH1 0x40 MSTORE CALLVALUE DUP1 ISZERO PUSH2 0xF JUMPI PUSH0 PUSH0 REVERT JUMPDEST POP PUSH1 0x4 CALLDATASIZE LT PUSH2 0x29 JUMPI PUSH0 CALLDATALOAD PUSH1 0xE0 SHR DUP1 PUSH4 0x620B470D EQ PUSH2 0x2D JUMPI JUMPDEST PUSH0 PUSH0 REVERT JUMPDEST PUSH2 0x35 PUSH2 0x47 JUMP JUMPDEST PUSH1 0x40 MLOAD SWAP1 DUP2 MSTORE PUSH1 0x20 ADD PUSH1 0x40 MLOAD DUP1 SWAP2 SUB SWAP1 RETURN JUMPDEST PUSH1 0x40 MLOAD PUSH12 0xFFFFFFFFFFFFFFFFFFFFFFFF NOT PUSH32 0x0 PUSH1 0x60 SHL AND PUSH1 0x20 DUP3 ADD MSTORE PUSH32 0xE3B4B636E601189B5F4C6742EDF2538AC12BB61ED03E6DA26949D69838FA447E PUSH1 0x34 DUP3 ADD MSTORE PUSH0 SWAP1 DUP2 SWAP1 DUP2 SWAP1 PUSH2 0x101 SWAP1 PUSH1 0x54 ADD PUSH1 0x40 DUP1 MLOAD PUSH1 0x1F NOT DUP2 DUP5 SUB ADD DUP2 MSTORE SWAP1 DUP3 SWAP1 MSTORE PUSH2 0xCF SWAP2 PUSH2 0x16E JUMP JUMPDEST PUSH0 PUSH1 0x40 MLOAD DUP1 DUP4 SUB DUP2 DUP6 GAS STATICCALL SWAP2 POP POP RETURNDATASIZE DUP1 PUSH0 DUP2 EQ PUSH2 0x107 JUMPI PUSH1 0x40 MLOAD SWAP2 POP PUSH1 0x1F NOT PUSH1 0x3F RETURNDATASIZE ADD AND DUP3 ADD PUSH1 0x40 MSTORE RETURNDATASIZE DUP3 MSTORE RETURNDATASIZE PUSH0 PUSH1 0x20 DUP5 ADD RETURNDATACOPY PUSH2 0x10C JUMP JUMPDEST PUSH1 0x60 SWAP2 POP JUMPDEST POP SWAP2 POP SWAP2 POP DUP2 PUSH2 0x153 JUMPI PUSH1 0x40 MLOAD PUSH3 0x461BCD PUSH1 0xE5 SHL DUP2 MSTORE PUSH1 0x20 PUSH1 0x4 DUP3 ADD MSTORE PUSH1 0xE PUSH1 0x24 DUP3 ADD MSTORE PUSH14 0x130C54D313D0510819985A5B1959 PUSH1 0x92 SHL PUSH1 0x44 DUP3 ADD MSTORE PUSH1 0x64 ADD PUSH1 0x40 MLOAD DUP1 SWAP2 SUB SWAP1 REVERT JUMPDEST DUP1 DUP1 PUSH1 0x20 ADD SWAP1 MLOAD DUP2 ADD SWAP1 PUSH2 0x167 SWAP2 SWAP1 PUSH2 0x184 JUMP JUMPDEST SWAP3 POP POP POP SWAP1 JUMP JUMPDEST PUSH0 DUP3 MLOAD DUP1 PUSH1 0x20 DUP6 ADD DUP5 MCOPY PUSH0 SWAP3 ADD SWAP2 DUP3 MSTORE POP SWAP2 SWAP1 POP JUMP JUMPDEST PUSH0 PUSH1 0x20 DUP3 DUP5 SUB SLT ISZERO PUSH2 0x194 JUMPI PUSH0 PUSH0 REVERT JUMPDEST POP MLOAD SWAP2 SWAP1 POP JUMP INVALID LOG2 PUSH5 0x6970667358 0x22 SLT KECCAK256 0xCE 0xCF GAS 0xF6 PUSH20 0xCE765AE93467EC4E2441CCAB01D9686B1A9E7226 DUP13 0xD2 BLOCKHASH 0xAA 0xA5 0xFC 0xE3 PUSH5 0x736F6C6343 STOP ADDMOD SHR STOP CALLER "
				},
				"gasEstimates": {
					"creation": {
						"codeDepositCost": "93000",
						"executionCost": "infinite",
						"totalCost": "infinite"
					},
					"external": {
						"retrieveShares()": "infinite"
					}
				},
				"methodIdentifiers": {
					"retrieveShares()": "620b470d"
				}
			},
			"storageLayout": {
				"storage": [],
				"types": null
			},
			"userdoc": {
				"kind": "user",
				"methods": {},
				"version": 1
			}
		}
	}
}