{
	"src/mocks/MockStETH.sol": {
		"MockStETH": {
			"abi": [
				{
					"inputs": [],
					"name": "getTotalShares",
					"outputs": [
						{
							"internalType": "uint256",
							"name": "",
							"type": "uint256"
						}
					],
					"stateMutability": "view",
					"type": "function"
				},
				{
					"inputs": [],
					"name": "totalSupply",
					"outputs": [
						{
							"internalType": "uint256",
							"name": "",
							"type": "uint256"
						}
					],
					"stateMutability": "view",
					"type": "function"
				}
			],
			"devdoc": {
				"kind": "dev",
				"methods": {},
				"version": 1
			},
			"evm": {
				"assembly": "    /* \"src/mocks/MockStETH.sol\":138:348  contract MockStETH is IStETH {... */\n  mstore(0x40, 0x80)\n  callvalue\n  dup1\n  iszero\n  tag_1\n  jumpi\n  revert(0x00, 0x00)\ntag_1:\n  pop\n  dataSize(sub_0)\n  dup1\n  dataOffset(sub_0)\n  0x00\n  codecopy\n  0x00\n  return\nstop\n\nsub_0: assembly {\n        /* \"src/mocks/MockStETH.sol\":138:348  contract MockStETH is IStETH {... */\n      mstore(0x40, 0x80)\n      callvalue\n      dup1\n      iszero\n      tag_1\n      jumpi\n      revert(0x00, 0x00)\n    tag_1:\n      pop\n      jumpi(tag_2, lt(calldatasize, 0x04))\n      shr(0xe0, calldataload(0x00))\n      dup1\n      0x18160ddd\n      eq\n      tag_3\n      jumpi\n      dup1\n      0xd5002f2e\n      eq\n      tag_4\n      jumpi\n    tag_2:\n      revert(0x00, 0x00)\n        /* \"src/mocks/MockStETH.sol\":173:255  function totalSupply() external view returns (uint256) {... */\n    tag_3:\n        /* \"src/mocks/MockStETH.sol\":245:248  666 */\n      0x029a\n        /* \"src/mocks/MockStETH.sol\":173:255  function totalSupply() external view returns (uint256) {... */\n    tag_5:\n      mload(0x40)\n        /* \"#utility.yul\":160:185   */\n      swap1\n      dup2\n      mstore\n        /* \"#utility.yul\":148:150   */\n      0x20\n        /* \"#utility.yul\":133:151   */\n      add\n        /* \"src/mocks/MockStETH.sol\":173:255  function totalSupply() external view returns (uint256) {... */\n      mload(0x40)\n      dup1\n      swap2\n      sub\n      swap1\n      return\n        /* \"src/mocks/MockStETH.sol\":261:346  function getTotalShares() external view returns (uint256) {... */\n    tag_4:\n        /* \"src/mocks/MockStETH.sol\":336:339  888 */\n      0x0378\n        /* \"src/mocks/MockStETH.sol\":261:346  function getTotalShares() external view returns (uint256) {... */\n      jump(tag_5)\n\n    auxdata: 0xa26469706673582212205a07a217ea8e3660bbc2c2a7f2b9a2731220a923d541d82858383fe8f538829d64736f6c634300081c0033\n}\n",
				"bytecode": {
					"linkReferences": {},
					"object": "6080604052348015600e575f5ffd5b50608780601a5f395ff3fe6080604052348015600e575f5ffd5b50600436106030575f3560e01c806318160ddd146034578063d5002f2e14604a575b5f5ffd5b61029a5b60405190815260200160405180910390f35b610378603856fea26469706673582212205a07a217ea8e3660bbc2c2a7f2b9a2731220a923d541d82858383fe8f538829d64736f6c634300081c0033",
					"opcodes": "PUSH1 0x80 PUSH1 0x40 MSTORE CALLVALUE DUP1 ISZERO PUSH1 0xE JUMPI PUSH0 PUSH0 REVERT JUMPDEST POP PUSH1 0x87 DUP1 PUSH1 0x1A PUSH0 CODECOPY PUSH0 RETURN INVALID PUSH1 0x80 PUSH1 0x40 MSTORE CALLVALUE DUP1 ISZERO PUSH1 0xE JUMPI PUSH0 PUSH0 REVERT JUMPDEST POP PUSH1 0x4 CALLDATASIZE LT PUSH1 0x30 JUMPI PUSH0 CALLDATALOAD PUSH1 0xE0 SHR DUP1 PUSH4 0x18160DDD EQ PUSH1 0x34 JUMPI DUP1 PUSH4 0xD5002F2E EQ PUSH1 0x4A JUMPI JUMPDEST PUSH0 PUSH0 REVERT JUMPDEST PUSH2 0x29A JUMPDEST PUSH1 0x40 MLOAD SWAP1 DUP2 MSTORE PUSH1 0x20 ADD PUSH1 0x40 MLOAD DUP1 SWAP2 SUB SWAP1 RETURN JUMPDEST PUSH2 0x378 PUSH1 0x38 JUMP INVALID LOG2 PUSH5 0x6970667358 0x22 SLT KECCAK256 GAS SMOD LOG2 OR 0xEA DUP15 CALLDATASIZE PUSH1 0xBB 0xC2 0xC2 0xA7 CALLCODE 0xB9 LOG2 PUSH20 0x1220A923D541D82858383FE8F538829D64736F6C PUSH4 0x4300081C STOP CALLER "
				},
				"gasEstimates": {
					"creation": {
						"codeDepositCost": "27000",
						"executionCost": "79",
						"totalCost": "27079"
					},
					"external": {
						"getTotalShares()": "179",
						"totalSupply()": "146"
					}
				},
				"methodIdentifiers": {
					"getTotalShares()": "d5002f2e",
					"totalSupply()": "18160ddd"
				}
			},
			"storageLayout": {
				"storage": [],
				"types": null
			},
			"userdoc": {
				"kind": "user",
				"methods": {},
				"version": 1
			}
		}
	}
}