{
	"src/mocks/DummyStorage.sol": {
		"DummyStorage": {
			"abi": [
				{
					"inputs": [],
					"name": "getTotalShares",
					"outputs": [
						{
							"internalType": "uint256",
							"name": "",
							"type": "uint256"
						}
					],
					"stateMutability": "view",
					"type": "function"
				},
				{
					"inputs": [
						{
							"internalType": "uint256",
							"name": "_new",
							"type": "uint256"
						}
					],
					"name": "setTotalShares",
					"outputs": [],
					"stateMutability": "nonpayable",
					"type": "function"
				}
			],
			"devdoc": {
				"kind": "dev",
				"methods": {},
				"version": 1
			},
			"evm": {
				"assembly": "    /* \"src/mocks/DummyStorage.sol\":1305:1736  contract DummyStorage {... */\n  mstore(0x40, 0x80)\n  callvalue\n  dup1\n  iszero\n  tag_1\n  jumpi\n  revert(0x00, 0x00)\ntag_1:\n  pop\n  dataSize(sub_0)\n  dup1\n  dataOffset(sub_0)\n  0x00\n  codecopy\n  0x00\n  return\nstop\n\nsub_0: assembly {\n        /* \"src/mocks/DummyStorage.sol\":1305:1736  contract DummyStorage {... */\n      mstore(0x40, 0x80)\n      callvalue\n      dup1\n      iszero\n      tag_1\n      jumpi\n      revert(0x00, 0x00)\n    tag_1:\n      pop\n      jumpi(tag_2, lt(calldatasize, 0x04))\n      shr(0xe0, calldataload(0x00))\n      dup1\n      0xa77384c1\n      eq\n      tag_3\n      jumpi\n      dup1\n      0xd5002f2e\n      eq\n      tag_4\n      jumpi\n    tag_2:\n      revert(0x00, 0x00)\n        /* \"src/mocks/DummyStorage.sol\":1627:1734  function setTotalShares(uint256 _new) public {... */\n    tag_3:\n      tag_5\n      tag_6\n      calldatasize\n      0x04\n      tag_7\n      jump\t// in\n    tag_6:\n      tag_8\n      jump\t// in\n    tag_5:\n      stop\n        /* \"src/mocks/DummyStorage.sol\":1500:1621  function getTotalShares() public view returns (uint256) {... */\n    tag_4:\n      tag_9\n      tag_10\n      jump\t// in\n    tag_9:\n      mload(0x40)\n        /* \"#utility.yul\":345:370   */\n      swap1\n      dup2\n      mstore\n        /* \"#utility.yul\":333:335   */\n      0x20\n        /* \"#utility.yul\":318:336   */\n      add\n        /* \"src/mocks/DummyStorage.sol\":1500:1621  function getTotalShares() public view returns (uint256) {... */\n      mload(0x40)\n      dup1\n      swap2\n      sub\n      swap1\n      return\n        /* \"src/mocks/DummyStorage.sol\":1627:1734  function setTotalShares(uint256 _new) public {... */\n    tag_8:\n        /* \"src/mocks/DummyStorage.sol\":1682:1727  TOTAL_SHARES_POSITION.setStorageUint256(_new) */\n      tag_14\n        /* \"src/mocks/DummyStorage.sol\":1427:1493  0xe3b4b636e601189b5f4c6742edf2538ac12bb61ed03e6da26949d69838fa447e */\n      0xe3b4b636e601189b5f4c6742edf2538ac12bb61ed03e6da26949d69838fa447e\n        /* \"src/mocks/DummyStorage.sol\":1722:1726  _new */\n      dup3\n        /* \"src/mocks/DummyStorage.sol\":1263:1285  sstore(position, data) */\n      swap1\n      sstore\n        /* \"src/mocks/DummyStorage.sol\":1162:1301  function setStorageUint256(bytes32 position, uint256 data) internal {... */\n      jump\n        /* \"src/mocks/DummyStorage.sol\":1682:1727  TOTAL_SHARES_POSITION.setStorageUint256(_new) */\n    tag_14:\n        /* \"src/mocks/DummyStorage.sol\":1627:1734  function setTotalShares(uint256 _new) public {... */\n      pop\n      jump\t// out\n        /* \"src/mocks/DummyStorage.sol\":1500:1621  function getTotalShares() public view returns (uint256) {... */\n    tag_10:\n        /* \"src/mocks/DummyStorage.sol\":1547:1554  uint256 */\n      0x00\n        /* \"src/mocks/DummyStorage.sol\":1573:1614  TOTAL_SHARES_POSITION.getStorageUint256() */\n      tag_17\n        /* \"src/mocks/DummyStorage.sol\":1427:1493  0xe3b4b636e601189b5f4c6742edf2538ac12bb61ed03e6da26949d69838fa447e */\n      0xe3b4b636e601189b5f4c6742edf2538ac12bb61ed03e6da26949d69838fa447e\n        /* \"src/mocks/DummyStorage.sol\":696:711  sload(position) */\n      sload\n      swap1\n        /* \"src/mocks/DummyStorage.sol\":573:727  function getStorageUint256(bytes32 position) internal view returns (uint256 data) {... */\n      jump\n        /* \"src/mocks/DummyStorage.sol\":1573:1614  TOTAL_SHARES_POSITION.getStorageUint256() */\n    tag_17:\n        /* \"src/mocks/DummyStorage.sol\":1566:1614  return TOTAL_SHARES_POSITION.getStorageUint256() */\n      swap1\n      pop\n        /* \"src/mocks/DummyStorage.sol\":1500:1621  function getTotalShares() public view returns (uint256) {... */\n      swap1\n      jump\t// out\n        /* \"#utility.yul\":14:194   */\n    tag_7:\n        /* \"#utility.yul\":73:79   */\n      0x00\n        /* \"#utility.yul\":126:128   */\n      0x20\n        /* \"#utility.yul\":114:123   */\n      dup3\n        /* \"#utility.yul\":105:112   */\n      dup5\n        /* \"#utility.yul\":101:124   */\n      sub\n        /* \"#utility.yul\":97:129   */\n      slt\n        /* \"#utility.yul\":94:146   */\n      iszero\n      tag_23\n      jumpi\n        /* \"#utility.yul\":142:143   */\n      0x00\n        /* \"#utility.yul\":139:140   */\n      0x00\n        /* \"#utility.yul\":132:144   */\n      revert\n        /* \"#utility.yul\":94:146   */\n    tag_23:\n      pop\n        /* \"#utility.yul\":165:188   */\n      calldataload\n      swap2\n        /* \"#utility.yul\":14:194   */\n      swap1\n      pop\n      jump\t// out\n\n    auxdata: 0xa26469706673582212202b4f323a4cc3df1f145214822ce3a118595220c0f69fbed9cd8009f052c5636564736f6c634300081c0033\n}\n",
				"bytecode": {
					"linkReferences": {},
					"object": "6080604052348015600e575f5ffd5b506101018061001c5f395ff3fe6080604052348015600e575f5ffd5b50600436106030575f3560e01c8063a77384c1146034578063d5002f2e146045575b5f5ffd5b6043603f36600460b5565b605d565b005b604b6088565b60405190815260200160405180910390f35b60857fe3b4b636e601189b5f4c6742edf2538ac12bb61ed03e6da26949d69838fa447e829055565b50565b5f60b07fe3b4b636e601189b5f4c6742edf2538ac12bb61ed03e6da26949d69838fa447e5490565b905090565b5f6020828403121560c4575f5ffd5b503591905056fea26469706673582212202b4f323a4cc3df1f145214822ce3a118595220c0f69fbed9cd8009f052c5636564736f6c634300081c0033",
					"opcodes": "PUSH1 0x80 PUSH1 0x40 MSTORE CALLVALUE DUP1 ISZERO PUSH1 0xE JUMPI PUSH0 PUSH0 REVERT JUMPDEST POP PUSH2 0x101 DUP1 PUSH2 0x1C PUSH0 CODECOPY PUSH0 RETURN INVALID PUSH1 0x80 PUSH1 0x40 MSTORE CALLVALUE DUP1 ISZERO PUSH1 0xE JUMPI PUSH0 PUSH0 REVERT JUMPDEST POP PUSH1 0x4 CALLDATASIZE LT PUSH1 0x30 JUMPI PUSH0 CALLDATALOAD PUSH1 0xE0 SHR DUP1 PUSH4 0xA77384C1 EQ PUSH1 0x34 JUMPI DUP1 PUSH4 0xD5002F2E EQ PUSH1 0x45 JUMPI JUMPDEST PUSH0 PUSH0 REVERT JUMPDEST PUSH1 0x43 PUSH1 0x3F CALLDATASIZE PUSH1 0x4 PUSH1 0xB5 JUMP JUMPDEST PUSH1 0x5D JUMP JUMPDEST STOP JUMPDEST PUSH1 0x4B PUSH1 0x88 JUMP JUMPDEST PUSH1 0x40 MLOAD SWAP1 DUP2 MSTORE PUSH1 0x20 ADD PUSH1 0x40 MLOAD DUP1 SWAP2 SUB SWAP1 RETURN JUMPDEST PUSH1 0x85 PUSH32 0xE3B4B636E601189B5F4C6742EDF2538AC12BB61ED03E6DA26949D69838FA447E DUP3 SWAP1 SSTORE JUMP JUMPDEST POP JUMP JUMPDEST PUSH0 PUSH1 0xB0 PUSH32 0xE3B4B636E601189B5F4C6742EDF2538AC12BB61ED03E6DA26949D69838FA447E SLOAD SWAP1 JUMP JUMPDEST SWAP1 POP SWAP1 JUMP JUMPDEST PUSH0 PUSH1 0x20 DUP3 DUP5 SUB SLT ISZERO PUSH1 0xC4 JUMPI PUSH0 PUSH0 REVERT JUMPDEST POP CALLDATALOAD SWAP2 SWAP1 POP JUMP INVALID LOG2 PUSH5 0x6970667358 0x22 SLT KECCAK256 0x2B 0x4F ORIGIN GASPRICE 0x4C 0xC3 0xDF 0x1F EQ MSTORE EQ DUP3 0x2C 0xE3 LOG1 XOR MSIZE MSTORE KECCAK256 0xC0 0xF6 SWAP16 0xBE 0xD9 0xCD DUP1 MULMOD CREATE MSTORE 0xC5 PUSH4 0x6564736F PUSH13 0x634300081C0033000000000000 "
				},
				"gasEstimates": {
					"creation": {
						"codeDepositCost": "51400",
						"executionCost": "103",
						"totalCost": "51503"
					},
					"external": {
						"getTotalShares()": "2316",
						"setTotalShares(uint256)": "22320"
					}
				},
				"methodIdentifiers": {
					"getTotalShares()": "d5002f2e",
					"setTotalShares(uint256)": "a77384c1"
				}
			},
			"storageLayout": {
				"storage": [],
				"types": null
			},
			"userdoc": {
				"kind": "user",
				"methods": {},
				"version": 1
			}
		}
	}
}