{
	"src/mocks/MockStETH.sol": {
		"MockStETH": {
			"abi": [
				{
					"inputs": [],
					"stateMutability": "nonpayable",
					"type": "constructor"
				},
				{
					"inputs": [
						{
							"internalType": "address",
							"name": "spender",
							"type": "address"
						},
						{
							"internalType": "uint256",
							"name": "allowance",
							"type": "uint256"
						},
						{
							"internalType": "uint256",
							"name": "needed",
							"type": "uint256"
						}
					],
					"name": "ERC20InsufficientAllowance",
					"type": "error"
				},
				{
					"inputs": [
						{
							"internalType": "address",
							"name": "sender",
							"type": "address"
						},
						{
							"internalType": "uint256",
							"name": "balance",
							"type": "uint256"
						},
						{
							"internalType": "uint256",
							"name": "needed",
							"type": "uint256"
						}
					],
					"name": "ERC20InsufficientBalance",
					"type": "error"
				},
				{
					"inputs": [
						{
							"internalType": "address",
							"name": "approver",
							"type": "address"
						}
					],
					"name": "ERC20InvalidApprover",
					"type": "error"
				},
				{
					"inputs": [
						{
							"internalType": "address",
							"name": "receiver",
							"type": "address"
						}
					],
					"name": "ERC20InvalidReceiver",
					"type": "error"
				},
				{
					"inputs": [
						{
							"internalType": "address",
							"name": "sender",
							"type": "address"
						}
					],
					"name": "ERC20InvalidSender",
					"type": "error"
				},
				{
					"inputs": [
						{
							"internalType": "address",
							"name": "spender",
							"type": "address"
						}
					],
					"name": "ERC20InvalidSpender",
					"type": "error"
				},
				{
					"anonymous": false,
					"inputs": [
						{
							"indexed": true,
							"internalType": "address",
							"name": "owner",
							"type": "address"
						},
						{
							"indexed": true,
							"internalType": "address",
							"name": "spender",
							"type": "address"
						},
						{
							"indexed": false,
							"internalType": "uint256",
							"name": "value",
							"type": "uint256"
						}
					],
					"name": "Approval",
					"type": "event"
				},
				{
					"anonymous": false,
					"inputs": [
						{
							"indexed": true,
							"internalType": "address",
							"name": "from",
							"type": "address"
						},
						{
							"indexed": true,
							"internalType": "address",
							"name": "to",
							"type": "address"
						},
						{
							"indexed": false,
							"internalType": "uint256",
							"name": "value",
							"type": "uint256"
						}
					],
					"name": "Transfer",
					"type": "event"
				},
				{
					"inputs": [
						{
							"internalType": "address",
							"name": "owner",
							"type": "address"
						},
						{
							"internalType": "address",
							"name": "spender",
							"type": "address"
						}
					],
					"name": "allowance",
					"outputs": [
						{
							"internalType": "uint256",
							"name": "",
							"type": "uint256"
						}
					],
					"stateMutability": "view",
					"type": "function"
				},
				{
					"inputs": [
						{
							"internalType": "address",
							"name": "spender",
							"type": "address"
						},
						{
							"internalType": "uint256",
							"name": "value",
							"type": "uint256"
						}
					],
					"name": "approve",
					"outputs": [
						{
							"internalType": "bool",
							"name": "",
							"type": "bool"
						}
					],
					"stateMutability": "nonpayable",
					"type": "function"
				},
				{
					"inputs": [
						{
							"internalType": "address",
							"name": "_account",
							"type": "address"
						}
					],
					"name": "balanceOf",
					"outputs": [
						{
							"internalType": "uint256",
							"name": "",
							"type": "uint256"
						}
					],
					"stateMutability": "view",
					"type": "function"
				},
				{
					"inputs": [],
					"name": "decimals",
					"outputs": [
						{
							"internalType": "uint8",
							"name": "",
							"type": "uint8"
						}
					],
					"stateMutability": "view",
					"type": "function"
				},
				{
					"inputs": [
						{
							"internalType": "uint256",
							"name": "_rewardAmount",
							"type": "uint256"
						}
					],
					"name": "distributeRewards",
					"outputs": [],
					"stateMutability": "nonpayable",
					"type": "function"
				},
				{
					"inputs": [
						{
							"internalType": "uint256",
							"name": "_sharesAmount",
							"type": "uint256"
						}
					],
					"name": "getPooledEthByShares",
					"outputs": [
						{
							"internalType": "uint256",
							"name": "",
							"type": "uint256"
						}
					],
					"stateMutability": "view",
					"type": "function"
				},
				{
					"inputs": [
						{
							"internalType": "uint256",
							"name": "_ethAmount",
							"type": "uint256"
						}
					],
					"name": "getSharesByPooledEth",
					"outputs": [
						{
							"internalType": "uint256",
							"name": "",
							"type": "uint256"
						}
					],
					"stateMutability": "view",
					"type": "function"
				},
				{
					"inputs": [],
					"name": "getTotalShares",
					"outputs": [
						{
							"internalType": "uint256",
							"name": "",
							"type": "uint256"
						}
					],
					"stateMutability": "view",
					"type": "function"
				},
				{
					"inputs": [],
					"name": "name",
					"outputs": [
						{
							"internalType": "string",
							"name": "",
							"type": "string"
						}
					],
					"stateMutability": "view",
					"type": "function"
				},
				{
					"inputs": [
						{
							"internalType": "address",
							"name": "_account",
							"type": "address"
						}
					],
					"name": "sharesOf",
					"outputs": [
						{
							"internalType": "uint256",
							"name": "",
							"type": "uint256"
						}
					],
					"stateMutability": "view",
					"type": "function"
				},
				{
					"inputs": [],
					"name": "submit",
					"outputs": [],
					"stateMutability": "payable",
					"type": "function"
				},
				{
					"inputs": [],
					"name": "symbol",
					"outputs": [
						{
							"internalType": "string",
							"name": "",
							"type": "string"
						}
					],
					"stateMutability": "view",
					"type": "function"
				},
				{
					"inputs": [],
					"name": "totalSupply",
					"outputs": [
						{
							"internalType": "uint256",
							"name": "",
							"type": "uint256"
						}
					],
					"stateMutability": "view",
					"type": "function"
				},
				{
					"inputs": [
						{
							"internalType": "address",
							"name": "to",
							"type": "address"
						},
						{
							"internalType": "uint256",
							"name": "value",
							"type": "uint256"
						}
					],
					"name": "transfer",
					"outputs": [
						{
							"internalType": "bool",
							"name": "",
							"type": "bool"
						}
					],
					"stateMutability": "nonpayable",
					"type": "function"
				},
				{
					"inputs": [
						{
							"internalType": "address",
							"name": "from",
							"type": "address"
						},
						{
							"internalType": "address",
							"name": "to",
							"type": "address"
						},
						{
							"internalType": "uint256",
							"name": "value",
							"type": "uint256"
						}
					],
					"name": "transferFrom",
					"outputs": [
						{
							"internalType": "bool",
							"name": "",
							"type": "bool"
						}
					],
					"stateMutability": "nonpayable",
					"type": "function"
				}
			],
			"devdoc": {
				"errors": {
					"ERC20InsufficientAllowance(address,uint256,uint256)": [
						{
							"details": "Indicates a failure with the `spender`’s `allowance`. Used in transfers.",
							"params": {
								"allowance": "Amount of tokens a `spender` is allowed to operate with.",
								"needed": "Minimum amount required to perform a transfer.",
								"spender": "Address that may be allowed to operate on tokens without being their owner."
							}
						}
					],
					"ERC20InsufficientBalance(address,uint256,uint256)": [
						{
							"details": "Indicates an error related to the current `balance` of a `sender`. Used in transfers.",
							"params": {
								"balance": "Current balance for the interacting account.",
								"needed": "Minimum amount required to perform a transfer.",
								"sender": "Address whose tokens are being transferred."
							}
						}
					],
					"ERC20InvalidApprover(address)": [
						{
							"details": "Indicates a failure with the `approver` of a token to be approved. Used in approvals.",
							"params": {
								"approver": "Address initiating an approval operation."
							}
						}
					],
					"ERC20InvalidReceiver(address)": [
						{
							"details": "Indicates a failure with the token `receiver`. Used in transfers.",
							"params": {
								"receiver": "Address to which tokens are being transferred."
							}
						}
					],
					"ERC20InvalidSender(address)": [
						{
							"details": "Indicates a failure with the token `sender`. Used in transfers.",
							"params": {
								"sender": "Address whose tokens are being transferred."
							}
						}
					],
					"ERC20InvalidSpender(address)": [
						{
							"details": "Indicates a failure with the `spender` to be approved. Used in approvals.",
							"params": {
								"spender": "Address that may be allowed to operate on tokens without being their owner."
							}
						}
					]
				},
				"events": {
					"Approval(address,address,uint256)": {
						"details": "Emitted when the allowance of a `spender` for an `owner` is set by a call to {approve}. `value` is the new allowance."
					},
					"Transfer(address,address,uint256)": {
						"details": "Emitted when `value` tokens are moved from one account (`from`) to another (`to`). Note that `value` may be zero."
					}
				},
				"kind": "dev",
				"methods": {
					"allowance(address,address)": {
						"details": "See {IERC20-allowance}."
					},
					"approve(address,uint256)": {
						"details": "See {IERC20-approve}. NOTE: If `value` is the maximum `uint256`, the allowance is not updated on `transferFrom`. This is semantically equivalent to an infinite approval. Requirements: - `spender` cannot be the zero address."
					},
					"decimals()": {
						"details": "Returns the number of decimals used to get its user representation. For example, if `decimals` equals `2`, a balance of `505` tokens should be displayed to a user as `5.05` (`505 / 10 ** 2`). Tokens usually opt for a value of 18, imitating the relationship between Ether and Wei. This is the default value returned by this function, unless it's overridden. NOTE: This information is only used for _display_ purposes: it in no way affects any of the arithmetic of the contract, including {IERC20-balanceOf} and {IERC20-transfer}."
					},
					"name()": {
						"details": "Returns the name of the token."
					},
					"symbol()": {
						"details": "Returns the symbol of the token, usually a shorter version of the name."
					},
					"totalSupply()": {
						"details": "See {IERC20-totalSupply}."
					},
					"transfer(address,uint256)": {
						"details": "See {IERC20-transfer}. Requirements: - `to` cannot be the zero address. - the caller must have a balance of at least `value`."
					},
					"transferFrom(address,address,uint256)": {
						"details": "See {IERC20-transferFrom}. Skips emitting an {Approval} event indicating an allowance update. This is not required by the ERC. See {xref-ERC20-_approve-address-address-uint256-bool-}[_approve]. NOTE: Does not update the allowance if the current allowance is the maximum `uint256`. Requirements: - `from` and `to` cannot be the zero address. - `from` must have a balance of at least `value`. - the caller must have allowance for ``from``'s tokens of at least `value`."
					}
				},
				"version": 1
			},
			"evm": {
				"assembly": "    /* \"src/mocks/MockStETH.sol\":252:3429  contract MockStETH is ERC20 {... */\n  mstore(0x40, 0x80)\n    /* \"src/mocks/MockStETH.sol\":1409:1659  constructor() ERC20(\"Liquid staked Ether 2.0\", \"stETH\") {... */\n  callvalue\n  dup1\n  iszero\n  tag_1\n  jumpi\n  revert(0x00, 0x00)\ntag_1:\n  pop\n    /* \"lib/openzeppelin-contracts/contracts/token/ERC20/ERC20.sol\":1601:1714  constructor(string memory name_, string memory symbol_) {... */\n  mload(0x40)\n  dup1\n  0x40\n  add\n  0x40\n  mstore\n  dup1\n  0x17\n  dup2\n  mstore\n  0x20\n  add\n  0x4c6971756964207374616b656420457468657220322e30000000000000000000\n  dup2\n  mstore\n  pop\n  mload(0x40)\n  dup1\n  0x40\n  add\n  0x40\n  mstore\n  dup1\n  0x05\n  dup2\n  mstore\n  0x20\n  add\n  shl(0xdb, 0x0e6e88aa89)\n  dup2\n  mstore\n  pop\n    /* \"lib/openzeppelin-contracts/contracts/token/ERC20/ERC20.sol\":1675:1680  name_ */\n  dup2\n    /* \"lib/openzeppelin-contracts/contracts/token/ERC20/ERC20.sol\":1667:1672  _name */\n  0x03\n    /* \"lib/openzeppelin-contracts/contracts/token/ERC20/ERC20.sol\":1667:1680  _name = name_ */\n  swap1\n  dup2\n  tag_5\n  swap2\n  swap1\n  tag_6\n  jump\t// in\ntag_5:\n  pop\n    /* \"lib/openzeppelin-contracts/contracts/token/ERC20/ERC20.sol\":1690:1697  _symbol */\n  0x04\n    /* \"lib/openzeppelin-contracts/contracts/token/ERC20/ERC20.sol\":1690:1707  _symbol = symbol_ */\n  tag_7\n    /* \"lib/openzeppelin-contracts/contracts/token/ERC20/ERC20.sol\":1700:1707  symbol_ */\n  dup3\n    /* \"lib/openzeppelin-contracts/contracts/token/ERC20/ERC20.sol\":1690:1697  _symbol */\n  dup3\n    /* \"lib/openzeppelin-contracts/contracts/token/ERC20/ERC20.sol\":1690:1707  _symbol = symbol_ */\n  tag_6\n  jump\t// in\ntag_7:\n  pop\n    /* \"lib/openzeppelin-contracts/contracts/token/ERC20/ERC20.sol\":1601:1714  constructor(string memory name_, string memory symbol_) {... */\n  pop\n  pop\n    /* \"src/mocks/MockStETH.sol\":1518:1547  _mint(msg.sender, 1000 ether) */\n  tag_9\n    /* \"src/mocks/MockStETH.sol\":1524:1534  msg.sender */\n  caller\n    /* \"src/mocks/MockStETH.sol\":1536:1546  1000 ether */\n  0x3635c9adc5dea00000\n    /* \"src/mocks/MockStETH.sol\":1518:1523  _mint */\n  shl(0x20, tag_10)\n    /* \"src/mocks/MockStETH.sol\":1518:1547  _mint(msg.sender, 1000 ether) */\n  0x20\n  shr\n  jump\t// in\ntag_9:\n    /* \"src/mocks/MockStETH.sol\":1557:1591  _setShares(msg.sender, 1000 ether) */\n  tag_11\n    /* \"src/mocks/MockStETH.sol\":1568:1578  msg.sender */\n  caller\n    /* \"src/mocks/MockStETH.sol\":1580:1590  1000 ether */\n  0x3635c9adc5dea00000\n    /* \"src/mocks/MockStETH.sol\":1557:1567  _setShares */\n  tag_12\n    /* \"src/mocks/MockStETH.sol\":1557:1591  _setShares(msg.sender, 1000 ether) */\n  jump\t// in\ntag_11:\n    /* \"src/mocks/MockStETH.sol\":1641:1651  1000 ether */\n  0x3635c9adc5dea00000\n    /* \"src/mocks/MockStETH.sol\":380:446  0xe3b4b636e601189b5f4c6742edf2538ac12bb61ed03e6da26949d69838fa447e */\n  0xe3b4b636e601189b5f4c6742edf2538ac12bb61ed03e6da26949d69838fa447e\n    /* \"src/mocks/DummyStorage.sol\":1263:1285  sstore(position, data) */\n  sstore\n    /* \"src/mocks/MockStETH.sol\":252:3429  contract MockStETH is ERC20 {... */\n  jump(tag_44)\n    /* \"lib/openzeppelin-contracts/contracts/token/ERC20/ERC20.sol\":7458:7666  function _mint(address account, uint256 value) internal {... */\ntag_10:\n  sub(shl(0xa0, 0x01), 0x01)\n    /* \"lib/openzeppelin-contracts/contracts/token/ERC20/ERC20.sol\":7528:7549  account == address(0) */\n  dup3\n  and\n    /* \"lib/openzeppelin-contracts/contracts/token/ERC20/ERC20.sol\":7524:7615  if (account == address(0)) {... */\n  tag_17\n  jumpi\n    /* \"lib/openzeppelin-contracts/contracts/token/ERC20/ERC20.sol\":7572:7604  ERC20InvalidReceiver(address(0)) */\n  mload(0x40)\n  shl(0xe0, 0xec442f05)\n  dup2\n  mstore\n    /* \"lib/openzeppelin-contracts/contracts/token/ERC20/ERC20.sol\":7601:7602  0 */\n  0x00\n    /* \"lib/openzeppelin-contracts/contracts/token/ERC20/ERC20.sol\":7572:7604  ERC20InvalidReceiver(address(0)) */\n  0x04\n  dup3\n  add\n    /* \"#utility.yul\":2801:2852   */\n  mstore\n    /* \"#utility.yul\":2774:2792   */\n  0x24\n  add\n    /* \"lib/openzeppelin-contracts/contracts/token/ERC20/ERC20.sol\":7572:7604  ERC20InvalidReceiver(address(0)) */\ntag_18:\n  mload(0x40)\n  dup1\n  swap2\n  sub\n  swap1\n  revert\n    /* \"lib/openzeppelin-contracts/contracts/token/ERC20/ERC20.sol\":7524:7615  if (account == address(0)) {... */\ntag_17:\n    /* \"lib/openzeppelin-contracts/contracts/token/ERC20/ERC20.sol\":7624:7659  _update(address(0), account, value) */\n  tag_20\n    /* \"lib/openzeppelin-contracts/contracts/token/ERC20/ERC20.sol\":7640:7641  0 */\n  0x00\n    /* \"lib/openzeppelin-contracts/contracts/token/ERC20/ERC20.sol\":7644:7651  account */\n  dup4\n    /* \"lib/openzeppelin-contracts/contracts/token/ERC20/ERC20.sol\":7653:7658  value */\n  dup4\n    /* \"lib/openzeppelin-contracts/contracts/token/ERC20/ERC20.sol\":7624:7631  _update */\n  tag_21\n    /* \"lib/openzeppelin-contracts/contracts/token/ERC20/ERC20.sol\":7624:7659  _update(address(0), account, value) */\n  jump\t// in\ntag_20:\n    /* \"lib/openzeppelin-contracts/contracts/token/ERC20/ERC20.sol\":7458:7666  function _mint(address account, uint256 value) internal {... */\n  pop\n  pop\n  jump\t// out\n    /* \"src/mocks/MockStETH.sol\":3215:3427  function _setShares(address _account, uint256 _amount) internal {... */\ntag_12:\n    /* \"src/mocks/MockStETH.sol\":3314:3357  abi.encodePacked(_account, SHARES_POSITION) */\n  mload(0x40)\n  not(sub(shl(0x60, 0x01), 0x01))\n    /* \"#utility.yul\":3065:3067   */\n  0x60\n    /* \"#utility.yul\":3036:3051   */\n  dup5\n  swap1\n  shl\n    /* \"#utility.yul\":3032:3077   */\n  and\n    /* \"src/mocks/MockStETH.sol\":3314:3357  abi.encodePacked(_account, SHARES_POSITION) */\n  0x20\n  dup3\n  add\n    /* \"#utility.yul\":3020:3078   */\n  mstore\n    /* \"src/mocks/MockStETH.sol\":1273:1303  keccak256(\"lido.StETH.shares\") */\n  0x101b73cb67a778893ea0c666939f8923c501a5d4cd59d1ecf919b502247b5b0c\n    /* \"#utility.yul\":3094:3106   */\n  0x34\n  dup3\n  add\n    /* \"#utility.yul\":3087:3115   */\n  mstore\n    /* \"src/mocks/MockStETH.sol\":3289:3301  bytes32 slot */\n  0x00\n  swap1\n    /* \"#utility.yul\":3131:3143   */\n  0x54\n  add\n    /* \"src/mocks/MockStETH.sol\":3314:3357  abi.encodePacked(_account, SHARES_POSITION) */\n  mload(0x40)\n  0x20\n  dup2\n  dup4\n  sub\n  sub\n  dup2\n  mstore\n  swap1\n  0x40\n  mstore\n    /* \"src/mocks/MockStETH.sol\":3304:3358  keccak256(abi.encodePacked(_account, SHARES_POSITION)) */\n  dup1\n  mload\n  swap1\n  0x20\n  add\n  keccak256\n    /* \"src/mocks/MockStETH.sol\":3289:3358  bytes32 slot = keccak256(abi.encodePacked(_account, SHARES_POSITION)) */\n  swap1\n  pop\n    /* \"src/mocks/MockStETH.sol\":3368:3420  UnstructuredStorage.setStorageUint256(slot, _amount) */\n  tag_25\n    /* \"src/mocks/MockStETH.sol\":3406:3410  slot */\n  dup2\n    /* \"src/mocks/MockStETH.sol\":3412:3419  _amount */\n  dup4\n    /* \"src/mocks/MockStETH.sol\":3368:3405  UnstructuredStorage.setStorageUint256 */\n  shl(0x20, tag_14)\n    /* \"src/mocks/MockStETH.sol\":3368:3420  UnstructuredStorage.setStorageUint256(slot, _amount) */\n  0x20\n  shr\n  jump\t// in\ntag_25:\n    /* \"src/mocks/MockStETH.sol\":3279:3427  {... */\n  pop\n    /* \"src/mocks/MockStETH.sol\":3215:3427  function _setShares(address _account, uint256 _amount) internal {... */\n  pop\n  pop\n  jump\t// out\n    /* \"src/mocks/DummyStorage.sol\":1162:1301  function setStorageUint256(bytes32 position, uint256 data) internal {... */\ntag_14:\n    /* \"src/mocks/DummyStorage.sol\":1263:1285  sstore(position, data) */\n  swap1\n  sstore\n    /* \"src/mocks/DummyStorage.sol\":1162:1301  function setStorageUint256(bytes32 position, uint256 data) internal {... */\n  jump\t// out\n    /* \"lib/openzeppelin-contracts/contracts/token/ERC20/ERC20.sol\":6008:7115  function _update(address from, address to, uint256 value) internal virtual {... */\ntag_21:\n  sub(shl(0xa0, 0x01), 0x01)\n    /* \"lib/openzeppelin-contracts/contracts/token/ERC20/ERC20.sol\":6097:6115  from == address(0) */\n  dup4\n  and\n    /* \"lib/openzeppelin-contracts/contracts/token/ERC20/ERC20.sol\":6093:6633  if (from == address(0)) {... */\n  tag_28\n  jumpi\n    /* \"lib/openzeppelin-contracts/contracts/token/ERC20/ERC20.sol\":6249:6254  value */\n  dup1\n    /* \"lib/openzeppelin-contracts/contracts/token/ERC20/ERC20.sol\":6233:6245  _totalSupply */\n  0x02\n  0x00\n    /* \"lib/openzeppelin-contracts/contracts/token/ERC20/ERC20.sol\":6233:6254  _totalSupply += value */\n  dup3\n  dup3\n  sload\n  tag_29\n  swap2\n  swap1\n  tag_30\n  jump\t// in\ntag_29:\n  swap1\n  swap2\n  sstore\n  pop\n    /* \"lib/openzeppelin-contracts/contracts/token/ERC20/ERC20.sol\":6093:6633  if (from == address(0)) {... */\n  tag_31\n  swap1\n  pop\n  jump\ntag_28:\n  sub(shl(0xa0, 0x01), 0x01)\n    /* \"lib/openzeppelin-contracts/contracts/token/ERC20/ERC20.sol\":6307:6322  _balances[from] */\n  dup4\n  and\n    /* \"lib/openzeppelin-contracts/contracts/token/ERC20/ERC20.sol\":6285:6304  uint256 fromBalance */\n  0x00\n    /* \"lib/openzeppelin-contracts/contracts/token/ERC20/ERC20.sol\":6307:6322  _balances[from] */\n  swap1\n  dup2\n  mstore\n  0x20\n  dup2\n  swap1\n  mstore\n  0x40\n  swap1\n  keccak256\n  sload\n    /* \"lib/openzeppelin-contracts/contracts/token/ERC20/ERC20.sol\":6340:6359  fromBalance < value */\n  dup2\n  dup2\n  lt\n    /* \"lib/openzeppelin-contracts/contracts/token/ERC20/ERC20.sol\":6336:6451  if (fromBalance < value) {... */\n  iszero\n  tag_32\n  jumpi\n    /* \"lib/openzeppelin-contracts/contracts/token/ERC20/ERC20.sol\":6386:6436  ERC20InsufficientBalance(from, fromBalance, value) */\n  mload(0x40)\n  shl(0xe2, 0x391434e3)\n  dup2\n  mstore\n  sub(shl(0xa0, 0x01), 0x01)\n    /* \"#utility.yul\":3601:3633   */\n  dup6\n  and\n    /* \"lib/openzeppelin-contracts/contracts/token/ERC20/ERC20.sol\":6386:6436  ERC20InsufficientBalance(from, fromBalance, value) */\n  0x04\n  dup3\n  add\n    /* \"#utility.yul\":3583:3634   */\n  mstore\n    /* \"#utility.yul\":3650:3668   */\n  0x24\n  dup2\n  add\n    /* \"#utility.yul\":3643:3677   */\n  dup3\n  swap1\n  mstore\n    /* \"#utility.yul\":3693:3711   */\n  0x44\n  dup2\n  add\n    /* \"#utility.yul\":3686:3720   */\n  dup4\n  swap1\n  mstore\n    /* \"#utility.yul\":3556:3574   */\n  0x64\n  add\n    /* \"lib/openzeppelin-contracts/contracts/token/ERC20/ERC20.sol\":6386:6436  ERC20InsufficientBalance(from, fromBalance, value) */\n  tag_18\n    /* \"#utility.yul\":3381:3726   */\n  jump\n    /* \"lib/openzeppelin-contracts/contracts/token/ERC20/ERC20.sol\":6336:6451  if (fromBalance < value) {... */\ntag_32:\n  sub(shl(0xa0, 0x01), 0x01)\n    /* \"lib/openzeppelin-contracts/contracts/token/ERC20/ERC20.sol\":6571:6586  _balances[from] */\n  dup5\n  and\n    /* \"lib/openzeppelin-contracts/contracts/token/ERC20/ERC20.sol\":6571:6580  _balances */\n  0x00\n    /* \"lib/openzeppelin-contracts/contracts/token/ERC20/ERC20.sol\":6571:6586  _balances[from] */\n  swap1\n  dup2\n  mstore\n  0x20\n  dup2\n  swap1\n  mstore\n  0x40\n  swap1\n  keccak256\n    /* \"lib/openzeppelin-contracts/contracts/token/ERC20/ERC20.sol\":6589:6608  fromBalance - value */\n  swap1\n  dup3\n  swap1\n  sub\n    /* \"lib/openzeppelin-contracts/contracts/token/ERC20/ERC20.sol\":6571:6608  _balances[from] = fromBalance - value */\n  swap1\n  sstore\n    /* \"lib/openzeppelin-contracts/contracts/token/ERC20/ERC20.sol\":6093:6633  if (from == address(0)) {... */\ntag_31:\n  sub(shl(0xa0, 0x01), 0x01)\n    /* \"lib/openzeppelin-contracts/contracts/token/ERC20/ERC20.sol\":6647:6663  to == address(0) */\n  dup3\n  and\n    /* \"lib/openzeppelin-contracts/contracts/token/ERC20/ERC20.sol\":6643:7068  if (to == address(0)) {... */\n  tag_35\n  jumpi\n    /* \"lib/openzeppelin-contracts/contracts/token/ERC20/ERC20.sol\":6810:6822  _totalSupply */\n  0x02\n    /* \"lib/openzeppelin-contracts/contracts/token/ERC20/ERC20.sol\":6810:6831  _totalSupply -= value */\n  dup1\n  sload\n  dup3\n  swap1\n  sub\n  swap1\n  sstore\n    /* \"lib/openzeppelin-contracts/contracts/token/ERC20/ERC20.sol\":6643:7068  if (to == address(0)) {... */\n  jump(tag_36)\ntag_35:\n  sub(shl(0xa0, 0x01), 0x01)\n    /* \"lib/openzeppelin-contracts/contracts/token/ERC20/ERC20.sol\":7021:7034  _balances[to] */\n  dup3\n  and\n    /* \"lib/openzeppelin-contracts/contracts/token/ERC20/ERC20.sol\":7021:7030  _balances */\n  0x00\n    /* \"lib/openzeppelin-contracts/contracts/token/ERC20/ERC20.sol\":7021:7034  _balances[to] */\n  swap1\n  dup2\n  mstore\n  0x20\n  dup2\n  swap1\n  mstore\n  0x40\n  swap1\n  keccak256\n    /* \"lib/openzeppelin-contracts/contracts/token/ERC20/ERC20.sol\":7021:7043  _balances[to] += value */\n  dup1\n  sload\n  dup3\n  add\n  swap1\n  sstore\n    /* \"lib/openzeppelin-contracts/contracts/token/ERC20/ERC20.sol\":6643:7068  if (to == address(0)) {... */\ntag_36:\n    /* \"lib/openzeppelin-contracts/contracts/token/ERC20/ERC20.sol\":7098:7100  to */\n  dup2\n  sub(shl(0xa0, 0x01), 0x01)\n    /* \"lib/openzeppelin-contracts/contracts/token/ERC20/ERC20.sol\":7083:7108  Transfer(from, to, value) */\n  and\n    /* \"lib/openzeppelin-contracts/contracts/token/ERC20/ERC20.sol\":7092:7096  from */\n  dup4\n  sub(shl(0xa0, 0x01), 0x01)\n    /* \"lib/openzeppelin-contracts/contracts/token/ERC20/ERC20.sol\":7083:7108  Transfer(from, to, value) */\n  and\n  0xddf252ad1be2c89b69c2b068fc378daa952ba7f163c4a11628f55a4df523b3ef\n    /* \"lib/openzeppelin-contracts/contracts/token/ERC20/ERC20.sol\":7102:7107  value */\n  dup4\n    /* \"lib/openzeppelin-contracts/contracts/token/ERC20/ERC20.sol\":7083:7108  Transfer(from, to, value) */\n  mload(0x40)\n  tag_37\n  swap2\n    /* \"#utility.yul\":3877:3902   */\n  dup2\n  mstore\n    /* \"#utility.yul\":3865:3867   */\n  0x20\n    /* \"#utility.yul\":3850:3868   */\n  add\n  swap1\n    /* \"#utility.yul\":3731:3908   */\n  jump\n    /* \"lib/openzeppelin-contracts/contracts/token/ERC20/ERC20.sol\":7083:7108  Transfer(from, to, value) */\ntag_37:\n  mload(0x40)\n  dup1\n  swap2\n  sub\n  swap1\n  log3\n    /* \"lib/openzeppelin-contracts/contracts/token/ERC20/ERC20.sol\":6008:7115  function _update(address from, address to, uint256 value) internal virtual {... */\n  pop\n  pop\n  pop\n  jump\t// out\n    /* \"#utility.yul\":14:141   */\ntag_39:\n    /* \"#utility.yul\":75:85   */\n  0x4e487b71\n    /* \"#utility.yul\":70:73   */\n  0xe0\n    /* \"#utility.yul\":66:86   */\n  shl\n    /* \"#utility.yul\":63:64   */\n  0x00\n    /* \"#utility.yul\":56:87   */\n  mstore\n    /* \"#utility.yul\":106:110   */\n  0x41\n    /* \"#utility.yul\":103:104   */\n  0x04\n    /* \"#utility.yul\":96:111   */\n  mstore\n    /* \"#utility.yul\":130:134   */\n  0x24\n    /* \"#utility.yul\":127:128   */\n  0x00\n    /* \"#utility.yul\":120:135   */\n  revert\n    /* \"#utility.yul\":146:526   */\ntag_40:\n    /* \"#utility.yul\":225:226   */\n  0x01\n    /* \"#utility.yul\":221:233   */\n  dup2\n  dup2\n  shr\n  swap1\n    /* \"#utility.yul\":268:280   */\n  dup3\n  and\n  dup1\n    /* \"#utility.yul\":289:350   */\n  tag_47\n  jumpi\n    /* \"#utility.yul\":343:347   */\n  0x7f\n    /* \"#utility.yul\":335:341   */\n  dup3\n    /* \"#utility.yul\":331:348   */\n  and\n    /* \"#utility.yul\":321:348   */\n  swap2\n  pop\n    /* \"#utility.yul\":289:350   */\ntag_47:\n    /* \"#utility.yul\":396:398   */\n  0x20\n    /* \"#utility.yul\":388:394   */\n  dup3\n    /* \"#utility.yul\":385:399   */\n  lt\n    /* \"#utility.yul\":365:383   */\n  dup2\n    /* \"#utility.yul\":362:400   */\n  sub\n    /* \"#utility.yul\":359:520   */\n  tag_48\n  jumpi\n    /* \"#utility.yul\":442:452   */\n  0x4e487b71\n    /* \"#utility.yul\":437:440   */\n  0xe0\n    /* \"#utility.yul\":433:453   */\n  shl\n    /* \"#utility.yul\":430:431   */\n  0x00\n    /* \"#utility.yul\":423:454   */\n  mstore\n    /* \"#utility.yul\":477:481   */\n  0x22\n    /* \"#utility.yul\":474:475   */\n  0x04\n    /* \"#utility.yul\":467:482   */\n  mstore\n    /* \"#utility.yul\":505:509   */\n  0x24\n    /* \"#utility.yul\":502:503   */\n  0x00\n    /* \"#utility.yul\":495:510   */\n  revert\n    /* \"#utility.yul\":359:520   */\ntag_48:\n  pop\n    /* \"#utility.yul\":146:526   */\n  swap2\n  swap1\n  pop\n  jump\t// out\n    /* \"#utility.yul\":657:1175   */\ntag_42:\n    /* \"#utility.yul\":759:761   */\n  0x1f\n    /* \"#utility.yul\":754:757   */\n  dup3\n    /* \"#utility.yul\":751:762   */\n  gt\n    /* \"#utility.yul\":748:1169   */\n  iszero\n  tag_25\n  jumpi\n    /* \"#utility.yul\":795:800   */\n  dup1\n    /* \"#utility.yul\":792:793   */\n  0x00\n    /* \"#utility.yul\":785:801   */\n  mstore\n    /* \"#utility.yul\":839:843   */\n  0x20\n    /* \"#utility.yul\":836:837   */\n  0x00\n    /* \"#utility.yul\":826:844   */\n  keccak256\n    /* \"#utility.yul\":909:911   */\n  0x1f\n    /* \"#utility.yul\":897:907   */\n  dup5\n    /* \"#utility.yul\":893:912   */\n  add\n    /* \"#utility.yul\":890:891   */\n  0x05\n    /* \"#utility.yul\":886:913   */\n  shr\n    /* \"#utility.yul\":880:884   */\n  dup2\n    /* \"#utility.yul\":876:914   */\n  add\n    /* \"#utility.yul\":945:949   */\n  0x20\n    /* \"#utility.yul\":933:943   */\n  dup6\n    /* \"#utility.yul\":930:950   */\n  lt\n    /* \"#utility.yul\":927:974   */\n  iszero\n  tag_52\n  jumpi\n  pop\n    /* \"#utility.yul\":968:972   */\n  dup1\n    /* \"#utility.yul\":927:974   */\ntag_52:\n    /* \"#utility.yul\":1023:1025   */\n  0x1f\n    /* \"#utility.yul\":1018:1021   */\n  dup5\n    /* \"#utility.yul\":1014:1026   */\n  add\n    /* \"#utility.yul\":1011:1012   */\n  0x05\n    /* \"#utility.yul\":1007:1027   */\n  shr\n    /* \"#utility.yul\":1001:1005   */\n  dup3\n    /* \"#utility.yul\":997:1028   */\n  add\n    /* \"#utility.yul\":987:1028   */\n  swap2\n  pop\n    /* \"#utility.yul\":1078:1159   */\ntag_53:\n    /* \"#utility.yul\":1096:1098   */\n  dup2\n    /* \"#utility.yul\":1089:1094   */\n  dup2\n    /* \"#utility.yul\":1086:1099   */\n  lt\n    /* \"#utility.yul\":1078:1159   */\n  iszero\n  tag_55\n  jumpi\n    /* \"#utility.yul\":1155:1156   */\n  0x00\n    /* \"#utility.yul\":1141:1157   */\n  dup2\n  sstore\n    /* \"#utility.yul\":1122:1123   */\n  0x01\n    /* \"#utility.yul\":1111:1124   */\n  add\n    /* \"#utility.yul\":1078:1159   */\n  jump(tag_53)\ntag_55:\n    /* \"#utility.yul\":1082:1085   */\n  pop\n  pop\n    /* \"#utility.yul\":657:1175   */\n  pop\n  pop\n  pop\n  jump\t// out\n    /* \"#utility.yul\":1351:2650   */\ntag_6:\n    /* \"#utility.yul\":1471:1481   */\n  dup2\n  mload\n  sub(shl(0x40, 0x01), 0x01)\n    /* \"#utility.yul\":1493:1523   */\n  dup2\n  gt\n    /* \"#utility.yul\":1490:1546   */\n  iszero\n  tag_59\n  jumpi\n    /* \"#utility.yul\":1526:1544   */\n  tag_59\n  tag_39\n  jump\t// in\ntag_59:\n    /* \"#utility.yul\":1555:1652   */\n  tag_60\n    /* \"#utility.yul\":1645:1651   */\n  dup2\n    /* \"#utility.yul\":1605:1643   */\n  tag_61\n    /* \"#utility.yul\":1637:1641   */\n  dup5\n    /* \"#utility.yul\":1631:1642   */\n  sload\n    /* \"#utility.yul\":1605:1643   */\n  tag_40\n  jump\t// in\ntag_61:\n    /* \"#utility.yul\":1599:1603   */\n  dup5\n    /* \"#utility.yul\":1555:1652   */\n  tag_42\n  jump\t// in\ntag_60:\n    /* \"#utility.yul\":1701:1705   */\n  0x20\n    /* \"#utility.yul\":1732:1734   */\n  0x1f\n    /* \"#utility.yul\":1721:1735   */\n  dup3\n  gt\n    /* \"#utility.yul\":1749:1750   */\n  0x01\n    /* \"#utility.yul\":1744:2393   */\n  dup2\n  eq\n  tag_63\n  jumpi\n    /* \"#utility.yul\":2437:2438   */\n  0x00\n    /* \"#utility.yul\":2454:2460   */\n  dup4\n    /* \"#utility.yul\":2451:2540   */\n  iszero\n  tag_64\n  jumpi\n  pop\n    /* \"#utility.yul\":2506:2525   */\n  dup5\n  dup3\n  add\n    /* \"#utility.yul\":2500:2526   */\n  mload\n    /* \"#utility.yul\":2451:2540   */\ntag_64:\n  not(0x00)\n    /* \"#utility.yul\":1308:1309   */\n  0x03\n    /* \"#utility.yul\":1304:1315   */\n  dup6\n  swap1\n  shl\n    /* \"#utility.yul\":1300:1324   */\n  shr\n    /* \"#utility.yul\":1296:1325   */\n  not\n    /* \"#utility.yul\":1286:1326   */\n  and\n    /* \"#utility.yul\":1332:1333   */\n  0x01\n    /* \"#utility.yul\":1328:1339   */\n  dup5\n  swap1\n  shl\n    /* \"#utility.yul\":1283:1340   */\n  or\n    /* \"#utility.yul\":2553:2634   */\n  dup5\n  sstore\n    /* \"#utility.yul\":1714:2644   */\n  jump(tag_55)\n    /* \"#utility.yul\":1744:2393   */\ntag_63:\n    /* \"#utility.yul\":604:605   */\n  0x00\n    /* \"#utility.yul\":597:611   */\n  dup5\n  dup2\n  mstore\n    /* \"#utility.yul\":641:645   */\n  0x20\n    /* \"#utility.yul\":628:646   */\n  dup2\n  keccak256\n  not(0x1f)\n    /* \"#utility.yul\":1780:1800   */\n  dup6\n  and\n  swap2\n    /* \"#utility.yul\":1898:2120   */\ntag_67:\n    /* \"#utility.yul\":1912:1919   */\n  dup3\n    /* \"#utility.yul\":1909:1910   */\n  dup2\n    /* \"#utility.yul\":1906:1920   */\n  lt\n    /* \"#utility.yul\":1898:2120   */\n  iszero\n  tag_69\n  jumpi\n    /* \"#utility.yul\":1994:2013   */\n  dup8\n  dup6\n  add\n    /* \"#utility.yul\":1988:2014   */\n  mload\n    /* \"#utility.yul\":1973:2015   */\n  dup3\n  sstore\n    /* \"#utility.yul\":2101:2105   */\n  0x20\n    /* \"#utility.yul\":2086:2106   */\n  swap5\n  dup6\n  add\n  swap5\n    /* \"#utility.yul\":2054:2055   */\n  0x01\n    /* \"#utility.yul\":2042:2056   */\n  swap1\n  swap3\n  add\n  swap2\n    /* \"#utility.yul\":1928:1940   */\n  add\n    /* \"#utility.yul\":1898:2120   */\n  jump(tag_67)\ntag_69:\n    /* \"#utility.yul\":1902:1905   */\n  pop\n    /* \"#utility.yul\":2148:2154   */\n  dup5\n    /* \"#utility.yul\":2139:2146   */\n  dup3\n    /* \"#utility.yul\":2136:2155   */\n  lt\n    /* \"#utility.yul\":2133:2334   */\n  iszero\n  tag_70\n  jumpi\n    /* \"#utility.yul\":2209:2228   */\n  dup7\n  dup5\n  add\n    /* \"#utility.yul\":2203:2229   */\n  mload\n  not(0x00)\n    /* \"#utility.yul\":2292:2293   */\n  0x03\n    /* \"#utility.yul\":2288:2302   */\n  dup8\n  swap1\n  shl\n    /* \"#utility.yul\":2304:2307   */\n  0xf8\n    /* \"#utility.yul\":2284:2308   */\n  and\n    /* \"#utility.yul\":2280:2317   */\n  shr\n    /* \"#utility.yul\":2276:2318   */\n  not\n    /* \"#utility.yul\":2261:2319   */\n  and\n    /* \"#utility.yul\":2246:2320   */\n  dup2\n  sstore\n    /* \"#utility.yul\":2133:2334   */\ntag_70:\n  pop\n  pop\n  pop\n  pop\n    /* \"#utility.yul\":2380:2381   */\n  0x01\n    /* \"#utility.yul\":2364:2378   */\n  swap1\n  dup2\n  shl\n    /* \"#utility.yul\":2360:2382   */\n  add\n    /* \"#utility.yul\":2347:2383   */\n  swap1\n  sstore\n  pop\n    /* \"#utility.yul\":1351:2650   */\n  jump\t// out\n    /* \"#utility.yul\":3154:3376   */\ntag_30:\n    /* \"#utility.yul\":3219:3228   */\n  dup1\n  dup3\n  add\n    /* \"#utility.yul\":3240:3250   */\n  dup1\n  dup3\n  gt\n    /* \"#utility.yul\":3237:3370   */\n  iszero\n  tag_74\n  jumpi\n    /* \"#utility.yul\":3292:3302   */\n  0x4e487b71\n    /* \"#utility.yul\":3287:3290   */\n  0xe0\n    /* \"#utility.yul\":3283:3303   */\n  shl\n    /* \"#utility.yul\":3280:3281   */\n  0x00\n    /* \"#utility.yul\":3273:3304   */\n  mstore\n    /* \"#utility.yul\":3327:3331   */\n  0x11\n    /* \"#utility.yul\":3324:3325   */\n  0x04\n    /* \"#utility.yul\":3317:3332   */\n  mstore\n    /* \"#utility.yul\":3355:3359   */\n  0x24\n    /* \"#utility.yul\":3352:3353   */\n  0x00\n    /* \"#utility.yul\":3345:3360   */\n  revert\n    /* \"#utility.yul\":3237:3370   */\ntag_74:\n    /* \"#utility.yul\":3154:3376   */\n  swap3\n  swap2\n  pop\n  pop\n  jump\t// out\n    /* \"#utility.yul\":3731:3908   */\ntag_44:\n    /* \"src/mocks/MockStETH.sol\":252:3429  contract MockStETH is ERC20 {... */\n  dataSize(sub_0)\n  dup1\n  dataOffset(sub_0)\n  0x00\n  codecopy\n  0x00\n  return\nstop\n\nsub_0: assembly {\n        /* \"src/mocks/MockStETH.sol\":252:3429  contract MockStETH is ERC20 {... */\n      mstore(0x40, 0x80)\n      jumpi(tag_1, lt(calldatasize, 0x04))\n      shr(0xe0, calldataload(0x00))\n      dup1\n      0x5bcb2fc6\n      gt\n      tag_17\n      jumpi\n      dup1\n      0xa9059cbb\n      gt\n      tag_18\n      jumpi\n      dup1\n      0xa9059cbb\n      eq\n      tag_13\n      jumpi\n      dup1\n      0xd5002f2e\n      eq\n      tag_14\n      jumpi\n      dup1\n      0xdd62ed3e\n      eq\n      tag_15\n      jumpi\n      dup1\n      0xf5eb42dc\n      eq\n      tag_16\n      jumpi\n      revert(0x00, 0x00)\n    tag_18:\n      dup1\n      0x5bcb2fc6\n      eq\n      tag_9\n      jumpi\n      dup1\n      0x70a08231\n      eq\n      tag_10\n      jumpi\n      dup1\n      0x7a28fb88\n      eq\n      tag_11\n      jumpi\n      dup1\n      0x95d89b41\n      eq\n      tag_12\n      jumpi\n      revert(0x00, 0x00)\n    tag_17:\n      dup1\n      0x19208451\n      gt\n      tag_19\n      jumpi\n      dup1\n      0x19208451\n      eq\n      tag_5\n      jumpi\n      dup1\n      0x23b872dd\n      eq\n      tag_6\n      jumpi\n      dup1\n      0x313ce567\n      eq\n      tag_7\n      jumpi\n      dup1\n      0x59974e38\n      eq\n      tag_8\n      jumpi\n      revert(0x00, 0x00)\n    tag_19:\n      dup1\n      0x06fdde03\n      eq\n      tag_2\n      jumpi\n      dup1\n      0x095ea7b3\n      eq\n      tag_3\n      jumpi\n      dup1\n      0x18160ddd\n      eq\n      tag_4\n      jumpi\n    tag_1:\n      revert(0x00, 0x00)\n        /* \"lib/openzeppelin-contracts/contracts/token/ERC20/ERC20.sol\":1779:1868  function name() public view virtual returns (string memory) {... */\n    tag_2:\n      callvalue\n      dup1\n      iszero\n      tag_20\n      jumpi\n      revert(0x00, 0x00)\n    tag_20:\n      pop\n      tag_21\n      tag_22\n      jump\t// in\n    tag_21:\n      mload(0x40)\n      tag_23\n      swap2\n      swap1\n      tag_24\n      jump\t// in\n    tag_23:\n      mload(0x40)\n      dup1\n      swap2\n      sub\n      swap1\n      return\n        /* \"lib/openzeppelin-contracts/contracts/token/ERC20/ERC20.sol\":3998:4184  function approve(address spender, uint256 value) public virtual returns (bool) {... */\n    tag_3:\n      callvalue\n      dup1\n      iszero\n      tag_25\n      jumpi\n      revert(0x00, 0x00)\n    tag_25:\n      pop\n      tag_26\n      tag_27\n      calldatasize\n      0x04\n      tag_28\n      jump\t// in\n    tag_27:\n      tag_29\n      jump\t// in\n    tag_26:\n      mload(0x40)\n        /* \"#utility.yul\":1085:1099   */\n      swap1\n      iszero\n        /* \"#utility.yul\":1078:1100   */\n      iszero\n        /* \"#utility.yul\":1060:1101   */\n      dup2\n      mstore\n        /* \"#utility.yul\":1048:1050   */\n      0x20\n        /* \"#utility.yul\":1033:1051   */\n      add\n        /* \"lib/openzeppelin-contracts/contracts/token/ERC20/ERC20.sol\":3998:4184  function approve(address spender, uint256 value) public virtual returns (bool) {... */\n      tag_23\n        /* \"#utility.yul\":920:1107   */\n      jump\n        /* \"lib/openzeppelin-contracts/contracts/token/ERC20/ERC20.sol\":2849:2946  function totalSupply() public view virtual returns (uint256) {... */\n    tag_4:\n      callvalue\n      dup1\n      iszero\n      tag_32\n      jumpi\n      revert(0x00, 0x00)\n    tag_32:\n      pop\n        /* \"lib/openzeppelin-contracts/contracts/token/ERC20/ERC20.sol\":2927:2939  _totalSupply */\n      sload(0x02)\n        /* \"lib/openzeppelin-contracts/contracts/token/ERC20/ERC20.sol\":2849:2946  function totalSupply() public view virtual returns (uint256) {... */\n    tag_33:\n      mload(0x40)\n        /* \"#utility.yul\":1258:1283   */\n      swap1\n      dup2\n      mstore\n        /* \"#utility.yul\":1246:1248   */\n      0x20\n        /* \"#utility.yul\":1231:1249   */\n      add\n        /* \"lib/openzeppelin-contracts/contracts/token/ERC20/ERC20.sol\":2849:2946  function totalSupply() public view virtual returns (uint256) {... */\n      tag_23\n        /* \"#utility.yul\":1112:1289   */\n      jump\n        /* \"src/mocks/MockStETH.sol\":2412:2638  function getSharesByPooledEth(uint256 _ethAmount) public view returns (uint256) {... */\n    tag_5:\n      callvalue\n      dup1\n      iszero\n      tag_37\n      jumpi\n      revert(0x00, 0x00)\n    tag_37:\n      pop\n      tag_33\n      tag_39\n      calldatasize\n      0x04\n      tag_40\n      jump\t// in\n    tag_39:\n      tag_41\n      jump\t// in\n        /* \"lib/openzeppelin-contracts/contracts/token/ERC20/ERC20.sol\":4776:5020  function transferFrom(address from, address to, uint256 value) public virtual returns (bool) {... */\n    tag_6:\n      callvalue\n      dup1\n      iszero\n      tag_43\n      jumpi\n      revert(0x00, 0x00)\n    tag_43:\n      pop\n      tag_26\n      tag_45\n      calldatasize\n      0x04\n      tag_46\n      jump\t// in\n    tag_45:\n      tag_47\n      jump\t// in\n        /* \"lib/openzeppelin-contracts/contracts/token/ERC20/ERC20.sol\":2707:2789  function decimals() public view virtual returns (uint8) {... */\n    tag_7:\n      callvalue\n      dup1\n      iszero\n      tag_49\n      jumpi\n      revert(0x00, 0x00)\n    tag_49:\n      pop\n      mload(0x40)\n        /* \"lib/openzeppelin-contracts/contracts/token/ERC20/ERC20.sol\":2780:2782  18 */\n      0x12\n        /* \"#utility.yul\":2046:2082   */\n      dup2\n      mstore\n        /* \"#utility.yul\":2034:2036   */\n      0x20\n        /* \"#utility.yul\":2019:2037   */\n      add\n        /* \"lib/openzeppelin-contracts/contracts/token/ERC20/ERC20.sol\":2707:2789  function decimals() public view virtual returns (uint8) {... */\n      tag_23\n        /* \"#utility.yul\":1904:2088   */\n      jump\n        /* \"src/mocks/MockStETH.sol\":2876:2987  function distributeRewards(uint256 _rewardAmount) external {... */\n    tag_8:\n      callvalue\n      dup1\n      iszero\n      tag_54\n      jumpi\n      revert(0x00, 0x00)\n    tag_54:\n      pop\n      tag_55\n      tag_56\n      calldatasize\n      0x04\n      tag_40\n      jump\t// in\n    tag_56:\n      tag_57\n      jump\t// in\n    tag_55:\n      stop\n        /* \"src/mocks/MockStETH.sol\":1811:2163  function submit() external payable {... */\n    tag_9:\n      tag_55\n      tag_59\n      jump\t// in\n        /* \"src/mocks/MockStETH.sol\":1665:1805  function balanceOf(address _account) public view override returns (uint256) {... */\n    tag_10:\n      callvalue\n      dup1\n      iszero\n      tag_60\n      jumpi\n      revert(0x00, 0x00)\n    tag_60:\n      pop\n      tag_33\n      tag_62\n      calldatasize\n      0x04\n      tag_63\n      jump\t// in\n    tag_62:\n      tag_64\n      jump\t// in\n        /* \"src/mocks/MockStETH.sol\":2644:2870  function getPooledEthByShares(uint256 _sharesAmount) public view returns (uint256) {... */\n    tag_11:\n      callvalue\n      dup1\n      iszero\n      tag_66\n      jumpi\n      revert(0x00, 0x00)\n    tag_66:\n      pop\n      tag_33\n      tag_68\n      calldatasize\n      0x04\n      tag_40\n      jump\t// in\n    tag_68:\n      tag_69\n      jump\t// in\n        /* \"lib/openzeppelin-contracts/contracts/token/ERC20/ERC20.sol\":1981:2074  function symbol() public view virtual returns (string memory) {... */\n    tag_12:\n      callvalue\n      dup1\n      iszero\n      tag_71\n      jumpi\n      revert(0x00, 0x00)\n    tag_71:\n      pop\n      tag_21\n      tag_73\n      jump\t// in\n        /* \"lib/openzeppelin-contracts/contracts/token/ERC20/ERC20.sol\":3315:3493  function transfer(address to, uint256 value) public virtual returns (bool) {... */\n    tag_13:\n      callvalue\n      dup1\n      iszero\n      tag_75\n      jumpi\n      revert(0x00, 0x00)\n    tag_75:\n      pop\n      tag_26\n      tag_77\n      calldatasize\n      0x04\n      tag_28\n      jump\t// in\n    tag_77:\n      tag_78\n      jump\t// in\n        /* \"src/mocks/MockStETH.sol\":2169:2290  function getTotalShares() public view returns (uint256) {... */\n    tag_14:\n      callvalue\n      dup1\n      iszero\n      tag_80\n      jumpi\n      revert(0x00, 0x00)\n    tag_80:\n      pop\n      tag_33\n      tag_82\n      jump\t// in\n        /* \"lib/openzeppelin-contracts/contracts/token/ERC20/ERC20.sol\":3551:3691  function allowance(address owner, address spender) public view virtual returns (uint256) {... */\n    tag_15:\n      callvalue\n      dup1\n      iszero\n      tag_84\n      jumpi\n      revert(0x00, 0x00)\n    tag_84:\n      pop\n      tag_33\n      tag_86\n      calldatasize\n      0x04\n      tag_87\n      jump\t// in\n    tag_86:\n      sub(shl(0xa0, 0x01), 0x01)\n        /* \"lib/openzeppelin-contracts/contracts/token/ERC20/ERC20.sol\":3657:3675  _allowances[owner] */\n      swap2\n      dup3\n      and\n        /* \"lib/openzeppelin-contracts/contracts/token/ERC20/ERC20.sol\":3631:3638  uint256 */\n      0x00\n        /* \"lib/openzeppelin-contracts/contracts/token/ERC20/ERC20.sol\":3657:3675  _allowances[owner] */\n      swap1\n      dup2\n      mstore\n        /* \"lib/openzeppelin-contracts/contracts/token/ERC20/ERC20.sol\":3657:3668  _allowances */\n      0x01\n        /* \"lib/openzeppelin-contracts/contracts/token/ERC20/ERC20.sol\":3657:3675  _allowances[owner] */\n      0x20\n      swap1\n      dup2\n      mstore\n      0x40\n      dup1\n      dup4\n      keccak256\n        /* \"lib/openzeppelin-contracts/contracts/token/ERC20/ERC20.sol\":3657:3684  _allowances[owner][spender] */\n      swap4\n      swap1\n      swap5\n      and\n      dup3\n      mstore\n      swap2\n      swap1\n      swap2\n      mstore\n      keccak256\n      sload\n      swap1\n        /* \"lib/openzeppelin-contracts/contracts/token/ERC20/ERC20.sol\":3551:3691  function allowance(address owner, address spender) public view virtual returns (uint256) {... */\n      jump\n        /* \"src/mocks/MockStETH.sol\":2296:2406  function sharesOf(address _account) public view returns (uint256) {... */\n    tag_16:\n      callvalue\n      dup1\n      iszero\n      tag_90\n      jumpi\n      revert(0x00, 0x00)\n    tag_90:\n      pop\n      tag_33\n      tag_92\n      calldatasize\n      0x04\n      tag_63\n      jump\t// in\n    tag_92:\n      tag_93\n      jump\t// in\n        /* \"lib/openzeppelin-contracts/contracts/token/ERC20/ERC20.sol\":1779:1868  function name() public view virtual returns (string memory) {... */\n    tag_22:\n        /* \"lib/openzeppelin-contracts/contracts/token/ERC20/ERC20.sol\":1824:1837  string memory */\n      0x60\n        /* \"lib/openzeppelin-contracts/contracts/token/ERC20/ERC20.sol\":1856:1861  _name */\n      0x03\n        /* \"lib/openzeppelin-contracts/contracts/token/ERC20/ERC20.sol\":1849:1861  return _name */\n      dup1\n      sload\n      tag_96\n      swap1\n      tag_97\n      jump\t// in\n    tag_96:\n      dup1\n      0x1f\n      add\n      0x20\n      dup1\n      swap2\n      div\n      mul\n      0x20\n      add\n      mload(0x40)\n      swap1\n      dup2\n      add\n      0x40\n      mstore\n      dup1\n      swap3\n      swap2\n      swap1\n      dup2\n      dup2\n      mstore\n      0x20\n      add\n      dup3\n      dup1\n      sload\n      tag_98\n      swap1\n      tag_97\n      jump\t// in\n    tag_98:\n      dup1\n      iszero\n      tag_99\n      jumpi\n      dup1\n      0x1f\n      lt\n      tag_100\n      jumpi\n      0x0100\n      dup1\n      dup4\n      sload\n      div\n      mul\n      dup4\n      mstore\n      swap2\n      0x20\n      add\n      swap2\n      jump(tag_99)\n    tag_100:\n      dup3\n      add\n      swap2\n      swap1\n      0x00\n      mstore\n      keccak256(0x00, 0x20)\n      swap1\n    tag_101:\n      dup2\n      sload\n      dup2\n      mstore\n      swap1\n      0x01\n      add\n      swap1\n      0x20\n      add\n      dup1\n      dup4\n      gt\n      tag_101\n      jumpi\n      dup3\n      swap1\n      sub\n      0x1f\n      and\n      dup3\n      add\n      swap2\n    tag_99:\n      pop\n      pop\n      pop\n      pop\n      pop\n      swap1\n      pop\n        /* \"lib/openzeppelin-contracts/contracts/token/ERC20/ERC20.sol\":1779:1868  function name() public view virtual returns (string memory) {... */\n      swap1\n      jump\t// out\n        /* \"lib/openzeppelin-contracts/contracts/token/ERC20/ERC20.sol\":3998:4184  function approve(address spender, uint256 value) public virtual returns (bool) {... */\n    tag_29:\n        /* \"lib/openzeppelin-contracts/contracts/token/ERC20/ERC20.sol\":4071:4075  bool */\n      0x00\n        /* \"lib/openzeppelin-contracts/contracts/utils/Context.sol\":735:745  msg.sender */\n      caller\n        /* \"lib/openzeppelin-contracts/contracts/token/ERC20/ERC20.sol\":4125:4156  _approve(owner, spender, value) */\n      tag_105\n        /* \"lib/openzeppelin-contracts/contracts/utils/Context.sol\":735:745  msg.sender */\n      dup2\n        /* \"lib/openzeppelin-contracts/contracts/token/ERC20/ERC20.sol\":4141:4148  spender */\n      dup6\n        /* \"lib/openzeppelin-contracts/contracts/token/ERC20/ERC20.sol\":4150:4155  value */\n      dup6\n        /* \"lib/openzeppelin-contracts/contracts/token/ERC20/ERC20.sol\":4125:4133  _approve */\n      tag_106\n        /* \"lib/openzeppelin-contracts/contracts/token/ERC20/ERC20.sol\":4125:4156  _approve(owner, spender, value) */\n      jump\t// in\n    tag_105:\n        /* \"lib/openzeppelin-contracts/contracts/token/ERC20/ERC20.sol\":4173:4177  true */\n      0x01\n        /* \"lib/openzeppelin-contracts/contracts/token/ERC20/ERC20.sol\":4166:4177  return true */\n      swap2\n      pop\n      pop\n        /* \"lib/openzeppelin-contracts/contracts/token/ERC20/ERC20.sol\":3998:4184  function approve(address spender, uint256 value) public virtual returns (bool) {... */\n    tag_102:\n      swap3\n      swap2\n      pop\n      pop\n      jump\t// out\n        /* \"src/mocks/MockStETH.sol\":2412:2638  function getSharesByPooledEth(uint256 _ethAmount) public view returns (uint256) {... */\n    tag_41:\n        /* \"src/mocks/MockStETH.sol\":2483:2490  uint256 */\n      0x00\n        /* \"src/mocks/MockStETH.sol\":2506:2519  totalSupply() */\n      tag_109\n        /* \"lib/openzeppelin-contracts/contracts/token/ERC20/ERC20.sol\":2927:2939  _totalSupply */\n      sload(0x02)\n      swap1\n        /* \"lib/openzeppelin-contracts/contracts/token/ERC20/ERC20.sol\":2849:2946  function totalSupply() public view virtual returns (uint256) {... */\n      jump\n        /* \"src/mocks/MockStETH.sol\":2506:2519  totalSupply() */\n    tag_109:\n        /* \"src/mocks/MockStETH.sol\":2523:2524  0 */\n      0x00\n        /* \"src/mocks/MockStETH.sol\":2506:2524  totalSupply() == 0 */\n      sub\n        /* \"src/mocks/MockStETH.sol\":2502:2568  if (totalSupply() == 0) {... */\n      tag_110\n      jumpi\n      pop\n        /* \"src/mocks/MockStETH.sol\":2547:2557  _ethAmount */\n      swap1\n        /* \"src/mocks/MockStETH.sol\":2412:2638  function getSharesByPooledEth(uint256 _ethAmount) public view returns (uint256) {... */\n      jump\t// out\n        /* \"src/mocks/MockStETH.sol\":2502:2568  if (totalSupply() == 0) {... */\n    tag_110:\n        /* \"lib/openzeppelin-contracts/contracts/token/ERC20/ERC20.sol\":2927:2939  _totalSupply */\n      sload(0x02)\n        /* \"src/mocks/MockStETH.sol\":2598:2614  getTotalShares() */\n      tag_112\n        /* \"src/mocks/MockStETH.sol\":2598:2612  getTotalShares */\n      tag_82\n        /* \"src/mocks/MockStETH.sol\":2598:2614  getTotalShares() */\n      jump\t// in\n    tag_112:\n        /* \"src/mocks/MockStETH.sol\":2585:2614  _ethAmount * getTotalShares() */\n      tag_113\n      swap1\n        /* \"src/mocks/MockStETH.sol\":2585:2595  _ethAmount */\n      dup5\n        /* \"src/mocks/MockStETH.sol\":2585:2614  _ethAmount * getTotalShares() */\n      tag_114\n      jump\t// in\n    tag_113:\n        /* \"src/mocks/MockStETH.sol\":2584:2631  (_ethAmount * getTotalShares()) / totalSupply() */\n      tag_102\n      swap2\n      swap1\n      tag_116\n      jump\t// in\n        /* \"lib/openzeppelin-contracts/contracts/token/ERC20/ERC20.sol\":4776:5020  function transferFrom(address from, address to, uint256 value) public virtual returns (bool) {... */\n    tag_47:\n        /* \"lib/openzeppelin-contracts/contracts/token/ERC20/ERC20.sol\":4863:4867  bool */\n      0x00\n        /* \"lib/openzeppelin-contracts/contracts/utils/Context.sol\":735:745  msg.sender */\n      caller\n        /* \"lib/openzeppelin-contracts/contracts/token/ERC20/ERC20.sol\":4919:4956  _spendAllowance(from, spender, value) */\n      tag_119\n        /* \"lib/openzeppelin-contracts/contracts/token/ERC20/ERC20.sol\":4935:4939  from */\n      dup6\n        /* \"lib/openzeppelin-contracts/contracts/utils/Context.sol\":735:745  msg.sender */\n      dup3\n        /* \"lib/openzeppelin-contracts/contracts/token/ERC20/ERC20.sol\":4950:4955  value */\n      dup6\n        /* \"lib/openzeppelin-contracts/contracts/token/ERC20/ERC20.sol\":4919:4934  _spendAllowance */\n      tag_120\n        /* \"lib/openzeppelin-contracts/contracts/token/ERC20/ERC20.sol\":4919:4956  _spendAllowance(from, spender, value) */\n      jump\t// in\n    tag_119:\n        /* \"lib/openzeppelin-contracts/contracts/token/ERC20/ERC20.sol\":4966:4992  _transfer(from, to, value) */\n      tag_121\n        /* \"lib/openzeppelin-contracts/contracts/token/ERC20/ERC20.sol\":4976:4980  from */\n      dup6\n        /* \"lib/openzeppelin-contracts/contracts/token/ERC20/ERC20.sol\":4982:4984  to */\n      dup6\n        /* \"lib/openzeppelin-contracts/contracts/token/ERC20/ERC20.sol\":4986:4991  value */\n      dup6\n        /* \"lib/openzeppelin-contracts/contracts/token/ERC20/ERC20.sol\":4966:4975  _transfer */\n      tag_122\n        /* \"lib/openzeppelin-contracts/contracts/token/ERC20/ERC20.sol\":4966:4992  _transfer(from, to, value) */\n      jump\t// in\n    tag_121:\n      pop\n        /* \"lib/openzeppelin-contracts/contracts/token/ERC20/ERC20.sol\":5009:5013  true */\n      0x01\n      swap5\n        /* \"lib/openzeppelin-contracts/contracts/token/ERC20/ERC20.sol\":4776:5020  function transferFrom(address from, address to, uint256 value) public virtual returns (bool) {... */\n      swap4\n      pop\n      pop\n      pop\n      pop\n      jump\t// out\n        /* \"src/mocks/MockStETH.sol\":2876:2987  function distributeRewards(uint256 _rewardAmount) external {... */\n    tag_57:\n        /* \"src/mocks/MockStETH.sol\":2945:2980  _mint(address(this), _rewardAmount) */\n      tag_125\n        /* \"src/mocks/MockStETH.sol\":2959:2963  this */\n      address\n        /* \"src/mocks/MockStETH.sol\":2966:2979  _rewardAmount */\n      dup3\n        /* \"src/mocks/MockStETH.sol\":2945:2950  _mint */\n      tag_126\n        /* \"src/mocks/MockStETH.sol\":2945:2980  _mint(address(this), _rewardAmount) */\n      jump\t// in\n    tag_125:\n        /* \"src/mocks/MockStETH.sol\":2876:2987  function distributeRewards(uint256 _rewardAmount) external {... */\n      pop\n      jump\t// out\n        /* \"src/mocks/MockStETH.sol\":1811:2163  function submit() external payable {... */\n    tag_59:\n        /* \"src/mocks/MockStETH.sol\":1876:1877  0 */\n      0x00\n        /* \"src/mocks/MockStETH.sol\":1864:1873  msg.value */\n      callvalue\n        /* \"src/mocks/MockStETH.sol\":1864:1877  msg.value > 0 */\n      gt\n        /* \"src/mocks/MockStETH.sol\":1856:1901  require(msg.value > 0, \"Cannot submit 0 ETH\") */\n      tag_128\n      jumpi\n      mload(0x40)\n      shl(0xe5, 0x461bcd)\n      dup2\n      mstore\n        /* \"#utility.yul\":3663:3665   */\n      0x20\n        /* \"src/mocks/MockStETH.sol\":1856:1901  require(msg.value > 0, \"Cannot submit 0 ETH\") */\n      0x04\n      dup3\n      add\n        /* \"#utility.yul\":3645:3666   */\n      mstore\n        /* \"#utility.yul\":3702:3704   */\n      0x13\n        /* \"#utility.yul\":3682:3700   */\n      0x24\n      dup3\n      add\n        /* \"#utility.yul\":3675:3705   */\n      mstore\n      shl(0x6b, 0x086c2dcdcdee840e6eac4dad2e84060408aa89)\n        /* \"#utility.yul\":3721:3739   */\n      0x44\n      dup3\n      add\n        /* \"#utility.yul\":3714:3763   */\n      mstore\n        /* \"#utility.yul\":3780:3798   */\n      0x64\n      add\n        /* \"src/mocks/MockStETH.sol\":1856:1901  require(msg.value > 0, \"Cannot submit 0 ETH\") */\n    tag_129:\n      mload(0x40)\n      dup1\n      swap2\n      sub\n      swap1\n      revert\n    tag_128:\n        /* \"src/mocks/MockStETH.sol\":1912:1932  uint256 sharesAmount */\n      0x00\n        /* \"src/mocks/MockStETH.sol\":1935:1966  getSharesByPooledEth(msg.value) */\n      tag_131\n        /* \"src/mocks/MockStETH.sol\":1956:1965  msg.value */\n      callvalue\n        /* \"src/mocks/MockStETH.sol\":1935:1955  getSharesByPooledEth */\n      tag_41\n        /* \"src/mocks/MockStETH.sol\":1935:1966  getSharesByPooledEth(msg.value) */\n      jump\t// in\n    tag_131:\n        /* \"src/mocks/MockStETH.sol\":1912:1966  uint256 sharesAmount = getSharesByPooledEth(msg.value) */\n      swap1\n      pop\n        /* \"src/mocks/MockStETH.sol\":1976:2035  _setShares(msg.sender, sharesOf(msg.sender) + sharesAmount) */\n      tag_132\n        /* \"src/mocks/MockStETH.sol\":1987:1997  msg.sender */\n      caller\n        /* \"src/mocks/MockStETH.sol\":2022:2034  sharesAmount */\n      dup3\n        /* \"src/mocks/MockStETH.sol\":1999:2019  sharesOf(msg.sender) */\n      tag_133\n        /* \"src/mocks/MockStETH.sol\":2008:2018  msg.sender */\n      caller\n        /* \"src/mocks/MockStETH.sol\":1999:2007  sharesOf */\n      tag_93\n        /* \"src/mocks/MockStETH.sol\":1999:2019  sharesOf(msg.sender) */\n      jump\t// in\n    tag_133:\n        /* \"src/mocks/MockStETH.sol\":1999:2034  sharesOf(msg.sender) + sharesAmount */\n      tag_134\n      swap2\n      swap1\n      tag_135\n      jump\t// in\n    tag_134:\n        /* \"src/mocks/MockStETH.sol\":1976:1986  _setShares */\n      tag_136\n        /* \"src/mocks/MockStETH.sol\":1976:2035  _setShares(msg.sender, sharesOf(msg.sender) + sharesAmount) */\n      jump\t// in\n    tag_132:\n        /* \"src/mocks/MockStETH.sol\":2045:2117  TOTAL_SHARES_POSITION.setStorageUint256(getTotalShares() + sharesAmount) */\n      tag_137\n        /* \"src/mocks/MockStETH.sol\":2104:2116  sharesAmount */\n      dup2\n        /* \"src/mocks/MockStETH.sol\":2085:2101  getTotalShares() */\n      tag_138\n        /* \"src/mocks/MockStETH.sol\":2085:2099  getTotalShares */\n      tag_82\n        /* \"src/mocks/MockStETH.sol\":2085:2101  getTotalShares() */\n      jump\t// in\n    tag_138:\n        /* \"src/mocks/MockStETH.sol\":2085:2116  getTotalShares() + sharesAmount */\n      tag_139\n      swap2\n      swap1\n      tag_135\n      jump\t// in\n    tag_139:\n        /* \"src/mocks/MockStETH.sol\":380:446  0xe3b4b636e601189b5f4c6742edf2538ac12bb61ed03e6da26949d69838fa447e */\n      0xe3b4b636e601189b5f4c6742edf2538ac12bb61ed03e6da26949d69838fa447e\n        /* \"src/mocks/DummyStorage.sol\":1263:1285  sstore(position, data) */\n      sstore\n        /* \"src/mocks/DummyStorage.sol\":1162:1301  function setStorageUint256(bytes32 position, uint256 data) internal {... */\n      jump\n        /* \"src/mocks/MockStETH.sol\":2045:2117  TOTAL_SHARES_POSITION.setStorageUint256(getTotalShares() + sharesAmount) */\n    tag_137:\n        /* \"src/mocks/MockStETH.sol\":2128:2156  _mint(msg.sender, msg.value) */\n      tag_125\n        /* \"src/mocks/MockStETH.sol\":2134:2144  msg.sender */\n      caller\n        /* \"src/mocks/MockStETH.sol\":2146:2155  msg.value */\n      callvalue\n        /* \"src/mocks/MockStETH.sol\":2128:2133  _mint */\n      tag_126\n        /* \"src/mocks/MockStETH.sol\":2128:2156  _mint(msg.sender, msg.value) */\n      jump\t// in\n        /* \"src/mocks/MockStETH.sol\":1665:1805  function balanceOf(address _account) public view override returns (uint256) {... */\n    tag_64:\n        /* \"src/mocks/MockStETH.sol\":1732:1739  uint256 */\n      0x00\n        /* \"src/mocks/MockStETH.sol\":1758:1798  getPooledEthByShares(sharesOf(_account)) */\n      tag_102\n        /* \"src/mocks/MockStETH.sol\":1779:1797  sharesOf(_account) */\n      tag_68\n        /* \"src/mocks/MockStETH.sol\":1788:1796  _account */\n      dup4\n        /* \"src/mocks/MockStETH.sol\":1779:1787  sharesOf */\n      tag_93\n        /* \"src/mocks/MockStETH.sol\":1779:1797  sharesOf(_account) */\n      jump\t// in\n        /* \"src/mocks/MockStETH.sol\":2644:2870  function getPooledEthByShares(uint256 _sharesAmount) public view returns (uint256) {... */\n    tag_69:\n        /* \"src/mocks/MockStETH.sol\":2718:2725  uint256 */\n      0x00\n        /* \"src/mocks/MockStETH.sol\":2741:2757  getTotalShares() */\n      tag_146\n        /* \"src/mocks/MockStETH.sol\":2741:2755  getTotalShares */\n      tag_82\n        /* \"src/mocks/MockStETH.sol\":2741:2757  getTotalShares() */\n      jump\t// in\n    tag_146:\n        /* \"src/mocks/MockStETH.sol\":2761:2762  0 */\n      0x00\n        /* \"src/mocks/MockStETH.sol\":2741:2762  getTotalShares() == 0 */\n      sub\n        /* \"src/mocks/MockStETH.sol\":2737:2797  if (getTotalShares() == 0) {... */\n      tag_147\n      jumpi\n      pop\n        /* \"src/mocks/MockStETH.sol\":2785:2786  0 */\n      0x00\n      swap2\n        /* \"src/mocks/MockStETH.sol\":2644:2870  function getPooledEthByShares(uint256 _sharesAmount) public view returns (uint256) {... */\n      swap1\n      pop\n      jump\t// out\n        /* \"src/mocks/MockStETH.sol\":2737:2797  if (getTotalShares() == 0) {... */\n    tag_147:\n        /* \"src/mocks/MockStETH.sol\":2847:2863  getTotalShares() */\n      tag_148\n        /* \"src/mocks/MockStETH.sol\":2847:2861  getTotalShares */\n      tag_82\n        /* \"src/mocks/MockStETH.sol\":2847:2863  getTotalShares() */\n      jump\t// in\n    tag_148:\n        /* \"lib/openzeppelin-contracts/contracts/token/ERC20/ERC20.sol\":2927:2939  _totalSupply */\n      sload(0x02)\n        /* \"src/mocks/MockStETH.sol\":2830:2843  totalSupply() */\n      tag_112\n        /* \"lib/openzeppelin-contracts/contracts/token/ERC20/ERC20.sol\":2849:2946  function totalSupply() public view virtual returns (uint256) {... */\n      jump\n        /* \"lib/openzeppelin-contracts/contracts/token/ERC20/ERC20.sol\":1981:2074  function symbol() public view virtual returns (string memory) {... */\n    tag_73:\n        /* \"lib/openzeppelin-contracts/contracts/token/ERC20/ERC20.sol\":2028:2041  string memory */\n      0x60\n        /* \"lib/openzeppelin-contracts/contracts/token/ERC20/ERC20.sol\":2060:2067  _symbol */\n      0x04\n        /* \"lib/openzeppelin-contracts/contracts/token/ERC20/ERC20.sol\":2053:2067  return _symbol */\n      dup1\n      sload\n      tag_96\n      swap1\n      tag_97\n      jump\t// in\n        /* \"lib/openzeppelin-contracts/contracts/token/ERC20/ERC20.sol\":3315:3493  function transfer(address to, uint256 value) public virtual returns (bool) {... */\n    tag_78:\n        /* \"lib/openzeppelin-contracts/contracts/token/ERC20/ERC20.sol\":3384:3388  bool */\n      0x00\n        /* \"lib/openzeppelin-contracts/contracts/utils/Context.sol\":735:745  msg.sender */\n      caller\n        /* \"lib/openzeppelin-contracts/contracts/token/ERC20/ERC20.sol\":3438:3465  _transfer(owner, to, value) */\n      tag_105\n        /* \"lib/openzeppelin-contracts/contracts/utils/Context.sol\":735:745  msg.sender */\n      dup2\n        /* \"lib/openzeppelin-contracts/contracts/token/ERC20/ERC20.sol\":3455:3457  to */\n      dup6\n        /* \"lib/openzeppelin-contracts/contracts/token/ERC20/ERC20.sol\":3459:3464  value */\n      dup6\n        /* \"lib/openzeppelin-contracts/contracts/token/ERC20/ERC20.sol\":3438:3447  _transfer */\n      tag_122\n        /* \"lib/openzeppelin-contracts/contracts/token/ERC20/ERC20.sol\":3438:3465  _transfer(owner, to, value) */\n      jump\t// in\n        /* \"src/mocks/MockStETH.sol\":2169:2290  function getTotalShares() public view returns (uint256) {... */\n    tag_82:\n        /* \"src/mocks/MockStETH.sol\":2216:2223  uint256 */\n      0x00\n        /* \"src/mocks/MockStETH.sol\":2242:2283  TOTAL_SHARES_POSITION.getStorageUint256() */\n      tag_162\n        /* \"src/mocks/MockStETH.sol\":380:446  0xe3b4b636e601189b5f4c6742edf2538ac12bb61ed03e6da26949d69838fa447e */\n      0xe3b4b636e601189b5f4c6742edf2538ac12bb61ed03e6da26949d69838fa447e\n        /* \"src/mocks/DummyStorage.sol\":696:711  sload(position) */\n      sload\n      swap1\n        /* \"src/mocks/DummyStorage.sol\":573:727  function getStorageUint256(bytes32 position) internal view returns (uint256 data) {... */\n      jump\n        /* \"src/mocks/MockStETH.sol\":2242:2283  TOTAL_SHARES_POSITION.getStorageUint256() */\n    tag_162:\n        /* \"src/mocks/MockStETH.sol\":2235:2283  return TOTAL_SHARES_POSITION.getStorageUint256() */\n      swap1\n      pop\n        /* \"src/mocks/MockStETH.sol\":2169:2290  function getTotalShares() public view returns (uint256) {... */\n      swap1\n      jump\t// out\n        /* \"src/mocks/MockStETH.sol\":2296:2406  function sharesOf(address _account) public view returns (uint256) {... */\n    tag_93:\n        /* \"src/mocks/MockStETH.sol\":2353:2360  uint256 */\n      0x00\n        /* \"src/mocks/MockStETH.sol\":2379:2399  _getShares(_account) */\n      tag_102\n        /* \"src/mocks/MockStETH.sol\":2390:2398  _account */\n      dup3\n        /* \"src/mocks/MockStETH.sol\":2379:2389  _getShares */\n      tag_167\n        /* \"src/mocks/MockStETH.sol\":2379:2399  _getShares(_account) */\n      jump\t// in\n        /* \"lib/openzeppelin-contracts/contracts/token/ERC20/ERC20.sol\":8726:8854  function _approve(address owner, address spender, uint256 value) internal {... */\n    tag_106:\n        /* \"lib/openzeppelin-contracts/contracts/token/ERC20/ERC20.sol\":8810:8847  _approve(owner, spender, value, true) */\n      tag_170\n        /* \"lib/openzeppelin-contracts/contracts/token/ERC20/ERC20.sol\":8819:8824  owner */\n      dup4\n        /* \"lib/openzeppelin-contracts/contracts/token/ERC20/ERC20.sol\":8826:8833  spender */\n      dup4\n        /* \"lib/openzeppelin-contracts/contracts/token/ERC20/ERC20.sol\":8835:8840  value */\n      dup4\n        /* \"lib/openzeppelin-contracts/contracts/token/ERC20/ERC20.sol\":8842:8846  true */\n      0x01\n        /* \"lib/openzeppelin-contracts/contracts/token/ERC20/ERC20.sol\":8810:8818  _approve */\n      tag_171\n        /* \"lib/openzeppelin-contracts/contracts/token/ERC20/ERC20.sol\":8810:8847  _approve(owner, spender, value, true) */\n      jump\t// in\n    tag_170:\n        /* \"lib/openzeppelin-contracts/contracts/token/ERC20/ERC20.sol\":8726:8854  function _approve(address owner, address spender, uint256 value) internal {... */\n      pop\n      pop\n      pop\n      jump\t// out\n        /* \"lib/openzeppelin-contracts/contracts/token/ERC20/ERC20.sol\":10415:10892  function _spendAllowance(address owner, address spender, uint256 value) internal virtual {... */\n    tag_120:\n      sub(shl(0xa0, 0x01), 0x01)\n        /* \"lib/openzeppelin-contracts/contracts/token/ERC20/ERC20.sol\":3657:3675  _allowances[owner] */\n      dup4\n      dup2\n      and\n        /* \"lib/openzeppelin-contracts/contracts/token/ERC20/ERC20.sol\":10514:10538  uint256 currentAllowance */\n      0x00\n        /* \"lib/openzeppelin-contracts/contracts/token/ERC20/ERC20.sol\":3657:3675  _allowances[owner] */\n      swap1\n      dup2\n      mstore\n        /* \"lib/openzeppelin-contracts/contracts/token/ERC20/ERC20.sol\":3657:3668  _allowances */\n      0x01\n        /* \"lib/openzeppelin-contracts/contracts/token/ERC20/ERC20.sol\":3657:3675  _allowances[owner] */\n      0x20\n      swap1\n      dup2\n      mstore\n      0x40\n      dup1\n      dup4\n      keccak256\n        /* \"lib/openzeppelin-contracts/contracts/token/ERC20/ERC20.sol\":3657:3684  _allowances[owner][spender] */\n      swap4\n      dup7\n      and\n      dup4\n      mstore\n      swap3\n      swap1\n      mstore\n      keccak256\n      sload\n      not(0x00)\n        /* \"lib/openzeppelin-contracts/contracts/token/ERC20/ERC20.sol\":10580:10617  currentAllowance != type(uint256).max */\n      dup2\n      eq\n        /* \"lib/openzeppelin-contracts/contracts/token/ERC20/ERC20.sol\":10576:10886  if (currentAllowance != type(uint256).max) {... */\n      tag_178\n      jumpi\n        /* \"lib/openzeppelin-contracts/contracts/token/ERC20/ERC20.sol\":10656:10661  value */\n      dup2\n        /* \"lib/openzeppelin-contracts/contracts/token/ERC20/ERC20.sol\":10637:10653  currentAllowance */\n      dup2\n        /* \"lib/openzeppelin-contracts/contracts/token/ERC20/ERC20.sol\":10637:10661  currentAllowance < value */\n      lt\n        /* \"lib/openzeppelin-contracts/contracts/token/ERC20/ERC20.sol\":10633:10763  if (currentAllowance < value) {... */\n      iszero\n      tag_175\n      jumpi\n        /* \"lib/openzeppelin-contracts/contracts/token/ERC20/ERC20.sol\":10688:10748  ERC20InsufficientAllowance(spender, currentAllowance, value) */\n      mload(0x40)\n      shl(0xe1, 0x7dc7a0d9)\n      dup2\n      mstore\n      sub(shl(0xa0, 0x01), 0x01)\n        /* \"#utility.yul\":4159:4191   */\n      dup5\n      and\n        /* \"lib/openzeppelin-contracts/contracts/token/ERC20/ERC20.sol\":10688:10748  ERC20InsufficientAllowance(spender, currentAllowance, value) */\n      0x04\n      dup3\n      add\n        /* \"#utility.yul\":4141:4192   */\n      mstore\n        /* \"#utility.yul\":4208:4226   */\n      0x24\n      dup2\n      add\n        /* \"#utility.yul\":4201:4235   */\n      dup3\n      swap1\n      mstore\n        /* \"#utility.yul\":4251:4269   */\n      0x44\n      dup2\n      add\n        /* \"#utility.yul\":4244:4278   */\n      dup4\n      swap1\n      mstore\n        /* \"#utility.yul\":4114:4132   */\n      0x64\n      add\n        /* \"lib/openzeppelin-contracts/contracts/token/ERC20/ERC20.sol\":10688:10748  ERC20InsufficientAllowance(spender, currentAllowance, value) */\n      tag_129\n        /* \"#utility.yul\":3939:4284   */\n      jump\n        /* \"lib/openzeppelin-contracts/contracts/token/ERC20/ERC20.sol\":10633:10763  if (currentAllowance < value) {... */\n    tag_175:\n        /* \"lib/openzeppelin-contracts/contracts/token/ERC20/ERC20.sol\":10804:10861  _approve(owner, spender, currentAllowance - value, false) */\n      tag_178\n        /* \"lib/openzeppelin-contracts/contracts/token/ERC20/ERC20.sol\":10813:10818  owner */\n      dup5\n        /* \"lib/openzeppelin-contracts/contracts/token/ERC20/ERC20.sol\":10820:10827  spender */\n      dup5\n        /* \"lib/openzeppelin-contracts/contracts/token/ERC20/ERC20.sol\":10848:10853  value */\n      dup5\n        /* \"lib/openzeppelin-contracts/contracts/token/ERC20/ERC20.sol\":10829:10845  currentAllowance */\n      dup5\n        /* \"lib/openzeppelin-contracts/contracts/token/ERC20/ERC20.sol\":10829:10853  currentAllowance - value */\n      sub\n        /* \"lib/openzeppelin-contracts/contracts/token/ERC20/ERC20.sol\":10855:10860  false */\n      0x00\n        /* \"lib/openzeppelin-contracts/contracts/token/ERC20/ERC20.sol\":10804:10812  _approve */\n      tag_171\n        /* \"lib/openzeppelin-contracts/contracts/token/ERC20/ERC20.sol\":10804:10861  _approve(owner, spender, currentAllowance - value, false) */\n      jump\t// in\n    tag_178:\n        /* \"lib/openzeppelin-contracts/contracts/token/ERC20/ERC20.sol\":10504:10892  {... */\n      pop\n        /* \"lib/openzeppelin-contracts/contracts/token/ERC20/ERC20.sol\":10415:10892  function _spendAllowance(address owner, address spender, uint256 value) internal virtual {... */\n      pop\n      pop\n      pop\n      jump\t// out\n        /* \"lib/openzeppelin-contracts/contracts/token/ERC20/ERC20.sol\":5393:5693  function _transfer(address from, address to, uint256 value) internal {... */\n    tag_122:\n      sub(shl(0xa0, 0x01), 0x01)\n        /* \"lib/openzeppelin-contracts/contracts/token/ERC20/ERC20.sol\":5476:5494  from == address(0) */\n      dup4\n      and\n        /* \"lib/openzeppelin-contracts/contracts/token/ERC20/ERC20.sol\":5472:5558  if (from == address(0)) {... */\n      tag_180\n      jumpi\n        /* \"lib/openzeppelin-contracts/contracts/token/ERC20/ERC20.sol\":5517:5547  ERC20InvalidSender(address(0)) */\n      mload(0x40)\n      shl(0xe1, 0x4b637e8f)\n      dup2\n      mstore\n        /* \"lib/openzeppelin-contracts/contracts/token/ERC20/ERC20.sol\":5544:5545  0 */\n      0x00\n        /* \"lib/openzeppelin-contracts/contracts/token/ERC20/ERC20.sol\":5517:5547  ERC20InvalidSender(address(0)) */\n      0x04\n      dup3\n      add\n        /* \"#utility.yul\":4435:4486   */\n      mstore\n        /* \"#utility.yul\":4408:4426   */\n      0x24\n      add\n        /* \"lib/openzeppelin-contracts/contracts/token/ERC20/ERC20.sol\":5517:5547  ERC20InvalidSender(address(0)) */\n      tag_129\n        /* \"#utility.yul\":4289:4492   */\n      jump\n        /* \"lib/openzeppelin-contracts/contracts/token/ERC20/ERC20.sol\":5472:5558  if (from == address(0)) {... */\n    tag_180:\n      sub(shl(0xa0, 0x01), 0x01)\n        /* \"lib/openzeppelin-contracts/contracts/token/ERC20/ERC20.sol\":5571:5587  to == address(0) */\n      dup3\n      and\n        /* \"lib/openzeppelin-contracts/contracts/token/ERC20/ERC20.sol\":5567:5653  if (to == address(0)) {... */\n      tag_183\n      jumpi\n        /* \"lib/openzeppelin-contracts/contracts/token/ERC20/ERC20.sol\":5610:5642  ERC20InvalidReceiver(address(0)) */\n      mload(0x40)\n      shl(0xe0, 0xec442f05)\n      dup2\n      mstore\n        /* \"lib/openzeppelin-contracts/contracts/token/ERC20/ERC20.sol\":5639:5640  0 */\n      0x00\n        /* \"lib/openzeppelin-contracts/contracts/token/ERC20/ERC20.sol\":5610:5642  ERC20InvalidReceiver(address(0)) */\n      0x04\n      dup3\n      add\n        /* \"#utility.yul\":4435:4486   */\n      mstore\n        /* \"#utility.yul\":4408:4426   */\n      0x24\n      add\n        /* \"lib/openzeppelin-contracts/contracts/token/ERC20/ERC20.sol\":5610:5642  ERC20InvalidReceiver(address(0)) */\n      tag_129\n        /* \"#utility.yul\":4289:4492   */\n      jump\n        /* \"lib/openzeppelin-contracts/contracts/token/ERC20/ERC20.sol\":5567:5653  if (to == address(0)) {... */\n    tag_183:\n        /* \"lib/openzeppelin-contracts/contracts/token/ERC20/ERC20.sol\":5662:5686  _update(from, to, value) */\n      tag_170\n        /* \"lib/openzeppelin-contracts/contracts/token/ERC20/ERC20.sol\":5670:5674  from */\n      dup4\n        /* \"lib/openzeppelin-contracts/contracts/token/ERC20/ERC20.sol\":5676:5678  to */\n      dup4\n        /* \"lib/openzeppelin-contracts/contracts/token/ERC20/ERC20.sol\":5680:5685  value */\n      dup4\n        /* \"lib/openzeppelin-contracts/contracts/token/ERC20/ERC20.sol\":5662:5669  _update */\n      tag_186\n        /* \"lib/openzeppelin-contracts/contracts/token/ERC20/ERC20.sol\":5662:5686  _update(from, to, value) */\n      jump\t// in\n        /* \"lib/openzeppelin-contracts/contracts/token/ERC20/ERC20.sol\":7458:7666  function _mint(address account, uint256 value) internal {... */\n    tag_126:\n      sub(shl(0xa0, 0x01), 0x01)\n        /* \"lib/openzeppelin-contracts/contracts/token/ERC20/ERC20.sol\":7528:7549  account == address(0) */\n      dup3\n      and\n        /* \"lib/openzeppelin-contracts/contracts/token/ERC20/ERC20.sol\":7524:7615  if (account == address(0)) {... */\n      tag_188\n      jumpi\n        /* \"lib/openzeppelin-contracts/contracts/token/ERC20/ERC20.sol\":7572:7604  ERC20InvalidReceiver(address(0)) */\n      mload(0x40)\n      shl(0xe0, 0xec442f05)\n      dup2\n      mstore\n        /* \"lib/openzeppelin-contracts/contracts/token/ERC20/ERC20.sol\":7601:7602  0 */\n      0x00\n        /* \"lib/openzeppelin-contracts/contracts/token/ERC20/ERC20.sol\":7572:7604  ERC20InvalidReceiver(address(0)) */\n      0x04\n      dup3\n      add\n        /* \"#utility.yul\":4435:4486   */\n      mstore\n        /* \"#utility.yul\":4408:4426   */\n      0x24\n      add\n        /* \"lib/openzeppelin-contracts/contracts/token/ERC20/ERC20.sol\":7572:7604  ERC20InvalidReceiver(address(0)) */\n      tag_129\n        /* \"#utility.yul\":4289:4492   */\n      jump\n        /* \"lib/openzeppelin-contracts/contracts/token/ERC20/ERC20.sol\":7524:7615  if (account == address(0)) {... */\n    tag_188:\n        /* \"lib/openzeppelin-contracts/contracts/token/ERC20/ERC20.sol\":7624:7659  _update(address(0), account, value) */\n      tag_190\n        /* \"lib/openzeppelin-contracts/contracts/token/ERC20/ERC20.sol\":7640:7641  0 */\n      0x00\n        /* \"lib/openzeppelin-contracts/contracts/token/ERC20/ERC20.sol\":7644:7651  account */\n      dup4\n        /* \"lib/openzeppelin-contracts/contracts/token/ERC20/ERC20.sol\":7653:7658  value */\n      dup4\n        /* \"lib/openzeppelin-contracts/contracts/token/ERC20/ERC20.sol\":7624:7631  _update */\n      tag_186\n        /* \"lib/openzeppelin-contracts/contracts/token/ERC20/ERC20.sol\":7624:7659  _update(address(0), account, value) */\n      jump\t// in\n    tag_190:\n        /* \"lib/openzeppelin-contracts/contracts/token/ERC20/ERC20.sol\":7458:7666  function _mint(address account, uint256 value) internal {... */\n      pop\n      pop\n      jump\t// out\n        /* \"src/mocks/MockStETH.sol\":3215:3427  function _setShares(address _account, uint256 _amount) internal {... */\n    tag_136:\n        /* \"src/mocks/MockStETH.sol\":3314:3357  abi.encodePacked(_account, SHARES_POSITION) */\n      mload(0x40)\n      not(0xffffffffffffffffffffffff)\n        /* \"#utility.yul\":4674:4676   */\n      0x60\n        /* \"#utility.yul\":4670:4685   */\n      dup5\n      swap1\n      shl\n        /* \"#utility.yul\":4666:4719   */\n      and\n        /* \"src/mocks/MockStETH.sol\":3314:3357  abi.encodePacked(_account, SHARES_POSITION) */\n      0x20\n      dup3\n      add\n        /* \"#utility.yul\":4654:4720   */\n      mstore\n        /* \"src/mocks/MockStETH.sol\":1273:1303  keccak256(\"lido.StETH.shares\") */\n      0x101b73cb67a778893ea0c666939f8923c501a5d4cd59d1ecf919b502247b5b0c\n        /* \"#utility.yul\":4736:4748   */\n      0x34\n      dup3\n      add\n        /* \"#utility.yul\":4729:4757   */\n      mstore\n        /* \"src/mocks/MockStETH.sol\":3289:3301  bytes32 slot */\n      0x00\n      swap1\n        /* \"#utility.yul\":4773:4785   */\n      0x54\n      add\n        /* \"src/mocks/MockStETH.sol\":3314:3357  abi.encodePacked(_account, SHARES_POSITION) */\n      mload(0x40)\n      0x20\n      dup2\n      dup4\n      sub\n      sub\n      dup2\n      mstore\n      swap1\n      0x40\n      mstore\n        /* \"src/mocks/MockStETH.sol\":3304:3358  keccak256(abi.encodePacked(_account, SHARES_POSITION)) */\n      dup1\n      mload\n      swap1\n      0x20\n      add\n      keccak256\n        /* \"src/mocks/MockStETH.sol\":3289:3358  bytes32 slot = keccak256(abi.encodePacked(_account, SHARES_POSITION)) */\n      swap1\n      pop\n        /* \"src/mocks/MockStETH.sol\":3368:3420  UnstructuredStorage.setStorageUint256(slot, _amount) */\n      tag_170\n        /* \"src/mocks/MockStETH.sol\":3406:3410  slot */\n      dup2\n        /* \"src/mocks/MockStETH.sol\":3412:3419  _amount */\n      dup4\n        /* \"src/mocks/DummyStorage.sol\":1263:1285  sstore(position, data) */\n      swap1\n      sstore\n        /* \"src/mocks/DummyStorage.sol\":1162:1301  function setStorageUint256(bytes32 position, uint256 data) internal {... */\n      jump\n        /* \"src/mocks/MockStETH.sol\":2993:3209  function _getShares(address _account) internal view returns (uint256) {... */\n    tag_167:\n        /* \"src/mocks/MockStETH.sol\":3098:3141  abi.encodePacked(_account, SHARES_POSITION) */\n      mload(0x40)\n      not(0xffffffffffffffffffffffff)\n        /* \"#utility.yul\":4674:4676   */\n      0x60\n        /* \"#utility.yul\":4670:4685   */\n      dup4\n      swap1\n      shl\n        /* \"#utility.yul\":4666:4719   */\n      and\n        /* \"src/mocks/MockStETH.sol\":3098:3141  abi.encodePacked(_account, SHARES_POSITION) */\n      0x20\n      dup3\n      add\n        /* \"#utility.yul\":4654:4720   */\n      mstore\n        /* \"src/mocks/MockStETH.sol\":1273:1303  keccak256(\"lido.StETH.shares\") */\n      0x101b73cb67a778893ea0c666939f8923c501a5d4cd59d1ecf919b502247b5b0c\n        /* \"#utility.yul\":4736:4748   */\n      0x34\n      dup3\n      add\n        /* \"#utility.yul\":4729:4757   */\n      mstore\n        /* \"src/mocks/MockStETH.sol\":3054:3061  uint256 */\n      0x00\n      swap1\n      dup2\n      swap1\n        /* \"#utility.yul\":4773:4785   */\n      0x54\n      add\n        /* \"src/mocks/MockStETH.sol\":3098:3141  abi.encodePacked(_account, SHARES_POSITION) */\n      mload(0x40)\n      0x20\n      dup2\n      dup4\n      sub\n      sub\n      dup2\n      mstore\n      swap1\n      0x40\n      mstore\n        /* \"src/mocks/MockStETH.sol\":3088:3142  keccak256(abi.encodePacked(_account, SHARES_POSITION)) */\n      dup1\n      mload\n      swap1\n      0x20\n      add\n      keccak256\n        /* \"src/mocks/MockStETH.sol\":3073:3142  bytes32 slot = keccak256(abi.encodePacked(_account, SHARES_POSITION)) */\n      swap1\n      pop\n        /* \"src/mocks/MockStETH.sol\":3159:3202  UnstructuredStorage.getStorageUint256(slot) */\n      tag_199\n        /* \"src/mocks/MockStETH.sol\":3197:3201  slot */\n      dup2\n        /* \"src/mocks/DummyStorage.sol\":696:711  sload(position) */\n      sload\n      swap1\n        /* \"src/mocks/DummyStorage.sol\":573:727  function getStorageUint256(bytes32 position) internal view returns (uint256 data) {... */\n      jump\n        /* \"src/mocks/MockStETH.sol\":3159:3202  UnstructuredStorage.getStorageUint256(slot) */\n    tag_199:\n        /* \"src/mocks/MockStETH.sol\":3152:3202  return UnstructuredStorage.getStorageUint256(slot) */\n      swap4\n        /* \"src/mocks/MockStETH.sol\":2993:3209  function _getShares(address _account) internal view returns (uint256) {... */\n      swap3\n      pop\n      pop\n      pop\n      jump\t// out\n        /* \"lib/openzeppelin-contracts/contracts/token/ERC20/ERC20.sol\":9701:10133  function _approve(address owner, address spender, uint256 value, bool emitEvent) internal virtual {... */\n    tag_171:\n      sub(shl(0xa0, 0x01), 0x01)\n        /* \"lib/openzeppelin-contracts/contracts/token/ERC20/ERC20.sol\":9813:9832  owner == address(0) */\n      dup5\n      and\n        /* \"lib/openzeppelin-contracts/contracts/token/ERC20/ERC20.sol\":9809:9898  if (owner == address(0)) {... */\n      tag_201\n      jumpi\n        /* \"lib/openzeppelin-contracts/contracts/token/ERC20/ERC20.sol\":9855:9887  ERC20InvalidApprover(address(0)) */\n      mload(0x40)\n      shl(0xe0, 0xe602df05)\n      dup2\n      mstore\n        /* \"lib/openzeppelin-contracts/contracts/token/ERC20/ERC20.sol\":9884:9885  0 */\n      0x00\n        /* \"lib/openzeppelin-contracts/contracts/token/ERC20/ERC20.sol\":9855:9887  ERC20InvalidApprover(address(0)) */\n      0x04\n      dup3\n      add\n        /* \"#utility.yul\":4435:4486   */\n      mstore\n        /* \"#utility.yul\":4408:4426   */\n      0x24\n      add\n        /* \"lib/openzeppelin-contracts/contracts/token/ERC20/ERC20.sol\":9855:9887  ERC20InvalidApprover(address(0)) */\n      tag_129\n        /* \"#utility.yul\":4289:4492   */\n      jump\n        /* \"lib/openzeppelin-contracts/contracts/token/ERC20/ERC20.sol\":9809:9898  if (owner == address(0)) {... */\n    tag_201:\n      sub(shl(0xa0, 0x01), 0x01)\n        /* \"lib/openzeppelin-contracts/contracts/token/ERC20/ERC20.sol\":9911:9932  spender == address(0) */\n      dup4\n      and\n        /* \"lib/openzeppelin-contracts/contracts/token/ERC20/ERC20.sol\":9907:9997  if (spender == address(0)) {... */\n      tag_203\n      jumpi\n        /* \"lib/openzeppelin-contracts/contracts/token/ERC20/ERC20.sol\":9955:9986  ERC20InvalidSpender(address(0)) */\n      mload(0x40)\n      shl(0xe1, 0x4a1406b1)\n      dup2\n      mstore\n        /* \"lib/openzeppelin-contracts/contracts/token/ERC20/ERC20.sol\":9983:9984  0 */\n      0x00\n        /* \"lib/openzeppelin-contracts/contracts/token/ERC20/ERC20.sol\":9955:9986  ERC20InvalidSpender(address(0)) */\n      0x04\n      dup3\n      add\n        /* \"#utility.yul\":4435:4486   */\n      mstore\n        /* \"#utility.yul\":4408:4426   */\n      0x24\n      add\n        /* \"lib/openzeppelin-contracts/contracts/token/ERC20/ERC20.sol\":9955:9986  ERC20InvalidSpender(address(0)) */\n      tag_129\n        /* \"#utility.yul\":4289:4492   */\n      jump\n        /* \"lib/openzeppelin-contracts/contracts/token/ERC20/ERC20.sol\":9907:9997  if (spender == address(0)) {... */\n    tag_203:\n      sub(shl(0xa0, 0x01), 0x01)\n        /* \"lib/openzeppelin-contracts/contracts/token/ERC20/ERC20.sol\":10006:10024  _allowances[owner] */\n      dup1\n      dup6\n      and\n      0x00\n      swap1\n      dup2\n      mstore\n        /* \"lib/openzeppelin-contracts/contracts/token/ERC20/ERC20.sol\":10006:10017  _allowances */\n      0x01\n        /* \"lib/openzeppelin-contracts/contracts/token/ERC20/ERC20.sol\":10006:10024  _allowances[owner] */\n      0x20\n      swap1\n      dup2\n      mstore\n      0x40\n      dup1\n      dup4\n      keccak256\n        /* \"lib/openzeppelin-contracts/contracts/token/ERC20/ERC20.sol\":10006:10033  _allowances[owner][spender] */\n      swap4\n      dup8\n      and\n      dup4\n      mstore\n      swap3\n      swap1\n      mstore\n      keccak256\n        /* \"lib/openzeppelin-contracts/contracts/token/ERC20/ERC20.sol\":10006:10041  _allowances[owner][spender] = value */\n      dup3\n      swap1\n      sstore\n        /* \"lib/openzeppelin-contracts/contracts/token/ERC20/ERC20.sol\":10051:10127  if (emitEvent) {... */\n      dup1\n      iszero\n      tag_178\n      jumpi\n        /* \"lib/openzeppelin-contracts/contracts/token/ERC20/ERC20.sol\":10101:10108  spender */\n      dup3\n      sub(shl(0xa0, 0x01), 0x01)\n        /* \"lib/openzeppelin-contracts/contracts/token/ERC20/ERC20.sol\":10085:10116  Approval(owner, spender, value) */\n      and\n        /* \"lib/openzeppelin-contracts/contracts/token/ERC20/ERC20.sol\":10094:10099  owner */\n      dup5\n      sub(shl(0xa0, 0x01), 0x01)\n        /* \"lib/openzeppelin-contracts/contracts/token/ERC20/ERC20.sol\":10085:10116  Approval(owner, spender, value) */\n      and\n      0x8c5be1e5ebec7d5bd14f71427d1e84f3dd0314c0f7b2291e5b200ac8c7c3b925\n        /* \"lib/openzeppelin-contracts/contracts/token/ERC20/ERC20.sol\":10110:10115  value */\n      dup5\n        /* \"lib/openzeppelin-contracts/contracts/token/ERC20/ERC20.sol\":10085:10116  Approval(owner, spender, value) */\n      mload(0x40)\n      tag_206\n      swap2\n        /* \"#utility.yul\":1258:1283   */\n      dup2\n      mstore\n        /* \"#utility.yul\":1246:1248   */\n      0x20\n        /* \"#utility.yul\":1231:1249   */\n      add\n      swap1\n        /* \"#utility.yul\":1112:1289   */\n      jump\n        /* \"lib/openzeppelin-contracts/contracts/token/ERC20/ERC20.sol\":10085:10116  Approval(owner, spender, value) */\n    tag_206:\n      mload(0x40)\n      dup1\n      swap2\n      sub\n      swap1\n      log3\n        /* \"lib/openzeppelin-contracts/contracts/token/ERC20/ERC20.sol\":9701:10133  function _approve(address owner, address spender, uint256 value, bool emitEvent) internal virtual {... */\n      pop\n      pop\n      pop\n      pop\n      jump\t// out\n        /* \"lib/openzeppelin-contracts/contracts/token/ERC20/ERC20.sol\":6008:7115  function _update(address from, address to, uint256 value) internal virtual {... */\n    tag_186:\n      sub(shl(0xa0, 0x01), 0x01)\n        /* \"lib/openzeppelin-contracts/contracts/token/ERC20/ERC20.sol\":6097:6115  from == address(0) */\n      dup4\n      and\n        /* \"lib/openzeppelin-contracts/contracts/token/ERC20/ERC20.sol\":6093:6633  if (from == address(0)) {... */\n      tag_208\n      jumpi\n        /* \"lib/openzeppelin-contracts/contracts/token/ERC20/ERC20.sol\":6249:6254  value */\n      dup1\n        /* \"lib/openzeppelin-contracts/contracts/token/ERC20/ERC20.sol\":6233:6245  _totalSupply */\n      0x02\n      0x00\n        /* \"lib/openzeppelin-contracts/contracts/token/ERC20/ERC20.sol\":6233:6254  _totalSupply += value */\n      dup3\n      dup3\n      sload\n      tag_209\n      swap2\n      swap1\n      tag_135\n      jump\t// in\n    tag_209:\n      swap1\n      swap2\n      sstore\n      pop\n        /* \"lib/openzeppelin-contracts/contracts/token/ERC20/ERC20.sol\":6093:6633  if (from == address(0)) {... */\n      tag_210\n      swap1\n      pop\n      jump\n    tag_208:\n      sub(shl(0xa0, 0x01), 0x01)\n        /* \"lib/openzeppelin-contracts/contracts/token/ERC20/ERC20.sol\":6307:6322  _balances[from] */\n      dup4\n      and\n        /* \"lib/openzeppelin-contracts/contracts/token/ERC20/ERC20.sol\":6285:6304  uint256 fromBalance */\n      0x00\n        /* \"lib/openzeppelin-contracts/contracts/token/ERC20/ERC20.sol\":6307:6322  _balances[from] */\n      swap1\n      dup2\n      mstore\n      0x20\n      dup2\n      swap1\n      mstore\n      0x40\n      swap1\n      keccak256\n      sload\n        /* \"lib/openzeppelin-contracts/contracts/token/ERC20/ERC20.sol\":6340:6359  fromBalance < value */\n      dup2\n      dup2\n      lt\n        /* \"lib/openzeppelin-contracts/contracts/token/ERC20/ERC20.sol\":6336:6451  if (fromBalance < value) {... */\n      iszero\n      tag_211\n      jumpi\n        /* \"lib/openzeppelin-contracts/contracts/token/ERC20/ERC20.sol\":6386:6436  ERC20InsufficientBalance(from, fromBalance, value) */\n      mload(0x40)\n      shl(0xe2, 0x391434e3)\n      dup2\n      mstore\n      sub(shl(0xa0, 0x01), 0x01)\n        /* \"#utility.yul\":4159:4191   */\n      dup6\n      and\n        /* \"lib/openzeppelin-contracts/contracts/token/ERC20/ERC20.sol\":6386:6436  ERC20InsufficientBalance(from, fromBalance, value) */\n      0x04\n      dup3\n      add\n        /* \"#utility.yul\":4141:4192   */\n      mstore\n        /* \"#utility.yul\":4208:4226   */\n      0x24\n      dup2\n      add\n        /* \"#utility.yul\":4201:4235   */\n      dup3\n      swap1\n      mstore\n        /* \"#utility.yul\":4251:4269   */\n      0x44\n      dup2\n      add\n        /* \"#utility.yul\":4244:4278   */\n      dup4\n      swap1\n      mstore\n        /* \"#utility.yul\":4114:4132   */\n      0x64\n      add\n        /* \"lib/openzeppelin-contracts/contracts/token/ERC20/ERC20.sol\":6386:6436  ERC20InsufficientBalance(from, fromBalance, value) */\n      tag_129\n        /* \"#utility.yul\":3939:4284   */\n      jump\n        /* \"lib/openzeppelin-contracts/contracts/token/ERC20/ERC20.sol\":6336:6451  if (fromBalance < value) {... */\n    tag_211:\n      sub(shl(0xa0, 0x01), 0x01)\n        /* \"lib/openzeppelin-contracts/contracts/token/ERC20/ERC20.sol\":6571:6586  _balances[from] */\n      dup5\n      and\n        /* \"lib/openzeppelin-contracts/contracts/token/ERC20/ERC20.sol\":6571:6580  _balances */\n      0x00\n        /* \"lib/openzeppelin-contracts/contracts/token/ERC20/ERC20.sol\":6571:6586  _balances[from] */\n      swap1\n      dup2\n      mstore\n      0x20\n      dup2\n      swap1\n      mstore\n      0x40\n      swap1\n      keccak256\n        /* \"lib/openzeppelin-contracts/contracts/token/ERC20/ERC20.sol\":6589:6608  fromBalance - value */\n      swap1\n      dup3\n      swap1\n      sub\n        /* \"lib/openzeppelin-contracts/contracts/token/ERC20/ERC20.sol\":6571:6608  _balances[from] = fromBalance - value */\n      swap1\n      sstore\n        /* \"lib/openzeppelin-contracts/contracts/token/ERC20/ERC20.sol\":6093:6633  if (from == address(0)) {... */\n    tag_210:\n      sub(shl(0xa0, 0x01), 0x01)\n        /* \"lib/openzeppelin-contracts/contracts/token/ERC20/ERC20.sol\":6647:6663  to == address(0) */\n      dup3\n      and\n        /* \"lib/openzeppelin-contracts/contracts/token/ERC20/ERC20.sol\":6643:7068  if (to == address(0)) {... */\n      tag_213\n      jumpi\n        /* \"lib/openzeppelin-contracts/contracts/token/ERC20/ERC20.sol\":6810:6822  _totalSupply */\n      0x02\n        /* \"lib/openzeppelin-contracts/contracts/token/ERC20/ERC20.sol\":6810:6831  _totalSupply -= value */\n      dup1\n      sload\n      dup3\n      swap1\n      sub\n      swap1\n      sstore\n        /* \"lib/openzeppelin-contracts/contracts/token/ERC20/ERC20.sol\":6643:7068  if (to == address(0)) {... */\n      jump(tag_214)\n    tag_213:\n      sub(shl(0xa0, 0x01), 0x01)\n        /* \"lib/openzeppelin-contracts/contracts/token/ERC20/ERC20.sol\":7021:7034  _balances[to] */\n      dup3\n      and\n        /* \"lib/openzeppelin-contracts/contracts/token/ERC20/ERC20.sol\":7021:7030  _balances */\n      0x00\n        /* \"lib/openzeppelin-contracts/contracts/token/ERC20/ERC20.sol\":7021:7034  _balances[to] */\n      swap1\n      dup2\n      mstore\n      0x20\n      dup2\n      swap1\n      mstore\n      0x40\n      swap1\n      keccak256\n        /* \"lib/openzeppelin-contracts/contracts/token/ERC20/ERC20.sol\":7021:7043  _balances[to] += value */\n      dup1\n      sload\n      dup3\n      add\n      swap1\n      sstore\n        /* \"lib/openzeppelin-contracts/contracts/token/ERC20/ERC20.sol\":6643:7068  if (to == address(0)) {... */\n    tag_214:\n        /* \"lib/openzeppelin-contracts/contracts/token/ERC20/ERC20.sol\":7098:7100  to */\n      dup2\n      sub(shl(0xa0, 0x01), 0x01)\n        /* \"lib/openzeppelin-contracts/contracts/token/ERC20/ERC20.sol\":7083:7108  Transfer(from, to, value) */\n      and\n        /* \"lib/openzeppelin-contracts/contracts/token/ERC20/ERC20.sol\":7092:7096  from */\n      dup4\n      sub(shl(0xa0, 0x01), 0x01)\n        /* \"lib/openzeppelin-contracts/contracts/token/ERC20/ERC20.sol\":7083:7108  Transfer(from, to, value) */\n      and\n      0xddf252ad1be2c89b69c2b068fc378daa952ba7f163c4a11628f55a4df523b3ef\n        /* \"lib/openzeppelin-contracts/contracts/token/ERC20/ERC20.sol\":7102:7107  value */\n      dup4\n        /* \"lib/openzeppelin-contracts/contracts/token/ERC20/ERC20.sol\":7083:7108  Transfer(from, to, value) */\n      mload(0x40)\n      tag_215\n      swap2\n        /* \"#utility.yul\":1258:1283   */\n      dup2\n      mstore\n        /* \"#utility.yul\":1246:1248   */\n      0x20\n        /* \"#utility.yul\":1231:1249   */\n      add\n      swap1\n        /* \"#utility.yul\":1112:1289   */\n      jump\n        /* \"lib/openzeppelin-contracts/contracts/token/ERC20/ERC20.sol\":7083:7108  Transfer(from, to, value) */\n    tag_215:\n      mload(0x40)\n      dup1\n      swap2\n      sub\n      swap1\n      log3\n        /* \"lib/openzeppelin-contracts/contracts/token/ERC20/ERC20.sol\":6008:7115  function _update(address from, address to, uint256 value) internal virtual {... */\n      pop\n      pop\n      pop\n      jump\t// out\n        /* \"#utility.yul\":14:432   */\n    tag_24:\n        /* \"#utility.yul\":163:165   */\n      0x20\n        /* \"#utility.yul\":152:161   */\n      dup2\n        /* \"#utility.yul\":145:166   */\n      mstore\n        /* \"#utility.yul\":126:130   */\n      0x00\n        /* \"#utility.yul\":195:201   */\n      dup3\n        /* \"#utility.yul\":189:202   */\n      mload\n        /* \"#utility.yul\":238:244   */\n      dup1\n        /* \"#utility.yul\":233:235   */\n      0x20\n        /* \"#utility.yul\":222:231   */\n      dup5\n        /* \"#utility.yul\":218:236   */\n      add\n        /* \"#utility.yul\":211:245   */\n      mstore\n        /* \"#utility.yul\":297:303   */\n      dup1\n        /* \"#utility.yul\":292:294   */\n      0x20\n        /* \"#utility.yul\":284:290   */\n      dup6\n        /* \"#utility.yul\":280:295   */\n      add\n        /* \"#utility.yul\":275:277   */\n      0x40\n        /* \"#utility.yul\":264:273   */\n      dup6\n        /* \"#utility.yul\":260:278   */\n      add\n        /* \"#utility.yul\":254:304   */\n      mcopy\n        /* \"#utility.yul\":353:354   */\n      0x00\n        /* \"#utility.yul\":348:350   */\n      0x40\n        /* \"#utility.yul\":339:345   */\n      dup3\n        /* \"#utility.yul\":328:337   */\n      dup6\n        /* \"#utility.yul\":324:346   */\n      add\n        /* \"#utility.yul\":320:351   */\n      add\n        /* \"#utility.yul\":313:355   */\n      mstore\n        /* \"#utility.yul\":423:425   */\n      0x40\n        /* \"#utility.yul\":416:418   */\n      0x1f\n        /* \"#utility.yul\":412:419   */\n      not\n        /* \"#utility.yul\":407:409   */\n      0x1f\n        /* \"#utility.yul\":399:405   */\n      dup4\n        /* \"#utility.yul\":395:410   */\n      add\n        /* \"#utility.yul\":391:420   */\n      and\n        /* \"#utility.yul\":380:389   */\n      dup5\n        /* \"#utility.yul\":376:421   */\n      add\n        /* \"#utility.yul\":372:426   */\n      add\n        /* \"#utility.yul\":364:426   */\n      swap2\n      pop\n      pop\n        /* \"#utility.yul\":14:432   */\n      swap3\n      swap2\n      pop\n      pop\n      jump\t// out\n        /* \"#utility.yul\":437:610   */\n    tag_216:\n        /* \"#utility.yul\":505:525   */\n      dup1\n      calldataload\n      sub(shl(0xa0, 0x01), 0x01)\n        /* \"#utility.yul\":554:585   */\n      dup2\n      and\n        /* \"#utility.yul\":544:586   */\n      dup2\n      eq\n        /* \"#utility.yul\":534:604   */\n      tag_221\n      jumpi\n        /* \"#utility.yul\":600:601   */\n      0x00\n        /* \"#utility.yul\":597:598   */\n      0x00\n        /* \"#utility.yul\":590:602   */\n      revert\n        /* \"#utility.yul\":534:604   */\n    tag_221:\n        /* \"#utility.yul\":437:610   */\n      swap2\n      swap1\n      pop\n      jump\t// out\n        /* \"#utility.yul\":615:915   */\n    tag_28:\n        /* \"#utility.yul\":683:689   */\n      0x00\n        /* \"#utility.yul\":691:697   */\n      0x00\n        /* \"#utility.yul\":744:746   */\n      0x40\n        /* \"#utility.yul\":732:741   */\n      dup4\n        /* \"#utility.yul\":723:730   */\n      dup6\n        /* \"#utility.yul\":719:742   */\n      sub\n        /* \"#utility.yul\":715:747   */\n      slt\n        /* \"#utility.yul\":712:764   */\n      iszero\n      tag_223\n      jumpi\n        /* \"#utility.yul\":760:761   */\n      0x00\n        /* \"#utility.yul\":757:758   */\n      0x00\n        /* \"#utility.yul\":750:762   */\n      revert\n        /* \"#utility.yul\":712:764   */\n    tag_223:\n        /* \"#utility.yul\":783:812   */\n      tag_224\n        /* \"#utility.yul\":802:811   */\n      dup4\n        /* \"#utility.yul\":783:812   */\n      tag_216\n      jump\t// in\n    tag_224:\n        /* \"#utility.yul\":773:812   */\n      swap5\n        /* \"#utility.yul\":881:883   */\n      0x20\n        /* \"#utility.yul\":866:884   */\n      swap4\n      swap1\n      swap4\n      add\n        /* \"#utility.yul\":853:885   */\n      calldataload\n      swap4\n      pop\n      pop\n      pop\n        /* \"#utility.yul\":615:915   */\n      jump\t// out\n        /* \"#utility.yul\":1294:1520   */\n    tag_40:\n        /* \"#utility.yul\":1353:1359   */\n      0x00\n        /* \"#utility.yul\":1406:1408   */\n      0x20\n        /* \"#utility.yul\":1394:1403   */\n      dup3\n        /* \"#utility.yul\":1385:1392   */\n      dup5\n        /* \"#utility.yul\":1381:1404   */\n      sub\n        /* \"#utility.yul\":1377:1409   */\n      slt\n        /* \"#utility.yul\":1374:1426   */\n      iszero\n      tag_228\n      jumpi\n        /* \"#utility.yul\":1422:1423   */\n      0x00\n        /* \"#utility.yul\":1419:1420   */\n      0x00\n        /* \"#utility.yul\":1412:1424   */\n      revert\n        /* \"#utility.yul\":1374:1426   */\n    tag_228:\n      pop\n        /* \"#utility.yul\":1467:1490   */\n      calldataload\n      swap2\n        /* \"#utility.yul\":1294:1520   */\n      swap1\n      pop\n      jump\t// out\n        /* \"#utility.yul\":1525:1899   */\n    tag_46:\n        /* \"#utility.yul\":1602:1608   */\n      0x00\n        /* \"#utility.yul\":1610:1616   */\n      0x00\n        /* \"#utility.yul\":1618:1624   */\n      0x00\n        /* \"#utility.yul\":1671:1673   */\n      0x60\n        /* \"#utility.yul\":1659:1668   */\n      dup5\n        /* \"#utility.yul\":1650:1657   */\n      dup7\n        /* \"#utility.yul\":1646:1669   */\n      sub\n        /* \"#utility.yul\":1642:1674   */\n      slt\n        /* \"#utility.yul\":1639:1691   */\n      iszero\n      tag_230\n      jumpi\n        /* \"#utility.yul\":1687:1688   */\n      0x00\n        /* \"#utility.yul\":1684:1685   */\n      0x00\n        /* \"#utility.yul\":1677:1689   */\n      revert\n        /* \"#utility.yul\":1639:1691   */\n    tag_230:\n        /* \"#utility.yul\":1710:1739   */\n      tag_231\n        /* \"#utility.yul\":1729:1738   */\n      dup5\n        /* \"#utility.yul\":1710:1739   */\n      tag_216\n      jump\t// in\n    tag_231:\n        /* \"#utility.yul\":1700:1739   */\n      swap3\n      pop\n        /* \"#utility.yul\":1758:1796   */\n      tag_232\n        /* \"#utility.yul\":1792:1794   */\n      0x20\n        /* \"#utility.yul\":1781:1790   */\n      dup6\n        /* \"#utility.yul\":1777:1795   */\n      add\n        /* \"#utility.yul\":1758:1796   */\n      tag_216\n      jump\t// in\n    tag_232:\n        /* \"#utility.yul\":1525:1899   */\n      swap3\n      swap6\n        /* \"#utility.yul\":1748:1796   */\n      swap3\n      swap5\n      pop\n      pop\n      pop\n        /* \"#utility.yul\":1865:1867   */\n      0x40\n        /* \"#utility.yul\":1850:1868   */\n      swap2\n      swap1\n      swap2\n      add\n        /* \"#utility.yul\":1837:1869   */\n      calldataload\n      swap1\n        /* \"#utility.yul\":1525:1899   */\n      jump\t// out\n        /* \"#utility.yul\":2093:2279   */\n    tag_63:\n        /* \"#utility.yul\":2152:2158   */\n      0x00\n        /* \"#utility.yul\":2205:2207   */\n      0x20\n        /* \"#utility.yul\":2193:2202   */\n      dup3\n        /* \"#utility.yul\":2184:2191   */\n      dup5\n        /* \"#utility.yul\":2180:2203   */\n      sub\n        /* \"#utility.yul\":2176:2208   */\n      slt\n        /* \"#utility.yul\":2173:2225   */\n      iszero\n      tag_235\n      jumpi\n        /* \"#utility.yul\":2221:2222   */\n      0x00\n        /* \"#utility.yul\":2218:2219   */\n      0x00\n        /* \"#utility.yul\":2211:2223   */\n      revert\n        /* \"#utility.yul\":2173:2225   */\n    tag_235:\n        /* \"#utility.yul\":2244:2273   */\n      tag_199\n        /* \"#utility.yul\":2263:2272   */\n      dup3\n        /* \"#utility.yul\":2244:2273   */\n      tag_216\n      jump\t// in\n        /* \"#utility.yul\":2284:2544   */\n    tag_87:\n        /* \"#utility.yul\":2352:2358   */\n      0x00\n        /* \"#utility.yul\":2360:2366   */\n      0x00\n        /* \"#utility.yul\":2413:2415   */\n      0x40\n        /* \"#utility.yul\":2401:2410   */\n      dup4\n        /* \"#utility.yul\":2392:2399   */\n      dup6\n        /* \"#utility.yul\":2388:2411   */\n      sub\n        /* \"#utility.yul\":2384:2416   */\n      slt\n        /* \"#utility.yul\":2381:2433   */\n      iszero\n      tag_238\n      jumpi\n        /* \"#utility.yul\":2429:2430   */\n      0x00\n        /* \"#utility.yul\":2426:2427   */\n      0x00\n        /* \"#utility.yul\":2419:2431   */\n      revert\n        /* \"#utility.yul\":2381:2433   */\n    tag_238:\n        /* \"#utility.yul\":2452:2481   */\n      tag_239\n        /* \"#utility.yul\":2471:2480   */\n      dup4\n        /* \"#utility.yul\":2452:2481   */\n      tag_216\n      jump\t// in\n    tag_239:\n        /* \"#utility.yul\":2442:2481   */\n      swap2\n      pop\n        /* \"#utility.yul\":2500:2538   */\n      tag_240\n        /* \"#utility.yul\":2534:2536   */\n      0x20\n        /* \"#utility.yul\":2523:2532   */\n      dup5\n        /* \"#utility.yul\":2519:2537   */\n      add\n        /* \"#utility.yul\":2500:2538   */\n      tag_216\n      jump\t// in\n    tag_240:\n        /* \"#utility.yul\":2490:2538   */\n      swap1\n      pop\n        /* \"#utility.yul\":2284:2544   */\n      swap3\n      pop\n      swap3\n      swap1\n      pop\n      jump\t// out\n        /* \"#utility.yul\":2549:2929   */\n    tag_97:\n        /* \"#utility.yul\":2628:2629   */\n      0x01\n        /* \"#utility.yul\":2624:2636   */\n      dup2\n      dup2\n      shr\n      swap1\n        /* \"#utility.yul\":2671:2683   */\n      dup3\n      and\n      dup1\n        /* \"#utility.yul\":2692:2753   */\n      tag_242\n      jumpi\n        /* \"#utility.yul\":2746:2750   */\n      0x7f\n        /* \"#utility.yul\":2738:2744   */\n      dup3\n        /* \"#utility.yul\":2734:2751   */\n      and\n        /* \"#utility.yul\":2724:2751   */\n      swap2\n      pop\n        /* \"#utility.yul\":2692:2753   */\n    tag_242:\n        /* \"#utility.yul\":2799:2801   */\n      0x20\n        /* \"#utility.yul\":2791:2797   */\n      dup3\n        /* \"#utility.yul\":2788:2802   */\n      lt\n        /* \"#utility.yul\":2768:2786   */\n      dup2\n        /* \"#utility.yul\":2765:2803   */\n      sub\n        /* \"#utility.yul\":2762:2923   */\n      tag_243\n      jumpi\n        /* \"#utility.yul\":2845:2855   */\n      0x4e487b71\n        /* \"#utility.yul\":2840:2843   */\n      0xe0\n        /* \"#utility.yul\":2836:2856   */\n      shl\n        /* \"#utility.yul\":2833:2834   */\n      0x00\n        /* \"#utility.yul\":2826:2857   */\n      mstore\n        /* \"#utility.yul\":2880:2884   */\n      0x22\n        /* \"#utility.yul\":2877:2878   */\n      0x04\n        /* \"#utility.yul\":2870:2885   */\n      mstore\n        /* \"#utility.yul\":2908:2912   */\n      0x24\n        /* \"#utility.yul\":2905:2906   */\n      0x00\n        /* \"#utility.yul\":2898:2913   */\n      revert\n        /* \"#utility.yul\":2762:2923   */\n    tag_243:\n      pop\n        /* \"#utility.yul\":2549:2929   */\n      swap2\n      swap1\n      pop\n      jump\t// out\n        /* \"#utility.yul\":2934:3061   */\n    tag_217:\n        /* \"#utility.yul\":2995:3005   */\n      0x4e487b71\n        /* \"#utility.yul\":2990:2993   */\n      0xe0\n        /* \"#utility.yul\":2986:3006   */\n      shl\n        /* \"#utility.yul\":2983:2984   */\n      0x00\n        /* \"#utility.yul\":2976:3007   */\n      mstore\n        /* \"#utility.yul\":3026:3030   */\n      0x11\n        /* \"#utility.yul\":3023:3024   */\n      0x04\n        /* \"#utility.yul\":3016:3031   */\n      mstore\n        /* \"#utility.yul\":3050:3054   */\n      0x24\n        /* \"#utility.yul\":3047:3048   */\n      0x00\n        /* \"#utility.yul\":3040:3055   */\n      revert\n        /* \"#utility.yul\":3066:3234   */\n    tag_114:\n        /* \"#utility.yul\":3139:3148   */\n      dup1\n      dup3\n      mul\n        /* \"#utility.yul\":3170:3179   */\n      dup2\n      iszero\n        /* \"#utility.yul\":3187:3202   */\n      dup3\n      dup3\n      div\n        /* \"#utility.yul\":3181:3203   */\n      dup5\n      eq\n        /* \"#utility.yul\":3167:3204   */\n      or\n        /* \"#utility.yul\":3157:3228   */\n      tag_102\n      jumpi\n        /* \"#utility.yul\":3208:3226   */\n      tag_102\n      tag_217\n      jump\t// in\n        /* \"#utility.yul\":3239:3456   */\n    tag_116:\n        /* \"#utility.yul\":3279:3280   */\n      0x00\n        /* \"#utility.yul\":3305:3306   */\n      dup3\n        /* \"#utility.yul\":3295:3427   */\n      tag_249\n      jumpi\n        /* \"#utility.yul\":3349:3359   */\n      0x4e487b71\n        /* \"#utility.yul\":3344:3347   */\n      0xe0\n        /* \"#utility.yul\":3340:3360   */\n      shl\n        /* \"#utility.yul\":3337:3338   */\n      0x00\n        /* \"#utility.yul\":3330:3361   */\n      mstore\n        /* \"#utility.yul\":3384:3388   */\n      0x12\n        /* \"#utility.yul\":3381:3382   */\n      0x04\n        /* \"#utility.yul\":3374:3389   */\n      mstore\n        /* \"#utility.yul\":3412:3416   */\n      0x24\n        /* \"#utility.yul\":3409:3410   */\n      0x00\n        /* \"#utility.yul\":3402:3417   */\n      revert\n        /* \"#utility.yul\":3295:3427   */\n    tag_249:\n      pop\n        /* \"#utility.yul\":3441:3450   */\n      div\n      swap1\n        /* \"#utility.yul\":3239:3456   */\n      jump\t// out\n        /* \"#utility.yul\":3809:3934   */\n    tag_135:\n        /* \"#utility.yul\":3874:3883   */\n      dup1\n      dup3\n      add\n        /* \"#utility.yul\":3895:3905   */\n      dup1\n      dup3\n      gt\n        /* \"#utility.yul\":3892:3928   */\n      iszero\n      tag_102\n      jumpi\n        /* \"#utility.yul\":3908:3926   */\n      tag_102\n      tag_217\n      jump\t// in\n\n    auxdata: 0xa2646970667358221220ab6584cabb7d0a805f94160f17e56b31c32700f3d282db8a8326a3ff51cb0efe64736f6c634300081c0033\n}\n",
				"bytecode": {
					"linkReferences": {},
					"object": "608060405234801561000f575f5ffd5b506040518060400160405280601781526020017f4c6971756964207374616b656420457468657220322e30000000000000000000815250604051806040016040528060058152602001640e6e88aa8960db1b8152508160039081610073919061034d565b506004610080828261034d565b50505061009c33683635c9adc5dea000006100e060201b60201c565b6100af33683635c9adc5dea0000061011d565b683635c9adc5dea000007fe3b4b636e601189b5f4c6742edf2538ac12bb61ed03e6da26949d69838fa447e5561042c565b6001600160a01b03821661010e5760405163ec442f0560e01b81525f60048201526024015b60405180910390fd5b6101195f8383610190565b5050565b6040516001600160601b0319606084901b1660208201527f101b73cb67a778893ea0c666939f8923c501a5d4cd59d1ecf919b502247b5b0c60348201525f90605401604051602081830303815290604052805190602001209050610187818361018c60201b60201c565b505050565b9055565b6001600160a01b0383166101ba578060025f8282546101af9190610407565b9091555061022a9050565b6001600160a01b0383165f908152602081905260409020548181101561020c5760405163391434e360e21b81526001600160a01b03851660048201526024810182905260448101839052606401610105565b6001600160a01b0384165f9081526020819052604090209082900390555b6001600160a01b03821661024657600280548290039055610264565b6001600160a01b0382165f9081526020819052604090208054820190555b816001600160a01b0316836001600160a01b03167fddf252ad1be2c89b69c2b068fc378daa952ba7f163c4a11628f55a4df523b3ef836040516102a991815260200190565b60405180910390a3505050565b634e487b7160e01b5f52604160045260245ffd5b600181811c908216806102de57607f821691505b6020821081036102fc57634e487b7160e01b5f52602260045260245ffd5b50919050565b601f82111561018757805f5260205f20601f840160051c810160208510156103275750805b601f840160051c820191505b81811015610346575f8155600101610333565b5050505050565b81516001600160401b03811115610366576103666102b6565b61037a8161037484546102ca565b84610302565b6020601f8211600181146103ac575f83156103955750848201515b5f19600385901b1c1916600184901b178455610346565b5f84815260208120601f198516915b828110156103db57878501518255602094850194600190920191016103bb565b50848210156103f857868401515f19600387901b60f8161c191681555b50505050600190811b01905550565b8082018082111561042657634e487b7160e01b5f52601160045260245ffd5b92915050565b610ae3806104395f395ff3fe6080604052600436106100e4575f3560e01c80635bcb2fc611610087578063a9059cbb11610057578063a9059cbb14610233578063d5002f2e14610252578063dd62ed3e14610266578063f5eb42dc146102aa575f5ffd5b80635bcb2fc6146101d957806370a08231146101e15780637a28fb881461020057806395d89b411461021f575f5ffd5b806319208451116100c2578063192084511461015f57806323b872dd1461017e578063313ce5671461019d57806359974e38146101b8575f5ffd5b806306fdde03146100e8578063095ea7b31461011257806318160ddd14610141575b5f5ffd5b3480156100f3575f5ffd5b506100fc6102c9565b6040516101099190610905565b60405180910390f35b34801561011d575f5ffd5b5061013161012c366004610955565b610359565b6040519015158152602001610109565b34801561014c575f5ffd5b506002545b604051908152602001610109565b34801561016a575f5ffd5b5061015161017936600461097d565b610372565b348015610189575f5ffd5b50610131610198366004610994565b6103a5565b3480156101a8575f5ffd5b5060405160128152602001610109565b3480156101c3575f5ffd5b506101d76101d236600461097d565b6103c8565b005b6101d76103d5565b3480156101ec575f5ffd5b506101516101fb3660046109ce565b61048c565b34801561020b575f5ffd5b5061015161021a36600461097d565b610499565b34801561022a575f5ffd5b506100fc6104bf565b34801561023e575f5ffd5b5061013161024d366004610955565b6104ce565b34801561025d575f5ffd5b506101516104db565b348015610271575f5ffd5b506101516102803660046109e7565b6001600160a01b039182165f90815260016020908152604080832093909416825291909152205490565b3480156102b5575f5ffd5b506101516102c43660046109ce565b610509565b6060600380546102d890610a18565b80601f016020809104026020016040519081016040528092919081815260200182805461030490610a18565b801561034f5780601f106103265761010080835404028352916020019161034f565b820191905f5260205f20905b81548152906001019060200180831161033257829003601f168201915b5050505050905090565b5f33610366818585610513565b60019150505b92915050565b5f61037c60025490565b5f03610386575090565b6002546103916104db565b61039b9084610a64565b61036c9190610a7b565b5f336103b2858285610525565b6103bd8585856105a0565b506001949350505050565b6103d230826105fd565b50565b5f341161041f5760405162461bcd60e51b8152602060048201526013602482015272086c2dcdcdee840e6eac4dad2e84060408aa89606b1b60448201526064015b60405180910390fd5b5f61042934610372565b9050610448338261043933610509565b6104439190610a9a565b610635565b610482816104546104db565b61045e9190610a9a565b7fe3b4b636e601189b5f4c6742edf2538ac12bb61ed03e6da26949d69838fa447e55565b6103d233346105fd565b5f61036c61021a83610509565b5f6104a26104db565b5f036104af57505f919050565b6104b76104db565b600254610391565b6060600480546102d890610a18565b5f336103668185856105a0565b5f6105047fe3b4b636e601189b5f4c6742edf2538ac12bb61ed03e6da26949d69838fa447e5490565b905090565b5f61036c8261069d565b610520838383600161070d565b505050565b6001600160a01b038381165f908152600160209081526040808320938616835292905220545f19811461059a578181101561058c57604051637dc7a0d960e11b81526001600160a01b03841660048201526024810182905260448101839052606401610416565b61059a84848484035f61070d565b50505050565b6001600160a01b0383166105c957604051634b637e8f60e11b81525f6004820152602401610416565b6001600160a01b0382166105f25760405163ec442f0560e01b81525f6004820152602401610416565b6105208383836107df565b6001600160a01b0382166106265760405163ec442f0560e01b81525f6004820152602401610416565b6106315f83836107df565b5050565b6040516bffffffffffffffffffffffff19606084901b1660208201527f101b73cb67a778893ea0c666939f8923c501a5d4cd59d1ecf919b502247b5b0c60348201525f9060540160405160208183030381529060405280519060200120905061052081839055565b6040516bffffffffffffffffffffffff19606083901b1660208201527f101b73cb67a778893ea0c666939f8923c501a5d4cd59d1ecf919b502247b5b0c60348201525f908190605401604051602081830303815290604052805190602001209050610706815490565b9392505050565b6001600160a01b0384166107365760405163e602df0560e01b81525f6004820152602401610416565b6001600160a01b03831661075f57604051634a1406b160e11b81525f6004820152602401610416565b6001600160a01b038085165f908152600160209081526040808320938716835292905220829055801561059a57826001600160a01b0316846001600160a01b03167f8c5be1e5ebec7d5bd14f71427d1e84f3dd0314c0f7b2291e5b200ac8c7c3b925846040516107d191815260200190565b60405180910390a350505050565b6001600160a01b038316610809578060025f8282546107fe9190610a9a565b909155506108799050565b6001600160a01b0383165f908152602081905260409020548181101561085b5760405163391434e360e21b81526001600160a01b03851660048201526024810182905260448101839052606401610416565b6001600160a01b0384165f9081526020819052604090209082900390555b6001600160a01b038216610895576002805482900390556108b3565b6001600160a01b0382165f9081526020819052604090208054820190555b816001600160a01b0316836001600160a01b03167fddf252ad1be2c89b69c2b068fc378daa952ba7f163c4a11628f55a4df523b3ef836040516108f891815260200190565b60405180910390a3505050565b602081525f82518060208401528060208501604085015e5f604082850101526040601f19601f83011684010191505092915050565b80356001600160a01b0381168114610950575f5ffd5b919050565b5f5f60408385031215610966575f5ffd5b61096f8361093a565b946020939093013593505050565b5f6020828403121561098d575f5ffd5b5035919050565b5f5f5f606084860312156109a6575f5ffd5b6109af8461093a565b92506109bd6020850161093a565b929592945050506040919091013590565b5f602082840312156109de575f5ffd5b6107068261093a565b5f5f604083850312156109f8575f5ffd5b610a018361093a565b9150610a0f6020840161093a565b90509250929050565b600181811c90821680610a2c57607f821691505b602082108103610a4a57634e487b7160e01b5f52602260045260245ffd5b50919050565b634e487b7160e01b5f52601160045260245ffd5b808202811582820484141761036c5761036c610a50565b5f82610a9557634e487b7160e01b5f52601260045260245ffd5b500490565b8082018082111561036c5761036c610a5056fea2646970667358221220ab6584cabb7d0a805f94160f17e56b31c32700f3d282db8a8326a3ff51cb0efe64736f6c634300081c0033",
					"opcodes": "PUSH1 0x80 PUSH1 0x40 MSTORE CALLVALUE DUP1 ISZERO PUSH2 0xF JUMPI PUSH0 PUSH0 REVERT JUMPDEST POP PUSH1 0x40 MLOAD DUP1 PUSH1 0x40 ADD PUSH1 0x40 MSTORE DUP1 PUSH1 0x17 DUP2 MSTORE PUSH1 0x20 ADD PUSH32 0x4C6971756964207374616B656420457468657220322E30000000000000000000 DUP2 MSTORE POP PUSH1 0x40 MLOAD DUP1 PUSH1 0x40 ADD PUSH1 0x40 MSTORE DUP1 PUSH1 0x5 DUP2 MSTORE PUSH1 0x20 ADD PUSH5 0xE6E88AA89 PUSH1 0xDB SHL DUP2 MSTORE POP DUP2 PUSH1 0x3 SWAP1 DUP2 PUSH2 0x73 SWAP2 SWAP1 PUSH2 0x34D JUMP JUMPDEST POP PUSH1 0x4 PUSH2 0x80 DUP3 DUP3 PUSH2 0x34D JUMP JUMPDEST POP POP POP PUSH2 0x9C CALLER PUSH9 0x3635C9ADC5DEA00000 PUSH2 0xE0 PUSH1 0x20 SHL PUSH1 0x20 SHR JUMP JUMPDEST PUSH2 0xAF CALLER PUSH9 0x3635C9ADC5DEA00000 PUSH2 0x11D JUMP JUMPDEST PUSH9 0x3635C9ADC5DEA00000 PUSH32 0xE3B4B636E601189B5F4C6742EDF2538AC12BB61ED03E6DA26949D69838FA447E SSTORE PUSH2 0x42C JUMP JUMPDEST PUSH1 0x1 PUSH1 0x1 PUSH1 0xA0 SHL SUB DUP3 AND PUSH2 0x10E JUMPI PUSH1 0x40 MLOAD PUSH4 0xEC442F05 PUSH1 0xE0 SHL DUP2 MSTORE PUSH0 PUSH1 0x4 DUP3 ADD MSTORE PUSH1 0x24 ADD JUMPDEST PUSH1 0x40 MLOAD DUP1 SWAP2 SUB SWAP1 REVERT JUMPDEST PUSH2 0x119 PUSH0 DUP4 DUP4 PUSH2 0x190 JUMP JUMPDEST POP POP JUMP JUMPDEST PUSH1 0x40 MLOAD PUSH1 0x1 PUSH1 0x1 PUSH1 0x60 SHL SUB NOT PUSH1 0x60 DUP5 SWAP1 SHL AND PUSH1 0x20 DUP3 ADD MSTORE PUSH32 0x101B73CB67A778893EA0C666939F8923C501A5D4CD59D1ECF919B502247B5B0C PUSH1 0x34 DUP3 ADD MSTORE PUSH0 SWAP1 PUSH1 0x54 ADD PUSH1 0x40 MLOAD PUSH1 0x20 DUP2 DUP4 SUB SUB DUP2 MSTORE SWAP1 PUSH1 0x40 MSTORE DUP1 MLOAD SWAP1 PUSH1 0x20 ADD KECCAK256 SWAP1 POP PUSH2 0x187 DUP2 DUP4 PUSH2 0x18C PUSH1 0x20 SHL PUSH1 0x20 SHR JUMP JUMPDEST POP POP POP JUMP JUMPDEST SWAP1 SSTORE JUMP JUMPDEST PUSH1 0x1 PUSH1 0x1 PUSH1 0xA0 SHL SUB DUP4 AND PUSH2 0x1BA JUMPI DUP1 PUSH1 0x2 PUSH0 DUP3 DUP3 SLOAD PUSH2 0x1AF SWAP2 SWAP1 PUSH2 0x407 JUMP JUMPDEST SWAP1 SWAP2 SSTORE POP PUSH2 0x22A SWAP1 POP JUMP JUMPDEST PUSH1 0x1 PUSH1 0x1 PUSH1 0xA0 SHL SUB DUP4 AND PUSH0 SWAP1 DUP2 MSTORE PUSH1 0x20 DUP2 SWAP1 MSTORE PUSH1 0x40 SWAP1 KECCAK256 SLOAD DUP2 DUP2 LT ISZERO PUSH2 0x20C JUMPI PUSH1 0x40 MLOAD PUSH4 0x391434E3 PUSH1 0xE2 SHL DUP2 MSTORE PUSH1 0x1 PUSH1 0x1 PUSH1 0xA0 SHL SUB DUP6 AND PUSH1 0x4 DUP3 ADD MSTORE PUSH1 0x24 DUP2 ADD DUP3 SWAP1 MSTORE PUSH1 0x44 DUP2 ADD DUP4 SWAP1 MSTORE PUSH1 0x64 ADD PUSH2 0x105 JUMP JUMPDEST PUSH1 0x1 PUSH1 0x1 PUSH1 0xA0 SHL SUB DUP5 AND PUSH0 SWAP1 DUP2 MSTORE PUSH1 0x20 DUP2 SWAP1 MSTORE PUSH1 0x40 SWAP1 KECCAK256 SWAP1 DUP3 SWAP1 SUB SWAP1 SSTORE JUMPDEST PUSH1 0x1 PUSH1 0x1 PUSH1 0xA0 SHL SUB DUP3 AND PUSH2 0x246 JUMPI PUSH1 0x2 DUP1 SLOAD DUP3 SWAP1 SUB SWAP1 SSTORE PUSH2 0x264 JUMP JUMPDEST PUSH1 0x1 PUSH1 0x1 PUSH1 0xA0 SHL SUB DUP3 AND PUSH0 SWAP1 DUP2 MSTORE PUSH1 0x20 DUP2 SWAP1 MSTORE PUSH1 0x40 SWAP1 KECCAK256 DUP1 SLOAD DUP3 ADD SWAP1 SSTORE JUMPDEST DUP2 PUSH1 0x1 PUSH1 0x1 PUSH1 0xA0 SHL SUB AND DUP4 PUSH1 0x1 PUSH1 0x1 PUSH1 0xA0 SHL SUB AND PUSH32 0xDDF252AD1BE2C89B69C2B068FC378DAA952BA7F163C4A11628F55A4DF523B3EF DUP4 PUSH1 0x40 MLOAD PUSH2 0x2A9 SWAP2 DUP2 MSTORE PUSH1 0x20 ADD SWAP1 JUMP JUMPDEST PUSH1 0x40 MLOAD DUP1 SWAP2 SUB SWAP1 LOG3 POP POP POP JUMP JUMPDEST PUSH4 0x4E487B71 PUSH1 0xE0 SHL PUSH0 MSTORE PUSH1 0x41 PUSH1 0x4 MSTORE PUSH1 0x24 PUSH0 REVERT JUMPDEST PUSH1 0x1 DUP2 DUP2 SHR SWAP1 DUP3 AND DUP1 PUSH2 0x2DE JUMPI PUSH1 0x7F DUP3 AND SWAP2 POP JUMPDEST PUSH1 0x20 DUP3 LT DUP2 SUB PUSH2 0x2FC JUMPI PUSH4 0x4E487B71 PUSH1 0xE0 SHL PUSH0 MSTORE PUSH1 0x22 PUSH1 0x4 MSTORE PUSH1 0x24 PUSH0 REVERT JUMPDEST POP SWAP2 SWAP1 POP JUMP JUMPDEST PUSH1 0x1F DUP3 GT ISZERO PUSH2 0x187 JUMPI DUP1 PUSH0 MSTORE PUSH1 0x20 PUSH0 KECCAK256 PUSH1 0x1F DUP5 ADD PUSH1 0x5 SHR DUP2 ADD PUSH1 0x20 DUP6 LT ISZERO PUSH2 0x327 JUMPI POP DUP1 JUMPDEST PUSH1 0x1F DUP5 ADD PUSH1 0x5 SHR DUP3 ADD SWAP2 POP JUMPDEST DUP2 DUP2 LT ISZERO PUSH2 0x346 JUMPI PUSH0 DUP2 SSTORE PUSH1 0x1 ADD PUSH2 0x333 JUMP JUMPDEST POP POP POP POP POP JUMP JUMPDEST DUP2 MLOAD PUSH1 0x1 PUSH1 0x1 PUSH1 0x40 SHL SUB DUP2 GT ISZERO PUSH2 0x366 JUMPI PUSH2 0x366 PUSH2 0x2B6 JUMP JUMPDEST PUSH2 0x37A DUP2 PUSH2 0x374 DUP5 SLOAD PUSH2 0x2CA JUMP JUMPDEST DUP5 PUSH2 0x302 JUMP JUMPDEST PUSH1 0x20 PUSH1 0x1F DUP3 GT PUSH1 0x1 DUP2 EQ PUSH2 0x3AC JUMPI PUSH0 DUP4 ISZERO PUSH2 0x395 JUMPI POP DUP5 DUP3 ADD MLOAD JUMPDEST PUSH0 NOT PUSH1 0x3 DUP6 SWAP1 SHL SHR NOT AND PUSH1 0x1 DUP5 SWAP1 SHL OR DUP5 SSTORE PUSH2 0x346 JUMP JUMPDEST PUSH0 DUP5 DUP2 MSTORE PUSH1 0x20 DUP2 KECCAK256 PUSH1 0x1F NOT DUP6 AND SWAP2 JUMPDEST DUP3 DUP2 LT ISZERO PUSH2 0x3DB JUMPI DUP8 DUP6 ADD MLOAD DUP3 SSTORE PUSH1 0x20 SWAP5 DUP6 ADD SWAP5 PUSH1 0x1 SWAP1 SWAP3 ADD SWAP2 ADD PUSH2 0x3BB JUMP JUMPDEST POP DUP5 DUP3 LT ISZERO PUSH2 0x3F8 JUMPI DUP7 DUP5 ADD MLOAD PUSH0 NOT PUSH1 0x3 DUP8 SWAP1 SHL PUSH1 0xF8 AND SHR NOT AND DUP2 SSTORE JUMPDEST POP POP POP POP PUSH1 0x1 SWAP1 DUP2 SHL ADD SWAP1 SSTORE POP JUMP JUMPDEST DUP1 DUP3 ADD DUP1 DUP3 GT ISZERO PUSH2 0x426 JUMPI PUSH4 0x4E487B71 PUSH1 0xE0 SHL PUSH0 MSTORE PUSH1 0x11 PUSH1 0x4 MSTORE PUSH1 0x24 PUSH0 REVERT JUMPDEST SWAP3 SWAP2 POP POP JUMP JUMPDEST PUSH2 0xAE3 DUP1 PUSH2 0x439 PUSH0 CODECOPY PUSH0 RETURN INVALID PUSH1 0x80 PUSH1 0x40 MSTORE PUSH1 0x4 CALLDATASIZE LT PUSH2 0xE4 JUMPI PUSH0 CALLDATALOAD PUSH1 0xE0 SHR DUP1 PUSH4 0x5BCB2FC6 GT PUSH2 0x87 JUMPI DUP1 PUSH4 0xA9059CBB GT PUSH2 0x57 JUMPI DUP1 PUSH4 0xA9059CBB EQ PUSH2 0x233 JUMPI DUP1 PUSH4 0xD5002F2E EQ PUSH2 0x252 JUMPI DUP1 PUSH4 0xDD62ED3E EQ PUSH2 0x266 JUMPI DUP1 PUSH4 0xF5EB42DC EQ PUSH2 0x2AA JUMPI PUSH0 PUSH0 REVERT JUMPDEST DUP1 PUSH4 0x5BCB2FC6 EQ PUSH2 0x1D9 JUMPI DUP1 PUSH4 0x70A08231 EQ PUSH2 0x1E1 JUMPI DUP1 PUSH4 0x7A28FB88 EQ PUSH2 0x200 JUMPI DUP1 PUSH4 0x95D89B41 EQ PUSH2 0x21F JUMPI PUSH0 PUSH0 REVERT JUMPDEST DUP1 PUSH4 0x19208451 GT PUSH2 0xC2 JUMPI DUP1 PUSH4 0x19208451 EQ PUSH2 0x15F JUMPI DUP1 PUSH4 0x23B872DD EQ PUSH2 0x17E JUMPI DUP1 PUSH4 0x313CE567 EQ PUSH2 0x19D JUMPI DUP1 PUSH4 0x59974E38 EQ PUSH2 0x1B8 JUMPI PUSH0 PUSH0 REVERT JUMPDEST DUP1 PUSH4 0x6FDDE03 EQ PUSH2 0xE8 JUMPI DUP1 PUSH4 0x95EA7B3 EQ PUSH2 0x112 JUMPI DUP1 PUSH4 0x18160DDD EQ PUSH2 0x141 JUMPI JUMPDEST PUSH0 PUSH0 REVERT JUMPDEST CALLVALUE DUP1 ISZERO PUSH2 0xF3 JUMPI PUSH0 PUSH0 REVERT JUMPDEST POP PUSH2 0xFC PUSH2 0x2C9 JUMP JUMPDEST PUSH1 0x40 MLOAD PUSH2 0x109 SWAP2 SWAP1 PUSH2 0x905 JUMP JUMPDEST PUSH1 0x40 MLOAD DUP1 SWAP2 SUB SWAP1 RETURN JUMPDEST CALLVALUE DUP1 ISZERO PUSH2 0x11D JUMPI PUSH0 PUSH0 REVERT JUMPDEST POP PUSH2 0x131 PUSH2 0x12C CALLDATASIZE PUSH1 0x4 PUSH2 0x955 JUMP JUMPDEST PUSH2 0x359 JUMP JUMPDEST PUSH1 0x40 MLOAD SWAP1 ISZERO ISZERO DUP2 MSTORE PUSH1 0x20 ADD PUSH2 0x109 JUMP JUMPDEST CALLVALUE DUP1 ISZERO PUSH2 0x14C JUMPI PUSH0 PUSH0 REVERT JUMPDEST POP PUSH1 0x2 SLOAD JUMPDEST PUSH1 0x40 MLOAD SWAP1 DUP2 MSTORE PUSH1 0x20 ADD PUSH2 0x109 JUMP JUMPDEST CALLVALUE DUP1 ISZERO PUSH2 0x16A JUMPI PUSH0 PUSH0 REVERT JUMPDEST POP PUSH2 0x151 PUSH2 0x179 CALLDATASIZE PUSH1 0x4 PUSH2 0x97D JUMP JUMPDEST PUSH2 0x372 JUMP JUMPDEST CALLVALUE DUP1 ISZERO PUSH2 0x189 JUMPI PUSH0 PUSH0 REVERT JUMPDEST POP PUSH2 0x131 PUSH2 0x198 CALLDATASIZE PUSH1 0x4 PUSH2 0x994 JUMP JUMPDEST PUSH2 0x3A5 JUMP JUMPDEST CALLVALUE DUP1 ISZERO PUSH2 0x1A8 JUMPI PUSH0 PUSH0 REVERT JUMPDEST POP PUSH1 0x40 MLOAD PUSH1 0x12 DUP2 MSTORE PUSH1 0x20 ADD PUSH2 0x109 JUMP JUMPDEST CALLVALUE DUP1 ISZERO PUSH2 0x1C3 JUMPI PUSH0 PUSH0 REVERT JUMPDEST POP PUSH2 0x1D7 PUSH2 0x1D2 CALLDATASIZE PUSH1 0x4 PUSH2 0x97D JUMP JUMPDEST PUSH2 0x3C8 JUMP JUMPDEST STOP JUMPDEST PUSH2 0x1D7 PUSH2 0x3D5 JUMP JUMPDEST CALLVALUE DUP1 ISZERO PUSH2 0x1EC JUMPI PUSH0 PUSH0 REVERT JUMPDEST POP PUSH2 0x151 PUSH2 0x1FB CALLDATASIZE PUSH1 0x4 PUSH2 0x9CE JUMP JUMPDEST PUSH2 0x48C JUMP JUMPDEST CALLVALUE DUP1 ISZERO PUSH2 0x20B JUMPI PUSH0 PUSH0 REVERT JUMPDEST POP PUSH2 0x151 PUSH2 0x21A CALLDATASIZE PUSH1 0x4 PUSH2 0x97D JUMP JUMPDEST PUSH2 0x499 JUMP JUMPDEST CALLVALUE DUP1 ISZERO PUSH2 0x22A JUMPI PUSH0 PUSH0 REVERT JUMPDEST POP PUSH2 0xFC PUSH2 0x4BF JUMP JUMPDEST CALLVALUE DUP1 ISZERO PUSH2 0x23E JUMPI PUSH0 PUSH0 REVERT JUMPDEST POP PUSH2 0x131 PUSH2 0x24D CALLDATASIZE PUSH1 0x4 PUSH2 0x955 JUMP JUMPDEST PUSH2 0x4CE JUMP JUMPDEST CALLVALUE DUP1 ISZERO PUSH2 0x25D JUMPI PUSH0 PUSH0 REVERT JUMPDEST POP PUSH2 0x151 PUSH2 0x4DB JUMP JUMPDEST CALLVALUE DUP1 ISZERO PUSH2 0x271 JUMPI PUSH0 PUSH0 REVERT JUMPDEST POP PUSH2 0x151 PUSH2 0x280 CALLDATASIZE PUSH1 0x4 PUSH2 0x9E7 JUMP JUMPDEST PUSH1 0x1 PUSH1 0x1 PUSH1 0xA0 SHL SUB SWAP2 DUP3 AND PUSH0 SWAP1 DUP2 MSTORE PUSH1 0x1 PUSH1 0x20 SWAP1 DUP2 MSTORE PUSH1 0x40 DUP1 DUP4 KECCAK256 SWAP4 SWAP1 SWAP5 AND DUP3 MSTORE SWAP2 SWAP1 SWAP2 MSTORE KECCAK256 SLOAD SWAP1 JUMP JUMPDEST CALLVALUE DUP1 ISZERO PUSH2 0x2B5 JUMPI PUSH0 PUSH0 REVERT JUMPDEST POP PUSH2 0x151 PUSH2 0x2C4 CALLDATASIZE PUSH1 0x4 PUSH2 0x9CE JUMP JUMPDEST PUSH2 0x509 JUMP JUMPDEST PUSH1 0x60 PUSH1 0x3 DUP1 SLOAD PUSH2 0x2D8 SWAP1 PUSH2 0xA18 JUMP JUMPDEST DUP1 PUSH1 0x1F ADD PUSH1 0x20 DUP1 SWAP2 DIV MUL PUSH1 0x20 ADD PUSH1 0x40 MLOAD SWAP1 DUP2 ADD PUSH1 0x40 MSTORE DUP1 SWAP3 SWAP2 SWAP1 DUP2 DUP2 MSTORE PUSH1 0x20 ADD DUP3 DUP1 SLOAD PUSH2 0x304 SWAP1 PUSH2 0xA18 JUMP JUMPDEST DUP1 ISZERO PUSH2 0x34F JUMPI DUP1 PUSH1 0x1F LT PUSH2 0x326 JUMPI PUSH2 0x100 DUP1 DUP4 SLOAD DIV MUL DUP4 MSTORE SWAP2 PUSH1 0x20 ADD SWAP2 PUSH2 0x34F JUMP JUMPDEST DUP3 ADD SWAP2 SWAP1 PUSH0 MSTORE PUSH1 0x20 PUSH0 KECCAK256 SWAP1 JUMPDEST DUP2 SLOAD DUP2 MSTORE SWAP1 PUSH1 0x1 ADD SWAP1 PUSH1 0x20 ADD DUP1 DUP4 GT PUSH2 0x332 JUMPI DUP3 SWAP1 SUB PUSH1 0x1F AND DUP3 ADD SWAP2 JUMPDEST POP POP POP POP POP SWAP1 POP SWAP1 JUMP JUMPDEST PUSH0 CALLER PUSH2 0x366 DUP2 DUP6 DUP6 PUSH2 0x513 JUMP JUMPDEST PUSH1 0x1 SWAP2 POP POP JUMPDEST SWAP3 SWAP2 POP POP JUMP JUMPDEST PUSH0 PUSH2 0x37C PUSH1 0x2 SLOAD SWAP1 JUMP JUMPDEST PUSH0 SUB PUSH2 0x386 JUMPI POP SWAP1 JUMP JUMPDEST PUSH1 0x2 SLOAD PUSH2 0x391 PUSH2 0x4DB JUMP JUMPDEST PUSH2 0x39B SWAP1 DUP5 PUSH2 0xA64 JUMP JUMPDEST PUSH2 0x36C SWAP2 SWAP1 PUSH2 0xA7B JUMP JUMPDEST PUSH0 CALLER PUSH2 0x3B2 DUP6 DUP3 DUP6 PUSH2 0x525 JUMP JUMPDEST PUSH2 0x3BD DUP6 DUP6 DUP6 PUSH2 0x5A0 JUMP JUMPDEST POP PUSH1 0x1 SWAP5 SWAP4 POP POP POP POP JUMP JUMPDEST PUSH2 0x3D2 ADDRESS DUP3 PUSH2 0x5FD JUMP JUMPDEST POP JUMP JUMPDEST PUSH0 CALLVALUE GT PUSH2 0x41F JUMPI PUSH1 0x40 MLOAD PUSH3 0x461BCD PUSH1 0xE5 SHL DUP2 MSTORE PUSH1 0x20 PUSH1 0x4 DUP3 ADD MSTORE PUSH1 0x13 PUSH1 0x24 DUP3 ADD MSTORE PUSH19 0x86C2DCDCDEE840E6EAC4DAD2E84060408AA89 PUSH1 0x6B SHL PUSH1 0x44 DUP3 ADD MSTORE PUSH1 0x64 ADD JUMPDEST PUSH1 0x40 MLOAD DUP1 SWAP2 SUB SWAP1 REVERT JUMPDEST PUSH0 PUSH2 0x429 CALLVALUE PUSH2 0x372 JUMP JUMPDEST SWAP1 POP PUSH2 0x448 CALLER DUP3 PUSH2 0x439 CALLER PUSH2 0x509 JUMP JUMPDEST PUSH2 0x443 SWAP2 SWAP1 PUSH2 0xA9A JUMP JUMPDEST PUSH2 0x635 JUMP JUMPDEST PUSH2 0x482 DUP2 PUSH2 0x454 PUSH2 0x4DB JUMP JUMPDEST PUSH2 0x45E SWAP2 SWAP1 PUSH2 0xA9A JUMP JUMPDEST PUSH32 0xE3B4B636E601189B5F4C6742EDF2538AC12BB61ED03E6DA26949D69838FA447E SSTORE JUMP JUMPDEST PUSH2 0x3D2 CALLER CALLVALUE PUSH2 0x5FD JUMP JUMPDEST PUSH0 PUSH2 0x36C PUSH2 0x21A DUP4 PUSH2 0x509 JUMP JUMPDEST PUSH0 PUSH2 0x4A2 PUSH2 0x4DB JUMP JUMPDEST PUSH0 SUB PUSH2 0x4AF JUMPI POP PUSH0 SWAP2 SWAP1 POP JUMP JUMPDEST PUSH2 0x4B7 PUSH2 0x4DB JUMP JUMPDEST PUSH1 0x2 SLOAD PUSH2 0x391 JUMP JUMPDEST PUSH1 0x60 PUSH1 0x4 DUP1 SLOAD PUSH2 0x2D8 SWAP1 PUSH2 0xA18 JUMP JUMPDEST PUSH0 CALLER PUSH2 0x366 DUP2 DUP6 DUP6 PUSH2 0x5A0 JUMP JUMPDEST PUSH0 PUSH2 0x504 PUSH32 0xE3B4B636E601189B5F4C6742EDF2538AC12BB61ED03E6DA26949D69838FA447E SLOAD SWAP1 JUMP JUMPDEST SWAP1 POP SWAP1 JUMP JUMPDEST PUSH0 PUSH2 0x36C DUP3 PUSH2 0x69D JUMP JUMPDEST PUSH2 0x520 DUP4 DUP4 DUP4 PUSH1 0x1 PUSH2 0x70D JUMP JUMPDEST POP POP POP JUMP JUMPDEST PUSH1 0x1 PUSH1 0x1 PUSH1 0xA0 SHL SUB DUP4 DUP2 AND PUSH0 SWAP1 DUP2 MSTORE PUSH1 0x1 PUSH1 0x20 SWAP1 DUP2 MSTORE PUSH1 0x40 DUP1 DUP4 KECCAK256 SWAP4 DUP7 AND DUP4 MSTORE SWAP3 SWAP1 MSTORE KECCAK256 SLOAD PUSH0 NOT DUP2 EQ PUSH2 0x59A JUMPI DUP2 DUP2 LT ISZERO PUSH2 0x58C JUMPI PUSH1 0x40 MLOAD PUSH4 0x7DC7A0D9 PUSH1 0xE1 SHL DUP2 MSTORE PUSH1 0x1 PUSH1 0x1 PUSH1 0xA0 SHL SUB DUP5 AND PUSH1 0x4 DUP3 ADD MSTORE PUSH1 0x24 DUP2 ADD DUP3 SWAP1 MSTORE PUSH1 0x44 DUP2 ADD DUP4 SWAP1 MSTORE PUSH1 0x64 ADD PUSH2 0x416 JUMP JUMPDEST PUSH2 0x59A DUP5 DUP5 DUP5 DUP5 SUB PUSH0 PUSH2 0x70D JUMP JUMPDEST POP POP POP POP JUMP JUMPDEST PUSH1 0x1 PUSH1 0x1 PUSH1 0xA0 SHL SUB DUP4 AND PUSH2 0x5C9 JUMPI PUSH1 0x40 MLOAD PUSH4 0x4B637E8F PUSH1 0xE1 SHL DUP2 MSTORE PUSH0 PUSH1 0x4 DUP3 ADD MSTORE PUSH1 0x24 ADD PUSH2 0x416 JUMP JUMPDEST PUSH1 0x1 PUSH1 0x1 PUSH1 0xA0 SHL SUB DUP3 AND PUSH2 0x5F2 JUMPI PUSH1 0x40 MLOAD PUSH4 0xEC442F05 PUSH1 0xE0 SHL DUP2 MSTORE PUSH0 PUSH1 0x4 DUP3 ADD MSTORE PUSH1 0x24 ADD PUSH2 0x416 JUMP JUMPDEST PUSH2 0x520 DUP4 DUP4 DUP4 PUSH2 0x7DF JUMP JUMPDEST PUSH1 0x1 PUSH1 0x1 PUSH1 0xA0 SHL SUB DUP3 AND PUSH2 0x626 JUMPI PUSH1 0x40 MLOAD PUSH4 0xEC442F05 PUSH1 0xE0 SHL DUP2 MSTORE PUSH0 PUSH1 0x4 DUP3 ADD MSTORE PUSH1 0x24 ADD PUSH2 0x416 JUMP JUMPDEST PUSH2 0x631 PUSH0 DUP4 DUP4 PUSH2 0x7DF JUMP JUMPDEST POP POP JUMP JUMPDEST PUSH1 0x40 MLOAD PUSH12 0xFFFFFFFFFFFFFFFFFFFFFFFF NOT PUSH1 0x60 DUP5 SWAP1 SHL AND PUSH1 0x20 DUP3 ADD MSTORE PUSH32 0x101B73CB67A778893EA0C666939F8923C501A5D4CD59D1ECF919B502247B5B0C PUSH1 0x34 DUP3 ADD MSTORE PUSH0 SWAP1 PUSH1 0x54 ADD PUSH1 0x40 MLOAD PUSH1 0x20 DUP2 DUP4 SUB SUB DUP2 MSTORE SWAP1 PUSH1 0x40 MSTORE DUP1 MLOAD SWAP1 PUSH1 0x20 ADD KECCAK256 SWAP1 POP PUSH2 0x520 DUP2 DUP4 SWAP1 SSTORE JUMP JUMPDEST PUSH1 0x40 MLOAD PUSH12 0xFFFFFFFFFFFFFFFFFFFFFFFF NOT PUSH1 0x60 DUP4 SWAP1 SHL AND PUSH1 0x20 DUP3 ADD MSTORE PUSH32 0x101B73CB67A778893EA0C666939F8923C501A5D4CD59D1ECF919B502247B5B0C PUSH1 0x34 DUP3 ADD MSTORE PUSH0 SWAP1 DUP2 SWAP1 PUSH1 0x54 ADD PUSH1 0x40 MLOAD PUSH1 0x20 DUP2 DUP4 SUB SUB DUP2 MSTORE SWAP1 PUSH1 0x40 MSTORE DUP1 MLOAD SWAP1 PUSH1 0x20 ADD KECCAK256 SWAP1 POP PUSH2 0x706 DUP2 SLOAD SWAP1 JUMP JUMPDEST SWAP4 SWAP3 POP POP POP JUMP JUMPDEST PUSH1 0x1 PUSH1 0x1 PUSH1 0xA0 SHL SUB DUP5 AND PUSH2 0x736 JUMPI PUSH1 0x40 MLOAD PUSH4 0xE602DF05 PUSH1 0xE0 SHL DUP2 MSTORE PUSH0 PUSH1 0x4 DUP3 ADD MSTORE PUSH1 0x24 ADD PUSH2 0x416 JUMP JUMPDEST PUSH1 0x1 PUSH1 0x1 PUSH1 0xA0 SHL SUB DUP4 AND PUSH2 0x75F JUMPI PUSH1 0x40 MLOAD PUSH4 0x4A1406B1 PUSH1 0xE1 SHL DUP2 MSTORE PUSH0 PUSH1 0x4 DUP3 ADD MSTORE PUSH1 0x24 ADD PUSH2 0x416 JUMP JUMPDEST PUSH1 0x1 PUSH1 0x1 PUSH1 0xA0 SHL SUB DUP1 DUP6 AND PUSH0 SWAP1 DUP2 MSTORE PUSH1 0x1 PUSH1 0x20 SWAP1 DUP2 MSTORE PUSH1 0x40 DUP1 DUP4 KECCAK256 SWAP4 DUP8 AND DUP4 MSTORE SWAP3 SWAP1 MSTORE KECCAK256 DUP3 SWAP1 SSTORE DUP1 ISZERO PUSH2 0x59A JUMPI DUP3 PUSH1 0x1 PUSH1 0x1 PUSH1 0xA0 SHL SUB AND DUP5 PUSH1 0x1 PUSH1 0x1 PUSH1 0xA0 SHL SUB AND PUSH32 0x8C5BE1E5EBEC7D5BD14F71427D1E84F3DD0314C0F7B2291E5B200AC8C7C3B925 DUP5 PUSH1 0x40 MLOAD PUSH2 0x7D1 SWAP2 DUP2 MSTORE PUSH1 0x20 ADD SWAP1 JUMP JUMPDEST PUSH1 0x40 MLOAD DUP1 SWAP2 SUB SWAP1 LOG3 POP POP POP POP JUMP JUMPDEST PUSH1 0x1 PUSH1 0x1 PUSH1 0xA0 SHL SUB DUP4 AND PUSH2 0x809 JUMPI DUP1 PUSH1 0x2 PUSH0 DUP3 DUP3 SLOAD PUSH2 0x7FE SWAP2 SWAP1 PUSH2 0xA9A JUMP JUMPDEST SWAP1 SWAP2 SSTORE POP PUSH2 0x879 SWAP1 POP JUMP JUMPDEST PUSH1 0x1 PUSH1 0x1 PUSH1 0xA0 SHL SUB DUP4 AND PUSH0 SWAP1 DUP2 MSTORE PUSH1 0x20 DUP2 SWAP1 MSTORE PUSH1 0x40 SWAP1 KECCAK256 SLOAD DUP2 DUP2 LT ISZERO PUSH2 0x85B JUMPI PUSH1 0x40 MLOAD PUSH4 0x391434E3 PUSH1 0xE2 SHL DUP2 MSTORE PUSH1 0x1 PUSH1 0x1 PUSH1 0xA0 SHL SUB DUP6 AND PUSH1 0x4 DUP3 ADD MSTORE PUSH1 0x24 DUP2 ADD DUP3 SWAP1 MSTORE PUSH1 0x44 DUP2 ADD DUP4 SWAP1 MSTORE PUSH1 0x64 ADD PUSH2 0x416 JUMP JUMPDEST PUSH1 0x1 PUSH1 0x1 PUSH1 0xA0 SHL SUB DUP5 AND PUSH0 SWAP1 DUP2 MSTORE PUSH1 0x20 DUP2 SWAP1 MSTORE PUSH1 0x40 SWAP1 KECCAK256 SWAP1 DUP3 SWAP1 SUB SWAP1 SSTORE JUMPDEST PUSH1 0x1 PUSH1 0x1 PUSH1 0xA0 SHL SUB DUP3 AND PUSH2 0x895 JUMPI PUSH1 0x2 DUP1 SLOAD DUP3 SWAP1 SUB SWAP1 SSTORE PUSH2 0x8B3 JUMP JUMPDEST PUSH1 0x1 PUSH1 0x1 PUSH1 0xA0 SHL SUB DUP3 AND PUSH0 SWAP1 DUP2 MSTORE PUSH1 0x20 DUP2 SWAP1 MSTORE PUSH1 0x40 SWAP1 KECCAK256 DUP1 SLOAD DUP3 ADD SWAP1 SSTORE JUMPDEST DUP2 PUSH1 0x1 PUSH1 0x1 PUSH1 0xA0 SHL SUB AND DUP4 PUSH1 0x1 PUSH1 0x1 PUSH1 0xA0 SHL SUB AND PUSH32 0xDDF252AD1BE2C89B69C2B068FC378DAA952BA7F163C4A11628F55A4DF523B3EF DUP4 PUSH1 0x40 MLOAD PUSH2 0x8F8 SWAP2 DUP2 MSTORE PUSH1 0x20 ADD SWAP1 JUMP JUMPDEST PUSH1 0x40 MLOAD DUP1 SWAP2 SUB SWAP1 LOG3 POP POP POP JUMP JUMPDEST PUSH1 0x20 DUP2 MSTORE PUSH0 DUP3 MLOAD DUP1 PUSH1 0x20 DUP5 ADD MSTORE DUP1 PUSH1 0x20 DUP6 ADD PUSH1 0x40 DUP6 ADD MCOPY PUSH0 PUSH1 0x40 DUP3 DUP6 ADD ADD MSTORE PUSH1 0x40 PUSH1 0x1F NOT PUSH1 0x1F DUP4 ADD AND DUP5 ADD ADD SWAP2 POP POP SWAP3 SWAP2 POP POP JUMP JUMPDEST DUP1 CALLDATALOAD PUSH1 0x1 PUSH1 0x1 PUSH1 0xA0 SHL SUB DUP2 AND DUP2 EQ PUSH2 0x950 JUMPI PUSH0 PUSH0 REVERT JUMPDEST SWAP2 SWAP1 POP JUMP JUMPDEST PUSH0 PUSH0 PUSH1 0x40 DUP4 DUP6 SUB SLT ISZERO PUSH2 0x966 JUMPI PUSH0 PUSH0 REVERT JUMPDEST PUSH2 0x96F DUP4 PUSH2 0x93A JUMP JUMPDEST SWAP5 PUSH1 0x20 SWAP4 SWAP1 SWAP4 ADD CALLDATALOAD SWAP4 POP POP POP JUMP JUMPDEST PUSH0 PUSH1 0x20 DUP3 DUP5 SUB SLT ISZERO PUSH2 0x98D JUMPI PUSH0 PUSH0 REVERT JUMPDEST POP CALLDATALOAD SWAP2 SWAP1 POP JUMP JUMPDEST PUSH0 PUSH0 PUSH0 PUSH1 0x60 DUP5 DUP7 SUB SLT ISZERO PUSH2 0x9A6 JUMPI PUSH0 PUSH0 REVERT JUMPDEST PUSH2 0x9AF DUP5 PUSH2 0x93A JUMP JUMPDEST SWAP3 POP PUSH2 0x9BD PUSH1 0x20 DUP6 ADD PUSH2 0x93A JUMP JUMPDEST SWAP3 SWAP6 SWAP3 SWAP5 POP POP POP PUSH1 0x40 SWAP2 SWAP1 SWAP2 ADD CALLDATALOAD SWAP1 JUMP JUMPDEST PUSH0 PUSH1 0x20 DUP3 DUP5 SUB SLT ISZERO PUSH2 0x9DE JUMPI PUSH0 PUSH0 REVERT JUMPDEST PUSH2 0x706 DUP3 PUSH2 0x93A JUMP JUMPDEST PUSH0 PUSH0 PUSH1 0x40 DUP4 DUP6 SUB SLT ISZERO PUSH2 0x9F8 JUMPI PUSH0 PUSH0 REVERT JUMPDEST PUSH2 0xA01 DUP4 PUSH2 0x93A JUMP JUMPDEST SWAP2 POP PUSH2 0xA0F PUSH1 0x20 DUP5 ADD PUSH2 0x93A JUMP JUMPDEST SWAP1 POP SWAP3 POP SWAP3 SWAP1 POP JUMP JUMPDEST PUSH1 0x1 DUP2 DUP2 SHR SWAP1 DUP3 AND DUP1 PUSH2 0xA2C JUMPI PUSH1 0x7F DUP3 AND SWAP2 POP JUMPDEST PUSH1 0x20 DUP3 LT DUP2 SUB PUSH2 0xA4A JUMPI PUSH4 0x4E487B71 PUSH1 0xE0 SHL PUSH0 MSTORE PUSH1 0x22 PUSH1 0x4 MSTORE PUSH1 0x24 PUSH0 REVERT JUMPDEST POP SWAP2 SWAP1 POP JUMP JUMPDEST PUSH4 0x4E487B71 PUSH1 0xE0 SHL PUSH0 MSTORE PUSH1 0x11 PUSH1 0x4 MSTORE PUSH1 0x24 PUSH0 REVERT JUMPDEST DUP1 DUP3 MUL DUP2 ISZERO DUP3 DUP3 DIV DUP5 EQ OR PUSH2 0x36C JUMPI PUSH2 0x36C PUSH2 0xA50 JUMP JUMPDEST PUSH0 DUP3 PUSH2 0xA95 JUMPI PUSH4 0x4E487B71 PUSH1 0xE0 SHL PUSH0 MSTORE PUSH1 0x12 PUSH1 0x4 MSTORE PUSH1 0x24 PUSH0 REVERT JUMPDEST POP DIV SWAP1 JUMP JUMPDEST DUP1 DUP3 ADD DUP1 DUP3 GT ISZERO PUSH2 0x36C JUMPI PUSH2 0x36C PUSH2 0xA50 JUMP INVALID LOG2 PUSH5 0x6970667358 0x22 SLT KECCAK256 0xAB PUSH6 0x84CABB7D0A80 PUSH0 SWAP5 AND 0xF OR 0xE5 PUSH12 0x31C32700F3D282DB8A8326A3 SELFDESTRUCT MLOAD 0xCB 0xE INVALID PUSH5 0x736F6C6343 STOP ADDMOD SHR STOP CALLER "
				},
				"gasEstimates": {
					"creation": {
						"codeDepositCost": "557400",
						"executionCost": "infinite",
						"totalCost": "infinite"
					},
					"external": {
						"allowance(address,address)": "infinite",
						"approve(address,uint256)": "24757",
						"balanceOf(address)": "infinite",
						"decimals()": "243",
						"distributeRewards(uint256)": "50968",
						"getPooledEthByShares(uint256)": "infinite",
						"getSharesByPooledEth(uint256)": "infinite",
						"getTotalShares()": "2372",
						"name()": "infinite",
						"sharesOf(address)": "infinite",
						"submit()": "infinite",
						"symbol()": "infinite",
						"totalSupply()": "2348",
						"transfer(address,uint256)": "51237",
						"transferFrom(address,address,uint256)": "infinite"
					},
					"internal": {
						"_getShares(address)": "infinite",
						"_setShares(address,uint256)": "infinite"
					}
				},
				"methodIdentifiers": {
					"allowance(address,address)": "dd62ed3e",
					"approve(address,uint256)": "095ea7b3",
					"balanceOf(address)": "70a08231",
					"decimals()": "313ce567",
					"distributeRewards(uint256)": "59974e38",
					"getPooledEthByShares(uint256)": "7a28fb88",
					"getSharesByPooledEth(uint256)": "19208451",
					"getTotalShares()": "d5002f2e",
					"name()": "06fdde03",
					"sharesOf(address)": "f5eb42dc",
					"submit()": "5bcb2fc6",
					"symbol()": "95d89b41",
					"totalSupply()": "18160ddd",
					"transfer(address,uint256)": "a9059cbb",
					"transferFrom(address,address,uint256)": "23b872dd"
				}
			},
			"storageLayout": {
				"storage": [
					{
						"astId": 159,
						"contract": "src/mocks/MockStETH.sol:MockStETH",
						"label": "_balances",
						"offset": 0,
						"slot": "0",
						"type": "t_mapping(t_address,t_uint256)"
					},
					{
						"astId": 165,
						"contract": "src/mocks/MockStETH.sol:MockStETH",
						"label": "_allowances",
						"offset": 0,
						"slot": "1",
						"type": "t_mapping(t_address,t_mapping(t_address,t_uint256))"
					},
					{
						"astId": 167,
						"contract": "src/mocks/MockStETH.sol:MockStETH",
						"label": "_totalSupply",
						"offset": 0,
						"slot": "2",
						"type": "t_uint256"
					},
					{
						"astId": 169,
						"contract": "src/mocks/MockStETH.sol:MockStETH",
						"label": "_name",
						"offset": 0,
						"slot": "3",
						"type": "t_string_storage"
					},
					{
						"astId": 171,
						"contract": "src/mocks/MockStETH.sol:MockStETH",
						"label": "_symbol",
						"offset": 0,
						"slot": "4",
						"type": "t_string_storage"
					}
				],
				"types": {
					"t_address": {
						"encoding": "inplace",
						"label": "address",
						"numberOfBytes": "20"
					},
					"t_mapping(t_address,t_mapping(t_address,t_uint256))": {
						"encoding": "mapping",
						"key": "t_address",
						"label": "mapping(address => mapping(address => uint256))",
						"numberOfBytes": "32",
						"value": "t_mapping(t_address,t_uint256)"
					},
					"t_mapping(t_address,t_uint256)": {
						"encoding": "mapping",
						"key": "t_address",
						"label": "mapping(address => uint256)",
						"numberOfBytes": "32",
						"value": "t_uint256"
					},
					"t_string_storage": {
						"encoding": "bytes",
						"label": "string",
						"numberOfBytes": "32"
					},
					"t_uint256": {
						"encoding": "inplace",
						"label": "uint256",
						"numberOfBytes": "32"
					}
				}
			},
			"userdoc": {
				"kind": "user",
				"methods": {},
				"version": 1
			}
		}
	}
}